S350  001LSERV            2012-12-31                                                                                      99930   99910   10000   01000   BRIDS     30ABBb781ca0260a1                                                                                          074014500357                              120+0000000700000000001TERER DF DFDG                           1987-10-10+100000+100000001  WAFA 2010-01-10                     +00000000000000000003   +000000000+00000000000000000+00000000000000000+0000000000000-00-0000000-00-00+00000000500000000+00000000500000000+000000005000000000000-00-00+000000000000000002012-04-02+000000000000000002012-04-02 0000-00-00+00000000000000000+00000000000000000+00000000000000000MAD10000100000000+00000000000000000+00000000000000000+00000000000000000+00000000000000000                         0000-00-00MAD0000000000000
S350  001LSERV            2012-12-31                                                                                      99930   99910   10000   01000   BRIDS     30CC000000000                                                                                              074013641801                              120+0000000700000000001nom                                     1963-05-22+100000+100000003  WAFA 2010-01-10                     +000000000000000005     +000000000+00000000000000000+00000000000003000+0000000002012-12-3100000-00-00+00000000372795720+00000000372795720+000000005000000000000-00-00+000000000000000002012-06-02+000000000000000002012-06-02 0000-00-00+00000000000000000+00000000000000000+00000000000000000MAD10000100000000+00000000000000000+00000000000000000+00000000000000000+00000000000000000                         0000-00-00MAD0000000000000
S350  001LSERV            2012-12-31                                                                                      99930   99910   10000   01000   BRIDS     30CC000000000                                                                                              074013641801                              120+0000000700000000002nom                                     1966-03-29+100000+100000001  WAFA 2010-01-10                     +00000000000000000001   +000000000+00000000000000000+00000000000125020+0000332002012-12-3100000-00-00+00000000372795720+00000000372795720+000000005000000000000-00-00+000000000000000002012-06-02+000000000000000002012-06-02 0000-00-00+00000000000000000+00000000000000000+00000000000000000MAD10000100000000+00000000000000000+00000000000000000+00000000000000000+00000000000000000                         0000-00-00MAD0000000000000
S350  001LSERV            2012-12-31                                                                                      99930   99919   03000   10900   BRIDS     30CC101000131                                                                                              074013641801                              120+0000000060000000001EL YOUSFI BRAHIM                        1994-01-17+100000+100000004  WAFA 2010-01-01                     +00000000000000000003   +000000000+00000000000000000+00000000000001440+0000018912012-12-3100000-00-00+00000000075158880+00000000075158880+000000001000000000000-00-00+000000000000000002011-03-11+000000000000000002011-03-11 0000-00-00+00000000000000000+00000000000000000+00000000000000000MAD10000100000000+00000000000000000+00000000000000000+00000000000000000+00000000000000000                         0000-00-00MAD0000000000000
S350  001LSERV            2012-12-31                                                                                      99930   99919   03000   10900   BRIDS     30CC101000131                                                                                              074013641801                              120+0000000060000000040EL YOUSFI BRAHIM                        1994-01-17+100000+100000004  WAFA 2010-01-010101S01              +00000000000000000H03   +000000000+00000000000000000+00000000000000000+0000000002012-12-3100000-00-00+00000000075158880+00000000075158880+000000001000000000000-00-00+000000000000000002011-03-11+000000000000000002011-03-11 0000-00-00+00000000000000000+00000000000000000+00000000000000000MAD10000100000000+00000000000000000+00000000000000000+00000000000000000+00000000000000000                         0000-00-00MAD0000000000000
S350  001LSERV            2012-12-31                                                                                      99930   99910   10000   01000   BRIDS     30CC101000196                                                                                              074014507708                              120+0000000015000000002HADDAOUI MUSTAPHA                       1980-01-01+100000+100000004  WAFA 2010-01-01                     +00000000000000000203   +000000000+00000000000000000+00000000000002360+0000018912012-12-1500000-00-00+00000000123316770+00000000123316770+000000001500000000000-00-00+000000000000000002010-12-06+000000000000000002010-12-06 0000-00-00+00000000000000000+00000000000000000+00000000000000000MAD10000100000000+00000000000000000+00000000000000000+00000000000000000+00000000000000000                         0000-00-00MAD0000000000000
S350  001LSERV            2012-12-31                                                                                      99930   99910   10000   01000   BRIDS     30CC101000196                                                                                              074014507708                              120+0000000015000000039HADDAOUI MUSTAPHA                       1980-01-01+100000+100000004  WAFA 2010-01-010201S01              +00000000000000000H     +000000000+00000000000000000+00000000000000000+0000000002012-12-1500000-00-00+00000000123316770+00000000123316770+000000001500000000000-00-00+000000000000000002010-12-06+000000000000000002010-12-06 0000-00-00+00000000000000000+00000000000000000+00000000000000000MAD10000100000000+00000000000000000+00000000000000000+00000000000000000+00000000000000000                         0000-00-00MAD0000000000000
S350  001LSERV            2012-12-31                                                                                      99930   99910   10000   01000   BRIDS     30CC101000205                                                                                              074014507720                              100+0000000022500000001HADDAOUI MUSTAPHA                       1971-01-31+100000+100000004  WAFA 2010-01-01                     +00000000000000000203   +000000000+00000000000000000+00000000000003450+0000018912012-12-1500000-00-00+00000000180118550+00000000180118550+000000002250000000000-00-00+000000000000000002010-12-06+000000000000000002010-12-06 0000-00-00+00000000000000000+00000000000000000+00000000000000000MAD10000100000000+00000000000000000+00000000000000000+00000000000000000+00000000000000000                         0000-00-00MAD0000000000000
S350  001LSERV            2012-12-31                                                                                      99930   99910   10000   01000   BRIDS     30CC101000205                                                                                              074014507720                              100+0000000022500000040HADDAOUI MUSTAPHA                       1971-01-31+100000+100000004  WAFA 2010-01-010101S01              +00000000000000000H     +000000000+00000000000000000+00000000000000000+0000000002012-12-1500000-00-00+00000000180118550+00000000180118550+000000002250000000000-00-00+000000000000000002010-12-06+000000000000000002010-12-06 0000-00-00+00000000000000000+00000000000000000+00000000000000000MAD10000100000000+00000000000000000+00000000000000000+00000000000000000+00000000000000000                         0000-00-00MAD0000000000000
S350  001LSERV            2012-12-31                                                                                      99930   99910   10000   01000   BRIDS     30CC101000214                                                                                              074014507708                              060+0000000005000000001HADDAOUI MUSTAPHA                       1990-01-01+100000+100000004  WAFA 2010-01-01                     +00000000000000000203   +000000000+00000000000000000+00000000000000540+0000018912012-12-1500000-00-00+00000000027431930+00000000027431930+000000000500000000000-00-00+000000000000000002010-12-06+000000000000000002010-12-06 0000-00-00+00000000000000000+00000000000000000+00000000000000000MAD10000100000000+00000000000000000+00000000000000000+00000000000000000+00000000000000000                         0000-00-00MAD0000000000000
S350  001LSERV            2012-12-31                                                                                      99930   99910   10000   01000   BRIDS     30CC101000214                                                                                              074014507708                              060+0000000005000000040HADDAOUI MUSTAPHA                       1990-01-01+100000+100000004  WAFA 2010-01-010101S01              +00000000000000000H     +000000000+00000000000000000+00000000000000000+0000000002012-12-1500000-00-00+00000000027431930+00000000027431930+000000000500000000000-00-00+000000000000000002010-12-06+000000000000000002010-12-06 0000-00-00+00000000000000000+00000000000000000+00000000000000000MAD10000100000000+00000000000000000+00000000000000000+00000000000000000+00000000000000000                         0000-00-00MAD0000000000000
S350  001LSERV            2012-12-31                                                                                      99930   99910   10000   01000   BRIDS     30CC101000218                                                                                              074014507720                              120+0000000006000000001HADDAOUI MUSTAPHA                       1990-01-01+100000+100000004  WAFA 2010-01-01                     +00000000000000000203   +000000000+00000000000000000+00000000000000940+0000018912012-12-1500000-00-00+00000000049326700+00000000049326700+000000000600000000000-00-00+000000000000000002010-12-06+000000000000000002010-12-06 0000-00-00+00000000000000000+00000000000000000+00000000000000000MAD10000100000000+00000000000000000+00000000000000000+00000000000000000+00000000000000000                         0000-00-00MAD0000000000000
S350  001LSERV            2012-12-31                                                                                      99930   99910   10000   01000   BRIDS     30CC101000218                                                                                              074014507720                              120+0000000006000000040HADDAOUI MUSTAPHA                       1990-01-01+100000+100000004  WAFA 2010-01-010101S01              +00000000000000000H     +000000000+00000000000000000+00000000000000000+0000000002012-12-1500000-00-00+00000000049326700+00000000049326700+000000000600000000000-00-00+000000000000000002010-12-06+000000000000000002010-12-06 0000-00-00+00000000000000000+00000000000000000+00000000000000000MAD10000100000000+00000000000000000+00000000000000000+00000000000000000+00000000000000000                         0000-00-00MAD0000000000000
S350  001LSERV            2012-12-31                                                                                      99930   99910   10000   01000   BRIDS     30CC101000220                                                                                              074014507720                              072+0000000050000000001HADDAOUI MUSTAPHA                       1961-01-01+100000+100000004  WAFA 2010-01-01                     +00000000000000000205   +025000000+00000000000000000+00000000004583020+0020883832012-12-1500000-00-00+00000000215078000+00000000215078000+000000005000000000000-00-00+000000000000000002010-12-06+000000000000000002010-12-06 0000-00-00+00000000000000000+00000000000000000+00000000000000000MAD10000100000000+00000000000000000+00000000000000000+00000000000000000+00000000000000000                         0000-00-00MAD0000000000000
S350  001LSERV            2012-12-31                                                                                      99930   99910   10000   01000   BRIDS     30CC101000220                                                                                              074014507720                              072+0000000050000000040HADDAOUI MUSTAPHA                       1961-01-01+100000+100000004  WAFA 2010-01-010101S02              +00000000000000000H     +000000000+00000000000000000+00000000000179990+0000000002012-12-1500000-00-00+00000000215078000+00000000215078000+000000005000000000000-00-00+000000000000000002010-12-06+000000000000000002010-12-06 0000-00-00+00000000000000000+00000000000000000+00000000000000000MAD10000100000000+00000000000000000+00000000000000000+00000000000000000+00000000000000000                         0000-00-00MAD0000000000000
S350  001LSERV            2012-12-31                                                                                      99930   99910   10000   01000   BRIDS     30CC101000243                                                                                              074014507709                              012+0000000002000000001AJDID TARIK                             1990-01-01+100000+100000004  WAFA 2010-01-01                     +00000000000000000204   +000000000+00000000000000000+00000000000000000+0000000000000-00-0000000-00-00+00000000000000000+00000000000000000+000000000000000000000-00-00+000000000000000002010-12-06+000000000000000000000-00-00 0000-00-00+00000000000000000+00000000000000000+00000000000000000MAD10000100000000+00000000000000000+00000000000000000+00000000000000000+00000000000000000                         0000-00-00MAD0000000000000
S350  001LSERV            2012-12-31                                                                                      99930   99910   10000   01000   BRIDS     30CC101000243                                                                                              074014507709                              012+0000000002000000040AJDID TARIK                             1990-01-01+100000+100000004  WAFA 2010-01-010101S01              +00000000000000000H     +000000000+00000000000000000+00000000000000000+0000000000000-00-0000000-00-00+00000000000000000+00000000000000000+000000000000000000000-00-00+000000000000000002010-12-06+000000000000000000000-00-00 0000-00-00+00000000000000000+00000000000000000+00000000000000000MAD10000100000000+00000000000000000+00000000000000000+00000000000000000+00000000000000000                         0000-00-00MAD0000000000000
S350  001LSERV            2012-12-31                                                                                      99930   99910   10000   01000   BRIDS     30CC101000245                                                                                              074014507709                              120+0000000005000000001AJDID TARIK                             1990-01-01+100000+100000004  WAFA 2010-01-01                     +00000000000000000204   +000000000+00000000000000000+00000000000000000+0000000000000-00-0000000-00-00+00000000000000000+00000000000000000+000000000000000000000-00-00+000000000000000002010-12-06+000000000000000000000-00-00 0000-00-00+00000000000000000+00000000000000000+00000000000000000MAD10000100000000+00000000000000000+00000000000000000+00000000000000000+00000000000000000                         0000-00-00MAD0000000000000
S350  001LSERV            2012-12-31                                                                                      99930   99910   10000   01000   BRIDS     30CC101000245                                                                                              074014507709                              120+0000000005000000040AJDID TARIK                             1990-01-01+100000+100000004  WAFA 2010-01-010101S01              +00000000000000000H     +000000000+00000000000000000+00000000000000000+0000000000000-00-0000000-00-00+00000000000000000+00000000000000000+000000000000000000000-00-00+000000000000000002010-12-06+000000000000000000000-00-00 0000-00-00+00000000000000000+00000000000000000+00000000000000000MAD10000100000000+00000000000000000+00000000000000000+00000000000000000+00000000000000000                         0000-00-00MAD0000000000000
S350  001LSERV            2012-12-31                                                                                      99930   99910   10000   01000   BRIDS     30CC101000253                                                                                              074014507709                              120+0000000005000000001AJDID TARIK                             1990-01-01+100000+100000004  WAFA 2010-01-01                     +00000000000000000203   +000000000+00000000000000000+00000000000000000+0000018912012-12-1500000-00-00+00000000000000000+00000000000000000+000000000000000000000-00-00+000000000000000002010-12-06+000000000000000002010-12-06 0000-00-00+00000000000000000+00000000000000000+00000000000000000MAD10000100000000+00000000000000000+00000000000000000+00000000000000000+00000000000000000                         0000-00-00MAD0000000000000
S350  001LSERV            2012-12-31                                                                                      99930   99910   10000   01000   BRIDS     30CC101000253                                                                                              074014507709                              120+0000000005000000040AJDID TARIK                             1990-01-01+100000+100000004  WAFA 2010-01-010101S01              +00000000000000000H     +000000000+00000000000000000+00000000000000000+0000000002012-12-1500000-00-00+00000000000000000+00000000000000000+000000000000000000000-00-00+000000000000000002010-12-06+000000000000000002010-12-06 0000-00-00+00000000000000000+00000000000000000+00000000000000000MAD10000100000000+00000000000000000+00000000000000000+00000000000000000+00000000000000000                         0000-00-00MAD0000000000000
S350  001LSERV            2012-12-31                                                                                      99930   99910   10000   01000   BRIDS     30CC101000254                                                                                              074014507709                              120+0000000006000000001AJDID TARIK                             1990-01-01+100000+100000004  WAFA 2010-01-01                     +00000000000000000204   +000000000+00000000000000000+00000000000001130+0000022752012-12-1500000-00-00+00000000049368300+00000000049368300+000000000600000000000-00-00+000000000000000002010-12-06+000000000000000002010-12-06 0000-00-00+00000000000000000+00000000000000000+00000000000000000MAD10000100000000+00000000000000000+00000000000000000+00000000000000000+00000000000000000                         0000-00-00MAD0000000000000
S350  001LSERV            2012-12-31                                                                                      99930   99910   10000   01000   BRIDS     30CC101000254                                                                                              074014507709                              120+0000000006000000040AJDID TARIK                             1990-01-01+100000+100000004  WAFA 2010-01-010101S01              +00000000000000000H     +000000000+00000000000000000+00000000000000000+0000000002012-12-1500000-00-00+00000000049368300+00000000049368300+000000000600000000000-00-00+000000000000000002010-12-06+000000000000000002010-12-06 0000-00-00+00000000000000000+00000000000000000+00000000000000000MAD10000100000000+00000000000000000+00000000000000000+00000000000000000+00000000000000000                         0000-00-00MAD0000000000000
S350  001LSERV            2012-12-31                                                                                      99930   99910   10000   01000   BRIDS     30CC101000255                                                                                              074014507709                              120+0000000022000000001AJDID TARIK                             1990-01-01+100000+100000004  WAFA 2010-01-01                     +00000000000000000204   +000000000+00000000000000000+00000000000004160+0000022752012-12-1500000-00-00+00000000181017340+00000000181017340+000000002200000000000-00-00+000000000000000002010-12-06+000000000000000002010-12-06 0000-00-00+00000000000000000+00000000000000000+00000000000000000MAD10000100000000+00000000000000000+00000000000000000+00000000000000000+00000000000000000                         0000-00-00MAD0000000000000
S350  001LSERV            2012-12-31                                                                                      99930   99910   10000   01000   BRIDS     30CC101000255                                                                                              074014507709                              120+0000000022000000040AJDID TARIK                             1990-01-01+100000+100000004  WAFA 2010-01-010101S01              +00000000000000000H     +000000000+00000000000000000+00000000000000000+0000000002012-12-1500000-00-00+00000000181017340+00000000181017340+000000002200000000000-00-00+000000000000000002010-12-06+000000000000000002010-12-06 0000-00-00+00000000000000000+00000000000000000+00000000000000000MAD10000100000000+00000000000000000+00000000000000000+00000000000000000+00000000000000000                         0000-00-00MAD0000000000000
S350  001LSERV            2012-12-31                                                                                      99930   99910   10000   01000   BRIDS     30CC101000262                                                                                              074014507714                              120+0000000006000000001AJDID TARIK                             1988-09-05+100000+100000004  WAFA 2010-01-01                     +00000000000000000204   +000000000+00000000000000000+00000000000000000+0000000000000-00-0000000-00-00+00000000000000000+00000000000000000+000000000000000000000-00-00+000000000000000002010-12-06+000000000000000000000-00-00 0000-00-00+00000000000000000+00000000000000000+00000000000000000MAD10000100000000+00000000000000000+00000000000000000+00000000000000000+00000000000000000                         0000-00-00MAD0000000000000
S350  001LSERV            2012-12-31                                                                                      99930   99910   10000   01000   BRIDS     30CC101000262                                                                                              074014507714                              120+0000000006000000040AJDID TARIK                             1988-09-05+100000+100000004  WAFA 2010-01-010101S01              +00000000000000000H04   +000000000+00000000000000000+00000000000000000+0000000000000-00-0000000-00-00+00000000000000000+00000000000000000+000000000000000000000-00-00+000000000000000002010-12-06+000000000000000000000-00-00 0000-00-00+00000000000000000+00000000000000000+00000000000000000MAD10000100000000+00000000000000000+00000000000000000+00000000000000000+00000000000000000                         0000-00-00MAD0000000000000
S350  001LSERV            2012-12-31                                                                                      99930   99910   10000   01000   BRIDS     30CC101000272                                                                                              074014507709                              060+0000000003000000001AJDID TARIK                             1990-01-01+100000+100000004  WAFA 2010-01-01                     +00000000000000000204   +000000000+00000000000000000+00000000000000390+0000022752012-12-1500000-00-00+00000000016477560+00000000016477560+000000000300000000000-00-00+000000000000000002010-12-06+000000000000000002010-12-06 0000-00-00+00000000000000000+00000000000000000+00000000000000000MAD10000100000000+00000000000000000+00000000000000000+00000000000000000+00000000000000000                         0000-00-00MAD0000000000000
S350  001LSERV            2012-12-31                                                                                      99930   99910   10000   01000   BRIDS     30CC101000272                                                                                              074014507709                              060+0000000003000000040AJDID TARIK                             1990-01-01+100000+100000004  WAFA 2010-01-010101S01              +00000000000000000H04   +000000000+00000000000000000+00000000000000000+0000000002012-12-1500000-00-00+00000000016477560+00000000016477560+000000000300000000000-00-00+000000000000000002010-12-06+000000000000000002010-12-06 0000-00-00+00000000000000000+00000000000000000+00000000000000000MAD10000100000000+00000000000000000+00000000000000000+00000000000000000+00000000000000000                         0000-00-00MAD0000000000000
S350  001LSERV            2012-12-31                                                                                      99930   99910   10000   01000   BRIDS     30CC101000276                                                                                              074014507708                              120+0000000005000000001HADDAOUI MUSTAPHA                       1971-01-01+100000+100000004  WAFA 2010-01-01                     +00000000000000000206   +000000000+00000000000000000+00000000000000000+0000000000000-00-0000000-00-00+00000000000000000+00000000000000000+000000000000000000000-00-00+000000000000000002010-12-06+000000000000000000000-00-00 0000-00-00+00000000000000000+00000000000000000+00000000000000000MAD10000100000000+00000000000000000+00000000000000000+00000000000000000+00000000000000000                         0000-00-00MAD0000000000000
S350  001LSERV            2012-12-31                                                                                      99930   99910   10000   01000   BRIDS     30CC101000276                                                                                              074014507708                              120+0000000005000000040HADDAOUI MUSTAPHA                       1971-01-01+100000+100000004  WAFA 2010-01-010101S01              +00000000000000000H06   +000000000+00000000000000000+00000000000000000+0000000000000-00-0000000-00-00+00000000000000000+00000000000000000+000000000000000000000-00-00+000000000000000002010-12-06+000000000000000000000-00-00 0000-00-00+00000000000000000+00000000000000000+00000000000000000MAD10000100000000+00000000000000000+00000000000000000+00000000000000000+00000000000000000                         0000-00-00MAD0000000000000
S350  001LSERV            2012-12-31                                                                                      99930   99910   10000   01000   BRIDS     30CC101000308                                                                                              074014507733                              120+0000000027000000001AJDID TARIK                             1986-09-05+100000+100000004  WAFA 2010-02-06                     +00000000000000000204   +000000000+00000000000000000+00000000000005280+0000022752012-12-1500000-00-00+00000000230012310+00000000230012310+000000002700000000000-00-00+000000000000000002010-12-06+000000000000000002010-12-06 0000-00-00+00000000000000000+00000000000000000+00000000000000000MAD10000100000000+00000000000000000+00000000000000000+00000000000000000+00000000000000000                         0000-00-00MAD0000000000000
S350  001LSERV            2012-12-31                                                                                      99930   99910   10000   01000   BRIDS     30CC101000308                                                                                              074014507733                              120+0000000027000000040AJDID TARIK                             1986-09-05+100000+100000004  WAFA 2010-02-060101S01              +00000000000000000H04   +000000000+00000000000000000+00000000000000000+0000000002012-12-1500000-00-00+00000000230012310+00000000230012310+000000002700000000000-00-00+000000000000000002010-12-06+000000000000000002010-12-06 0000-00-00+00000000000000000+00000000000000000+00000000000000000MAD10000100000000+00000000000000000+00000000000000000+00000000000000000+00000000000000000                         0000-00-00MAD0000000000000
S350  001LSERV            2012-12-31                                                                                      99930   99910   10000   01000   BRIDS     30CC101000309                                                                                              074014507735                              120+0000000027000000001AJDID TARIK                             1977-09-08+100000+100000004  WAFA 2010-12-06                     +00000000000000000205   +000000000+00000000000000000+00000000000011780+0000050502012-12-1500000-00-00+00000000231395960+00000000231395960+000000002700000000000-00-00+000000000000000002010-12-06+000000000000000002010-12-06 0000-00-00+00000000000000000+00000000000000000+00000000000000000MAD10000100000000+00000000000000000+00000000000000000+00000000000000000+00000000000000000                         0000-00-00MAD0000000000000
S350  001LSERV            2012-12-31                                                                                      99930   99910   10000   01000   BRIDS     30CC101000309                                                                                              074014507735                              120+0000000027000000040AJDID TARIK                             1977-09-08+100000+100000004  WAFA 2010-12-060101S01              +00000000000000000H05   +000000000+00000000000000000+00000000000000000+0000000002012-12-1500000-00-00+00000000231395960+00000000231395960+000000002700000000000-00-00+000000000000000002010-12-06+000000000000000002010-12-06 0000-00-00+00000000000000000+00000000000000000+00000000000000000MAD10000100000000+00000000000000000+00000000000000000+00000000000000000+00000000000000000                         0000-00-00MAD0000000000000
S350  001LSERV            2012-12-31                                                                                      99930   99910   10000   01000   BRIDS     30CC101000311                                                                                              074014507733                              120+0000000027000000001AJDID TARIK                             1986-09-05+100000+100000004  WAFA 2010-12-06                     +00000000000000000204   +000000000+00000000000000000+00000000000005280+0000022752012-12-1500000-00-00+00000000230012310+00000000230012310+000000002700000000000-00-00+000000000000000002010-12-06+000000000000000002010-12-06 0000-00-00+00000000000000000+00000000000000000+00000000000000000MAD10000100000000+00000000000000000+00000000000000000+00000000000000000+00000000000000000                         0000-00-00MAD0000000000000
S350  001LSERV            2012-12-31                                                                                      99930   99910   10000   01000   BRIDS     30CC101000311                                                                                              074014507733                              120+0000000027000000040AJDID TARIK                             1986-09-05+100000+100000004  WAFA 2010-12-060101S01              +00000000000000000H04   +000000000+00000000000000000+00000000000000000+0000000002012-12-1500000-00-00+00000000230012310+00000000230012310+000000002700000000000-00-00+000000000000000002010-12-06+000000000000000002010-12-06 0000-00-00+00000000000000000+00000000000000000+00000000000000000MAD10000100000000+00000000000000000+00000000000000000+00000000000000000+00000000000000000                         0000-00-00MAD0000000000000
S350  001LSERV            2012-12-31                                                                                      99930   99910   10000   01000   BRIDS     30CC101000318                                                                                              074014507720                              120+0000000015000000001HADDAOUI MUSTAPHA                       1991-01-01+100000+100000004  WAFA 2010-01-01                     +00000000000000000204   +000000000+00000000000000000+00000000000002850+0000022752012-12-1500000-00-00+00000000124012060+00000000124012060+000000001500000000000-00-00+000000000000000002010-12-31+000000000000000002010-12-31 0000-00-00+00000000000000000+00000000000000000+00000000000000000MAD10000100000000+00000000000000000+00000000000000000+00000000000000000+00000000000000000                         0000-00-00MAD0000000000000
S350  001LSERV            2012-12-31                                                                                      99930   99910   10000   01000   BRIDS     30CC101000318                                                                                              074014507720                              120+0000000015000000040HADDAOUI MUSTAPHA                       1991-01-01+100000+100000004  WAFA 2010-01-010101S01              +00000000000000000H04   +000000000+00000000000000000+00000000000000000+0000000002012-12-1500000-00-00+00000000124012060+00000000124012060+000000001500000000000-00-00+000000000000000002010-12-31+000000000000000002010-12-31 0000-00-00+00000000000000000+00000000000000000+00000000000000000MAD10000100000000+00000000000000000+00000000000000000+00000000000000000+00000000000000000                         0000-00-00MAD0000000000000
S350  001LSERV            2012-12-31                                                                                      99930   99910   10000   01000   BRIDS     30CC101000319                                                                                              074014507720                              120+0000000005000000001HADDAOUI MUSTAPHA                       1991-01-01+100000+100000004  WAFA 2010-01-01                     +00000000000000000204   +000000000+00000000000000000+00000000000000950+0000022752012-12-1500000-00-00+00000000041337470+00000000041337470+000000000500000000000-00-00+000000000000000002010-12-31+000000000000000002010-12-31 0000-00-00+00000000000000000+00000000000000000+00000000000000000MAD10000100000000+00000000000000000+00000000000000000+00000000000000000+00000000000000000                         0000-00-00MAD0000000000000
S350  001LSERV            2012-12-31                                                                                      99930   99910   10000   01000   BRIDS     30CC101000319                                                                                              074014507720                              120+0000000005000000040HADDAOUI MUSTAPHA                       1991-01-01+100000+100000004  WAFA 2010-01-010101S01              +00000000000000000H04   +000000000+00000000000000000+00000000000000000+0000000002012-12-1500000-00-00+00000000041337470+00000000041337470+000000000500000000000-00-00+000000000000000002010-12-31+000000000000000002010-12-31 0000-00-00+00000000000000000+00000000000000000+00000000000000000MAD10000100000000+00000000000000000+00000000000000000+00000000000000000+00000000000000000                         0000-00-00MAD0000000000000
S350  001LSERV            2012-12-31                                                                                      99930   99910   10000   01000   BRIDS     30CC101000320                                                                                              074014507720                              120+0000000015000000001HADDAOUI MUSTAPHA                       1991-01-01+100000+100000004  WAFA 2010-01-01                     +00000000000000000204   +000000000+00000000000000000+00000000000000000+0000000000000-00-0000000-00-00+00000000000000000+00000000000000000+000000000000000000000-00-00+000000000000000002010-12-31+000000000000000000000-00-00 0000-00-00+00000000000000000+00000000000000000+00000000000000000MAD10000100000000+00000000000000000+00000000000000000+00000000000000000+00000000000000000                         0000-00-00MAD0000000000000
S350  001LSERV            2012-12-31                                                                                      99930   99910   10000   01000   BRIDS     30CC101000320                                                                                              074014507720                              120+0000000015000000040HADDAOUI MUSTAPHA                       1991-01-01+100000+100000004  WAFA 2010-01-010101S01              +00000000000000000H04   +000000000+00000000000000000+00000000000000000+0000000000000-00-0000000-00-00+00000000000000000+00000000000000000+000000000000000000000-00-00+000000000000000002010-12-31+000000000000000000000-00-00 0000-00-00+00000000000000000+00000000000000000+00000000000000000MAD10000100000000+00000000000000000+00000000000000000+00000000000000000+00000000000000000                         0000-00-00MAD0000000000000
S350  001LSERV            2012-12-31                                                                                      99930   99910   10000   01000   BRIDS     30CC101000328                                                                                              074014507708                              120+0000000006000000001HADDAOUI MUSTAPHA                       1971-01-01+100000+100000004  WAFA 2010-01-01                     +00000000000000000206   +000000000+00000000000000000+00000000000005850+0000114332012-12-1500000-00-00+00000000050700620+00000000050700620+000000000600000000000-00-00+000000000000000002011-01-01+000000000000000002011-01-01 0000-00-00+00000000000000000+00000000000000000+00000000000000000MAD10000100000000+00000000000000000+00000000000000000+00000000000000000+00000000000000000                         0000-00-00MAD0000000000000
S350  001LSERV            2012-12-31                                                                                      99930   99910   10000   01000   BRIDS     30CC101000328                                                                                              074014507708                              120+0000000006000000040HADDAOUI MUSTAPHA                       1971-01-01+100000+100000004  WAFA 2010-01-010101S01              +00000000000000000H06   +000000000+00000000000000000+00000000000000000+0000000002012-12-1500000-00-00+00000000050700620+00000000050700620+000000000600000000000-00-00+000000000000000002011-01-01+000000000000000002011-01-01 0000-00-00+00000000000000000+00000000000000000+00000000000000000MAD10000100000000+00000000000000000+00000000000000000+00000000000000000+00000000000000000                         0000-00-00MAD0000000000000
S350  001LSERV            2012-12-31                                                                                      99930   99910   10000   01000   BRIDS     30CC111000348                                                                                              074014507708                              120+0000000007500000001HADDAOUI MUSTAPHA                       1971-01-01+100000+100000004  WAFA 2010-12-20                     +00000000000000000204   +000000000+00000000000000000+00000000000001460+0000022752012-12-1500000-00-00+00000000063653590+00000000063653590+000000000750000000000-00-00+000000000000000002011-01-05+000000000000000002011-01-05 0000-00-00+00000000000000000+00000000000000000+00000000000000000MAD10000100000000+00000000000000000+00000000000000000+00000000000000000+00000000000000000                         0000-00-00MAD0000000000000
S350  001LSERV            2012-12-31                                                                                      99930   99910   10000   01000   BRIDS     30CC111000348                                                                                              074014507708                              120+0000000007500000040HADDAOUI MUSTAPHA                       1971-01-01+100000+100000004  WAFA 2010-12-200101S01              +00000000000000000H04   +000000000+00000000000000000+00000000000000000+0000000002012-12-1500000-00-00+00000000063653590+00000000063653590+000000000750000000000-00-00+000000000000000002011-01-05+000000000000000002011-01-05 0000-00-00+00000000000000000+00000000000000000+00000000000000000MAD10000100000000+00000000000000000+00000000000000000+00000000000000000+00000000000000000                         0000-00-00MAD0000000000000
S350  001LSERV            2012-12-31                                                                                      99930   99910   10000   01000   BRIDS     30CC111000350                                                                                              074014507735                              120+0000000002000000001AJDID TARIK                             1977-09-08+100000+100000004  WAFA 2010-12-01                     +00000000000000000204   +000000000+00000000000000000+00000000000000390+0000022752012-12-1500000-00-00+00000000016974190+00000000016974190+000000000200000000000-00-00+000000000000000002011-01-05+000000000000000002011-01-05 0000-00-00+00000000000000000+00000000000000000+00000000000000000MAD10000100000000+00000000000000000+00000000000000000+00000000000000000+00000000000000000                         0000-00-00MAD0000000000000
S350  001LSERV            2012-12-31                                                                                      99930   99910   10000   01000   BRIDS     30CC111000350                                                                                              074014507735                              120+0000000002000000040AJDID TARIK                             1977-09-08+100000+100000004  WAFA 2010-12-010101S01              +00000000000000000H04   +000000000+00000000000000000+00000000000000000+0000000002012-12-1500000-00-00+00000000016974190+00000000016974190+000000000200000000000-00-00+000000000000000002011-01-05+000000000000000002011-01-05 0000-00-00+00000000000000000+00000000000000000+00000000000000000MAD10000100000000+00000000000000000+00000000000000000+00000000000000000+00000000000000000                         0000-00-00MAD0000000000000
S350  001LSERV            2012-12-31                                                                                      99930   99910   10000   01000   BRIDS     30CC111000352                                                                                              074014507727                              060+0000000004500000001AJDID TARIK                             1980-01-01+100000+100000004  WAFA 2011-01-20                     +00000000000000000204   +000000000+00000000000000000+00000000000000690+0000022752012-12-1500000-00-00+00000000029808720+00000000029808720+000000000450000000000-00-00+000000000000000002011-02-01+000000000000000002011-02-01 0000-00-00+00000000000000000+00000000000000000+00000000000000000MAD10000100000000+00000000000000000+00000000000000000+00000000000000000+00000000000000000                         0000-00-00MAD0000000000000
S350  001LSERV            2012-12-31                                                                                      99930   99910   10000   01000   BRIDS     30CC111000352                                                                                              074014507727                              060+0000000004500000040AJDID TARIK                             1980-01-01+100000+100000004  WAFA 2011-01-200101S01              +00000000000000000H04   +000000000+00000000000000000+00000000000000000+0000000002012-12-1500000-00-00+00000000029808720+00000000029808720+000000000450000000000-00-00+000000000000000002011-02-01+000000000000000002011-02-01 0000-00-00+00000000000000000+00000000000000000+00000000000000000MAD10000100000000+00000000000000000+00000000000000000+00000000000000000+00000000000000000                         0000-00-00MAD0000000000000
S350  001LSERV            2012-12-31                                                                                      99930   99910   10000   01000   BRIDS     30CC111000353                                                                                              074014507733                              120+0000000027000000001AJDID TARIK                             1986-09-05+100000+100000004  WAFA 2011-01-02                     +00000000000000000203   +000000000+00000000000000000+00000000000000000+0000045400000-00-0000000-00-00+00000000270000000+00000000271417500+000000002700000000000-00-00+000000000000000002011-02-01+000000000000000002011-02-01 0000-00-00+00000000000000000+00000000000000000+00000000000000000MAD10000100000000+00000000000000000+00000000000000000+00000000000000000+00000000000000000                         0000-00-00MAD0000000000000
S350  001LSERV            2012-12-31                                                                                      99930   99910   10000   01000   BRIDS     30CC111000353                                                                                              074014507733                              120+0000000027000000040AJDID TARIK                             1986-09-05+100000+100000004  WAFA 2011-01-020101S01              +00000000000000000H03   +000000000+00000000000000000+00000000000000000+0000000000000-00-0000000-00-00+00000000270000000+00000000271417500+000000002700000000000-00-00+000000000000000002011-02-01+000000000000000002011-02-01 0000-00-00+00000000000000000+00000000000000000+00000000000000000MAD10000100000000+00000000000000000+00000000000000000+00000000000000000+00000000000000000                         0000-00-00MAD0000000000000
S350  001LSERV            2012-12-31                                                                                      99930   99910   10000   01000   BRIDS     30CC111000357                                                                                              074014507747                              120+0000000006725000001OUASSINI MOHAMED                        1970-02-15+100000+100000004  WAFA 2011-01-21                     +00000000000000000204   +000000000+00000000000000000+00000000000000620+0000022752012-12-1500000-00-00+00000000027241680+00000000027241680+000000000672500000000-00-00+000000000000000002011-02-04+000000000000000002011-02-04 0000-00-00+00000000000000000+00000000000000000+00000000000000000MAD10000100000000+00000000000000000+00000000000000000+00000000000000000+00000000000000000                         0000-00-00MAD0000000000000
S350  001LSERV            2012-12-31                                                                                      99930   99910   10000   01000   BRIDS     30CC111000357                                                                                              074014507747                              120+0000000006725000040OUASSINI MOHAMED                        1970-02-15+100000+100000004  WAFA 2011-01-210101S01              +00000000000000000H04   +000000000+00000000000000000+00000000000000000+0000000002012-12-1500000-00-00+00000000027241680+00000000027241680+000000000672500000000-00-00+000000000000000002011-02-04+000000000000000002011-02-04 0000-00-00+00000000000000000+00000000000000000+00000000000000000MAD10000100000000+00000000000000000+00000000000000000+00000000000000000+00000000000000000                         0000-00-00MAD0000000000000
S350  001LSERV            2012-12-31                                                                                      99930   99910   10000   01000   BRIDS     30CC111000383                                                                                              074014507733                              120+0000000002000000001AJDID TARIK                             1986-09-05+100000+100000004  WAFA 2011-01-02                     +00000000000000000203   +000000000+00000000000000000+00000000000000000+0000017200000-00-0000000-00-00+00000000020000000+00000000020075000+000000000200000000000-00-00+000000000000000002011-02-05+000000000000000002011-02-05 0000-00-00+00000000000000000+00000000000000000+00000000000000000MAD10000100000000+00000000000000000+00000000000000000+00000000000000000+00000000000000000                         0000-00-00MAD0000000000000
S350  001LSERV            2012-12-31                                                                                      99930   99910   10000   01000   BRIDS     30CC111000383                                                                                              074014507733                              120+0000000002000000040AJDID TARIK                             1986-09-05+100000+100000004  WAFA 2011-01-020101S01              +00000000000000000H03   +000000000+00000000000000000+00000000000000000+0000000000000-00-0000000-00-00+00000000020000000+00000000020075000+000000000200000000000-00-00+000000000000000002011-02-05+000000000000000002011-02-05 0000-00-00+00000000000000000+00000000000000000+00000000000000000MAD10000100000000+00000000000000000+00000000000000000+00000000000000000+00000000000000000                         0000-00-00MAD0000000000000
S350  001LSERV            2012-12-31                                                                                      99930   99919   03000   10900   BRIDS     30CC111000392                                                                                              074013641801                              119+0000000010000000001EL YOUSFI BRAHIM                        1994-01-17+100000+100000004  WAFA 2010-03-01                     +00000000000000000203   +000000000+00000000000000000+00000000000001480+0000018912012-12-3100000-00-00+00000000077601310+00000000077601310+000000001000000000000-00-00+000000000000000002011-02-05+000000000000000002011-02-05 0000-00-00+00000000000000000+00000000000000000+00000000000000000MAD10000100000000+00000000000000000+00000000000000000+00000000000000000+00000000000000000                         0000-00-00MAD0000000000000
S350  001LSERV            2012-12-31                                                                                      99930   99919   03000   10900   BRIDS     30CC111000392                                                                                              074013641801                              119+0000000010000000040EL YOUSFI BRAHIM                        1994-01-17+100000+100000004  WAFA 2010-03-010101S01              +00000000000000000H03   +000000000+00000000000000000+00000000000000000+0000000002012-12-3100000-00-00+00000000077601310+00000000077601310+000000001000000000000-00-00+000000000000000002011-02-05+000000000000000002011-02-05 0000-00-00+00000000000000000+00000000000000000+00000000000000000MAD10000100000000+00000000000000000+00000000000000000+00000000000000000+00000000000000000                         0000-00-00MAD0000000000000
S350  001LSERV            2012-12-31                                                                                      99930   99919   03000   10900   BRIDS     30CC111000397                                                                                              074013641801                              119+0000000010000000001EL YOUSFI BRAHIM                        1994-01-17+100000+100000004  WAFA 2010-01-01                     +00000000000000000203   +000000000+00000000000000000+00000000000000000+0000000000000-00-0000000-00-00+00000000000000000+00000000000000000+000000000000000000000-00-00+000000000000000002011-02-06+000000000000000000000-00-00 0000-00-00+00000000000000000+00000000000000000+00000000000000000MAD10000100000000+00000000000000000+00000000000000000+00000000000000000+00000000000000000                         0000-00-00MAD0000000000000
S350  001LSERV            2012-12-31                                                                                      99930   99919   03000   10900   BRIDS     30CC111000397                                                                                              074013641801                              119+0000000010000000040EL YOUSFI BRAHIM                        1994-01-17+100000+100000004  WAFA 2010-01-010101S01              +00000000000000000H03   +000000000+00000000000000000+00000000000000000+0000000000000-00-0000000-00-00+00000000000000000+00000000000000000+000000000000000000000-00-00+000000000000000002011-02-06+000000000000000000000-00-00 0000-00-00+00000000000000000+00000000000000000+00000000000000000MAD10000100000000+00000000000000000+00000000000000000+00000000000000000+00000000000000000                         0000-00-00MAD0000000000000
S350  001LSERV            2012-12-31                                                                                      99930   99910   10000   01000   BRIDS     30CC111000406                                                                                              074014507735                              051+0000000001000000001AJDID TARIK                             1977-09-08+100000+100000004  WAFA 2011-01-15                     +00000000000000000204   +000000000+00000000000000000+00000000000000140+0000022752012-12-1500000-00-00+00000000006165720+00000000006165720+000000000100000000000-00-00+000000000000000002011-02-07+000000000000000002011-02-07 0000-00-00+00000000000000000+00000000000000000+00000000000000000MAD10000100000000+00000000000000000+00000000000000000+00000000000000000+00000000000000000                         0000-00-00MAD0000000000000
S350  001LSERV            2012-12-31                                                                                      99930   99910   10000   01000   BRIDS     30CC111000406                                                                                              074014507735                              051+0000000001000000040AJDID TARIK                             1977-09-08+100000+100000004  WAFA 2011-01-150101S01              +00000000000000000H04   +000000000+00000000000000000+00000000000000000+0000000002012-12-1500000-00-00+00000000006165720+00000000006165720+000000000100000000000-00-00+000000000000000002011-02-07+000000000000000002011-02-07 0000-00-00+00000000000000000+00000000000000000+00000000000000000MAD10000100000000+00000000000000000+00000000000000000+00000000000000000+00000000000000000                         0000-00-00MAD0000000000000
S350  001LSERV            2012-12-31                                                                                      99930   99919   03000   10900   BRIDS     30CC111000407                                                                                              074013641801                              120+0000000010000000001EL YOUSFI BRAHIM                        1994-01-17+100000+100000004  WAFA 2010-01-01                     +00000000000000000003   +000000000+00000000000000000+00000000000001460+0000018912012-12-3100000-00-00+00000000075898830+00000000076200670+000000001000000000000-00-00+000000000000000002011-02-07+000000000000000002011-02-07 0000-00-00+00000000000000000+00000000000000000+00000000000000170MAD10000100000000+00000000000000000+00000000000000000+00000000000000000+00000000000000000                         0000-00-00MAD0000000000000
S350  001LSERV            2012-12-31                                                                                      99930   99919   03000   10900   BRIDS     30CC111000407                                                                                              074013641801                              120+0000000010000000040EL YOUSFI BRAHIM                        1994-01-17+100000+100000004  WAFA 2010-01-010101S01              +00000000000000000H03   +000000000+00000000000000000+00000000000000000+0000000002012-12-3100000-00-00+00000000075898830+00000000076200670+000000001000000000000-00-00+000000000000000002011-02-07+000000000000000002011-02-07 0000-00-00+00000000000000000+00000000000000000+00000000000000000MAD10000100000000+00000000000000000+00000000000000000+00000000000000000+00000000000000000                         0000-00-00MAD0000000000000
S350  001LSERV            2012-12-31                                                                                      99930   99910   10000   01000   BRIDS     30CC111000408                                                                                              074014507733                              120+0000000030000000001AJDID TARIK                             1986-09-05+100000+100000004  WAFA 2011-01-15                     +00000000000000000203   +000000000+00000000000000000+00000000000000000+0000000000000-00-0000000-00-00+00000000000000000+00000000000000000+000000000000000000000-00-00+000000000000000002011-02-07+000000000000000000000-00-00 0000-00-00+00000000000000000+00000000000000000+00000000000000000MAD10000100000000+00000000000000000+00000000000000000+00000000000000000+00000000000000000                         0000-00-00MAD0000000000000
S350  001LSERV            2012-12-31                                                                                      99930   99910   10000   01000   BRIDS     30CC111000408                                                                                              074014507733                              120+0000000030000000040AJDID TARIK                             1986-09-05+100000+100000004  WAFA 2011-01-150101S01              +00000000000000000H03   +000000000+00000000000000000+00000000000000000+0000000000000-00-0000000-00-00+00000000000000000+00000000000000000+000000000000000000000-00-00+000000000000000002011-02-07+000000000000000000000-00-00 0000-00-00+00000000000000000+00000000000000000+00000000000000000MAD10000100000000+00000000000000000+00000000000000000+00000000000000000+00000000000000000                         0000-00-00MAD0000000000000
S350  001LSERV            2012-12-31                                                                                      99930   99910   10000   01000   BRIDS     30CC111000411                                                                                              074014507747                              084+0000000005000000001OUASSINI MOHAMED                        1970-02-15+100000+100000004  WAFA 2011-01-20                     +00000000000000000204   +000000000+00000000000000000+00000000000000000+0000000000000-00-0000000-00-00+00000000000000000+00000000000000000+000000000000000000000-00-00+000000000000000002011-02-07+000000000000000000000-00-00 0000-00-00+00000000000000000+00000000000000000+00000000000000000MAD10000100000000+00000000000000000+00000000000000000+00000000000000000+00000000000000000                         0000-00-00MAD0000000000000
S350  001LSERV            2012-12-31                                                                                      99930   99910   10000   01000   BRIDS     30CC111000411                                                                                              074014507747                              084+0000000005000000040OUASSINI MOHAMED                        1970-02-15+100000+100000004  WAFA 2011-01-200101S01              +00000000000000000H04   +000000000+00000000000000000+00000000000000000+0000000000000-00-0000000-00-00+00000000000000000+00000000000000000+000000000000000000000-00-00+000000000000000002011-02-07+000000000000000000000-00-00 0000-00-00+00000000000000000+00000000000000000+00000000000000000MAD10000100000000+00000000000000000+00000000000000000+00000000000000000+00000000000000000                         0000-00-00MAD0000000000000
S350  001LSERV            2012-12-31                                                                                      99930   99910   10000   01000   BRIDS     30CC111000412                                                                                              074014507747                              084+0000000007500000001OUASSINI MOHAMED                        1970-02-15+100000+100000004  WAFA 2011-01-20                     +00000000000000000204   +000000000+00000000000000000+00000000000001360+0000022752012-12-1500000-00-00+00000000058899550+00000000058899550+000000000750000000000-00-00+000000000000000002011-02-07+000000000000000002011-02-07 0000-00-00+00000000000000000+00000000000000000+00000000000000000MAD10000100000000+00000000000000000+00000000000000000+00000000000000000+00000000000000000                         0000-00-00MAD0000000000000
S350  001LSERV            2012-12-31                                                                                      99930   99910   10000   01000   BRIDS     30CC111000412                                                                                              074014507747                              084+0000000007500000040OUASSINI MOHAMED                        1970-02-15+100000+100000004  WAFA 2011-01-200101S01              +00000000000000000H04   +000000000+00000000000000000+00000000000000000+0000000002012-12-1500000-00-00+00000000058899550+00000000058899550+000000000750000000000-00-00+000000000000000002011-02-07+000000000000000002011-02-07 0000-00-00+00000000000000000+00000000000000000+00000000000000000MAD10000100000000+00000000000000000+00000000000000000+00000000000000000+00000000000000000                         0000-00-00MAD0000000000000
S350  001LSERV            2012-12-31                                                                                      99930   99910   10000   01000   BRIDS     30CC111000413                                                                                              074014507747                              120+0000000010000000001OUASSINI MOHAMED                        1970-02-15+100000+100000004  WAFA 2011-01-20                     +00000000000000000004   +000000000+00000000000000000+00000000000001980+0000022752012-12-1500000-00-00+00000000086319270+00000000086319270+000000001000000000000-00-00+000000000000000002011-02-07+000000000000000002011-02-07 0000-00-00+00000000000000000+00000000000000000+00000000000000000MAD10000100000000+00000000000000000+00000000000000000+00000000000000000+00000000000000000                         0000-00-00MAD0000000000000
S350  001LSERV            2012-12-31                                                                                      99930   99910   10000   01000   BRIDS     30CC111000413                                                                                              074014507747                              120+0000000010000000040OUASSINI MOHAMED                        1970-02-15+100000+100000004  WAFA 2011-01-200101S01              +00000000000000000H04   +000000000+00000000000000000+00000000000000000+0000000002012-12-1500000-00-00+00000000086319270+00000000086319270+000000001000000000000-00-00+000000000000000002011-02-07+000000000000000002011-02-07 0000-00-00+00000000000000000+00000000000000000+00000000000000000MAD10000100000000+00000000000000000+00000000000000000+00000000000000000+00000000000000000                         0000-00-00MAD0000000000000
S350  001LSERV            2012-12-31                                                                                      99930   99910   10000   01000   BRIDS     30CC111000416                                                                                              074014507727                              084+0000000003500000001AJDID TARIK                             1980-01-01+100000+100000004  WAFA 2011-01-20                     +00000000000000000004   +000000000+00000000000000000+00000000000000000+0000000000000-00-0000000-00-00+00000000000000000+00000000000000000+000000000000000000000-00-00+000000000000000002011-02-28+000000000000000000000-00-00 0000-00-00+00000000000000000+00000000000000000+00000000000000000MAD10000100000000+00000000000000000+00000000000000000+00000000000000000+00000000000000000                         0000-00-00MAD0000000000000
S350  001LSERV            2012-12-31                                                                                      99930   99910   10000   01000   BRIDS     30CC111000416                                                                                              074014507727                              084+0000000003500000040AJDID TARIK                             1980-01-01+100000+100000004  WAFA 2011-01-200101S01              +00000000000000000H04   +000000000+00000000000000000+00000000000000000+0000000000000-00-0000000-00-00+00000000000000000+00000000000000000+000000000000000000000-00-00+000000000000000002011-02-28+000000000000000000000-00-00 0000-00-00+00000000000000000+00000000000000000+00000000000000000MAD10000100000000+00000000000000000+00000000000000000+00000000000000000+00000000000000000                         0000-00-00MAD0000000000000
S350  001LSERV            2012-12-31                                                                                      99930   99910   10000   01000   BRIDS     30CC111000419                                                                                              074014507735                              060+0000000001000000001AJDID TARIK                             1977-09-08+100000+100000004  WAFA 2011-01-15                     +00000000000000000004   +000000000+00000000000000000+00000000000000160+0000022752012-12-1500000-00-00+00000000006814010+00000000006814010+000000000100000000000-00-00+000000000000000002011-02-28+000000000000000002011-02-28 0000-00-00+00000000000000000+00000000000000000+00000000000000000MAD10000100000000+00000000000000000+00000000000000000+00000000000000000+00000000000000000                         0000-00-00MAD0000000000000
S350  001LSERV            2012-12-31                                                                                      99930   99910   10000   01000   BRIDS     30CC111000419                                                                                              074014507735                              060+0000000001000000040AJDID TARIK                             1977-09-08+100000+100000004  WAFA 2011-01-150101S01              +00000000000000000H04   +000000000+00000000000000000+00000000000000000+0000000002012-12-1500000-00-00+00000000006814010+00000000006814010+000000000100000000000-00-00+000000000000000002011-02-28+000000000000000002011-02-28 0000-00-00+00000000000000000+00000000000000000+00000000000000000MAD10000100000000+00000000000000000+00000000000000000+00000000000000000+00000000000000000                         0000-00-00MAD0000000000000
S350  001LSERV            2012-12-31                                                                                      99930   99910   10000   01000   BRIDS     30CC111000420                                                                                              074014507736                              119+0000000005500000001ASKARI FATIMA                           1968-12-20+100000+100000004  WAFA 2011-01-15                     +00000000000000000005   +000000000+00000000000000000+00000000000002420+0000050502012-12-1500000-00-00+00000000047457640+00000000047457640+000000000550000000000-00-00+000000000000000002011-02-28+000000000000000002011-02-28 0000-00-00+00000000000000000+00000000000000000+00000000000000000MAD10000100000000+00000000000000000+00000000000000000+00000000000000000+00000000000000000                         0000-00-00MAD0000000000000
S350  001LSERV            2012-12-31                                                                                      99930   99910   10000   01000   BRIDS     30CC111000420                                                                                              074014507736                              119+0000000005500000040ASKARI FATIMA                           1968-12-20+100000+100000004  WAFA 2011-01-150101S01              +00000000000000000H05   +000000000+00000000000000000+00000000000000000+0000000002012-12-1500000-00-00+00000000047457640+00000000047457640+000000000550000000000-00-00+000000000000000002011-02-28+000000000000000002011-02-28 0000-00-00+00000000000000000+00000000000000000+00000000000000000MAD10000100000000+00000000000000000+00000000000000000+00000000000000000+00000000000000000                         0000-00-00MAD0000000000000
S350  001LSERV            2012-12-31                                                                                      99930   99910   10000   01000   BRIDS     30CC111000422                                                                                              074014507733                              060+0000000001000000001AJDID TARIK                             1986-09-05+100000+100000004  WAFA 2011-01-15                     +00000000000000000003   +000000000+00000000000000000+00000000000000130+0000018912012-12-1500000-00-00+00000000006782930+00000000006782930+000000000100000000000-00-00+000000000000000002011-03-01+000000000000000002011-03-01 0000-00-00+00000000000000000+00000000000000000+00000000000000000MAD10000100000000+00000000000000000+00000000000000000+00000000000000000+00000000000000000                         0000-00-00MAD0000000000000
S350  001LSERV            2012-12-31                                                                                      99930   99910   10000   01000   BRIDS     30CC111000422                                                                                              074014507733                              060+0000000001000000040AJDID TARIK                             1986-09-05+100000+100000004  WAFA 2011-01-150101S01              +00000000000000000H03   +000000000+00000000000000000+00000000000000000+0000000002012-12-1500000-00-00+00000000006782930+00000000006782930+000000000100000000000-00-00+000000000000000002011-03-01+000000000000000002011-03-01 0000-00-00+00000000000000000+00000000000000000+00000000000000000MAD10000100000000+00000000000000000+00000000000000000+00000000000000000+00000000000000000                         0000-00-00MAD0000000000000
S350  001LSERV            2012-12-31                                                                                      99930   99910   10000   01000   BRIDS     30CC111000423                                                                                              074014507735                              061+0000000001000000001AJDID TARIK                             1977-09-08+100000+100000004  WAFA 2011-01-20                     +00000000000000000004   +000000000+00000000000000000+00000000000000000+0000000000000-00-0000000-00-00+00000000000000000+00000000000000000+000000000000000000000-00-00+000000000000000002011-03-01+000000000000000002011-03-01 0000-00-00+00000000000000000+00000000000000000+00000000000000000MAD10000100000000+00000000000000000+00000000000000000+00000000000000000+00000000000000000                         0000-00-00MAD0000000000000
S350  001LSERV            2012-12-31                                                                                      99930   99910   10000   01000   BRIDS     30CC111000423                                                                                              074014507735                              061+0000000001000000040AJDID TARIK                             1977-09-08+100000+100000004  WAFA 2011-01-200101S01              +00000000000000000H04   +000000000+00000000000000000+00000000000000000+0000000000000-00-0000000-00-00+00000000000000000+00000000000000000+000000000000000000000-00-00+000000000000000002011-03-01+000000000000000002011-03-01 0000-00-00+00000000000000000+00000000000000000+00000000000000000MAD10000100000000+00000000000000000+00000000000000000+00000000000000000+00000000000000000                         0000-00-00MAD0000000000000
S350  001LSERV            2012-12-31                                                                                      99930   99910   10000   01000   BRIDS     30CC111000424                                                                                              074014507735                              060+0000000001000000001AJDID TARIK                             1977-09-08+100000+100000004  WAFA 2011-01-15                     +00000000000000000004   +000000000+00000000000000000+00000000000000160+0000022752012-12-1500000-00-00+00000000006784020+00000000006811370+000000000100000000000-00-00+000000000000000002011-03-01+000000000000000002011-03-01 0000-00-00+00000000000000000+00000000000000000+00000000000000040MAD10000100000000+00000000000000000+00000000000000000+00000000000000000+00000000000000000                         0000-00-00MAD0000000000000
S350  001LSERV            2012-12-31                                                                                      99930   99910   10000   01000   BRIDS     30CC111000424                                                                                              074014507735                              060+0000000001000000040AJDID TARIK                             1977-09-08+100000+100000004  WAFA 2011-01-150101S01              +00000000000000000H04   +000000000+00000000000000000+00000000000000000+0000000002012-12-1500000-00-00+00000000006784020+00000000006811370+000000000100000000000-00-00+000000000000000002011-03-01+000000000000000002011-03-01 0000-00-00+00000000000000000+00000000000000000+00000000000000000MAD10000100000000+00000000000000000+00000000000000000+00000000000000000+00000000000000000                         0000-00-00MAD0000000000000
S350  001LSERV            2012-12-31                                                                                      99930   99910   10000   01000   BRIDS     30CC111000428                                                                                              074014507727                              119+0000000006000000001AJDID TARIK                             1980-01-01+100000+100000004  WAFA 2011-03-02                     +00000000000000000004   +000000000+00000000000000000+00000000000001200+0000022752012-12-1500000-00-00+00000000052101470+00000000052101470+000000000600000000000-00-00+000000000000000002011-03-02+000000000000000002011-03-02 0000-00-00+00000000000000000+00000000000000000+00000000000000000MAD10000100000000+00000000000000000+00000000000000000+00000000000000000+00000000000000000                         0000-00-00MAD0000000000000
S350  001LSERV            2012-12-31                                                                                      99930   99910   10000   01000   BRIDS     30CC111000428                                                                                              074014507727                              119+0000000006000000040AJDID TARIK                             1980-01-01+100000+100000004  WAFA 2011-03-020101S01              +00000000000000000H04   +000000000+00000000000000000+00000000000000000+0000000002012-12-1500000-00-00+00000000052101470+00000000052101470+000000000600000000000-00-00+000000000000000002011-03-02+000000000000000002011-03-02 0000-00-00+00000000000000000+00000000000000000+00000000000000000MAD10000100000000+00000000000000000+00000000000000000+00000000000000000+00000000000000000                         0000-00-00MAD0000000000000
S350  001LSERV            2012-12-31                                                                                      99930   99910   10000   01000   BRIDS     30CC111000429                                                                                              074014507735                              119+0000000031000000001AJDID TARIK                             1977-09-08+100000+100000004  WAFA 2011-02-15                     +00000000000000000004   +000000000+00000000000000000+00000000000006180+0000022752012-12-1500000-00-00+00000000268112480+00000000269191110+000000003100000000000-00-00+000000000000000002011-03-02+000000000000000002011-03-02 0000-00-00+00000000000000000+00000000000000000+00000000000000610MAD10000100000000+00000000000000000+00000000000000000+00000000000000000+00000000000000000                         0000-00-00MAD0000000000000
S350  001LSERV            2012-12-31                                                                                      99930   99910   10000   01000   BRIDS     30CC111000429                                                                                              074014507735                              119+0000000031000000040AJDID TARIK                             1977-09-08+100000+100000004  WAFA 2011-02-150101S01              +00000000000000000H04   +000000000+00000000000000000+00000000000000000+0000000002012-12-1500000-00-00+00000000268112480+00000000269191110+000000003100000000000-00-00+000000000000000002011-03-02+000000000000000002011-03-02 0000-00-00+00000000000000000+00000000000000000+00000000000000000MAD10000100000000+00000000000000000+00000000000000000+00000000000000000+00000000000000000                         0000-00-00MAD0000000000000
S350  001LSERV            2012-12-31                                                                                      99930   99919   03000   10900   BRIDS     30CC111000430                                                                                              074013641801                              060+0000000001000000001EL YOUSFI BRAHIM                        1994-01-17+100000+100000004  WAFA 2010-01-01                     +00000000000000000003   +000000000+00000000000000000+00000000000000000+0000000000000-00-0000000-00-00+00000000000000000+00000000000000000+000000000000000000000-00-00+000000000000000002011-03-02+000000000000000000000-00-00 0000-00-00+00000000000000000+00000000000000000+00000000000000000MAD10000100000000+00000000000000000+00000000000000000+00000000000000000+00000000000000000                         0000-00-00MAD0000000000000
S350  001LSERV            2012-12-31                                                                                      99930   99919   03000   10900   BRIDS     30CC111000430                                                                                              074013641801                              060+0000000001000000040EL YOUSFI BRAHIM                        1994-01-17+100000+100000004  WAFA 2010-01-010101S01              +00000000000000000H03   +000000000+00000000000000000+00000000000000000+0000000000000-00-0000000-00-00+00000000000000000+00000000000000000+000000000000000000000-00-00+000000000000000002011-03-02+000000000000000000000-00-00 0000-00-00+00000000000000000+00000000000000000+00000000000000000MAD10000100000000+00000000000000000+00000000000000000+00000000000000000+00000000000000000                         0000-00-00MAD0000000000000
S350  001LSERV            2012-12-31                                                                                      99930   99910   10000   01000   BRIDS     30CC111000434                                                                                              074014507747                              120+0000000007500000001OUASSINI MOHAMED                        1970-02-15+100000+100000004  WAFA 2011-03-03                     +00000000000000000005   +000000000+00000000000000000+00000000000003330+0000050502012-12-1500000-00-00+00000000065312380+00000000065312380+000000000750000000000-00-00+000000000000000002011-03-03+000000000000000002011-03-03 0000-00-00+00000000000000000+00000000000000000+00000000000000000MAD10000100000000+00000000000000000+00000000000000000+00000000000000000+00000000000000000                         0000-00-00MAD0000000000000
S350  001LSERV            2012-12-31                                                                                      99930   99910   10000   01000   BRIDS     30CC111000434                                                                                              074014507747                              120+0000000007500000040OUASSINI MOHAMED                        1970-02-15+100000+100000004  WAFA 2011-03-030101S01              +00000000000000000H05   +000000000+00000000000000000+00000000000000000+0000000002012-12-1500000-00-00+00000000065312380+00000000065312380+000000000750000000000-00-00+000000000000000002011-03-03+000000000000000002011-03-03 0000-00-00+00000000000000000+00000000000000000+00000000000000000MAD10000100000000+00000000000000000+00000000000000000+00000000000000000+00000000000000000                         0000-00-00MAD0000000000000
S350  001LSERV            2012-12-31                                                                                      99930   99910   10000   01000   BRIDS     30CC111000437                                                                                              074014507747                              119+0000000007500000001OUASSINI MOHAMED                        1970-02-15+100000+100000004  WAFA 2011-03-03                     +00000000000000000005   +000000000+00000000000000000+00000000000003320+0000050502012-12-1500000-00-00+00000000065204860+00000000065204860+000000000750000000000-00-00+000000000000000002011-03-03+000000000000000002011-03-03 0000-00-00+00000000000000000+00000000000000000+00000000000000000MAD10000100000000+00000000000000000+00000000000000000+00000000000000000+00000000000000000                         0000-00-00MAD0000000000000
S350  001LSERV            2012-12-31                                                                                      99930   99910   10000   01000   BRIDS     30CC111000437                                                                                              074014507747                              119+0000000007500000040OUASSINI MOHAMED                        1970-02-15+100000+100000004  WAFA 2011-03-030101S01              +00000000000000000H05   +000000000+00000000000000000+00000000000000000+0000000002012-12-1500000-00-00+00000000065204860+00000000065204860+000000000750000000000-00-00+000000000000000002011-03-03+000000000000000002011-03-03 0000-00-00+00000000000000000+00000000000000000+00000000000000000MAD10000100000000+00000000000000000+00000000000000000+00000000000000000+00000000000000000                         0000-00-00MAD0000000000000
S350  001LSERV            2012-12-31                                                                                      99930   99910   10000   01000   BRIDS     30CC111000440                                                                                              074014507747                              049+0000000003500000001OUASSINI MOHAMED                        1970-02-15+100000+100000004  WAFA 2011-03-04                     +00000000000000000005   +000000000+00000000000000000+00000000000000490+0000050502012-12-2000000-00-00+00000000009389560+00000000009389560+000000000350000000000-00-00+000000000000000002011-03-04+000000000000000002011-03-04 0000-00-00+00000000000000000+00000000000000000+00000000000000000MAD10000100000000+00000000000000000+00000000000000000+00000000000000000+00000000000000000                         0000-00-00MAD0000000000000
S350  001LSERV            2012-12-31                                                                                      99930   99910   10000   01000   BRIDS     30CC111000440                                                                                              074014507747                              049+0000000003500000040OUASSINI MOHAMED                        1970-02-15+100000+100000004  WAFA 2011-03-040101S01              +00000000000000000H05   +000000000+00000000000000000+00000000000000000+0000000002012-12-2000000-00-00+00000000009389560+00000000009389560+000000000350000000000-00-00+000000000000000002011-03-04+000000000000000002011-03-04 0000-00-00+00000000000000000+00000000000000000+00000000000000000MAD10000100000000+00000000000000000+00000000000000000+00000000000000000+00000000000000000                         0000-00-00MAD0000000000000
S350  001LSERV            2012-12-31                                                                                      99930   99910   10000   01000   BRIDS     30CC111000442                                                                                              074014507750                              062+0000000015000000001AAMOUM MOHAMMED                         1980-01-01+100000+100000004  WAFA 2011-03-04                     +00000000000000000004   +000000000+00000000000000000+00000000000001900+0000022752012-12-1500000-00-00+00000000081811050+00000000081811050+000000001500000000000-00-00+000000000000000002011-03-04+000000000000000002011-03-04 0000-00-00+00000000000000000+00000000000000000+00000000000000000MAD10000100000000+00000000000000000+00000000000000000+00000000000000000+00000000000000000                         0000-00-00MAD0000000000000
S350  001LSERV            2012-12-31                                                                                      99930   99910   10000   01000   BRIDS     30CC111000442                                                                                              074014507750                              062+0000000015000000040AAMOUM MOHAMMED                         1980-01-01+100000+100000004  WAFA 2011-03-040101S01              +00000000000000000H04   +000000000+00000000000000000+00000000000000000+0000000002012-12-1500000-00-00+00000000081811050+00000000081811050+000000001500000000000-00-00+000000000000000002011-03-04+000000000000000002011-03-04 0000-00-00+00000000000000000+00000000000000000+00000000000000000MAD10000100000000+00000000000000000+00000000000000000+00000000000000000+00000000000000000                         0000-00-00MAD0000000000000
S350  001LSERV            2012-12-31                                                                                      99930   99910   10000   01000   BRIDS     30CC111000451                                                                                              074014507730                              047+0000000003500000001ASKARI FATIMA                           1987-01-01+100000+100000004  WAFA 2011-03-05                     +00000000000000000003   +000000000+00000000000000000+00000000000000410+0000018912012-12-1500000-00-00+00000000021027970+00000000021027970+000000000350000000000-00-00+000000000000000002011-03-05+000000000000000002011-03-05 0000-00-00+00000000000000000+00000000000000000+00000000000000000MAD10000100000000+00000000000000000+00000000000000000+00000000000000000+00000000000000000                         0000-00-00MAD0000000000000
S350  001LSERV            2012-12-31                                                                                      99930   99910   10000   01000   BRIDS     30CC111000451                                                                                              074014507730                              047+0000000003500000040ASKARI FATIMA                           1987-01-01+100000+100000004  WAFA 2011-03-050101S01              +00000000000000000H03   +000000000+00000000000000000+00000000000000000+0000000002012-12-1500000-00-00+00000000021027970+00000000021027970+000000000350000000000-00-00+000000000000000002011-03-05+000000000000000002011-03-05 0000-00-00+00000000000000000+00000000000000000+00000000000000000MAD10000100000000+00000000000000000+00000000000000000+00000000000000000+00000000000000000                         0000-00-00MAD0000000000000
S350  001LSERV            2012-12-31                                                                                      99930   99910   10000   01000   BRIDS     30CC111000453                                                                                              074014507750                              083+0000000005000000001AAMOUM MOHAMMED                         1980-01-01+100000+100000004  WAFA 2011-03-05                     +00000000000000000004   +000000000+00000000000000000+00000000000000910+0000022752012-12-1500000-00-00+00000000039657760+00000000039657760+000000000500000000000-00-00+000000000000000002011-03-05+000000000000000002011-03-05 0000-00-00+00000000000000000+00000000000000000+00000000000000000MAD10000100000000+00000000000000000+00000000000000000+00000000000000000+00000000000000000                         0000-00-00MAD0000000000000
S350  001LSERV            2012-12-31                                                                                      99930   99910   10000   01000   BRIDS     30CC111000453                                                                                              074014507750                              083+0000000005000000040AAMOUM MOHAMMED                         1980-01-01+100000+100000004  WAFA 2011-03-050101S01              +00000000000000000H04   +000000000+00000000000000000+00000000000000000+0000000002012-12-1500000-00-00+00000000039657760+00000000039657760+000000000500000000000-00-00+000000000000000002011-03-05+000000000000000002011-03-05 0000-00-00+00000000000000000+00000000000000000+00000000000000000MAD10000100000000+00000000000000000+00000000000000000+00000000000000000+00000000000000000                         0000-00-00MAD0000000000000
S350  001LSERV            2012-12-31                                                                                      99930   99910   10000   01000   BRIDS     30CC111000468                                                                                              074014507747                              119+0000000022000000001OUASSINI MOHAMED                        1970-02-15+100000+100000004  WAFA 2011-03-06                     +00000000000000000005   +000000000+00000000000000000+00000000000009600+0000050502012-12-1500000-00-00+00000000188279230+00000000188279230+000000002200000000000-00-00+000000000000000002011-03-06+000000000000000002011-03-06 0000-00-00+00000000000000000+00000000000000000+00000000000000000MAD10000100000000+00000000000000000+00000000000000000+00000000000000000+00000000000000000                         0000-00-00MAD0000000000000
S350  001LSERV            2012-12-31                                                                                      99930   99910   10000   01000   BRIDS     30CC111000468                                                                                              074014507747                              119+0000000022000000040OUASSINI MOHAMED                        1970-02-15+100000+100000004  WAFA 2011-03-060101S01              +00000000000000000H05   +000000000+00000000000000000+00000000000000000+0000000002012-12-1500000-00-00+00000000188279230+00000000188279230+000000002200000000000-00-00+000000000000000002011-03-06+000000000000000002011-03-06 0000-00-00+00000000000000000+00000000000000000+00000000000000000MAD10000100000000+00000000000000000+00000000000000000+00000000000000000+00000000000000000                         0000-00-00MAD0000000000000
S350  001LSERV            2012-12-31                                                                                      99930   99910   10000   01000   BRIDS     30CC111000478                                                                                              074014507728                              119+0000000020000000001AJDID TARIK                             1960-01-01+100000+100000004  WAFA 2011-03-06                     +00000000000000000006   +000000000+00000000000000000+00000000000020110+0000114332012-12-1500000-00-00+00000000174332420+00000000174332420+000000002000000000000-00-00+000000000000000002011-03-06+000000000000000002011-03-06 0000-00-00+00000000000000000+00000000000000000+00000000000000000MAD10000100000000+00000000000000000+00000000000000000+00000000000000000+00000000000000000                         0000-00-00MAD0000000000000
S350  001LSERV            2012-12-31                                                                                      99930   99910   10000   01000   BRIDS     30CC111000478                                                                                              074014507728                              119+0000000020000000040AJDID TARIK                             1960-01-01+100000+100000004  WAFA 2011-03-060101S01              +00000000000000000H06   +000000000+00000000000000000+00000000000000000+0000000002012-12-1500000-00-00+00000000174332420+00000000174332420+000000002000000000000-00-00+000000000000000002011-03-06+000000000000000002011-03-06 0000-00-00+00000000000000000+00000000000000000+00000000000000000MAD10000100000000+00000000000000000+00000000000000000+00000000000000000+00000000000000000                         0000-00-00MAD0000000000000
S350  001LSERV            2012-12-31                                                                                      99930   99910   10000   01000   BRIDS     30CC111000479                                                                                              074014507744                              072+0000000005000000001AIT BOURJ EL HABIB                      1986-05-09+100000+100000004  WAFA 2011-03-06                     +00000000000000000003   +000000000+00000000000000000+00000000000000000+0000000000000-00-0000000-00-00+00000000000000000+00000000000000000+000000000000000000000-00-00+000000000000000002011-03-06+000000000000000000000-00-00 0000-00-00+00000000000000000+00000000000000000+00000000000000000MAD10000100000000+00000000000000000+00000000000000000+00000000000000000+00000000000000000                         0000-00-00MAD0000000000000
S350  001LSERV            2012-12-31                                                                                      99930   99910   10000   01000   BRIDS     30CC111000479                                                                                              074014507744                              072+0000000005000000040AIT BOURJ EL HABIB                      1986-05-09+100000+100000004  WAFA 2011-03-060101S01              +00000000000000000H03   +000000000+00000000000000000+00000000000000000+0000000000000-00-0000000-00-00+00000000000000000+00000000000000000+000000000000000000000-00-00+000000000000000002011-03-06+000000000000000000000-00-00 0000-00-00+00000000000000000+00000000000000000+00000000000000000MAD10000100000000+00000000000000000+00000000000000000+00000000000000000+00000000000000000                         0000-00-00MAD0000000000000
S350  001LSERV            2012-12-31                                                                                      99930   99910   10000   01000   BRIDS     30CC111000482                                                                                              074014507744                              072+0000000003000000001AIT BOURJ EL HABIB                      1986-05-09+100000+100000004  WAFA 2011-03-06                     +00000000000000000003   +000000000+00000000000000000+00000000000000000+0000000000000-00-0000000-00-00+00000000000000000+00000000000000000+000000000000000000000-00-00+000000000000000002011-03-06+000000000000000000000-00-00 0000-00-00+00000000000000000+00000000000000000+00000000000000000MAD10000100000000+00000000000000000+00000000000000000+00000000000000000+00000000000000000                         0000-00-00MAD0000000000000
S350  001LSERV            2012-12-31                                                                                      99930   99910   10000   01000   BRIDS     30CC111000482                                                                                              074014507744                              072+0000000003000000040AIT BOURJ EL HABIB                      1986-05-09+100000+100000004  WAFA 2011-03-060101S01              +00000000000000000H03   +000000000+00000000000000000+00000000000000000+0000000000000-00-0000000-00-00+00000000000000000+00000000000000000+000000000000000000000-00-00+000000000000000002011-03-06+000000000000000000000-00-00 0000-00-00+00000000000000000+00000000000000000+00000000000000000MAD10000100000000+00000000000000000+00000000000000000+00000000000000000+00000000000000000                         0000-00-00MAD0000000000000
S350  001LSERV            2012-12-31                                                                                      99930   99910   10000   01000   BRIDS     30CC111000483                                                                                              074014507730                              083+0000000005000000001ASKARI FATIMA                           1987-01-01+100000+100000004  WAFA 2011-03-06                     +00000000000000000003   +000000000+00000000000000000+00000000000000760+0000018912012-12-1500000-00-00+00000000039650320+00000000039650320+000000000500000000000-00-00+000000000000000002011-03-06+000000000000000002011-03-06 0000-00-00+00000000000000000+00000000000000000+00000000000000000MAD10000100000000+00000000000000000+00000000000000000+00000000000000000+00000000000000000                         0000-00-00MAD0000000000000
S350  001LSERV            2012-12-31                                                                                      99930   99910   10000   01000   BRIDS     30CC111000483                                                                                              074014507730                              083+0000000005000000040ASKARI FATIMA                           1987-01-01+100000+100000004  WAFA 2011-03-060101S01              +00000000000000000H03   +000000000+00000000000000000+00000000000000000+0000000002012-12-1500000-00-00+00000000039650320+00000000039650320+000000000500000000000-00-00+000000000000000002011-03-06+000000000000000002011-03-06 0000-00-00+00000000000000000+00000000000000000+00000000000000000MAD10000100000000+00000000000000000+00000000000000000+00000000000000000+00000000000000000                         0000-00-00MAD0000000000000
S350  001LSERV            2012-12-31                                                                                      99930   99910   10000   01000   BRIDS     30CC111000485                                                                                              074014507723                              083+0000000005000000001HADDAOUI MUSTAPHA                       1990-01-01+100000+100000004  WAFA 2011-03-06                     +00000000000000000003   +000000000+00000000000000000+00000000000000760+0000018912012-12-1500000-00-00+00000000039650320+00000000039650320+000000000500000000000-00-00+000000000000000002011-03-06+000000000000000002011-03-06 0000-00-00+00000000000000000+00000000000000000+00000000000000000MAD10000100000000+00000000000000000+00000000000000000+00000000000000000+00000000000000000                         0000-00-00MAD0000000000000
S350  001LSERV            2012-12-31                                                                                      99930   99910   10000   01000   BRIDS     30CC111000485                                                                                              074014507723                              083+0000000005000000040HADDAOUI MUSTAPHA                       1990-01-01+100000+100000004  WAFA 2011-03-060101S01              +00000000000000000H03   +000000000+00000000000000000+00000000000000000+0000000002012-12-1500000-00-00+00000000039650320+00000000039650320+000000000500000000000-00-00+000000000000000002011-03-06+000000000000000002011-03-06 0000-00-00+00000000000000000+00000000000000000+00000000000000000MAD10000100000000+00000000000000000+00000000000000000+00000000000000000+00000000000000000                         0000-00-00MAD0000000000000
