S350  001LSERV            2010-11-30                                                                                      SIEGE   R       10000   00520   BRIDS     3010000017000017                                                                                           074013641801                              120+0000000060000000001Nom Client                              1970-01-01+100000+100000001  ASSUR2010-02-01                     +00000000000000000101   +000000000+00000000000000000+00000000000000000+0000400000000-00-0000000-00-00+00000000560468560+00000000560468560+000000006000000000000-00-00+000000000000000002010-08-18+000000000000000002010-08-18 0000-00-00+00000000000000000+00000000000000000+00000000000000000MAD10000100000000+00000000000000000+00000000000000000+00000000000000000+00000000000000000                         0000-00-00MAD0000000000000
S350  001LSERV            2010-11-30                                                                                      SIEGE   R       50000   00510   SAKAN     30CI101000004                                                                                              074013641801                              120+0000000060000000001Nom Client                              1970-01-01+100000+100000001  ASSUR2010-02-01                     +00000000000000000101   +000000000+00000000000000000+00000000000000000+0000400000000-00-0000000-00-00+00000000565432510+00000000565432510+000000006000000000000-00-00+000000000000000002010-08-18+000000000000000002010-08-18 0000-00-00+00000000000000000+00000000000000000+00000000000000000MAD10000100000000+00000000000000000+00000000000000000+00000000000000000+00000000000000000                         0000-00-00MAD0000000000000
S350  001LSERV            2010-11-30                                                                                      SIEGE   E       91000   00535   SAKAN     30CI101000010                                                                                              074013641801                              240+0000000060000000001Nom Client                              1970-01-01+100000+100000001  ASSUR2010-02-01                     +00000000000000000101   +000000000+00000000000000000+00000000000000000+0000400000000-00-0000000-00-00+00000000594405720+00000000594405720+000000006000000000000-00-00+000000000000000002010-08-18+000000000000000002010-08-18 0000-00-00+00000000000000000+00000000000000000+00000000000000000MAD10000100000000+00000000000000000+00000000000000000+00000000000000000+00000000000000000                         0000-00-00MAD0000000000000
S350  001LSERV            2010-11-30                                                                                      SIEGE   S       03000   10900   BRIDS     30CI101000018                                                                                              074013641801                              120+0000000700000000001KETTANI MOHAMED                         1992-11-28+100000+100000001  ASSUR2010-10-30                     +00000000000000000101   +000000000+00000000000000000+00000000000000000+0000000000000-00-0000000-00-00+00000006975697510+00000006975697510+000000070000000000000-00-00+000000000000000002010-08-18+000000000000000002010-10-31 0000-00-00+00000000000000000+00000000000000000+00000000000000000MAD10000100000000+00000000000000000+00000000000000000+00000000000000000+00000000000000000                         0000-00-00MAD0000000000000
S350  001LSERV            2010-11-30                                                                                      SIEGE   E       89000   00525   SAKAN     30CI101000028                                                                                              074013641801                              240+0000000060000000001Nom Client                              1970-01-01+100000+100000001  ASSUR2010-02-01                     +00000000000000000101   +000000000+00000000000000000+00000000000000000+0000400000000-00-0000000-00-00+00000000000000000+00000000000000000+000000000000000000000-00-00+000000000000000002010-08-18+000000000000000002010-08-18 0000-00-00+00000000000000000+00000000000000000+00000000000000000MAD10000100000000+00000000000000000+00000000000000000+00000000000000000+00000000000000000                         0000-00-00MAD0000000000000
S350  001LSERV            2010-11-30                                                                                      SIEGE   S       03000   10900   SAKAN     30CI101000034                                                                                              074013641801                              300+0000000060000000001BRAHIM                                  1992-11-28+100000+100000001  ASSUR2010-10-31                     +00000000000000000102   +000000000+00000000000000000+00000000000000000+0000000000000-00-0000000-00-00+00000000600000000+00000000600348810+000000006000000000000-00-00+000000000000000002010-08-18+000000000000000002010-08-18 0000-00-00+00000000000000000+00000000000000000+00000000000000000MAD10000100000000+00000000000000000+00000000000000000+00000000000000000+00000000000000000                         0000-00-00MAD0000000000000
S350  001LSERV            2010-11-30                                                                                      SIEGE   S       03000   10900   SAKAN     30CI101000057                                                                                              074013641801                              060+0000000050000000001BRAHIM                                  1992-11-28+100000+100000001  ASSUR2010-10-30                     +00000000000000000101   +000000000+00000000000000000+00000000000000000+0000000000000-00-0000000-00-00+00000000000000000+00000000000000000+000000000000000000000-00-00+000000000000000002010-08-18+000000000000000000000-00-00 0000-00-00+00000000000000000+00000000000000000+00000000000000000MAD10000100000000+00000000000000000+00000000000000000+00000000000000000+00000000000000000                         0000-00-00MAD0000000000000
S350  001LSERV            2010-11-30                                                                                      SIEGE   S       03000   10900   SAKAN     30CI101000064                                                                                              074013641801                              300+0000000060000000001KETTANI MOHAMED                         1992-11-28+100000+100000001  ASSUR2010-08-22                     +00000000000000000101   +000000000+00000000000000000+00000000000000000+0000000000000-00-0000000-00-00+00000000597152440+00000000597152440+000000006000000000000-00-00+000000000000000002010-08-18+000000000000000002010-08-31 0000-00-00+00000000000000000+00000000000000000+00000000000000000MAD10000100000000+00000000000000000+00000000000000000+00000000000000000+00000000000000000                         0000-00-00MAD0000000000000
S350  001LSERV            2010-11-30                                                                                      SIEGE   S       03000   10900   BRIDS     30CI101000066                                                                                              074013641801                              120+0000000040000000001KETTANI MOHAMED                         1992-11-28+100000+100000001  ASSUR2010-04-30                     +00000000000000000102   +000000000+00000000000000000+00000000000000000+0000000000000-00-0000000-00-00+00000000000000000+00000000000000000+000000000000000000000-00-00+000000000000000002010-08-18+000000000000000000000-00-00 0000-00-00+00000000000000000+00000000000000000+00000000000000000MAD10000100000000+00000000000000000+00000000000000000+00000000000000000+00000000000000000                         0000-00-00MAD0000000000000
S350  001LSERV            2010-11-30                                                                                      SIEGE   S       03000   10900   SAKAN     30CI101000069                                                                                              074013641801                              120+0000000040000000001IBRAHIMAO                               1992-11-28+100000+100000001  ASSUR2010-05-01                     +00000000000000000102   +000000000+00000000000000000+00000000000000000+0000000000000-00-0000000-00-00+00000000000000000+00000000000000000+000000000000000000000-00-00+000000000000000002010-08-18+000000000000000000000-00-00 0000-00-00+00000000000000000+00000000000000000+00000000000000000MAD10000100000000+00000000000000000+00000000000000000+00000000000000000+00000000000000000                         0000-00-00MAD0000000000000
S350  001LSERV            2010-11-30                                                                                      SIEGE   S       03000   10900   SAKAN     30CI101000079                                                                                              074013641801                              240+0000000700000000001Prenom Nom Client                       1970-01-01+100000+100000001  ASSUR2010-02-01                     +00000000000000000101   +000000000+00000000000000000+00000000000000000+0000000000000-00-0000000-00-00+00000000000000000+00000000000000000+000000000000000000000-00-00+000000000000000002010-08-18+000000000000000000000-00-00 0000-00-00+00000000000000000+00000000000000000+00000000000000000MAD10000100000000+00000000000000000+00000000000000000+00000000000000000+00000000000000000                         0000-00-00MAD0000000000000
S350  001LSERV            2010-11-30                                                                                      SIEGE   S       03000   10900   BRIDS     30CI101000080                                                                                              074013641801                              300+0000000040000000001IBRAHIM                                 1992-11-28+100000+100000001  ASSUR2010-05-01                     +00000000000000000101   +000000000+00000000000000000+00000000000000000+0000000000000-00-0000000-00-00+00000000398311300+00000000398311300+000000004000000000000-00-00+000000000000000002010-08-18+000000000000000002010-08-18 0000-00-00+00000000000000000+00000000000000000+00000000000000000MAD10000100000000+00000000000000000+00000000000000000+00000000000000000+00000000000000000                         0000-00-00MAD0000000000000
S350  001LSERV            2010-11-30                                                                                      SIEGE   S       03000   10900   SAKAN     30CI101000082                                                                                              074013641801                              300+0000000060000000001IBRAHIM                                 1992-11-28+100000+100000001  ASSUR2010-05-01                     +00000000000000000101   +000000000+00000000000000000+00000000000000000+0000000000000-00-0000000-00-00+00000000597940420+00000000597940420+000000006000000000000-00-00+000000000000000002010-08-18+000000000000000002010-08-18 0000-00-00+00000000000000000+00000000000000000+00000000000000000MAD10000100000000+00000000000000000+00000000000000000+00000000000000000+00000000000000000                         0000-00-00MAD0000000000000
S350  001LSERV            2010-11-30                                                                                      SIEGE   S       03000   10900   SAKAN     30CI101000082                                                                                              074013641801                              300+0000000060000000002KETTANI MOHAMED                         1992-11-28+100000+100000002  ASSUR2010-05-01                     +00000000000000000101   +000000000+00000000000000000+00000000000000000+0000000000000-00-0000000-00-00+00000000597940420+00000000597940420+000000006000000000000-00-00+000000000000000002010-08-18+000000000000000002010-08-18 0000-00-00+00000000000000000+00000000000000000+00000000000000000MAD10000100000000+00000000000000000+00000000000000000+00000000000000000+00000000000000000                         0000-00-00MAD0000000000000
S350  001LSERV            2010-11-30                                                                                      SIEGE   S       03000   10900   SAKAN     30CI101000090                                                                                              074013641801                              300+0000000060000000001Prenom Nom Client                       1970-01-01+100000+100000001  ASSUR2010-05-01                     +00000000000000000111   +000000000+00000000000000000+00000000000000000+0001500000000-00-0000000-00-00+00000000593295220+00000000593295220+000000006000000000000-00-00+000000000000000002010-08-18+000000000000000002010-08-18 0000-00-00+00000000000000000+00000000000000000+00000000000000000MAD10000100000000+00000000000000000+00000000000000000+00000000000000000+00000000000000000                         0000-00-00MAD0000000000000
S350  001LSERV            2010-11-30                                                                                      SIEGE   S       03000   10900   BRIDS     30CI101000092                                                                                              074013641801                              120+0000000040000000001KETTANI MOHAMED                         1992-11-28+100000+100000001  ASSUR2010-08-22                     +00000000000000000101   +000000000+00000000000000000+00000000000000000+0000000000000-00-0000000-00-00+00000000379520250+00000000379520250+000000004000000000000-00-00+000000000000000002010-08-18+000000000000000002010-08-18 0000-00-00+00000000000000000+00000000000000000+00000000000000000MAD10000100000000+00000000000000000+00000000000000000+00000000000000000+00000000000000000                         0000-00-00MAD0000000000000
S350  001LSERV            2010-11-30                                                                                      SIEGE   S       03000   10900   SAKAN     30CI101000093                                                                                              074013641801                              120+0000000050000000001KETTANI MOHAMED                         1992-11-28+100000+100000002  ASSUR2010-11-28                     +00000000000000000101   +000000000+00000000000000000+00000000000000000+0000000000000-00-0000000-00-00+00000000000000000+00000000000000000+000000000000000000000-00-00+000000000000000002010-08-18+000000000000000002010-08-18 0000-00-00+00000000000000000+00000000000000000+00000000000000000MAD10000100000000+00000000000000000+00000000000000000+00000000000000000+00000000000000000                         0000-00-00MAD0000000000000
S350  001LSERV            2010-11-30                                                                                      SIEGE   S       03000   10900   SAKAN     30CI101000094                                                                                              074013641801                              120+0000000040000000001KETTANI MOHAMED                         1992-11-28+100000+100000002  ASSUR2010-05-01                     +00000000000000000101   +000000000+00000000000000000+00000000000000000+0000000000000-00-0000000-00-00+00000000394668980+00000000394668980+000000004000000000000-00-00+000000000000000002010-08-18+000000000000000002010-08-18 0000-00-00+00000000000000000+00000000000000000+00000000000000000MAD10000100000000+00000000000000000+00000000000000000+00000000000000000+00000000000000000                         0000-00-00MAD0000000000000
S350  001LSERV            2010-11-30                                                                                      SIEGE   S       03000   10900   BRIDS     30CI101000096                                                                                              074013641801                              300+0000000070000000001KETTANI MOHAMED                         1992-11-28+100000+100000001  ASSUR2010-05-01                     +00000000000000000101   +000000000+00000000000000000+00000000000000000+0000000000000-00-0000000-00-00+00000000000000000+00000000000000000+000000000000000000000-00-00+000000000000000002010-08-18+000000000000000002010-08-18 0000-00-00+00000000000000000+00000000000000000+00000000000000000MAD10000100000000+00000000000000000+00000000000000000+00000000000000000+00000000000000000                         0000-00-00MAD0000000000000
S350  001LSERV            2010-11-30                                                                                      SIEGE   S       03000   10900   BRIDS     30CI101000097                                                                                              074013641801                              300+0000000023000000001Prenom Nom Client                       1970-01-01+100000+100000001  ASSUR2010-02-01                     +00000000000000000101   +000000000+00000000000000000+00000000000000000+0000400000000-00-0000000-00-00+00000000225142190+00000000225142190+000000002300000000000-00-00+000000000000000002010-08-18+000000000000000002010-08-18 0000-00-00+00000000000000000+00000000000000000+00000000000000000MAD10000100000000+00000000000000000+00000000000000000+00000000000000000+00000000000000000                         0000-00-00MAD0000000000000
S350  001LSERV            2010-11-30                                                                                      SIEGE   S       03000   10900   SAKAN     30CI101000099                                                                                              074013641801                              300+0000000050000000001KETTANI MOHAMED                         1992-11-28+100000+100000001  ASSUR2010-05-01                     +00000000000000000101   +000000000+00000000000000000+00000000000000000+0000000000000-00-0000000-00-00+00000000000000000+00000000000000000+000000000000000000000-00-00+000000000000000002010-08-18+000000000000000000000-00-00 0000-00-00+00000000000000000+00000000000000000+00000000000000000MAD10000100000000+00000000000000000+00000000000000000+00000000000000000+00000000000000000                         0000-00-00MAD0000000000000
S350  001LSERV            2010-11-30                                                                                      SIEGE   S       03000   10900   SAKAN     30CI101000100                                                                                              074013641801                              300+0000000700000000001KETTANI MOHAMED                         1992-11-28+100000+100000001  ASSUR2010-05-01                     +00000000000000000101   +000000000+00000000000000000+00000000000000000+0000000000000-00-0000000-00-00+00000000000000000+00000000000000000+000000000000000000000-00-00+000000000000000002010-08-18+000000000000000002010-08-18 0000-00-00+00000000000000000+00000000000000000+00000000000000000MAD10000100000000+00000000000000000+00000000000000000+00000000000000000+00000000000000000                         0000-00-00MAD0000000000000
S350  001LSERV            2010-11-30                                                                                      SIEGE   S       03000   10900   SAKAN     30CI101000103                                                                                              074013641801                              300+0000000060000000001KETTANI MOHAMED                         1992-11-28+100000+100000001  ASSUR2010-05-01                     +00000000000000000101   +000000000+00000000000000000+00000000000000000+0000000000000-00-0000000-00-00+00000000598047160+00000000598047160+000000006000000000000-00-00+000000000000000002010-08-18+000000000000000002010-08-18 0000-00-00+00000000000000000+00000000000000000+00000000000000000MAD10000100000000+00000000000000000+00000000000000000+00000000000000000+00000000000000000                         0000-00-00MAD0000000000000
S350  001LSERV            2010-11-30                                                                                      SIEGE   S       03000   10900   BRIDS     30CI101000106                                                                                              074013641801                              240+0000000060000000001Client                                  1994-01-01+100000+100000001  ASSUR2010-02-01                     +00000000000000000101   +000000000+00000000000000000+00000000000000000+0000000000000-00-0000000-00-00+00000000000000000+00000000000000000+000000000000000000000-00-00+000000000000000002010-08-18+000000000000000000000-00-00 0000-00-00+00000000000000000+00000000000000000+00000000000000000MAD10000100000000+00000000000000000+00000000000000000+00000000000000000+00000000000000000                         0000-00-00MAD0000000000000
S350  001LSERV            2010-11-30                                                                                      SIEGE   S       03000   10900   BRIDS     30CI101000107                                                                                              074013641801                              300+0000000700000000001MAHA HOUADI                             1992-11-28+100000+100000001  ASSUR2010-05-01                     +00000000000000000101   +000000000+00000000000000000+00000000000000000+0000000000000-00-0000000-00-00+00000000000000000+00000000000000000+000000000000000000000-00-00+000000000000000002010-08-18+000000000000000000000-00-00 0000-00-00+00000000000000000+00000000000000000+00000000000000000MAD10000100000000+00000000000000000+00000000000000000+00000000000000000+00000000000000000                         0000-00-00MAD0000000000000
S350  001LSERV            2010-11-30                                                                                      SIEGE   S       03000   10900   BRIDS     30CI101000108                                                                                              074013641801                              301+0000000700000000001SOUDADI MOHAMED                         1992-11-28+100000+100000001  ASSUR2010-05-01                     +00000000000000000101   +000000000+00000000000000000+00000000000000000+0000000000000-00-0000000-00-00+00000006986241060+00000006986241060+000000070000000000000-00-00+000000000000000002010-08-18+000000000000000002010-08-18 0000-00-00+00000000000000000+00000000000000000+00000000000000000MAD10000100000000+00000000000000000+00000000000000000+00000000000000000+00000000000000000                         0000-00-00MAD0000000000000
