00301112011B                                                                                                                                                                                                                                                                                                                                                                                                   
1   12560AIT BOURJ                     EL HABIB                      09051986DR94526     PAVENUE DE FRANCE APPT1 IMMB8 RE CHABAB                                   MA 13005678                3022   I1110006380000002P300PMX0506201030000000001969200003320000600000000227F1000000205201102052036000000000000  ABB 0000000000                                                                                 
1  012478AIT BOURJ                     EL HABIB                      09051986DR94526     Prue 15 apt5 taz                                                          MA 13005678                3022   I1110005190000002P300PMX0603201130000000001145400003320000350000000390F1000001512201115032036000034500749  ABB 0000000000                                                                                 
1  025652OUASSINI                      MOHAMED                       01011990AA3322      PRES 5 N 10 SALA                                                          MA 13005644                3022   I1110005180000002P300PMX0603201130000000000814800003320000250000000227F1000001512201115032036000024541128  ABB 0000000000                                                                                 
1                                                                    00000000            P                                                                         MA 8410539                 3022   I1010001140000002P300UMX0102201030000000000000000000030000700000000450F1000000104201001032035000067608152  ABB 0000000000                                                                                 
1  MCadreRabat                         Marocaine                     00000000            P                                                                         MA 8410539                 3022   I1010001130000002P300UMX0102201030000000000000000000030000600000000450F1000000104201001032035000048291526  ABB 0000000000                                                                                 
1        ALAOUI                        AYMANE                        05091978FR9456      P                                                                         MA 13005680                3022   I1010002340000002P300PMX0501201030000000001889500003320000600000000227F1000000112201101012035000056911608  ABB 0000000000                                                                                 
1  012478AIT BOURJ                     EL HABIB                      09051986DR94526     Prue 15 apt5 taz                                                          MA 13005678                3022   I1110005120000002P300PMX0603201130000000001636300003320000500000000390F1000001512201115032036000049286784  ABB 0000000000                                                                                 
1  215487EL YOUSFI                     BRAHIM                        17011994DA80448     PCasablanca Tama                                                          MA 13005649                3022   I1110007540000002P300PMX0101201012000000000329600003320000100000000227F1000000109201101092021000000000000  ABB 0000000000                                                                                 
1                                                                    00000000            P                                                                         MA 8410539                 3022   I1010001120000002P300UMX0102201030000000001328000000030000400000000341F1000000602201106112035000000000000  ABB 0000000000                                                                                 
100000000ALAOUI                        AYMANE                        05091978FR9456      P                                                                         MA 13005680                3022   I1010002330000002P300PMX0501201030000000001916600003320000600000000420F1000003012201130012035000057730354  ABB 0000000000                                                                                 
1  012478AIT BOURJ                     EL HABIB                      09051986DR94526     Prue 15 apt5 taz                                                          MA 13005678                3022   I1110005150000002P300PMX0603201107200000000329500003320000110000000390F1000001512201115032017000009924644  ABB 0000000000                                                                                 
1  MCadreRabat                         Marocaine                     00000000            P                                                                         MA 8410539                 3022   I1010001110000002P300UMX0102201030000000000000000000030000600000000227F1000000104201001032035000047581821  ABB 0000000000                                                                                 
100000000HAMMANI                       ANAS                          05041987DR9456      P                                                                         MA 13005685                3022   I1010002320000002P300PMX0501201030000000001916600003320000600000000420F1000003012201130012035000057730354  ABB 0000000000                                                                                 
1  012478AIT BOURJ                     EL HABIB                      09051986DR94526     Prue 15 apt5 taz                                                          MA 13005678                3022   I1110005140000002P300UMX0603201127700000000000000004380000600000000390F1000001504201115042034000058970128  ABB 0000000000                                                                                 
1                                                                    00000000            P                                                                         MA 8410539                 3022   I1010001180000002P300UMX0102201030000000001992000000030000600000000341F1000000602201106112035000000000000  ABB 0000000000                                                                                 
1        AJDID                         TARIK                         01011980EZ22110     P                                                                         MA 13005659                3022   I1010002390000002P300PMX0102201030000000002619400003320000800000000341F1000000602201106112035000000000000  ABB 0000000000                                                                                 
1                                                                    00000000            P                                                                         MA                                E1110007010000002P300PMX0108200908400000000193300011000000300000000200F1000010112201101082016000021088130  ABB 0000000000                                                                                 
1        Rabat                                                       00000000            P                                                                         MA 8410539                 3022   I1010001170000002P300PMX0108201030000000001992000003320000600000000227F1000000602201106112035000000000000  ABB 0000000000                                                                                 
1                                                                    00000000            P                                                                         MA                                E1110007000000002P300PMX0101201024000000000475800011000000800000000200F1000003112201128022030000051905460  ABB 0000000000                                                                                 
1  012478AIT BOURJ                     EL HABIB                      09051986DR94526     Prue 15 apt5 taz                                                          MA 13005678                3022   I1110005110000002P300PMX0603201107200000000389400003320000130000000390F1000001512201115032017000011729131  ABB 0000000000                                                                                 
1   62300AAMOUM                        MOHAMMED                      01011985XW9002      PAVENUE MED V                                                             MA 13005686                3022   I1110007530000002P300UMX0110201130000000000000000004380000600000000420F1000001511201115102036000059893401  ABB 0000005000                                                                                 
1                                                                    00000000            P                                                                         MA 8410539                 3022   I1010001150000002P300UMX0105201030000000000000000000030000600000000450F1000000105201001042035000058144377  ABB 0000000000                                                                                 
1        ALAOUI                        AYMANE                        05091978FR9456      P                                                                         MA 13005680                3022   I1010002360000002P300PMX0501201030000000002541100003320000800000000341F1000000112201101012035000076539195  ABB 0000000000                                                                                 
199999999EL YOUSFI                     BRAHIM                        17011994DA80448     PCasablanca Tama                                                          MA 13005664                3022   I1110005100000002P300PMX0101201012000000000855000003320000300000000227F1000033112201131032020000025753618  ABB 0000000000                                                                                 
1  012478HADDAOUI                      MUSTAPHA                      01011990QD1100      Prue 15 apt5 taz                                                          MA 13005678                3023   C1110004850000002P300PMX0603201108300000000105800002270000050000000450F1000011512201115032018000004662848  ABB 0000000000                                                                                 
1  012478AIT BOURJ                     EL HABIB                      09051986DR94526     Prue 15 apt5 taz                                                          MA 13005678                3023   C1110004820000002P300PMX0603201107200000000063500002270000030000000450F1000010605201106042017000000000000  ABB 0000000000                                                                                 
1   12222ASKARI                        FATIMA                        01011987A3000       Pres maamoura 12                                                          MA 13005662                3023   C1110004830000002P300PMX0603201108300000000105800002270000050000000450F1000011512201115032018000004662848  ABB 0000000000                                                                                 
1        EL YOUSFI                     BRAHIM                        17011994DA80448     P                                                                         MA 13005685                3023   C1110003670000002P300PMX0101201011900000000195700002270000100000000450F1000013112201131012020000008622176  ABB 0000000000                                                                                 
1  114420AAMOUM                        MOHAMMED                      01011980ZZ222       PNUM 10 APPT 15                                                           MA 13005684                3023   C1110004890000002P300PMX0503201107400000000190300002730000075000000450F1000011503201215032017000006887607  ABB 0000000000                                                                                 
1                                                                    00000000            P                                                                         MA 8410539                 3022   I1010001030000002P300UMX0105201030000000000000000000030000600000000450F1000000105201001042035000058517779  ABB 0000000000                                                                                 
1        AALAM                         HAMZA                         11091990AD25956     P                                                                         MA 13005847                3022   I1110004030000002P300PMX0506201030000000000912400003320000279000000341F1000032012201120112035000027483256  ABB 0000000000                                                                                 
1  013111AALAM                         HAMZA                         11091990AD25956     P                                                                         MA 13005847                3022   I1110004020000002P300PMX0506201030000000001947900003320000600000000227F1000032012201120112035000058671539  ABB 0000000000                                                                                 
1  019500AAMOUM                        MOHAMMED                      01011990XW33221     PRES SALAM N 15                                                           MA 13005649                3022   I1110005230000002P300PMX0603201125000000000421400003320000130000000227F1000001512201115012032000000000000  ABB 0000000000                                                                                 
1  012478AIT BOURJ                     EL HABIB                      09051986DR94526     Prue 15 apt5 taz                                                          MA 13005678                3022   I1110005260000002P300PMX0603201112900000000712900003320000277000000390F1000001512201115122021000021472666  ABB 0000000000                                                                                 
1  MBANQURabat                         Marocaine                     00000000            P                                                                         MA 8410539                 3022   I1010001000000002P300UMX0105201030000000000000000000030007000000000450F1000000105201001042035000000000000  ABB 0000000000                                                                                 
1        EL YOUSFI                     BRAHIM                        17011994DA80448     P                                                                         MA 8410539                 3022   I1010001070000002P300UMX0105201030000000255850000004380007000000000341F1000000602201104012036000000000000  ABB 0000000000                                                                                 
1  012478AIT BOURJ                     EL HABIB                      09051986DR94526     Prue 15 apt5 taz                                                          MA 13005678                3022   I1110005200000002P300PMX0603201112000000000503000003320000160000000390F1000001512201115032021000015150322  ABB 0000000000                                                                                 
1  MIngenRabat                         Marocaine                     00000000            P                                                                         MA 8410539                 3022   I1010001060000002P300UMX0102201024000000001992000000030000600000000227F1000000602201106112030000000000000  ABB 0000000000                                                                                 
1  526412HADDAOUI                      MUSTAPHA                      01011991DD55500     P                                                                         MA 13005654                3022   I1010002270000002P300PMX0101201030000000000944900003320000300000000227F1000000112201101012035000028459795  ABB 0000000000                                                                                 
1  652417AIT BOURJ                     EL HABIB                      01011990QQ3322      P                                                                         MA 13005647                3022   I1010002260000002P300PMX0501201010000000001775800003320000600000000227F1000000112201101062018000053488282  ABB 0000000000                                                                                 
1        EL YOUSFI                     BRAHIM                        17011994DA80448     P                                                                         MA 13005685                3022   I1110004000000002P300UMX0101201024000000151785000003030000500000000227F1000000602201107012031000000000000  ABB 0000000000                                                                                 
1    1234AJDID                         TARIK                         01011980EZ22110     Pres maamora                                                              MA 13005659                3023   C1110003520000002P300PMX2001201106000000000106400002730000045000000450F1000011512201115022016000003898163  ABB 0000000000                                                                                 
1  011211AJDID                         TARIK                         01011980EZ22110     PAVENUE ALLAL IBN ABDELLAH n15 PPT 10                                     MA 13005659                3023   C1110005940000002P300PMX1303201108300000000064400002730000025000000450F1000011305201113032018000000000000  ABB 0000000000                                                                                 
1  020145AJDID                         TARIK                         05091986AD141952    Pcasa                                                                     MA 13005669                3023   C1110003530000002P117PMX0201201112000000000588800002270000270000000450F1000011504201115032021000027000000  ABB 0000000000                                                                                 
1  012478AIT BOURJ                     EL HABIB                      09051986DR94526     Prue 15 apt5 taza                                                         MA 13005678                3023   C1110005910000002P300PMX1203201112000000000326400002270000150000000450F1000011512201115042021000014379999  ABB 0000000000                                                                                 
1  018030AJDID                         TARIK                         08091977DF45236     PSIDI BOUKNADEL                                                           MA 13005669                3023   C1110003500000002P300PMX0112201012000000000051100002730000020000000450F1000011512201115012021000001873022  ABB 0000000000                                                                                 
1  012478AIT BOURJ                     EL HABIB                      09051986DR94526     Prue 15 apt5 taza                                                         MA 13005678                3023   C1110005930000002P300PMX1203201112000000000326400002270000150000000450F1000011512201115042021000014379999  ABB 0000000000                                                                                 
1  020145OUASSINI                      MOHAMED                       15021970WX0023      PCASA                                                                     MA 13005682                3023   C1110003570000002P300PMX2101201112000000000082200002730000067250000450F1000011512201115022021000003009987  ABB 0000000000                                                                                 
1   11111AJDID                         TARIK                         01011960AW1100      Pres maamora                                                              MA 13005660                3023   C1110004780000002P300PMX0603201111900000002636900013700000200000000450F1000011512201115032021000019247562  ABB 0000000000                                                                                 
1  012478AIT BOURJ                     EL HABIB                      09051986DR94526     Prue 15 apt5 taz                                                          MA 13005678                3023   C1110004790000002P300PMX0603201107200000000105800002270000050000000450F1000010605201106042017000000000000  ABB 0000000000                                                                                 
1        AAMOUM                        MOHAMED                       24041996FR94562     P                                                                         MA 13005674                3022   I1110004180000002P300PMX0706201029700000000910100003320000279000000341F1000032012201120062035000027411981  ABB 0000000000                                                                                 
1   15247AIT BOURJ                     EL HABIB                      09051986DR94526     PHAY ZITOUNE TAR                                                          MA 13005678                3022   I1110004140000002P300PMX0106201019700000001854900003320000600000000227F1000001512201115112026000055870497  ABB 0000000000                                                                                 
1  012478AIT BOURJ                     EL HABIB                      09051986DR94526     Prue15 n13 rabat takadoum                                                 MA 13005678                3022   I1110005370000002P300PMX0803201129700000001308700003320000500000000390F1000001512201115122035000039419636  ABB 0000000000                                                                                 
1  012523HADDAOUI                      MUSTAPHA                      14041990AB95632     PAIN LOUH                                                                 MA 13005845                3022   I1110004150000002P300PMX0104201030000000001396500003320000435000000420F1000001512201115042035000042062579  ABB 0000000000                                                                                 
1   15269AIT BOURJ                     EL HABIB                      09051986DR94526     P                                                                         MA 13005678                3022   I1110004100000002P300PMX0106201030000000001913500003320000600000000227F1000001512201115062035000057634108  ABB 0000000000                                                                                 
1  012478AIT BOURJ                     EL HABIB                      09051986DR94526     Prue 15 apt5 taz                                                          MA 13005678                3022   I1110005310000002P300PMX0703201130000000000615700003320000188000000450F1000001512201115032036000018544233  ABB 0000000000                                                                                 
1                                                                    00000000            P                                                                         MA 8410539                 3022   I1010000180000002P300UMX3010201012000000000000000000030007000000000341F1000003011201031102020000638380961  ABB 0000000000                                                                                 
1                                                                    00000000            P                                                                         MA                         3022   I1010001390000002P300UMX0103201030000000000000000004070000600000000227F1000003103201028022035000056947740  ABB 0000000000                                                                                 
1                                                                    00000000            P                                                                         MA                         3022   I1010001380000002P300UMX0103201030000000020350000004070000600000000227F1000000602201106112035000000000000  ABB 0000000000                                                                                 
100000000ASKARI                        FATIMA                        05091994DF98523     P                                                                         MA 13005671                3022   I1010002590000002P300PMX0102201015200000000000000003320000350000000227F1000002802201029092022000000000000  ABB 0000000000                                                                                 
1        AAMOUM                        MOHAMED                       05091986HH54263     P                                                                         MA 13005675                3022   I1010002580000002P300PMX0101201030000000001958400003320000600000000227F1000000602201106112035000000000000  ABB 0000000000                                                                                 
1  012478AIT BOURJ                     EL HABIB                      09051986DR94526     Prue15 n13 rabat                                                          MA 13005678                3022   I1110005320000002P300PMX0703201125900000000822300003320000250000000390F1000001512201115102032000024769229  ABB 0000000000                                                                                 
1  012542AAMOUM                        MOHAMMED                      01011990XW33221     PIMM 15 APPT 16 RES ABWAB SALE                                            MA 13005649                3023   C1110005830000002P300PMX1003201108300000000045300002270000032000000450F1000011512201115032018000001995181  ABB 0000000000                                                                                 
1     10MRabat                                                       00000000            P                                                                         MA 8410539                 3022   I1010000100000002P300UMX0102201024000000000000000000030000600000000450F1000033105201031072030000057607335  ABB 0000000000                                                                                 
100000000HADDAOUI                      MUSTAPHA                      05091989AB6523      P                                                                         MA 13005650                3022   I1010002520000002P300PMX0102201030000000001395300003320000435000000450F1000003012201128022035000042027598  ABB 0000000000                                                                                 
1        OUASSINI                      MOHAMED                       01011975WX0023      P                                                                         MA 13005682                3022   I1010002510000002P300PMX0612201012000000000616900003320000200000000420F1000003012201130122020000018581701  ABB 0000000000                                                                                 
100000000HADDAOUI                      MUSTAPHA                      01011971AA332211    P                                                                         MA 13005634                3022   I1010002500000002P300PMX0102201030000000001395300003320000435000000450F1000003012201128022035000042027598  ABB 0000000000                                                                                 
1  012478AIT BOURJ                     EL HABIB                      09051986DR94526     Prue 15 apt5 taza                                                         MA 13005678                3023   C1110005870000002P300PMX1003201112000000000326400002270000150000000450F1000011512201115042021000014379999  ABB 0000000000                                                                                 
1   00000AJDID                         TARIK                         05091986AD141952    PXXXXX                                                                    MA 13005667                3023   C1110005880000002P300PMX1203201108400000000114000002270000050000000450F1000010101202301122029000000000000  ABB 0000000000                                                                                 
1   30021OUASSINI                      MOHAMED                       15021970WX0023      PNUM 10 APPT 15                                                           MA 13005682                3023   C1110004680000002P300PMX0603201111900000001272400006060000220000000250F1000011512201115032021000020995927  ABB 0000000000                                                                                 
1   28900HADDAOUI                      MUSTAPHA                      01011971AA332211    Pres maamora                                                              MA 13005634                3023   C1110003480000002P300PMX2012201012000000000191800002730000075000000450F1000011512201115012021000007023848  ABB 0000000000                                                                                 
1 1122335BOUZAIDI                      ACHRAF                        01011980SQ21112     PNUM 10 APPT 15                                                           MA 13005689                3023   C1110004690000002P300PMX0603201111900000000366300002730000140000000450F1000011512201115032021000013416895  ABB 0000000000                                                                                 
1  029360AJDID                         TARIK                         08091977DF45236     PLAAYOUNE                                                                 MA 13005669                3023   C1010003090000002P300PMX0612201012000000001542700006060000270000000450F1000011512201115012021000025456742  ABB 0000000000                                                                                 
1  029359AJDID                         TARIK                         05091986AD141952    PBLOC A NO 12 HA                                                          MA 13005667                3023   C1010003080000002P300PMX0602201012000000000692900002730000270000000450F1000011512201115012021000025380669  ABB 0000000000                                                                                 
1                                                                    00000000            P                                                                         MA 8410539                 3022   I1010000040000002P300UMX0102201012000000000000000000030000600000000450F1000003103201029022020000051548483  ABB 0000000000                                                                                 
1  015236OUASSINI                      MOHAMED                       15021970QS98546     PTEST TEST                                                                MA 13005672                3022   I1110004250000002P300PMX0103201129700000001982100003320000600000000227F1000031512201115032036000059700949  ABB 0000000000                                                                                 
1   12530AAMOUM                        MOHAMMED                      01011990XW33221     PAPPT1 RUE 5 AVENUE ALLAL IBN ADELLAH                                     MA 13005649                3022   I1110006660000002P300PMX0607200830000000001847100003320000600000000420F1000001512201115072033000055635075  ABB 0000000000                                                                                 
1  012478AIT BOURJ                     EL HABIB                      09051986DR94526     Prue15 n13 rabat takadoum                                                 MA 13005678                3022   I1110005480000002P300PMX0803201112000000000471600003320000150000000390F1000001512201115032021000014203428  ABB 0000000000                                                                                 
1   15200AIT BOURJ                     EL HABIB                      01011980VX00121     PAPPT5 IMMB8 RUE 8 AVENUE ERRAZ KENITRA                                   MA 13005687                3022   I1110006690000002P300PMX0109200818700000000886200003320000450000000227F1000011512201115062024000026692868  ABB 0000000000                                                                                 
1  010325AAMOUM                        MOHAMED                       24041996FR94562     PRABAT                                                                    MA 13005674                3022   I1110004260000002P300UMX0203201130000000000000000004380000600000000420F1000001504201115032036000059135628  ABB 0000000000                                                                                 
1   01254AAMOUM                        MOHAMED                       05041987AZ59633     PRES SALAM N 15                                                           MA 13005676                3022   I1110005470000002P300PMX0803201125000000000810500003320000250000000227F1000001512201115012032000024411286  ABB 0000000000                                                                                 
199999999                                                            00000000            PBoulvard hassan                                                          MA                         3022   I1110004210000002P300PMX0101201024000000001974300003320000600000000227F1000030602201128042031000000000000  ABB 0000000000                                                                                 
1   28152AJDID                         TARIK                         13061988A66655      PLOT EL IRAKI APPT1 AVENUE MED  RABAT                                     MA 13005635                3022   I1110006650000002P300PMX0607200830000000001862100003320000600000000450F1000011512201115092033000056050168  ABB 0000000000                                                                                 
100000000EL YOUSFI                     BRAHIM                        17011994DA80448     P                                                                         MA 8410539                 3022   I1010002470000002P300UMX0110201012000000006539000001300000600000000420F1000010612201001012021000000000000  ABB 0000000000                                                                                 
1  010563HADDAOUI                      MUSTAPHA                      01011971AA332211    PAPPT1 IMMB8 AVENUE MOHAMED TRII CASABLANCA 20000                         MA 13005634                3022   I1110006640000002P300PMX0607200930000000001860900003320000600000000227F1000001512201115072034000056050778  ABB 0000000000                                                                                 
1   12300ASKARI                        FATIMA                        01011987A3000       Pres maamoura 12                                                          MA 13005662                3023   C1110004510000002P300PMX0503201104700000000068900002270000035000000450F1000011512201115032015000003034919  ABB 0000000000                                                                                 
1  012478AIT BOURJ                     EL HABIB                      09051986DR94526     Prue 15 apt5 taza                                                         MA 13005678                3023   C1110005730000002P300PMX1003201112000000000065300002270000030000000450F1000011512201115042021000002875998  ABB 0000000000                                                                                 
1  021445AAMOUM                        MOHAMMED                      01011980ZZ222       Ptanger                                                                   MA 13005684                3023   C1110004530000002P300PMX0503201108300000000127300002730000050000000450F1000011512201115032018000004663722  ABB 0000000000                                                                                 
1  033200ASKARI                        FATIMA                        01011991A3212       Pvilla floride bd zerktouni                                               MA 13005640                3023   C1110005740000002P300PMX1003201108300000000154500002270000073000000450F1000011512201115032018000006807749  ABB 0000000000                                                                                 
1 0254545AAMOUM                        MOHAMED                       24041996FR94562     PIMM 15 APPT 15 RES SEMIRAMIS SID HAJJI                                   MA 13005674                3023   C1110005750000002P300PMX1003201107100000000521100002270000250000000450F1000011512201115032017000022954310  ABB 0000000000                                                                                 
1  012211AAMOUM                        MOHAMED                       24041996FR94562     Pn 15 appt 06 res essafae                                                 MA 13005674                3023   C1110005700000002P300PMX1003201104700000000070900002270000036000000450F1000011512201115032015000003121630  ABB 0000000000                                                                                 
1   01201ALAOUI                        AYMANE                        05091978FR9456      Pav madagascar n 15 sala al jadda                                         MA 13005680                3023   C1110005710000002P300PMX1003201111900000000261600002730000100000000450F1000011512201115032021000009583501  ABB 0000000000                                                                                 
1  018030AJDID                         TARIK                         05091986AD141952    PSIDI BOUKNADEL                                                           MA 13005667                3023   C1010003110000002P300PMX0612201012000000000692900002730000270000000450F1000011512201115012021000025380669  ABB 0000000000                                                                                 
1   01233HADDAOUI                      MUSTAPHA                      01011991DD55500     Pres maamora                                                              MA 13005654                3023   C1010003180000002P300PMX0101201012000000000379700002730000150000000450F1000001512201115012020000013908325  ABB 0000000000                                                                                 
1  018021OUASSINI                      MOHAMED                       15021970WX0023      Pres salamat n15 appt 16                                                  MA 13005682                3023   C1110005790000002P300PMX1003201109500000000458000006060000080000000450F1000011512201115032019000007557818  ABB 0000000000                                                                                 
1  015245OUASSINI                      MOHAMED                       15021970QS98546     PSETTAT                                                                   MA 13005672                3022   I1110004360000002P300PMX0105201016600000001071300003320000350000000420F1000001512201115032024000032267476  ABB 0000000000                                                                                 
1        AIT BOURJ                     EL HABIB                      09051986DR94526     P                                                                         MA 13005678                3022   I1110005560000002P300PMX0903201130000000001634400003320000500000000341F1000001512201115032036000049229377  ABB 0000000000                                                                                 
1  012563AIT BOURJ                     EL HABIB                      09051986DR94526     PHAY EL MENZEH AVENUE DES FAR RBAT                                        MA 13005678                3022   I1110005590000002P300PMX0110201019700000000954000003320000600000000227F1000001512201115032027000028735731  ABB 0000000000                                                                                 
1  MBANQUrabat                         Marocaine                     00000000            P                                                                         MA 8410539                 3022   I1010000340000002P300UMX3110201030000000000000000004070000600000000450F1000013009201030092035000058773458  ABB 0000000000                                                                                 
1   15284AAMOUM                        MOHAMED                       24041996FR94562     PN37 CITE MILITA                                                          MA 13005674                3022   I1110004320000002P300PMX0303201130000000001955400003320000600000000227F1000001512201115032036000058898706  ABB 0000000000                                                                                 
1  012478AIT BOURJ                     EL HABIB                      09051986DR94526     Prue15 n13 rabat takadoum                                                 MA 13005678                3022   I1110005530000002P300PMX0903201130000000001479200003320000452000000390F1000001512201115032036000044555253  ABB 0000000000                                                                                 
1  010862AJDID                         TARIK                         13061988AZ9562      PN8 RUE NAHDA                                                             MA 13005909                3022   I1110004310000002P300PMX0106201030000000001230300003320000560000000227F1000001512201115062035000037056725  ABB 0000000000                                                                                 
1  012478AIT BOURJ                     EL HABIB                      09051986DR94526     Prue15 n13 rabat takadoum                                                 MA 13005678                3022   I1110005520000002P300PMX0903201128800000001472200003320000450000000450F1000001512201115032035000044342884  ABB 0000000000                                                                                 
1        AIT BOURJ                     EL HABIB                      01011990QQ3322      P                                                                         MA 13005647                3022   I1110006730000002P300PMX0105200830000000001845700003320000600000000450F1000001512201115052033000055594237  ABB 0000000000                                                                                 
1  012478AIT BOURJ                     EL HABIB                      09051986DR94526     Prue15 n13 rabat takadoum                                                 MA 13005678                3022   I1110005550000002P300PMX0603201130600000002000100003320000600000000227F1000001502201215092036000059452008  ABB 0000000000                                                                                 
1  012345EL YOUSFI                     BRAHIM                        17011994DA80448     Prabat agdal                                                              MA 8410539                 3022   I1010001590000002P300PMX0101201030000000000000000013700000300000000227F1000002003201020022035000018984081  ABB 0000000000                                                                                 
100000000ASKARI                        FATIMA                        20121978DF98523     P                                                                         MA 13005671                3022   I1010002710000002P300PMX0102201020000000001029400003320000350000000227F1000000112201101102026000031005193  ABB 0000000000                                                                                 
1 0125236BOUZAIDI                      ACHRAF                        01011980SQ21112     Pappt1 rue5 avenue allal ibn abellh                                       MA 13005689                3022   I1110006700000002P300PMX0101200830000000001476500003320000500000000227F1000001512201115012033000044473006  ABB 0000000000                                                                                 
1  012000AJDID                         TARIK                         13061988A66655      PTEST                                                                     MA 13005635                3022   I1110005500000002P300PMX0903201115200000001117300003320000350000000227F1000000112201101122023000033654067  ABB 0000000000                                                                                 
1   00211OUASSINI                      MOHAMED                       01011990AA3322      PAPPT1 IMMB E RESIDENCE SEKKAT ABAT                                       MA 13005644                3022   I1110006710000002P300PMX0101200708400000000360300003320000150000000420F1000001512201115012014000010853893  ABB 0000000000                                                                                 
100000000AIT BOURJ                     EL HABIB                      01011990QQ3322      P                                                                         MA 13005647                3022   I1010002740000002P300UMX0101201012000000003392800002030000200000000227F1000000602201106112020000000000000  ABB 0000000000                                                                                 
100000000OUASSINI                      MOHAMED                       01011975WX0023      P                                                                         MA 13005682                3022   I1010002730000002P300PMX0102201016600000000603300003320000200000000420F1000000112201101122023000018172579  ABB 0000000000                                                                                 
1                                                                    00000000            P                                                                         MA                         3022   I1010001510000002P300UMX0101201012000000000000000004070000150000000227F1000003101201031122019000000000000  ABB 0000000000                                                                                 
1   01254OUASSINI                      MOHAMED                       15021970WX0023      Pvilla floride bd zerktouni                                               MA 13005682                3023   C1110006020000002P300PMX1003201108300000001430500000000000250000000450F0000011005201110032018000000000000  ABB 0000000000                                                                                 
1                                                                    00000000            P                                                                         MA                                E1110006970000002P300PMX0608201008400000000231500011000000300000000200F1000013012201130082017000025254067  ABB 0000000000                                                                                 
1                                                                    00000000            P                                                                         MA                                E1110006950000002P300PMX0608200912000000000279200011000000600000000650F1000013012201130072019000030453182  ABB 0000000000                                                                                 
1   01222ASKARI                        FATIMA                        01011987A3000       PN 15 APPT 16 AGDAL                                                       MA 13005662                3023   C1110007060000002P300PMX0106201111900000000777000002270000350000000450F1000011512201115062021000034093592  ABB 0000000000                                                                                 
100000000AIT BOURJ                     EL HABIB                      01011990QQ3322      P                                                                         MA 13005647                3022   I1010002680000002P300PMX0102201030000000000634500003320000200000000227F1000011512201115032035000019112737  ABB 0000000000                                                                                 
1   10236AIT BOURJ                     EL HABIB                      09051986DR94526     PRABAT                                                                    MA 13005678                3022   I1110004470000002P300UMX0403201130000000000000000004380000600000000420F1000001504201115032036000059135628  ABB 0000000000                                                                                 
1  012478AIT BOURJ                     EL HABIB                      09051986DR94526     Prue15 n13 rabat takadoum                                                 MA 13005678                3022   I1110005680000002P300PMX1003201130000000001305400003320000500000000390F1000001512201115032036000039319061  ABB 0000000000                                                                                 
1  102563ASKARI                        FATIMA                        01011991A3212       PJKNJKNKJKOJ                                                              MA 13005640                3022   I1110006890000002P300PMX1005200930000000001732800003320000550000000450F1000001512201115052034000052193215  ABB 0000000000                                                                                 
1   12540AAMOUM                        MOHAMED                       24041996FR94562     PRABAT                                                                    MA 13005674                3022   I1110004460000002P300PMX0403201130000000001966200003320000600000000450F1000001512201115032036000059222997  ABB 0000000000                                                                                 
100000000AIT BOURJ                     EL HABIB                      09051986DR94526     PZZZZZZZZZZZZZZ                                                           MA 13005678                3022   I1110004490000002P300PMX0101201007200000000360400003320000150000000390F1000001512201115012016000010854733  ABB 0000000000                                                                                 
1        AAMOUM                        MOHAMED                       24041996FR94562     P                                                                         MA 13005674                3022   I1110004480000002P300PMX0403201130000000000262000003320000080000000420F1000001512201115032036000007891244  ABB 0000000000                                                                                 
1   25000BOUZAIDI                      ACHRAF                        01011980SQ21112     PFDSF                                                                     MA 13005689                3022   I1110006850000002P300PMX1001200830000000001476500003320000500000000227F1000001512201115012033000044473006  ABB 0000000000                                                                                 
1                                                                    00000000            P                                                                         MA                         3022   I1010000280000002P300UMX0102201024000000000000000000030000600000000450F1000003103201028022030000000000000  ABB 0000000000                                                                                 
1   82536SAMIR                         SAMIR                         12121999B12222      PMERS EL KHEIR N                                                          MA 13003804                3022   I1110004450000002P300PMX0403201116600000001444500003320000450000000450F1000001512201115012025000043507815  ABB 0000000000                                                                                 
1  012478EL HANAFI                     RADIA                         05091979D159463     Prue15 n13 rabat takadoum                                                 MA 13006306                3022   I1110005660000002P300PMX1003201130000000001636300003320000500000000390F1000001512201115032036000049286784  ABB 0000000000                                                                                 
1   15236WAKIL                         BILAL                         12041990IE506050    PAPPT5 IMMB8                                                              MA 13005340                3022   I1110004440000002P300PMX0403201127900000001853900003320000600000000227F1000001512201115062034000055840309  ABB 0000000000                                                                                 
1   15123EL YAZGHI                     TAHAR                         08091980XX95236     PRUE EL BYROUNI AVENUE LA RESISANCE N 5 IMM B9 RABAT                      MA 13006305                3022   I1110005650000002P300PMX0110201030000000001932200003320000600000000227F1000001512201115102035000058199539  ABB 0000000000                                                                                 
100000000OUASSINI                      MOHAMED                       15021970QS98546     P                                                                         MA 13005672                3022   I1010002600000002P300PMX0102201016600000000000000003320000200000000450F1000001504201115012025000000000000  ABB 0000000000                                                                                 
1        EL YOUSFI                     BRAHIM                        17011994DA80448     P                                                                         MA 13005685                3023   C1110003970000002P300PMX0101201011900000000216600002270000100000000450F1000010604201106012021000000000000  ABB 0000000000                                                                                 
1  125300OUASSINI                      MOHAMED                       01011990AA3322      PTEST                                                                     MA 13005644                3022   I1110006830000002P300PMX1001200730000000001782400003320000600000000450F1000001512201115012032000053687191  ABB 0000000000                                                                                 
1        EL YOUSFI                     BRAHIM                        17011994DA80448     P                                                                         MA 13005685                3023   C1110003920000002P300PMX0103201011900000000197300002270000100000000450F1000013112201129022020000008693546  ABB 0000000000                                                                                 
1        AIT BOURJ                     EL HABIB                      01011990QQ3322      P                                                                         MA 13005647                3022   I1010002630000002P300UMX0101201012000000003392800002030000200000000450F1000000602201106112020000000000000  ABB 0000000000                                                                                 
199998888EL YOUSFI                     BRAHIM                        17011994DA80448     PBouskoura Ville                                                          MA 13005664                3022   I1110004580000002P300PMX0101201012000000001653500003320000600000000227F1000003112201131122019000049802819  ABB 0000000000                                                                                 
1 0108452ASKARI                        FATIMA                        20121978AD845213    PAVENUE EL OUARD                                                          MA 13005670                3022   I1110004570000002P300PMX0603201115200000001110900003320000350000000227F1000001512201115112023000033459930  ABB 0000000000                                                                                 
1  MBANQURabat                         Marocaine                     00000000            P                                                                         MA 8410539                 3022   I1010000570000002P300UMX3010201006000000000416700000030000500000000420F1000000602201106112015000000000000  ABB 0000000000                                                                                 
1        EL YOUSFI                     BRAHIM                        17011994DA80448     P                                                                         MA 8410539                 3022   I1010001780000002P300PMX0101201030000000001660000003320000500000000227F1000000602201106112035000000000000  ABB 0000000000                                                                                 
1 0105236HADDAOUI                      MUSTAPHA                      14041990AB95632     PRABAT                                                                    MA 13005845                3022   I1110004540000002P117PMX0603201130000000001148200003320000350000000420F1000001504201115032036000035000000  ABB 0000000000                                                                                 
1   12231AJDID                         TARIK                         08061989RT9455      P                                                                         MA 13005657                3022   I1110003350000002P300PMX0102201030000000001216100003320000560000000227F1000001512201115022035000036630354  ABB 0000000000                                                                                 
1  015325AJDID                         TARIK                         13061988AZ9562      PAVENUE 5 N8                                                              MA 13005909                3022   I1110004560000002P300PMX0603201129700000001500000003320000450000000450F1000031512201115032036000045000000  ABB 0000000000                                                                                 
1  215487EL YOUSFI                     BRAHIM                        17011994DA80448     PCasablanca Tama                                                          MA 13005649                3022   I1110006980000002P300PMX0101201012000000000325700003320000100000000450F1000003107201131072021000000000000  ABB 0000000000                                                                                 
1        EL YOUSFI                     BRAHIM                        17011994DA80448     P                                                                         MA 8410539                 3022   I1110003340000002P300PMX0101201030000000001958400003320000600000000227F1000000602201102122035000000000000  ABB 0000000000                                                                                 
1  012365OUASSINI                      MOHAMED                       15021970QS98546     PAVENUE KHANSAE                                                           MA 13005672                3022   I1110004550000002P300PMX0603201116600000000642000003320000200000000450F1000001512201115012025000019336806  ABB 0000000000                                                                                 
1   15000BOUZAIDI                      ACHRAF                        01011980SQ21112     PAZE                                                                      MA 13005689                3022   I1110006920000002P300PMX1001200819800000001327000003320000600000000450F1000001512201115072024000039970933  ABB 0000000000                                                                                 
1   12000AIT BOURJ                     EL HABIB                      01011980VX00121     PSRFEFR                                                                   MA 13005687                3022   I1110006910000002P300PMX0109200830600000001868300003320000600000000450F1000001512201115032034000056275115  ABB 0000000000                                                                                 
1  012478AIT BOURJ                     EL HABIB                      09051986DR94526     Prue 15 apt5 taz                                                          MA 13005678                3022   I1110005720000002P300PMX1003201130000000001963600003320000600000000390F1000001512201115032036000059144141  ABB 0000000000                                                                                 
1   54202OUASSINI                      MOHAMED                       01011990AA3322      PQSDQS                                                                    MA 13005644                3022   I1110006930000002P300PMX0102200730000000001385100003320000600000000227F1000001512201115022032000041720756  ABB 0000000000                                                                                 
1        EL YOUSFI                     BRAHIM                        17011994DA80448     P                                                                         MA 8410539                 3022   I1010001760000002P300PMX0101201030000000000000000003320000600000000227F1000003101201031122034000056605686  ABB 0000000000                                                                                 
1  018030AJDID                         TARIK                         05091986AD141952    PABB                                                                      MA 13005667                3023   C1110003830000002P117PMX0201201112000000000043600002270000020000000450F1000011504201115032021000002000000  ABB 0000000000                                                                                 
1  125400AAMOUM                        MOHAMMED                      01011990XW33221     PKJKMLM                                                                   MA 13005649                3022   I1110006900000002P300PMX1607200830000000001801900003320000600000000227F1000001512201115072033000054274952  ABB 0000000000                                                                                 
1  123456EL YOUSFI                     BRAHIM                        17011994DA80448     P                                                                         MA 8410539                 3022   I1010001680000002P300PMX0612201030000000000000000002270000300000000227F1000003112201030112035000019416434  ABB 0000000000                                                                                 
1   15230ALAOUI                        AYMANE                        05091978FR9456      P                                                                         MA 13005680                3022   I1110003470000002P300PMX0102201017300000001201700003320000560000000420F1000001512201115072024000036196009  ABB 0000000000                                                                                 
1  013333AJDID                         TARIK                         13061988A66655      PTEST TEST                                                                MA 13005635                3022   I1110005890000002P300PMX1203201130000000000894200003320000270000000227F1000030112201101072036000026932274  ABB 0000000000                                                                                 
1  013953EL YOUSFI                     BRAHIM                        17011994DA80448     P                                                                         MA 8410539                 3022   I1010001670000002P300PMX0612201030000000000000000002270000500000000227F1000003112201030112035000048541082  ABB 0000000000                                                                                 
1   12344HADDAOUI                      MUSTAPHA                      14041990RC94632     Pres maamora                                                              MA 13005653                3023   C1110004900000002P300PMX0503201111900000000206600002270000095000000450F1000011512201115032021000009102688  ABB 0000000000                                                                                 
1   15236HAMMANI                       ANAS                          05041987DR9456      P                                                                         MA 13005685                3022   I1110003490000002P300PMX0103201030000000001924300003320000600000000420F1000001512201115032035000057960548  ABB 0000000000                                                                                 
1  105263AIT BOURJ                     EL HABIB                      09051986DR94526     PRABAT                                                                    MA 13005678                3022   I1110004650000002P300PMX0603201130000000001966200003320000600000000450F1000001512201115032036000059222997  ABB 0000000000                                                                                 
1  012478AIT BOURJ                     EL HABIB                      09051986DR94526     Prue 15 apt5 taz                                                          MA 13005678                3022   I1110005860000002P300PMX1003201130000000001636300003320000500000000390F1000001512201115032036000049286784  ABB 0000000000                                                                                 
1   56210ALAOUI                        AYMANE                        05091978FR9456      P                                                                         MA 13005680                3022   I1110003430000002P300PMX0102201015000000000802400003320000262500000420F1000001512201115082022000024169316  ABB 0000000000                                                                                 
1 0104823AAMOUM                        MOHAMED                       24041996FR94562     PRABAT CENTRE                                                             MA 13005674                3022   I1110004640000002P300PMX0603201130000000001140700003320000350000000227F1000001512201115032036000034357582  ABB 0000000000                                                                                 
1 0129452HADDAOUI                      MUSTAPHA                      14041990RC94632     PAVENUE ZREKTOUNI RUE NOUR APPT IMMB9 CASA                                MA 13005653                3022   I1110005850000002P300PMX0105201030000000001966200003320000600000000450F1000001302201113022036000000000000  ABB 0000000000                                                                                 
1   15263ALAOUI                        AYMANE                        05091978FR9456      P                                                                         MA 13005680                3022   I1110003450000002P300PMX0106201014400000000794300003320000262500000420F1000001512201115062022000023925226  ABB 0000000000                                                                                 
1    1233HADDAOUI                      MUSTAPHA                      01011990AA332211    Pres maamora                                                              MA 13005654                3023   C1010001960000002P300PMX0101201012000000000313600000000000150000000450F0000001512201115022020000013815249  ABB 0000000000                                                                                 
1  020145AJDID                         TARIK                         08091977DF45236     PCASA                                                                     MA 13005669                3023   C1110004950000002P300PMX0503201107100000001253500002730000500000000450F1000011512201115032017000045917357  ABB 0000000000                                                                                 
100000000OUASSINI                      MOHAMED                       01011975WX0023      P                                                                         MA 13005682                3022   I1010002820000002P300UMX0102201030000000000000000004380000600000000420F1000000104201001032035000058742080  ABB 0000000000                                                                                 
1        ALAOUI                        AYMANE                        05091978FR9456      P                                                                         MA 13005680                3022   I1110003400000002P300PMX0101201012000000000280700003320000100000000227F1000003112201129022020000008454533  ABB 0000000000                                                                                 
1  012478AIT BOURJ                     EL HABIB                      09051986DR94526     Pn 15 apt 12 rue                                                          MA 13005678                3022   I1110004610000002P300UMX0101201012000000000000000002030000200000000227F1000001502201015012020000016696684  ABB 0000000000                                                                                 
1   12563AAMOUM                        MOHAMED                       24041996FR94562     PAVENUE LALLA AMINA IMMB 8 APPT  RABAT                                    MA 13005674                3022   I1110005820000002P300PMX1003201130000000001966200003320000600000000450F1000001512201115032036000000000000  ABB 0000000000                                                                                 
1  012478AJDID                         TARIK                         01011960AW1100      Prue 15 apt5 TAZA rue 15 apt5 TZA rue 15 apt5 TAZA TEST 1 TES             MA 13005678                3023   C1110004960000002P300PMX0110201101200000182302000013700000250000000450F1000011512201115112012000025000000  ABB 0000008000                                                                                 
1   28288EL YOUSFI                     BRAHIM                        17011994DA80448     PMENZAH ZEIR                                                              MA 8410539                 3022   I1010001600000002P300PMX2802201028000000000000000002270000500000000227F1000003004201030072033000047342549  ABB 0000000000                                                                                 
1 0105892HADDAOUI                      MUSTAPHA                      14041990AB95632     PRUE MARASSA BAB                                                          MA 13005845                3022   I1110004630000002P300PMX0603201130000000001472700003320000450000000390F1000001512201115032036000044358108  ABB 0000000000                                                                                 
1        AAMOUM                        MOHAMED                       24041996FR94562     P                                                                         MA 13005674                3022   I1110005840000002P300PMX1003201130000000000270400003320000082500000450F1000001512201115032036000000000000  ABB 0000000000                                                                                 
1  012478AIT BOURJ                     EL HABIB                      09051986DR94526     Prue 15 apt5 taz                                                          MA 13005678                3023   C1110004980000002P300PMX0503201108800000000063800002270000030000000450F1000011512201115082018000002812197  ABB 0000000000                                                                                 
199998888EL YOUSFI                     BRAHIM                        17011994DA80448     PBouskoura Ville                                                          MA 13005664                3022   I1110004620000002P300PMX0101201025000000041847000003320000600000000227F1000003112201131102030000028021831  ABB 0000001100                                                                                 
1   01254EL YOUSFI                     BRAHIM                        17011994DA80448     Ptemara                                                                   MA 8410539                 3022   I1010001630000002P300PMX0105201030000000000000000002270000400000000227F1000003105201030042035000038159520  ABB 0000000000                                                                                 
1  012478AIT BOURJ                     EL HABIB                      09051986DR94526     Prue 15 apt5 taz                                                          MA 13005678                3023   C1110004990000002P300PMX0603201108000000000168800002270000080000000450F1000011512201115122017000007435031  ABB 0000000000                                                                                 
1                                                                    00000000            P                                                                         MA                                E1110006610000002P300PMX0301201112000000000733300011000000800000000650F1000120112201101012021000080000000  ABB 0000000000                                                                                 
1                                                                    00000000            P                                                                         MA                                E1110006600000002P300PMX0401200906000000000550000011000000050000000000F1000590401201201012014000005000000  ABB 0000000000                                                                                 
1                                                                    00000000            Pt                                                                       MA 8410539                 3022   I1010000790000002P300UMX0102201024000000023240000000030007000000000450F1000000602201106112030000000000000  ABB 0000000000                                                                                 
1  152369AAMOUM                        MOHAMED                       24041996FR94562     PHAY LINBIAT IMMEUBLE 5 APPARTEENT10  AVENUE MOHAMMED V SALE              MA 13005674                3022   I1110005970000002P300PMX0403201130300000001997800003320000600000000420F1000001512201115062036000059489385  ABB 0000000000                                                                                 
1   15263HADDAOUI                      MUSTAPHA                      14041990AB95632     P                                                                         MA 13005845                3022   I1110003540000002P300PMX0112201030000000001143200003320000350000000450F1000001512201115122035000034434282  ABB 0000000000                                                                                 
101999999AIT BOURJ                     EL HABIB                      09051986DR94526     Prue 15 apt5 taz                                                          MA 13005678                3022   I1110004750000002P300PMX0603201130000000000000000003320000500000000390F1000001504201115032036000000000000  ABB 0000000000                                                                                 
1   01254OUASSINI                      MOHAMED                       15021970WX0023      PAVENUE DES FAR N 15                                                      MA 13005682                3022   I1110005960000002P300PMX1303201120000000000812300003320000250000000227F1000011512201115012028000024412042  ABB 0000000000                                                                                 
1        AIT BOURJ                     EL HABIB                      09051986DR94526     P                                                                         MA 13005678                3022   I1110005990000002P300PMX0403201130000000000491600003320000400000000450F1000001512201115032036000014805750  ABB 0000000000                                                                                 
1  011111ZNATI                         AMINA                         14051980AD15236     P                                                                         MA 13005840                3022   I1110003560000002P300UMX0112201008400000000000000002030000150000000227F1000001501201115122017000013181511  ABB 0000000000                                                                                 
1  125403AIT BOURJ                     EL HABIB                      09051986DR94526     PRUE LALLA YAKOUT  AVENUE HASSA2                                          MA 13005678                3022   I1110005980000002P300PMX0403201125600000001795800003320000600000000420F1000001512201115072032000054090315  ABB 0000000000                                                                                 
1  012369AJDID                         TARIK                         13061988A66655      P                                                                         MA 13005635                3022   I1110003510000002P300PMX0112201030000000001135900003320000350000000450F1000001512201115122035000034214120  ABB 0000000000                                                                                 
1  012478AIT BOURJ                     EL HABIB                      09051986DR94526     Prue 15 apt5 taz                                                          MA 13005678                3022   I1110005920000002P300PMX1203201130000000001636300003320000500000000390F1000001512201115032036000049286784  ABB 0000000000                                                                                 
100000000AJDID                         TARIK                         01011990A66655      Pres maamoura 12                                                          MA 13005635                3023   C1010002430000002P300PMX0101201001200000000018600002730000020000000450F1000000603201106112011000000000000  ABB 0000000000                                                                                 
1  012478AIT BOURJ                     EL HABIB                      09051986DR94526     PQUARTIER 1 VILLE2 RUE 9 CASA B                                           MA 13005678                3022   I1110005900000002P300PMX1203201130000000001963600003320000600000000390F1000001512201115032036000059144141  ABB 0000000000                                                                                 
1    1234AJDID                         TARIK                         08091977DF45236     PFES                                                                      MA 13005669                3023   C1110004060000002P300PMX1501201105100000000023500002730000010000000450F1000011512201115062015000000861002  ABB 0000000000                                                                                 
100000000AJDID                         TARIK                         01011990A66655      Pres maamora                                                              MA 13005635                3023   C1010002450000002P300PMX0101201012000000000129600002730000050000000450F1000000603201106112020000000000000  ABB 0000000000                                                                                 
1  029359EL YOUSFI                     BRAHIM                        17011994DA80448     P                                                                         MA 13005685                3023   C1110004070000002P300PMX0101201012000000000194500002270000100000000450F1000013112201131012020000008534144  ABB 0000000000                                                                                 
1   28002OUASSINI                      MOHAMED                       15021970WX0023      PRES SALAM N 15                                                           MA 13005682                3023   C1110005210000002P300PMX0603201108700000000324800006060000055000000450F1000001512201115072018000005359698  ABB 0000000000                                                                                 
1  021444AAMOUM                        MOHAMED                       24041996FR94562     PRES SALAM N 15                                                           MA 13005674                3023   C1110005220000002P300PMX0603201112300000000466200002270000210000000450F1000001512201115072021000020537511  ABB 0000000000                                                                                 
1                                                                    00000000            P                                                                         MA                                E1110006500000002P300PMX0101200808400000000746600011000000150000000200F1000010102201201012015000007150952  ABB 0000000000                                                                                 
199999999EL YOUSFI                     BRAHIM                        17011994DA80448     PRoudani                                                                  MA 13005685                3023   C1110005090000002P300PMX0101201012000000001305700002270000600000000450F1000010604201106032021000000000000  ABB 0000000000                                                                                 
1  MBANQUrabat                         Marocaine                     00000000            P                                                                         MA 8410539                 3022   I1010000690000002P300UMX0105201012000000000000000004070000400000000420F1000000105201001042020000000000000  ABB 0000000000                                                                                 
1   14263AJDID                         TARIK                         13061988A66655      P                                                                         MA 13005635                3022   I1110003690000002P300PMX0402201130000000001962900003320000600000000450F1000003012201129022036000059123914  ABB 0000000000                                                                                 
1                                                                    00000000            P                                                                         MA                                E1110006590000002P300PMX0307201009000000000079400011000000400000000650F1000010112201101012018000008662359  ABB 0000000000                                                                                 
1                                                                    00000000            P                                                                         MA                                E1110006580000002P300PMX0106201112000000000000000011000000350000000700F1000000107201101062021000034014759  ABB 0000000000                                                                                 
1        EL YOUSFI                     BRAHIM                        17011994DA80448     P                                                                         MA 13005685                3022   I1110003660000002P300UMX0103201024000000000000000003030000500000000227F1000003004201031032030000046718884  ABB 0000000000                                                                                 
1        EL YOUSFI                     BRAHIM                        17011994DA80448     P                                                                         MA 13005685                3022   I1110003650000002P300PMX0101201030000000001890100003320000600000000227F1000003112201131012035000056929471  ABB 0000000000                                                                                 
1  012478AAMOUM                        MOHAMMED                      01011985XW9002      Prue 15 apt5 taz                                                          MA 13005678                3022   I1110004860000002P300PMX0603201112000000000628700003320000200000000390F1000001512201115032021000018937899  ABB 0000000000                                                                                 
1                                                                    00000000            P                                                                         MA                                E1110006560000002P300PMX0101201012000000000000000011000000100000000200F1000063101201031122019000000000000  ABB 0000000000                                                                                 
1        EL YOUSFI                     BRAHIM                        17011994DA80448     P                                                                         MA 13005685                3022   I1110003680000002P300PMX0101201030000000001284800003320000400000000450F1000003112201128022035000038698858  ABB 0000000000                                                                                 
1                                                                    00000000            P                                                                         MA                                E1110006550000002P300PMX0806200808400000001493100011000000300000000200F1000010107201201062015000016110716  ABB 0000000000                                                                                 
1        EL YOUSFI                     BRAHIM                        17011994DA80448     P                                                                         MA 13005664                3022   I1110003640000002P300PMX0101201030000000001889600003320000600000000227F1000003112201131122034000056914869  ABB 0000000000                                                                                 
1        EL YOUSFI                     BRAHIM                        17011994DA80448     P                                                                         MA 13005685                3022   I1110003630000002P300PMX0101201012000000001879000003320000600000000227F1000000602201104012021000000000000  ABB 0000000000                                                                                 
100000000AJDID                         TARIK                         01011990A66655      Pres maamora                                                              MA 13005635                3023   C1010002550000002P300PMX0101201012000000000553400002730000220000000450F1000001512201115022020000020270828  ABB 0000000000                                                                                 
1  MBANQURabat                         Marocaine                     00000000            P                                                                         MA 8410539                 3022   I1010000660000002P300UMX3004201012000000000000000004070000400000000227F1000000105201001042020000000000000  ABB 0000000000                                                                                 
100000000AJDID                         TARIK                         01011990A66655      Pres maamora                                                              MA 13005635                3023   C1010002540000002P300PMX0101201012000000000150900002730000060000000450F1000001512201115022020000005528406  ABB 0000000000                                                                                 
1        AJDID                         TARIK                         01011990A66655      P                                                                         MA 13005635                3022   I1010001860000002P300PMX2001201030000000000260000003320000080000000341F1000000112201101032035000007831382  ABB 0000000000                                                                                 
100000000AJDID                         TARIK                         01011990A66655      Pres maamora                                                              MA 13005635                3023   C1010002530000002P300PMX0101201012000000000000000002270000050000000450F1000001503201015022020000000000000  ABB 0000000000                                                                                 
1                                                                    00000000            P                                                                         MA 8410539                 3022   I1010000640000002P300UMX2208201030000000000000000000030000600000000450F1000003009201031082035000058453203  ABB 0000000000                                                                                 
1        AJDID                         TARIK                         01011990A66655      P                                                                         MA 13005635                3022   I1010001850000002P117PMX2001201030000000000648700003320000600000000227F1000000105201101022035000019809275  ABB 0000000000                                                                                 
1   MSansEL YOUSFI                     BRAHIM                        17011994DA80448     Paaa                                                                      MA 13005648                3023   C1010001310000002P300PMX0101201012000000000192100002270000600000000450F1000003112201131122019000008464127  ABB 0000000000                                                                                 
1   12536AAMOUM                        MOHAMMED                      01011990XW33221     P                                                                         MA 13005649                3022   I1010001840000002P300PMX1001201030000000001968300003320000600000000420F1000000602201106112035000000000000  ABB 0000000000                                                                                 
1  032522OUASSINI                      MOHAMED                       15021970WX0023      PN 15 APPT 2 SAL                                                          MA 13005682                3023   C1110005160000002P300PMX0603201101200000000064400006060000025000000450F1000011512201115042012000001063514  ABB 0000000000                                                                                 
1   01254AJDID                         TARIK                         01011980EZ22110     P2 res 5 sale                                                             MA 13005659                3023   C1110005130000002P300PMX0603201111900000000497100002730000190000000450F1000011512201115032021000018208645  ABB 0000000000                                                                                 
1                                                                    00000000            P                                                                         MA                                E1110006430000002P300PMX0101201012000000005929500011000000600000000200F1000123101201231122019000054417365  ABB 0000000000                                                                                 
1                                                                    00000000            P                                                                         MA                                E1110006420000002P300PMX0106200912000000005837700011000000900000000560F1000030109201201062019000057522828  ABB 0000000000                                                                                 
1                                                                    00000000            P                                                                         MA                                E1110006400000002P300PMX0306201106000000000500000011000000050000000000F1000590107201201062016000005000000  ABB 0000000000                                                                                 
1                                                                    00000000            P                                                                         MA                                E1110006480000002P300PMX0706201108400000002409100011000000250000000200F1000010107201201062018000023880347  ABB 0000000000                                                                                 
1   15230ASKARI                        FATIMA                        20121968AD845213    P                                                                         MA 13005670                3022   I1110003790000002P300PMX3012201015200000001091400003320000350000000227F1000003012201130082023000032874707  ABB 0000000000                                                                                 
1        EL YOUSFI                     BRAHIM                        17011994DA80448     P                                                                         MA 13005685                3022   I1110003780000002P300PMX0101201030000000001980400003320000600000000227F1000030602201105042036000000000000  ABB 0000000000                                                                                 
100000000AJDID                         TARIK                         05091988AZ9562      Pres maamora                                                              MA 13005642                3023   C1010002620000002P300PMX0101201012000000000155600002730000060000000450F1000000603201106112020000000000000  ABB 0000000000                                                                                 
1        AJDID                         TARIK                         13061988A66655      P                                                                         MA 13005635                3022   I1110003730000002P300PMX0402201130000000000261700003320000080000000450F1000003012201129022036000007883193  ABB 0000000000                                                                                 
1  012478AAMOUM                        MOHAMMED                      01011990SQ33200     Prue 15 apt5 taz                                                          MA 13005678                3022   I1110004940000002P300UMX0503201112000000000000000002030000500000000390F1000001504201115032021000047291118  ABB 0000000000                                                                                 
1   12501ASKARI                        FATIMA                        01011991A3212       P                                                                         MA 13005640                3022   I1110003720000002P300PMX0102201130000000001958400003320000600000000227F1000000602201101022036000000000000  ABB 0000000000                                                                                 
1  MBANQURabat                         Marocaine                     00000000            P                                                                         MA 8410539                 3022   I1010000930000002P300PMX2811201012000000000000000003320000500000000420F1000000105201001042020000000000000  ABB 0000000000                                                                                 
1   01254ASKARI                        FATIMA                        01011991A3212       PAVENUE ALLAL IBN ABDELLAH NUM 5 APPT 16 ETG 10 RUE ALLAH BEN             MA 13005640                3023   C1110007400000002P300PMX0110201111900000000341900002270000150000000450F1000011512201115102021000015000000  ABB 0000000000                                                                                 
1  MBANQURabat                         Marocaine                     00000000            P                                                                         MA 8410539                 3022   I1010000920000002P300UMX2208201012000000000000000000030000400000000227F1000000105201001042020000034334736  ABB 0000000000                                                                                 
1        EL YOUSFI                     BRAHIM                        17011994DA80448     P                                                                         MA 13005685                3022   I1110003740000002P300UMX0101201024000000151785000003030000500000000227F1000000602201105012031000000000000  ABB 0000000000                                                                                 
1  MBANQURabat                         Marocaine                     00000000            P                                                                         MA 8410539                 3022   I1010000990000002P300UMX0105201030000000000000000000030000500000000450F1000000105201001042035000000000000  ABB 0000000000                                                                                 
1  MSalarRabat                         Marocaine                     00000000            P                                                                         MA 8410539                 3022   I1010000970000002P300UMX0102201030000000000000000000030000230000000227F1000003103201028022035000021829963  ABB 0000000000                                                                                 
1  012478AIT BOURJ                     EL HABIB                      01011980VX00121     Prue 15 apt5 taz                                                          MA 13005678                3022   I1110004920000002P300UMX0503201112000000000000000002030000150000000390F1000001504201115032021000014187334  ABB 0000000000                                                                                 
1  MBANQURabat                         Marocaine                     00000000            P                                                                         MA 8410539                 3022   I1010000960000002P300UMX0105201030000000000000000000030000700000000390F1000000105201001042035000000000000  ABB 0000000000                                                                                 
1   12563BOUZAIDI                      ACHRAF                        01011980SQ21112     P                                                                         MA 13005689                3022   I1110003700000002P300PMX0402201130000000000000000003320000600000000227F1000003003201129022036000000000000  ABB 0000000000                                                                                 
1  028745AJDID                         TARIK                         01011980EZ22110     Pres agdal n 15                                                           MA 13005659                3023   C1110005030000002P300PMX0603201108300000000483800002730000190000000450F1000011512201115032018000017722137  ABB 0000000000                                                                                 
1  055221AJDID                         TARIK                         01011960AW1100      PRES 04 N 5                                                               MA 13005660                3023   C1110005040000002P300PMX0603201104700000000298400013700000025000000450F1000011512201115032015000002178304  ABB 0000000000                                                                                 
1  012478AIT BOURJ                     EL HABIB                      09051986DR94526     Prue 15 apt5 taz                                                          MA 13005678                3023   C1110005060000002P300PMX0603201108100000000126700002270000060000000450F1000011512201115012018000005582813  ABB 0000000000                                                                                 
1 0125466AAMOUM                        MOHAMMED                      01011990XW33221     Pvilla floride bd zerktouni TES TEST TEST TEST XXXXXXXXXXXXXX             MA 13005649                3023   C1110007410000002P300PMX0110201108400000219029200002270000500000000450F1000011512201115112018000050000000  ABB 0000005000                                                                                 
1  012478AIT BOURJ                     EL HABIB                      09051986DR94526     Prue 15 apt5 taz                                                          MA 13005678                3023   C1110005000000002P300PMX0603201108100000000162600002270000077000000450F1000011512201115012018000007164611  ABB 0000000000                                                                                 
1                                                                    00000000            P                                                                         MA 8410539                 3022   I1010000900000002P300UMX0105201030000000000000000004490000600000000450F1000003105201030042035000058045922  ABB 0000000000                                                                                 
1  012478AIT BOURJ                     EL HABIB                      09051986DR94526     Prue 15 apt5 taz                                                          MA 13005678                3023   C1110005010000002P300PMX0603201108100000000316800002270000150000000450F1000011512201115012018000013957029  ABB 0000000000                                                                                 
1   01254AJDID                         TARIK                         01011980EZ22110     PAVENUE ALLAL IBN ABDELLAH TESTTEST TEST TEST TEST TEST TEST              MA 13005659                3023   C1110007430000002P300PMX0110201111900000004340000002730001600000000450F1000011512201115092021000158973863  ABB 0000000000                                                                                 
