00301082012B                                                                                                                                                                                                                                                                                                                                                                                                   
1   28956RAMA                          HIND                          01011999S4545       PSDGFSD                                                                   MA 13051408                3022   I1210009150000002P300PMX1004201030000000001910600332000000600000000600F1000003005201030042035000057548808  ABB 0000000000                                                                                 
1  215487EL YOUSFI                     BRAHIM                        17011994DA80448     PCasablanca Tama                                                          MA 13005649                3022   I1110007580000002P300PMX0101201010000000000444400332000000150000000227F1000003101201030042018000013223851  ABB 0000000000                                                                                 
1  012478AIT BOURJ                     EL HABIB                      09051986DR94526     Prue 15 apt5 taz                                                          MA 13005678                3022   I1110005190000002P300PMX0603201130000000001126100332000000350000000390F1000001504201115032036000033920157  ABB 0000000000                                                                                 
1  025652OUASSINI                      MOHAMED                       01011990AA3322      PRES 5 N 10 SALA                                                          MA 13005644                3022   I1110005180000002P300PMX0703201130000000000797300332000000250000000227F1000001504201115032036000024014211  ABB 0000000000                                                                                 
1                                                                    01011970            P                                                                         MA 8410539                 3022   I1010001140000002P300UMX0103201030000000000000000003320000700000000450F1000000104201001032035000066430323  ABB 0000000000                                                                                 
1  MCadreRabat                         Marocaine                     01011970            P                                                                         MA 8410539                 3022   I1010001130000002P300UMX0103201030000000000000000003320000600000000450F1000000104201001032035000047450214  ABB 0000000000                                                                                 
1        ALAOUI                        AYMANE                        05091978FR9456      P                                                                         MA 13005680                3022   I1010002340000002P300PMX1001201030000000001849400332000000600000000227F1000000102201001012035000055704214  ABB 0000000000                                                                                 
1  012478AIT BOURJ                     EL HABIB                      09051986DR94526     Prue 15 apt5 taz                                                          MA 13005678                3022   I1110005120000002P300PMX0603201130000000001608800332000000500000000390F1000001504201115032036000048457368  ABB 0000000000                                                                                 
100000000ALAOUI                        AYMANE                        05091978FR9456      P                                                                         MA 13005680                3022   I1010002330000002P300PMX2001201030000000001887000332000000600000000420F1000002802201030012035000056838729  ABB 0000000000                                                                                 
1  012478AIT BOURJ                     EL HABIB                      09051986DR94526     Prue 15 apt5 taz                                                          MA 13005678                3022   I1110005150000002P300PMX0603201107200000000288000332000000110000000390F1000001504201115032017000008674087  ABB 0000000000                                                                                 
1  MCadreRabat                         Marocaine                     01011970            P                                                                         MA 8410539                 3022   I1010001110000002P300UMX0103201030000000000000000003320000600000000227F1000000104201001032035000046443944  ABB 0000000000                                                                                 
100000000HAMMANI                       ANAS                          05041987DR9456      P                                                                         MA 13005685                3022   I1010002320000002P300PMX2001201030000000001887000332000000600000000420F1000002802201030012035000056838729  ABB 0000000000                                                                                 
1  012478AIT BOURJ                     EL HABIB                      09051986DR94526     Prue 15 apt5 taz                                                          MA 13005678                3022   I1110005140000002P300UMX0603201127700000000000000438600000600000000390F1000001504201115042034000057775827  ABB 0000000000                                                                                 
1  012478AIT BOURJ                     EL HABIB                      09051986DR94526     Prue 15 apt5 taz                                                          MA 13005678                3022   I1110005110000002P300PMX0603201107200000000340300332000000130000000390F1000001504201115032017000010251206  ABB 0000000000                                                                                 
1   62300AAMOUM                        MOHAMMED                      01011985XW9002      PAVENUE MED V                                                             MA 13005686                3022   I1110007530000002P300UMX0110201130000000000000000438600000600000000420F1000001511201115102036000058915352  ABB 0000005000                                                                                 
1                                                                    01011970            P                                                                         MA 8410539                 3022   I1010001150000002P300UMX0304201030000000000000000003320000600000000450F1000000105201001042035000057137486  ABB 0000000000                                                                                 
1        ALAOUI                        AYMANE                        05091978FR9456      P                                                                         MA 13005680                3022   I1010002360000002P300PMX1001201030000000002496200332000000800000000341F1000000102201001012035000075186068  ABB 0000000000                                                                                 
199999999EL YOUSFI                     BRAHIM                        17011994DA80448     PCasablanca Tama                                                          MA 13005664                3022   I1110005100000002P300PMX0101201012000000000786200332000000300000000227F1000033101201031032020000023681486  ABB 0000000000                                                                                 
1  012478HADDAOUI                      MUSTAPHA                      01011990QD1100      Prue 15 apt5 taz                                                          MA 13005678                3023   C1110004850000002P300PMX0603201108300000000007900227000000050000000450F1000011504201115032018000004185778  ABB 0000000000                                                                                 
1   12222ASKARI                        FATIMA                        01011987A3000       Pres maamoura 12                                                          MA 13005662                3023   C1110004830000002P300PMX0603201108300000000007900227000000050000000450F1000011504201115032018000004185778  ABB 0000000000                                                                                 
1        EL YOUSFI                     BRAHIM                        17011994DA80448     P                                                                         MA 13005685                3023   C1110003670000002P300PMX1501201011900000000015100227000000100000000450F1000012802201031012020000007982237  ABB 0000000000                                                                                 
1  114420AAMOUM                        MOHAMMED                      01011980ZZ222       PNUM 10 APPT 15                                                           MA 13005684                3023   C1110004890000002P300PMX0503201107400000000014500273000000075000000450F1000001504201115062017000006394217  ABB 0000000000                                                                                 
1  010236AIT BOURJ                     EL HABIB                      01011990QQ3322      PQSDQSD                                                                   MA 13005647                3023   C1210008880000002P300PMX3011201009600000000004700227000000030000000450F1000001512201015112018000002465911  ABB 0000000000                                                                                 
1                                                                    01011970            P                                                                         MA 8410539                 3022   I1010001030000002P300UMX0204201030000000000000000003320000600000000450F1000000105201001042035000057504422  ABB 0000000000                                                                                 
1        AALAM                         HAMZA                         11091990AD25956     P                                                                         MA 13005847                3022   I1110004030000002P300PMX2006201030000000000895500332000000279000000341F1000032009201020112035000026973847  ABB 0000000000                                                                                 
1  013111AALAM                         HAMZA                         11091990AD25956     P                                                                         MA 13005847                3022   I1110004020000002P300PMX2006201030000000001905300332000000600000000227F1000032009201020112035000057387418  ABB 0000000000                                                                                 
1  012478AIT BOURJ                     EL HABIB                      09051986DR94526     Prue 15 apt5 taz                                                          MA 13005678                3022   I1110005260000002P300PMX0703201112900000000670700332000000277000000390F1000001504201115122021000020200599  ABB 0000000000                                                                                 
1  012478AIT BOURJ                     EL HABIB                      09051986DR94526     Prue 15 apt5 taz                                                          MA 13005678                3022   I1110005200000002P300PMX0603201112000000000470200332000000160000000390F1000001504201115032021000014162212  ABB 0000000000                                                                                 
1  015230EL GHAZI                      NABIL                         10061980WQ9452      PRABAT RABAT                                                              MA 13049929                3022   I1110007620000002P300PMX0111201130000000001961500332000000600000000420F1000001512201115112036000059080425  ABB 0000000000                                                                                 
1  526412HADDAOUI                      MUSTAPHA                      01011991DD55500     P                                                                         MA 13005654                3022   I1010002270000002P300PMX1501201030000000000923200332000000300000000227F1000000102201001012035000027805796  ABB 0000000000                                                                                 
1  652417AIT BOURJ                     EL HABIB                      01011990QQ3322      P                                                                         MA 13005647                3022   I1010002260000002P300PMX0102201010000000001593300332000000600000000227F1000000103201001062018000047991563  ABB 0000000000                                                                                 
1  215487EL YOUSFI                     BRAHIM                        01011960DA80448     PCasablanca                                                               MA 13005649                3022   I1110007630000002P300PMX0101201012000000001515800332000000600000000227F1000003101201031122019000045656204  ABB 0000000000                                                                                 
1    1234AJDID                         TARIK                         01011980EZ22110     Pres maamora                                                              MA 13005659                3023   C1110003520000002P300PMX2801201106000000000007400273000000045000000450F1000011502201115022016000003270387  ABB 0000000000                                                                                 
1  020145AJDID                         TARIK                         05091986AD141952    Pcasa                                                                     MA 13005669                3023   C1110003530000002P117PMX1101201112000000000045900227000000270000000450F1000011503201115032021000027000000  ABB 0000000000                                                                                 
1  012478AIT BOURJ                     EL HABIB                      09051986DR94526     Prue 15 apt5 taza                                                         MA 13005678                3023   C1110005910000002P300PMX1203201112000000000025500227000000150000000450F1000011504201115042021000013469560  ABB 0000000000                                                                                 
1  018030AJDID                         TARIK                         08091977DF45236     PSIDI BOUKNADEL                                                           MA 13005669                3023   C1110003500000002P300PMX0812201012000000000004000273000000020000000450F1000011501201115012021000001753451  ABB 0000000000                                                                                 
1  012478AIT BOURJ                     EL HABIB                      09051986DR94526     Prue 15 apt5 taza                                                         MA 13005678                3023   C1110005930000002P300PMX1203201112000000000019900227000000150000000450F1000011504201115042021000010537738  ABB 0000000000                                                                                 
1  020145OUASSINI                      MOHAMED                       15021970WX0023      PCASA                                                                     MA 13005682                3023   C1110003570000002P300PMX3101201112000000000006400273000000067250000450F1000011502201115022021000002815347  ABB 0000000000                                                                                 
1   11111AJDID                         TARIK                         01011960AW1100      Pres maamora                                                              MA 13005660                3023   C1110004780000002P300PMX0603201111900000000206401372000000200000000450F1000011504201115032021000018053372  ABB 0000000000                                                                                 
1        AAMOUM                        MOHAMED                       24041996FR94562     P                                                                         MA 13005674                3022   I1110004180000002P300PMX2006201029700000000892700332000000279000000341F1000032007201020062035000026889704  ABB 0000000000                                                                                 
1   15247AIT BOURJ                     EL HABIB                      09051986DR94526     PHAY ZITOUNE TAR                                                          MA 13005678                3022   I1110004140000002P300PMX1006201019700000001780000332000000600000000227F1000001507201015112026000053614827  ABB 0000000000                                                                                 
1  012478AIT BOURJ                     EL HABIB                      09051986DR94526     Prue15 n13 rabat takadoum                                                 MA 13005678                3022   I1110005370000002P300PMX0803201129700000001286300332000000500000000390F1000001504201115122035000038744718  ABB 0000000000                                                                                 
199999999EL YOUSFI                     BRAHIM                        01011960DA80448     PCasablanca Tamaris rue roudanin12365 , val d'anfa                        MA 8410539                 3022   I1110007790000002P300PMX0104201010000000017527900332000008600000000450F1000003004201031072018000527947419  ABB 0000000000                                                                                 
1  012523HADDAOUI                      MUSTAPHA                      14041990AB95632     PAIN LOUH                                                                 MA 13005845                3022   I1110004150000002P300PMX1004201030000000001372500332000000435000000420F1000001505201015042035000041340876  ABB 0000000000                                                                                 
1   15269AIT BOURJ                     EL HABIB                      09051986DR94526     P                                                                         MA 13005678                3022   I1110004100000002P300PMX1006201030000000001870500332000000600000000227F1000001507201015062035000056341788  ABB 0000000000                                                                                 
1  012478AIT BOURJ                     EL HABIB                      09051986DR94526     Prue 15 apt5 taz                                                          MA 13005678                3022   I1110005310000002P300PMX0703201130000000000606200332000000188000000450F1000001504201115032036000018259976  ABB 0000000000                                                                                 
1                                                                    01011970            P                                                                         MA 8410539                 3022   I1010000180000002P300UMX0210201012000000000000000003320007000000000341F1000003011201031102020000592511731  ABB 0000000000                                                                                 
1                                                                    01011970            P                                                                         MA                         3022   I1010001390000002P300UMX0103201030000000000000000407000000600000000227F1000003103201028022035000055579451  ABB 0000000000                                                                                 
1  012478AIT BOURJ                     EL HABIB                      09051986DR94526     Prue15 n13 rabat                                                          MA 13005678                3022   I1110005320000002P300PMX0703201125900000000804700332000000250000000390F1000001504201115102032000024236642  ABB 0000000000                                                                                 
1  215487HADDAOUI                      MUSTAPHA                      01011971AA332211    PCasablanca Tama                                                          MA 13005634                3022   I1110007740000002P300PMX1503201130000000001860900332000000577500000420F1000001504201115032036000056049771  ABB 0000000000                                                                                 
1  012542AAMOUM                        MOHAMMED                      01011990XW33221     PIMM 15 APPT 16 RES ABWAB SALE                                            MA 13005649                3023   C1110005830000002P300PMX1003201108300000000003400227000000032000000450F1000011504201115032018000001791052  ABB 0000000000                                                                                 
1 0125456BOUZAIDI                      ACHRAF                        01011980SQ21112     PAV SIDI MED BELHASSAN RUE ALLA BEN ABDELLAH APPARTEMENT 05 I             MA 13005689                3022   I1110007710000002P300PMX0110201112000000000769600332000000250000000227F1000011510201115102021000023181580  ABB 0000000000                                                                                 
1     10MRabat                                                       01011970            P                                                                         MA 8410539                 3022   I1010000100000002P300UMX0105201024000000000000000003320000600000000450F1000033105201031072030000056171740  ABB 0000000000                                                                                 
100000000HADDAOUI                      MUSTAPHA                      05091989AB6523      P                                                                         MA 13005650                3022   I1010002520000002P300PMX1002201030000000001375000332000000435000000450F1000003003201028022035000041417050  ABB 0000000000                                                                                 
1        OUASSINI                      MOHAMED                       01011975WX0023      P                                                                         MA 13005682                3022   I1010002510000002P300PMX0612201012000000000577100332000000200000000420F1000003001201130122020000017382050  ABB 0000000000                                                                                 
100000000HADDAOUI                      MUSTAPHA                      01011971AA332211    P                                                                         MA 13005634                3022   I1010002500000002P300PMX1002201030000000001375000332000000435000000450F1000003003201028022035000041417050  ABB 0000000000                                                                                 
1  012478AIT BOURJ                     EL HABIB                      09051986DR94526     Prue 15 apt5 taza                                                         MA 13005678                3023   C1110005870000002P300PMX1003201112000000000025500227000000150000000450F1000011504201115042021000013469560  ABB 0000000000                                                                                 
1   30021OUASSINI                      MOHAMED                       15021970WX0023      PNUM 10 APPT 15                                                           MA 13005682                3023   C1110004680000002P300PMX0603201111900000000098600606000000220000000250F1000011504201115032021000019526616  ABB 0000000000                                                                                 
1   28900HADDAOUI                      MUSTAPHA                      01011971AA332211    Pres maamora                                                              MA 13005634                3023   C1110003480000002P300PMX2812201012000000000015000273000000075000000450F1000011501201115012021000006575472  ABB 0000000000                                                                                 
1                                                                    01011970            P                                                                         MA 8410539                 3022   I1010000040000002P300UMX0103201012000000000000000003320000600000000450F1000003103201029022020000047636414  ABB 0000000000                                                                                 
1  015236OUASSINI                      MOHAMED                       15021970QS98546     PTEST TEST                                                                MA 13005672                3022   I1110004250000002P300PMX0103201129700000001939500332000000600000000227F1000031504201115032036000058419127  ABB 0000000000                                                                                 
1   12530AAMOUM                        MOHAMMED                      01011990XW33221     PAPPT1 RUE 5 AVENUE ALLAL IBN ADELLAH                                     MA 13005649                3022   I1110006660000002P300PMX1607200830000000001811000332000000600000000420F1000001508200815072033000054548434  ABB 0000000000                                                                                 
1  012478AIT BOURJ                     EL HABIB                      09051986DR94526     Prue15 n13 rabat takadoum                                                 MA 13005678                3022   I1110005480000002P300PMX0803201112000000000440800332000000150000000390F1000001504201115032021000013277074  ABB 0000000000                                                                                 
1   15200AIT BOURJ                     EL HABIB                      01011980VX00121     PAPPT5 IMMB8 RUE 8 AVENUE ERRAZ KENITRA                                   MA 13005687                3022   I1110006690000002P300PMX1009200818700000000841700332000000450000000227F1000011511200815062024000025352479  ABB 0000000000                                                                                 
1  010325AAMOUM                        MOHAMED                       24041996FR94562     PRABAT                                                                    MA 13005674                3022   I1110004260000002P300UMX0203201130000000000000000438600000600000000420F1000001504201115032036000058130915  ABB 0000000000                                                                                 
1   01254AAMOUM                        MOHAMED                       05041987AZ59633     PRES SALAM N 15                                                           MA 13005676                3022   I1110005470000002P300PMX0803201125000000000788000332000000250000000227F1000001504201115012032000023735272  ABB 0000000000                                                                                 
1   28152AJDID                         TARIK                         13061988A66655      PLOT EL IRAKI APPT1 AVENUE MED  RABAT                                     MA 13005635                3022   I1110006650000002P300PMX1607200830000000001827700332000000600000000450F1000011509200815092033000055012788  ABB 0000000000                                                                                 
1  010563HADDAOUI                      MUSTAPHA                      01011971AA332211    PAPPT1 IMMB8 AVENUE MOHAMED TRII CASABLANCA 20000                         MA 13005634                3022   I1110006640000002P300PMX1607200930000000001816800332000000600000000227F1000001508200915072034000054723734  ABB 0000000000                                                                                 
1   12300ASKARI                        FATIMA                        01011987A3000       Pres maamoura 12                                                          MA 13005662                3023   C1110004510000002P300PMX0503201104700000000004500227000000035000000450F1000011504201115032015000002396228  ABB 0000000000                                                                                 
1  012222EL YOUSFI                     BRAHIM                        01011960DA80448     PTEST ADRESSE                                                             MA 8410539                 3022   I1110007800000002P300UMX0712201112000000000000000203570000350000000450F1000001501201215122021000033165681  ABB 0000000000                                                                                 
1  012478AIT BOURJ                     EL HABIB                      09051986DR94526     Prue 15 apt5 taza                                                         MA 13005678                3023   C1110005730000002P300PMX1003201112000000000005100227000000030000000450F1000011504201115042021000002693908  ABB 0000000000                                                                                 
1  021445AAMOUM                        MOHAMMED                      01011980ZZ222       Ptanger                                                                   MA 13005684                3023   C1110004530000002P300PMX0503201108300000000009500273000000050000000450F1000011504201115032018000004186978  ABB 0000000000                                                                                 
1  033200ASKARI                        FATIMA                        01011991A3212       Pvilla floride bd zerktouni                                               MA 13005640                3023   C1110005740000002P300PMX1003201108300000000011600227000000073000000450F1000011504201115032018000006111225  ABB 0000000000                                                                                 
1 0254545AAMOUM                        MOHAMED                       24041996FR94562     PIMM 15 APPT 15 RES SEMIRAMIS SID HAJJI                                   MA 13005674                3023   C1110005750000002P300PMX1003201107100000000038000227000000250000000450F1000011504201115032017000020090153  ABB 0000000000                                                                                 
1  012211AAMOUM                        MOHAMED                       24041996FR94562     Pn 15 appt 06 res essafae                                                 MA 13005674                3023   C1110005700000002P300PMX1003201104700000000004700227000000036000000450F1000011504201115032015000002464692  ABB 0000000000                                                                                 
1   01201ALAOUI                        AYMANE                        05091978FR9456      Pav madagascar n 15 sala al jadda                                         MA 13005680                3023   C1110005710000002P300PMX1003201111900000000020400273000000100000000450F1000011504201115032021000008970730  ABB 0000000000                                                                                 
1   25100AJDID                         TARIK                         15091975A66655      PCVHGF                                                                    MA 13005635                3022   I1210010910000002P300PMX0208201230000000001494000332000000450000000200F1000001509201215082037000045000000  ABB 0000000000                                                                                 
1   25100AJDID                         TARIK                         01011984XC33220     PGFHGF                                                                    MA 13005658                3022   I1210010920000002P300PMX0208201230000000001992000332000000600000000200F1000001509201215082037000060000000  ABB 0000000000                                                                                 
1   DFGTDHADDAOUI                      MUSTAPHA                      01011971AA332211    PFHGF                                                                     MA 13005634                3022   I1210010900000002P300PMX0208201220000000001925600332000000600000000200F1000001509201215042029000058000000  ABB 0000000000                                                                                 
1   12500AJDID                         TARIK                         01011984XC33220     PTEST TEST KHJKJ                                                          MA 13005658                3023   C1210009980000002P300PMX1007201011900000000019100227000000120000000400F1000011509201015082020000010070974  ABB 0000000000                                                                                 
1  018021OUASSINI                      MOHAMED                       15021970WX0023      Pres salamat n15 appt 16                                                  MA 13005682                3023   C1110005790000002P300PMX1003201109500000000034900606000000080000000450F1000011504201115032019000006913049  ABB 0000000000                                                                                 
1  015245OUASSINI                      MOHAMED                       15021970QS98546     PSETTAT                                                                   MA 13005672                3022   I1110004360000002P300PMX1005201016600000001023300332000000350000000420F1000001506201015032024000030822284  ABB 0000000000                                                                                 
1        AIT BOURJ                     EL HABIB                      09051986DR94526     P                                                                         MA 13005678                3022   I1110005560000002P300PMX0903201130000000001604800332000000500000000341F1000001504201115032036000048336603  ABB 0000000000                                                                                 
1  012563AIT BOURJ                     EL HABIB                      09051986DR94526     PHAY EL MENZEH AVENUE DES FAR RBAT                                        MA 13005678                3022   I1110005590000002P300PMX2010201019700000000916500332000000600000000227F1000001511201015032027000027606650  ABB 0000000000                                                                                 
1  MBANQUrabat                         Marocaine                     01011970            P                                                                         MA 8410539                 3022   I1010000340000002P300UMX1808201030000000000000000407000000600000000450F1000013009201030092035000057785645  ABB 0000000000                                                                                 
1   15284AAMOUM                        MOHAMED                       24041996FR94562     PN37 CITE MILITA                                                          MA 13005674                3022   I1110004320000002P300PMX0303201130000000001913500332000000600000000227F1000001504201115032036000057634108  ABB 0000000000                                                                                 
1  012478AIT BOURJ                     EL HABIB                      09051986DR94526     Prue15 n13 rabat takadoum                                                 MA 13005678                3022   I1110005530000002P300PMX0903201130000000001454300332000000452000000390F1000001504201115032036000043805462  ABB 0000000000                                                                                 
1  010862AJDID                         TARIK                         13061988AZ9562      PN8 RUE NAHDA                                                             MA 13005909                3022   I1110004310000002P300PMX1006201030000000001202700332000000560000000227F1000001507201015062035000036225804  ABB 0000000000                                                                                 
1  012478AIT BOURJ                     EL HABIB                      09051986DR94526     Prue15 n13 rabat takadoum                                                 MA 13005678                3022   I1110005520000002P300PMX0903201128800000001447900332000000450000000450F1000001504201115032035000043610841  ABB 0000000000                                                                                 
1        AIT BOURJ                     EL HABIB                      01011990QQ3322      P                                                                         MA 13005647                3022   I1110006730000002P300PMX1005200830000000001480100332000000600000000450F1000001506200815052033000044581909  ABB 0000000000                                                                                 
1  012478AIT BOURJ                     EL HABIB                      09051986DR94526     Prue15 n13 rabat takadoum                                                 MA 13005678                3022   I1110005550000002P300PMX0803201130600000001967400332000000600000000227F1000001504201115092036000059260458  ABB 0000000000                                                                                 
1  012345EL YOUSFI                     BRAHIM                        17011994DA80448     Prabat agdal                                                              MA 8410539                 3022   I1010001590000002P300PMX0103201030000000000000001372000000300000000227F1000002003201020022035000018527946  ABB 0000000000                                                                                 
100000000ASKARI                        FATIMA                        20121978DF98523     P                                                                         MA 13005671                3022   I1010002710000002P300PMX1002201020000000000987500332000000350000000227F1000000103201001102026000029744799  ABB 0000000000                                                                                 
1  012000AJDID                         TARIK                         13061988A66655      PTEST                                                                     MA 13005635                3022   I1110005500000002P300PMX0903201115200000001058700332000000350000000227F1000000105201101122023000031889881  ABB 0000000000                                                                                 
1   00211OUASSINI                      MOHAMED                       01011990AA3322      PAPPT1 IMMB E RESIDENCE SEKKAT ABAT                                       MA 13005644                3022   I1110006710000002P300PMX1001200708400000000240000332000000150000000420F1000001502200715012014000007229285  ABB 0000000000                                                                                 
1  cwxfjhAJDID                         TARIK                         08061989RT9455      Pbcv                                                                      MA 13005657                3022   I1210010870000002P300PMX1008201030000000001875800332000000600000000200F1000001509201015082035000056500041  ABB 0000000000                                                                                 
100000000OUASSINI                      MOHAMED                       01011975WX0023      P                                                                         MA 13005682                3022   I1010002730000002P300PMX1002201016600000000576700332000000200000000420F1000000103201001122023000017370391  ABB 0000000000                                                                                 
1  256100EL KHALQI                     YOUSRA                        01091979CB29632     PTEST                                                                     MA 13053384                3022   I1210010850000002P300PMX0208201230000000001992000332000000600000000200F1000001509201215082037000060000000  ABB 0000000000                                                                                 
100000000AIT BOURJ                     EL HABIB                      01011990QQ3322      P                                                                         MA 13005647                3022   I1010002680000002P300PMX0102201030000000000621200332000000200000000227F1000011503201015032035000018711839  ABB 0000000000                                                                                 
1   10236AIT BOURJ                     EL HABIB                      09051986DR94526     PRABAT                                                                    MA 13005678                3022   I1110004470000002P300UMX0403201130000000000000000438600000600000000420F1000001504201115032036000058130915  ABB 0000000000                                                                                 
1  012478AIT BOURJ                     EL HABIB                      09051986DR94526     Prue15 n13 rabat takadoum                                                 MA 13005678                3022   I1110005680000002P300PMX1003201130000000001283400332000000500000000390F1000001504201115032036000038657385  ABB 0000000000                                                                                 
1  102563ASKARI                        FATIMA                        01011991A3212       PJKNJKNKJKOJ                                                              MA 13005640                3022   I1110006890000002P300PMX2005200930000000001702300332000000550000000450F1000001506200915052034000051275519  ABB 0000000000                                                                                 
1   12540AAMOUM                        MOHAMED                       24041996FR94562     PRABAT                                                                    MA 13005674                3022   I1110004460000002P300PMX0403201130000000001936100332000000600000000450F1000001504201115032036000058315186  ABB 0000000000                                                                                 
100000000AIT BOURJ                     EL HABIB                      09051986DR94526     PZZZZZZZZZZZZZZ                                                           MA 13005678                3022   I1110004490000002P300PMX1001201007200000000300600332000000150000000390F1000001502201015012016000009053749  ABB 0000000000                                                                                 
1        AAMOUM                        MOHAMED                       24041996FR94562     P                                                                         MA 13005674                3022   I1110004480000002P300PMX0403201130000000000257800332000000080000000420F1000001504201115032036000007764472  ABB 0000000000                                                                                 
1   25000BOUZAIDI                      ACHRAF                        01011980SQ21112     PFDSF                                                                     MA 13005689                3022   I1110006850000002P300PMX2001200830000000001438200332000000500000000227F1000001502200815012033000043318115  ABB 0000000000                                                                                 
1   82536SAMIR                         SAMIR                         12121999B12222      PMERS EL KHEIR N                                                          MA 13003804                3022   I1110004450000002P300PMX0403201116600000001386600332000000450000000450F1000001504201115012025000041764410  ABB 0000000000                                                                                 
1  012478EL HANAFI                     RADIA                         05091979D159463     Prue15 n13 rabat takadoum                                                 MA 13006306                3022   I1110005660000002P300PMX1003201130000000001608800332000000500000000390F1000001504201115032036000048457368  ABB 0000000000                                                                                 
1   15236WAKIL                         BILAL                         12041990IE506050    PAPPT5 IMMB8                                                              MA 13005340                3022   I1110004440000002P300PMX0403201127900000001809700332000000600000000227F1000001504201115062034000054508654  ABB 0000000000                                                                                 
1   15123EL YAZGHI                     TAHAR                         08091980XX95236     PRUE EL BYROUNI AVENUE LA RESISANCE N 5 IMM B9 RABAT                      MA 13006305                3022   I1110005650000002P300PMX1010201030000000001889700332000000600000000227F1000001511201015102035000056919616  ABB 0000000000                                                                                 
1  125300OUASSINI                      MOHAMED                       01011990AA3322      PTEST                                                                     MA 13005644                3022   I1110006830000002P300PMX2001200730000000001744800332000000600000000450F1000001502200715012032000052553323  ABB 0000000000                                                                                 
1        EL YOUSFI                     BRAHIM                        17011994DA80448     P                                                                         MA 13005685                3023   C1110003920000002P300PMX0103201011900000000015200227000000100000000450F1000013103201029022020000008056509  ABB 0000000000                                                                                 
199998888EL YOUSFI                     BRAHIM                        17011994DA80448     PBouskoura Ville                                                          MA 13005664                3022   I1110004580000002P300PMX0101201012000000001515800332000000600000000227F1000003101201031122019000045656204  ABB 0000000000                                                                                 
1 0108452ASKARI                        FATIMA                        20121978AD845213    PAVENUE EL OUARD                                                          MA 13005670                3022   I1110004570000002P300PMX0603201115200000001052200332000000350000000227F1000001504201115112023000031691488  ABB 0000000000                                                                                 
1 0105236HADDAOUI                      MUSTAPHA                      14041990AB95632     PRABAT                                                                    MA 13005845                3022   I1110004540000002P117PMX0603201130000000001129900332000000350000000420F1000001504201115032036000035000000  ABB 0000000000                                                                                 
1   12231AJDID                         TARIK                         08061989RT9455      P                                                                         MA 13005657                3022   I1110003350000002P300PMX1002201030000000001190500332000000560000000227F1000001503201015022035000035858382  ABB 0000000000                                                                                 
1  015325AJDID                         TARIK                         13061988AZ9562      PAVENUE 5 N8                                                              MA 13005909                3022   I1110004560000002P300PMX0603201129700000001477000332000000450000000450F1000031504201115032036000044487825  ABB 0000000000                                                                                 
1  012365OUASSINI                      MOHAMED                       15021970QS98546     PAVENUE KHANSAE                                                           MA 13005672                3022   I1110004550000002P300PMX0603201116600000000616300332000000200000000450F1000001504201115012025000018561958  ABB 0000000000                                                                                 
1   15000BOUZAIDI                      ACHRAF                        01011980SQ21112     PAZE                                                                      MA 13005689                3022   I1110006920000002P300PMX1001200819800000001270800332000000600000000450F1000001502200815072024000038276949  ABB 0000000000                                                                                 
1  012345AJDID                         TARIK                         01011960AW1100      Prabat agdal                                                              MA 13005660                3023   C1210007820000002P300PMX0201201206000000000010401372000000010000000450F1000001503201215022017000000911786  ABB 0000000000                                                                                 
1   12000AIT BOURJ                     EL HABIB                      01011980VX00121     PSRFEFR                                                                   MA 13005687                3022   I1110006910000002P300PMX0109200830600000001849500332000000600000000450F1000001510200815032034000055708982  ABB 0000000000                                                                                 
1  012478AIT BOURJ                     EL HABIB                      09051986DR94526     Prue 15 apt5 taz                                                          MA 13005678                3022   I1110005720000002P300PMX1003201130000000001930500332000000600000000390F1000001504201115032036000058148843  ABB 0000000000                                                                                 
1   54202OUASSINI                      MOHAMED                       01011990AA3322      PQSDQS                                                                    MA 13005644                3022   I1110006930000002P300PMX0102200730000000001347000332000000600000000227F1000001503200715022032000040571661  ABB 0000000000                                                                                 
1        EL YOUSFI                     BRAHIM                        17011994DA80448     P                                                                         MA 8410539                 3022   I1010001760000002P300PMX0101201030000000000000000332000000600000000227F1000003101201031122034000055232669  ABB 0000000000                                                                                 
1  018030AJDID                         TARIK                         05091986AD141952    PABB                                                                      MA 13005667                3023   C1110003830000002P117PMX1201201112000000000003400227000000020000000450F1000011503201115032021000002000000  ABB 0000000000                                                                                 
1  125400AAMOUM                        MOHAMMED                      01011990XW33221     PKJKMLM                                                                   MA 13005649                3022   I1110006900000002P300PMX2607200830000000001756600332000000600000000227F1000001508200815072033000052908973  ABB 0000000000                                                                                 
1  123456EL YOUSFI                     BRAHIM                        17011994DA80448     P                                                                         MA 8410539                 3022   I1010001680000002P300PMX0612201030000000000000000227000000300000000227F1000003112201030112035000018969108  ABB 0000000000                                                                                 
1   15230ALAOUI                        AYMANE                        05091978FR9456      P                                                                         MA 13005680                3022   I1110003470000002P300PMX1202201017300000001151600332000000560000000420F1000001503201015072024000034686928  ABB 0000000000                                                                                 
1  013333AJDID                         TARIK                         13061988A66655      PTEST TEST                                                                MA 13005635                3022   I1110005890000002P300PMX0104201130000000000875300332000000270000000227F1000030105201101072036000026364894  ABB 0000000000                                                                                 
1  013953EL YOUSFI                     BRAHIM                        17011994DA80448     P                                                                         MA 8410539                 3022   I1010001670000002P300PMX0612201030000000000000000227000000500000000227F1000003112201030112035000047422763  ABB 0000000000                                                                                 
1   12344HADDAOUI                      MUSTAPHA                      14041990RC94632     Pres maamora                                                              MA 13005653                3023   C1110004900000002P300PMX0503201111900000000016100227000000095000000450F1000011504201115032021000008519896  ABB 0000000000                                                                                 
1   15236HAMMANI                       ANAS                          05041987DR9456      P                                                                         MA 13005685                3022   I1110003490000002P300PMX1203201030000000001895000332000000600000000420F1000001504201015032035000057077735  ABB 0000000000                                                                                 
1  105263AIT BOURJ                     EL HABIB                      09051986DR94526     PRABAT                                                                    MA 13005678                3022   I1110004650000002P300PMX0603201130000000001936100332000000600000000450F1000001504201115032036000058315186  ABB 0000000000                                                                                 
1  012478AIT BOURJ                     EL HABIB                      09051986DR94526     Prue 15 apt5 taz                                                          MA 13005678                3022   I1110005860000002P300PMX1003201130000000001608800332000000500000000390F1000001504201115032036000048457368  ABB 0000000000                                                                                 
1   56210ALAOUI                        AYMANE                        05091978FR9456      P                                                                         MA 13005680                3022   I1110003430000002P300PMX1502201015000000000760700332000000262500000420F1000001503201015082022000022913576  ABB 0000000000                                                                                 
1 0104823AAMOUM                        MOHAMED                       24041996FR94562     PRABAT CENTRE                                                             MA 13005674                3022   I1110004640000002P300PMX0603201130000000001116200332000000350000000227F1000001504201115032036000033619901  ABB 0000000000                                                                                 
1   15263ALAOUI                        AYMANE                        05091978FR9456      P                                                                         MA 13005680                3022   I1110003450000002P300PMX1206201014400000000752300332000000262500000420F1000001507201015062022000022660144  ABB 0000000000                                                                                 
1    1233HADDAOUI                      MUSTAPHA                      01011990AA332211    Pres maamora                                                              MA 13005654                3023   C1010001960000002P300PMX0801201012000000000024200000000000150000000450F0000001503201015022020000012802741  ABB 0000000000                                                                                 
1  020145AJDID                         TARIK                         08091977DF45236     PCASA                                                                     MA 13005669                3023   C1110004950000002P300PMX1503201107100000000091400273000000500000000450F1000011504201115032017000040192032  ABB 0000000000                                                                                 
100000000OUASSINI                      MOHAMED                       01011975WX0023      P                                                                         MA 13005682                3022   I1010002820000002P300UMX0103201030000000000000000438600000600000000420F1000000104201001032035000057672582  ABB 0000000000                                                                                 
1        ALAOUI                        AYMANE                        05091978FR9456      P                                                                         MA 13005680                3022   I1110003400000002P300PMX1502201012000000000258400332000000100000000227F1000003103201029022020000007781863  ABB 0000000000                                                                                 
1  012478AIT BOURJ                     EL HABIB                      09051986DR94526     Pn 15 apt 12 rue                                                          MA 13005678                3022   I1110004610000002P300UMX1001201012000000000000000203570000200000000227F1000001502201015012020000015301179  ABB 0000000000                                                                                 
1  012478AJDID                         TARIK                         01011960AW1100      Prue 15 apt5 TAZA rue 15 apt5 TZA rue 15 apt5 TAZA TEST 1 TES             MA 13005678                3023   C1110004960000002P300PMX0110201101200000059350701372000000250000000450F1000011511201115112012000008887356  ABB 0000008000                                                                                 
1   28288EL YOUSFI                     BRAHIM                        17011994DA80448     PMENZAH ZEIR                                                              MA 8410539                 3022   I1010001600000002P300PMX0104201028000000000000000227000000500000000227F1000003004201030072033000046095289  ABB 0000000000                                                                                 
1  215487EL YOUSFI                     BRAHIM                        01011960DA80448     PCasablanca Tama                                                          MA 13005649                3023   C1210007960000002P300PMX0704201005600000000273801372000000446000000450F1000011504201015122014000023944601  ABB 0000000000                                                                                 
1 0105892HADDAOUI                      MUSTAPHA                      14041990AB95632     PRUE MARASSA BAB                                                          MA 13005845                3022   I1110004630000002P300PMX0603201130000000001447900332000000450000000390F1000001504201115032036000043611635  ABB 0000000000                                                                                 
1  012478AIT BOURJ                     EL HABIB                      09051986DR94526     Prue 15 apt5 taz                                                          MA 13005678                3023   C1110004980000002P300PMX0503201108800000000004800227000000030000000450F1000011504201115082018000002545233  ABB 0000000000                                                                                 
1  215487EL YOUSFI                     BRAHIM                        01011960DA80448     PCasablanca Tama                                                          MA 13005649                3023   C1210007950000002P300PMX0704201005600000000054800273000000446000000900F1000011504201015122014000024099008  ABB 0000000000                                                                                 
199998888EL YOUSFI                     BRAHIM                        17011994DA80448     PBouskoura Ville                                                          MA 13005664                3022   I1110004620000002P300PMX0101201025000000041617200332000000600000000227F1000003101201031102030000027779917  ABB 0000001100                                                                                 
1   01254EL YOUSFI                     BRAHIM                        17011994DA80448     Ptemara                                                                   MA 8410539                 3022   I1010001630000002P300PMX0104201030000000000000000227000000400000000227F1000003105201030042035000037251256  ABB 0000000000                                                                                 
1  012478AIT BOURJ                     EL HABIB                      09051986DR94526     Prue 15 apt5 taz                                                          MA 13005678                3023   C1110004990000002P300PMX0603201108000000000012600227000000080000000450F1000011504201115122017000006637761  ABB 0000000000                                                                                 
1  152369AAMOUM                        MOHAMED                       24041996FR94562     PHAY LINBIAT IMMEUBLE 5 APPARTEENT10  AVENUE MOHAMMED V SALE              MA 13005674                3022   I1110005970000002P300PMX1403201130300000001966200332000000600000000420F1000001504201115062036000058550488  ABB 0000000000                                                                                 
1   15263HADDAOUI                      MUSTAPHA                      14041990AB95632     P                                                                         MA 13005845                3022   I1110003540000002P300PMX1212201030000000001127700332000000350000000450F1000001501201115122035000033968311  ABB 0000000000                                                                                 
1   01254OUASSINI                      MOHAMED                       15021970WX0023      PAVENUE DES FAR N 15                                                      MA 13005682                3022   I1110005960000002P300PMX0304201120000000000782400332000000250000000227F1000011505201115012028000023514012  ABB 0000000000                                                                                 
1        AIT BOURJ                     EL HABIB                      09051986DR94526     P                                                                         MA 13005678                3022   I1110005990000002P300PMX1403201130000000000484000332000000400000000450F1000001504201115032036000014578800  ABB 0000000000                                                                                 
1  011111ZNATI                         AMINA                         14051980AD15236     P                                                                         MA 13005840                3022   I1110003560000002P300UMX1112201008400000000000000203570000150000000227F1000001501201115122017000011662414  ABB 0000000000                                                                                 
1  012369AJDID                         TARIK                         13061988A66655      P                                                                         MA 13005635                3022   I1110003510000002P300PMX1212201030000000001118200332000000350000000450F1000001501201115122035000033679925  ABB 0000000000                                                                                 
1  012478AIT BOURJ                     EL HABIB                      09051986DR94526     PQUARTIER 1 VILLE2 RUE 9 CASA B                                           MA 13005678                3022   I1110005900000002P300PMX1203201130000000001930500332000000600000000390F1000001504201115032036000058148843  ABB 0000000000                                                                                 
1   14263AJDID                         TARIK                         13061988A66655      P                                                                         MA 13005635                3022   I1110003690000002P300PMX1402201130000000001932600332000000600000000450F1000003003201129022036000058212057  ABB 0000000000                                                                                 
1        EL YOUSFI                     BRAHIM                        17011994DA80448     P                                                                         MA 13005685                3022   I1110003660000002P300UMX3003201024000000000000000303570000500000000227F1000003004201031032030000045197288  ABB 0000000000                                                                                 
1        EL YOUSFI                     BRAHIM                        17011994DA80448     P                                                                         MA 13005685                3022   I1110003650000002P300PMX1501201030000000001850000332000000600000000227F1000002802201031012035000055722464  ABB 0000000000                                                                                 
1  012478AAMOUM                        MOHAMMED                      01011985XW9002      Prue 15 apt5 taz                                                          MA 13005678                3022   I1110004860000002P300PMX0603201112000000000587700332000000200000000390F1000001504201115032021000017702754  ABB 0000000000                                                                                 
1        EL YOUSFI                     BRAHIM                        17011994DA80448     P                                                                         MA 13005685                3022   I1110003680000002P300PMX0102201030000000001266100332000000400000000450F1000003103201028022035000038135980  ABB 0000000000                                                                                 
1        EL YOUSFI                     BRAHIM                        17011994DA80448     P                                                                         MA 13005664                3022   I1110003640000002P300PMX0101201030000000001849300332000000600000000227F1000003101201031122034000055701650  ABB 0000000000                                                                                 
1        AJDID                         TARIK                         01011990A66655      P                                                                         MA 13005635                3022   I1010001860000002P300PMX0102201030000000000255500332000000080000000341F1000000104201001032035000007694651  ABB 0000000000                                                                                 
1                                                                    01011970            P                                                                         MA 8410539                 3022   I1010000640000002P300UMX2008201030000000000000000003320000600000000450F1000003009201031082035000057464904  ABB 0000000000                                                                                 
1        AJDID                         TARIK                         01011990A66655      P                                                                         MA 13005635                3022   I1010001850000002P117PMX0102201030000000000635100332000000600000000227F1000000103201001022035000019809275  ABB 0000000000                                                                                 
1   15230ASKARI                        FATIMA                        20121968AD845213    P                                                                         MA 13005670                3022   I1110003790000002P300PMX0601201115200000001032300332000000350000000227F1000003001201130082023000031093433  ABB 0000000000                                                                                 
1        AJDID                         TARIK                         13061988A66655      P                                                                         MA 13005635                3022   I1110003730000002P300PMX1402201130000000000257700332000000080000000450F1000003003201129022036000007761613  ABB 0000000000                                                                                 
1  012478AAMOUM                        MOHAMMED                      01011990SQ33200     Prue 15 apt5 taz                                                          MA 13005678                3022   I1110004940000002P300UMX0503201112000000000000000203570000500000000390F1000001504201115032021000044149743  ABB 0000000000                                                                                 
1  MBANQURabat                         Marocaine                     01011970            P                                                                         MA 8410539                 3022   I1010000920000002P300UMX0204201012000000000000000003320000400000000227F1000000105201001042020000031559264  ABB 0000000000                                                                                 
1  MSalarRabat                         Marocaine                     01011970            P                                                                         MA 8410539                 3022   I1010000970000002P300UMX0103201030000000000000000003320000230000000227F1000003103201028022035000021305456  ABB 0000000000                                                                                 
1  012478AIT BOURJ                     EL HABIB                      01011980VX00121     Prue 15 apt5 taz                                                          MA 13005678                3022   I1110004920000002P300UMX0503201112000000000000000203570000150000000390F1000001504201115032021000013244920  ABB 0000000000                                                                                 
1                                                                    01011970            P                                                                         MA 8410539                 3022   I1010000900000002P300UMX0105201030000000000000000449740000600000000450F1000003105201030042035000057040742  ABB 0000000000                                                                                 
1        EL YOUSFI                     BRAHIM                        17011994DA80448     P                                                                         MA 13005685                3022   I1110003890000002P300UMX0101201024000000000000000303570000500000000227F1000003101201031122029000044683731  ABB 0000000000                                                                                 
1   18263OUASSINI                      MOHAMED                       15021970QS98546     P                                                                         MA 13005672                3022   I1110003990000002P300PMX1001201116600000000600800332000000200000000227F1000001502201115112024000018095001  ABB 0000000000                                                                                 
1  152869AJDID                         TARIK                         08091977DF45236     P                                                                         MA 13005669                3022   I1110003950000002P300PMX1005201030000000001585200332000000560000000227F1000001506201015052035000047745551  ABB 0000000000                                                                                 
1        EL YOUSFI                     BRAHIM                        17011994DA80448     P                                                                         MA 13005685                3022   I1110003960000002P300PMX0101201024000000001341300332000000600000000227F1000033101201031032030000040400096  ABB 0000000000                                                                                 
1        EL YOUSFI                     BRAHIM                        17011994DA80448     P                                                                         MA 13005685                3022   I1110003910000002P300PMX0101201030000000001844900332000000600000000227F1000003101201031122034000055569328  ABB 0000000000                                                                                 
1        EL YOUSFI                     BRAHIM                        17011994DA80448     P                                                                         MA 13005685                3022   I1110003900000002P300PMX0101201030000000001870900332000000600000000227F1000033101201031032035000056353457  ABB 0000000000                                                                                 
1  152369ASKARI                        FATIMA                        20121978DF98523     P                                                                         MA 13005671                3022   I1110003930000002P300PMX1006201030000000001870500332000000600000000227F1000003007201030062035000056341788  ABB 0000000000                                                                                 
1  154745OUASSINI                      MOHAMED                       15021970WX0023      PFGH                                                                      MA 13005682                3023   C1210010170000002P300PMX1001201201700000000008300606000000025000000400F1000011502201215072013000001635593  ABB 0000000000                                                                                 
1  020145BURGUN                        Pierre                        08091977DF45236     PCASA                                                                     MA 13005669                3023   C0000000000000002P300UMX1001201012000000000030000000000007000000000450F1000003101201031122019000038779063  ABB 0000000000                                                                                 
1   12730AAMOUM                        MOHAMMED                      01011980ZZ222       PGJKGHKJ                                                                  MA 13005684                3023   C1210010610000002P300PMX1307201006000000000022800273000000100000000400F1000011508201215082017000010000000  ABB 0000000000                                                                                 
1  029360AJDID                         TARIK                         08091977DF45236     PLAAYOUNE                                                                 MA 13005669                3023   C1010003090000002P300PMX0612201012000000000120700606000000270000000450F1000011501201115012021000023895894  ABB 0000000000                                                                                 
1  029359AJDID                         TARIK                         05091986AD141952    PBLOC A NO 12 HA                                                          MA 13005667                3023   C1010003080000002P300PMX0612201012000000000054100273000000270000000450F1000011501201115012021000023760473  ABB 0000000000                                                                                 
1  018030AJDID                         TARIK                         05091986AD141952    PSIDI BOUKNADEL                                                           MA 13005667                3023   C1010003110000002P300PMX0612201012000000000054100273000000270000000450F1000011501201115012021000023760473  ABB 0000000000                                                                                 
1   01233HADDAOUI                      MUSTAPHA                      01011991DD55500     Pres maamora                                                              MA 13005654                3023   C1010003180000002P300PMX0801201012000000000029300273000000150000000450F1000001502201015012020000012880932  ABB 0000000000                                                                                 
1  012563ASKARI                        FATIMA                        20121978DF98523     PAVENUE MOULAY ISMAIL HASSAN RAAT 10000                                   MA 13005647                3022   I1210007990000002P300PMX1003201030000000001889400332000000600000000420F1000001504201015032035000056908941  ABB 0000000000                                                                                 
1  010852AIT BOURJ                     EL HABIB                      09051986DR94526     PGFGFTHY                                                                  MA 13005678                3022   I1210007920000002P300PMX1001201030000000001881800332000000600000000420F1000001502201015012035000056681656  ABB 0000000000                                                                                 
1        TERER                         DF DFDG                       10101987AZ12355     P                                                                         MA 8410539                        BBb781ca0260a10000002P300UMX1001201012000000000000000002270007000000000450F1000001212202212112032000050000000  ABB 0000000000                                                                                 
1   01222ASKARI                        FATIMA                        01011987A3000       PN 15 APPT 16 AGDAL                                                       MA 13005662                3023   C1110007060000002P300PMX1006201111900000000060700227000000350000000450F1000011507201115062021000031982192  ABB 0000000000                                                                                 
1   01254EL ALAOUI                     MERYEM                        01011990DE554       PTEST                                                                     MA 9402343                 3022   I1210007860000002P300UMX0201201230000000000000000438600000500000000600F1000003003201228022037000049561646  ABB 0000000000                                                                                 
1   01222EL ALAOUI                     MERYEM                        01011990DE554       PTEST TEST TEST                                                           MA 9402343                 3022   I1210007850000002P300PMX0201201220100000000983400332000000300000000600F1000012902201230102028000029619837  ABB 0000000000                                                                                 
1  215487LINA                          LINA                          01011990DF111       PCasablanca Tama                                                          MA 13005649                3022   I1210007830000002P300PMX1505201130000000001869700332000000577500000450F1000001505201115042036000056316936  ABB 0000000000                                                                                 
1  012563AIT BOURJ                     EL HABIB                      01011990QQ3322      PAPPT 1 IMMB8  AVENUE 10 RABAT                                            MA 13005647                3022   I1210008810000002P300PMX1004201030000000000946600332000000300000000420F1000001505201015042035000028510938  ABB 0000000000                                                                                 
1   25100BEN ALI                       HAMID                         05081969AA112       PFDGD                                                                     MA 13052519                3023   C1210010860000002P300PMX0208201211900000000000000606000000100000000400F1000011510201215092022000010000000  ABB 0000000000                                                                                 
1  152360SALHAOUI                      ANASS                         24021999P340448     PSDDS                                                                     MA 13052879                3022   I1210009910000002P300PMX1006201030000000002824000332000000900000000300F1000001507201015062035000085059125  ABB 0000000000                                                                                 
1  152360SALHAOUI                      ANASS                         24021999P340448     PAVENUE HASSAN 2                                                          MA 13052879                3022   I1210009900000002P300PMX1006201030000000002176800332000000700000000200F1000001507201015062035000065566771  ABB 0000000000                                                                                 
1    1234AJDID                         TARIK                         08091977DF45236     PFES                                                                      MA 13005669                3023   C1110004060000002P300PMX2401201105100000000001600273000000010000000450F1000011503201115062015000000693622  ABB 0000000000                                                                                 
1  029359EL YOUSFI                     BRAHIM                        17011994DA80448     P                                                                         MA 13005685                3023   C1110004070000002P300PMX0101201012000000000015000227000000100000000450F1000013101201031012020000007889588  ABB 0000000000                                                                                 
1   28002OUASSINI                      MOHAMED                       15021970WX0023      PRES SALAM N 15                                                           MA 13005682                3023   C1110005210000002P300PMX0603201108700000000024500606000000055000000450F1000001504201115072018000004847230  ABB 0000000000                                                                                 
1  021444AAMOUM                        MOHAMED                       24041996FR94562     PRES SALAM N 15                                                           MA 13005674                3023   C1110005220000002P300PMX0603201112300000000036700227000000210000000450F1000001504201115072021000019408447  ABB 0000000000                                                                                 
1  745210AIT BOURJ                     EL HABIB                      09061988ZD9452      PVGXFGFDGFDGD                                                             MA 13005679                3023   C1210008060000002P300PMX1103201012000000000053200227000000350000000450F1000001504201015032020000028119664  ABB 0000000000                                                                                 
1  362001ALAOUI                        AYMANE                        05091978FR9456      PFXDGFDSF                                                                 MA 13005680                3023   C1210008050000002P300PMX1103201012000000000054900273000000300000000450F1000001504201015032020000024114070  ABB 0000000000                                                                                 
1  152361LEKHLIFI                      FADOUA                        01012000GK150113    PAVENUE HASSAN 2                                                          MA 13050248                3022   I1210009880000002P300PMX1006201030000000002176800332000000700000000200F1000001507201015062035000065566771  ABB 0000000000                                                                                 
1  152360LEKHLIFI                      FADOUA                        01012000GK150113    PAVENUE HASSAN 2                                                          MA 13050248                3022   I1210009890000002P300PMX1006201030000000002824000332000000900000000300F1000001507201015062035000085059125  ABB 0000000000                                                                                 
1  152360SAFAE                         FAYZ                          02012000C110145     PAVENUE EL ABTAL                                                          MA 13051640                3022   I1210009870000002P300PMX1006201030000000002824000332000000900000000300F1000001507201015062035000085059125  ABB 0000000000                                                                                 
1  152360SAFAE                         FAYZ                          02012000C110145     PAPPT 1 IMMB8 10000 RABAT                                                 MA 13051640                3022   I1210009850000002P300PMX1006201030000000002176800332000000700000000200F1000001507201015062035000065566771  ABB 0000000000                                                                                 
1  251425AJDID                         TARIK                         05091986AD141952    PAPPT 1 HAY NARJIS RESIDENCE OU KELTOUM AVENUE BENABOUD RABAT             MA 13005667                3022   I1210008620000002P300PMX1001201230000000001969500332000000600000000450F1000001502201215012037000059321640  ABB 0000000000                                                                                 
100000000AJDID                         TARIK                         01011990A66655      Pres maamora                                                              MA 13005635                3023   C1010002550000002P300PMX0801201012000000000042800273000000220000000450F1000001503201015022020000018792307  ABB 0000000000                                                                                 
100000000AJDID                         TARIK                         01011990A66655      Pres maamora                                                              MA 13005635                3023   C1010002540000002P300PMX0801201012000000000011700273000000060000000450F1000001503201015022020000005125170  ABB 0000000000                                                                                 
1   MSansEL YOUSFI                     BRAHIM                        17011994DA80448     Paaa                                                                      MA 13005648                3023   C1010001310000002P300PMX0101201012000000000014800227000000600000000450F1000003101201031122019000007816808  ABB 0000000000                                                                                 
1   01254AJDID                         TARIK                         01011980EZ22110     P2 res 5 sale                                                             MA 13005659                3023   C1110005130000002P300PMX0603201111900000000038800273000000190000000450F1000011504201115032021000017044369  ABB 0000000000                                                                                 
1   12945ASKARI                        FATIMA                        01011991A3212       PAPPT 1 IMMB5 AVENUE LALLA ASMA RABAT                                     MA 13005640                3022   I1210008580000002P300PMX1001201230000000001705500332000000600000000450F1000001502201215012037000051363667  ABB 0000000000                                                                                 
1  018652AAMOUM                        MOHAMMED                      01011990XW33221     PAPPT 1 IMMB8 AVENUE ALLAL IBN BDELLAH RABAT                              MA 13005649                3022   I1210008590000002P300PMX1001201221800000001628800332000000600000000420F1000001502201215032030000049059305  ABB 0000000000                                                                                 
1  289563AJDID                         TARIK                         13061988AZ9562      PRUE SEDRATI AVENUE EL JOULANE BENIMELLAL                                 MA 13005667                3022   I1210008570000002P300PMX1001201230000000121968400332000000600000000420F1000001502201215012037000059287770  ABB 0000000000                                                                                 
1   01254ASKARI                        FATIMA                        01011991A3212       PAVENUE ALLAL IBN ABDELLAH NUM 5 APPT 16 ETG 10 RUE ALLAH BEN             MA 13005640                3023   C1110007400000002P300PMX0110201111900000000026800227000000150000000450F1000011511201115102021000014110425  ABB 0000000000                                                                                 
1  028745AJDID                         TARIK                         01011980EZ22110     Pres agdal n 15                                                           MA 13005659                3023   C1110005030000002P300PMX0603201108300000000036200273000000190000000450F1000011504201115032018000015910493  ABB 0000000000                                                                                 
1  055221AJDID                         TARIK                         01011960AW1100      PRES 04 N 5                                                               MA 13005660                3023   C1110005040000002P300PMX0603201104700000000019701372000000025000000450F1000011504201115032015000001724428  ABB 0000000000                                                                                 
1   23650BENALI                        BENALI                        01041971A22         PAPPT1 IMMB8 AVENUE 5 RABAT 1000                                          MA 13052521                3023   C1210009030000002P300PMX3011201012000000000039400606000000090000000450F1000001512201015112020000007808895  ABB 0000000000                                                                                 
1  012478AIT BOURJ                     EL HABIB                      09051986DR94526     Prue 15 apt5 taz                                                          MA 13005678                3023   C1110005060000002P300PMX0603201108100000000009400227000000060000000450F1000011504201115012018000004993566  ABB 0000000000                                                                                 
1  010893BEN ALI                       HAMID                         05081969AA112       PAPPT1 IMMB8 AVENUE 5 RABAT 1000                                          MA 13052519                3023   C1210009020000002P300PMX2911200909600000000011000606000000030000000450F1000011501201015012018000002172883  ABB 0000000000                                                                                 
1 0125466AAMOUM                        MOHAMMED                      01011990XW33221     Pvilla floride bd zerktouni TES TEST TEST TEST XXXXXXXXXXXXXX             MA 13005649                3023   C1110007410000002P300PMX0110201108400000215306600227000000500000000450F1000011511201115112018000049395529  ABB 0000005000                                                                                 
1  012478AIT BOURJ                     EL HABIB                      09051986DR94526     Prue 15 apt5 taz                                                          MA 13005678                3023   C1110005000000002P300PMX0603201108100000000012100227000000077000000450F1000011504201115012018000006408410  ABB 0000000000                                                                                 
1  012478AIT BOURJ                     EL HABIB                      09051986DR94526     Prue 15 apt5 taz                                                          MA 13005678                3023   C1110005010000002P300PMX0603201108100000000023600227000000150000000450F1000011504201115012018000012483903  ABB 0000000000                                                                                 
1   01254AJDID                         TARIK                         01011980EZ22110     PAVENUE ALLAL IBN ABDELLAH TESTTEST TEST TEST TEST TEST TEST              MA 13005659                3023   C1110007430000002P300PMX0110201111900000000340000273000001600000000450F1000011510201115092021000149457350  ABB 0000000000                                                                                 
1  010988BOUZAIDI                      ACHRAF                        01011980SQ21112     Pimm ghandi appt 15 etg 1 rue e qastaoui N15 test test test C             MA 13005689                3023   C1110007440000002P300PMX0110201102300000000006400273000000045000000450F1000011511201115102013000002791474  ABB 0000000000                                                                                 
1  215487EL YOUSFI                     BRAHIM                        01011960DA80448     PCasablanca Tama                                                          MA 13005649                3022   I1110007080000002P300PMX3101201012000000001839200332000000800000000420F1000003101201031122019000055398077  ABB 0000000000                                                                                 
1    2145BENALI                        KHALID                        20031972AA11        PAPPT1 IMMB8 AVENUE 5 RABAT 1000                                          MA 13052515                3023   C1210009040000002P300PMX0612201006000000000004700273000000030000000450F1000001501201115122015000002085294  ABB 0000000000                                                                                 
1  125300AIT BOURJ                     EL HABIB                      01011980VX00121     PAPPT1 IMMB 5 RESIDENCE NOUR RU EL YASSAMINE AVENUE ENNAJAH 1             MA 13005687                3022   I1110007050000002P300PMX1009200930000000001826700332000000600000000227F1000001510200915092034000055021124  ABB 0000000000                                                                                 
100000000AJDID                         TARIK                         01011990A66655      Pres maamora                                                              MA 13005635                3023   C1010002720000002P300PMX0801201006000000000004300273000000030000000450F1000001503201015022015000001884216  ABB 0000000000                                                                                 
1  012345HADDAOUI                      MUSTAPHA                      01011991DD55500     Pres maamora                                                              MA 13005654                3023   C1010003190000002P300PMX0801201012000000000009800273000000050000000450F1000001502201015012020000004293655  ABB 0000000000                                                                                 
1        AIT BOURJ                     EL HABIB                      01011980VX00121     P                                                                         MA 13005687                3022   I1010003170000002P300UMX3112201010500000000000000130780000200000000450F1000001501201115092019000017641687  ABB 0000000000                                                                                 
1   28653HADDAOUI                      MUSTAPHA                      01011971AA332211    Ptest adresse                                                             MA 13005634                3022   I1210009570000002P300PMX1005201030000000002171000332000000700000000200F1000001506201015052035000065391233  ABB 0000000000                                                                                 
1   28653HADDAOUI                      MUSTAPHA                      01011971AA332211    Pdsfrsdsdr                                                                MA 13005634                3022   I1210009580000002P300PMX1005201030000000002191300332000000700000000300F1000001506201015052035000066003057  ABB 0000000000                                                                                 
1  010802HADDAOUI                      MUSTAPHA                      09102000RC94632     P                                                                         MA 13005653                3022   I1010003120000002P300PMX1002201030000000001261100332000000400000000420F1000001503201015022035000037985038  ABB 0000000000                                                                                 
1   12500AIT BOURJ                     EL HABIB                      01011990QQ3322      Plot nassim al bahr mahdia  kentra                                        MA 13005647                3022   I1210008310000002P300PMX1001201212000000001584300332000000500000000420F1000001502201215012022000047719811  ABB 0000000000                                                                                 
1   12345OUASSINI                      MOHAMED                       15021970WX0023      PRES MAAMORA 12                                                           MA 13005682                3023   C1110004400000002P300PMX0403201104900000000005400606000000035000000680F1000011504201120052015000001059644  ABB 0000000000                                                                                 
1   01254OUASSINI                      MOHAMED                       15021970WX0023      Pvilla floride bd zerktouni                                               MA 13005682                3023   C1110005610000002P300PMX0903201108300000000063600606000000150000000450F1000011504201115032018000012586813  ABB 0000000000                                                                                 
1  011215HADDAOUI                      MUSTAPHA                      01011990QD1100      Pvilla floride bd zerktouni                                               MA 13005655                3023   C1110006820000002P300PMX0101200911900000000008700227000000065000000450F1000011502200915012019000004575931  ABB 0000000000                                                                                 
1 0254545ASKARI                        FATIMA                        01011987A3000       Pvilla floride bd zerktouni                                               MA 13005662                3023   C1110005620000002P300PMX0903201108300000000022200227000000140000000450F1000011504201115032018000011720179  ABB 0000000000                                                                                 
1  321211AAMOUM                        MOHAMMED                      01011980ZZ222       PN 5 APT 6 AGD                                                           MA 13005684                3023   C1110004420000002P300PMX0403201106200000000020300273000000150000000450F1000011504201115062016000008905732  ABB 0000000000                                                                                 
1  012478AIT BOURJ                     EL HABIB                      09051986DR94526     Prue 15 apt5 taza                                                         MA 13005678                3023   C1110005630000002P300PMX0903201107200000000022900227000000150000000450F1000011504201115042017000012102498  ABB 0000000000                                                                                 
1   02122AIT BOURJ                     EL HABIB                      01011980VX00121     PN 15 APPT 16 AGDAL                                                       MA 13005655                3023   C1110006800000002P300PMX0101201012000000000021800273000000120000000450F1000011502201015022020000009559192  ABB 0000000000                                                                                 
1   01254OUASSINI                      MOHAMED                       15021970WX0023      Pvilla floride bd zerktouni                                               MA 13005682                3023   C1110005600000002P300PMX0903201111900000000113500606000000250000000450F1000011504201115032021000022469932  ABB 0000000000                                                                                 
1  012478AIT BOURJ                     EL HABIB                      09051986DR94526     Prue 15 apt5 taza                                                         MA 13005678                3023   C1110005690000002P300PMX1003201112000000000025500227000000150000000450F1000011504201115042021000013469560  ABB 0000000000                                                                                 
1   12500EL HAIMADI                    AMAL                          09101975RG85423     PAPPT1 IMMB8 AVENUE ESSALAM RABT                                          MA 13005399                3023   C1210008460000002P300PMX1001201210000000000021500273000000100000000450F1000001502201215052020000009428949  ABB 0000000000                                                                                 
