00301082011B                                                                                                                                                                                                                                                                                                                                                                                                    
1012000  OUASSINI                      MOHAMED                       01011990AA3322      PTEST                                                                  100MA 13005644                3023   C1110006940000002P300PMX0101201012000000000000000000000000300000000450F1000001502201015012020000026227114  ABB 00000000000                                                                                  
1                                                                    00000000            E                                                                         MA 13006610                3022   E1110006970000002P300PMX0608201008400000000000000091660000300000000200V1000013009201030082017000026281323  ABB 00000000000                                                                                  
1                                                                    00000000            E                                                                         MA 13006360                3022   E1110006420000002P300PMX0106200912000000000000001100000000900000000560V1000030109200901062019000058962403  ABB 00000000000                                                                                  
1                                                                    00000000            E                                                                         MA 13001201                3022   E1110006950000002P300PMX0608200912000000000000000091660000600000000650V1000013008200930072019000051054026  ABB 00000000000                                                                                  
1        EL KHAMLIC                    IMAD                          09061980AZ6524      E                                                                         MA 13006368                3022   E1110006080000002P300PMX0604201108400000000000000091660000300000000200V1000120105201101042018000030000000  ABB 00000000000                                                                                  
1                                                                    00000000            E                                                                         MA 13006619                3022   E1110007010000002P300PMX0108200908400000000000000091660000300000000200V1000010109200901082016000022138214  ABB 00000000000                                                                                  
1                                                                    00000000            E                                                                         MA 13005649                3022   E1110007000000002P300PMX0101201024000000000000000091660000800000000200F1000003103201028022030000052481808  ABB 00000000000                                                                                  
Z    7              0                                                                                                                                                                                                                                                                                                                                                                                          