00301102011B                                                                                                                                                                                                                                                                                                                                                                                                   
1   12560AIT BOURJ                     EL HABIB                      09051986DR94526     PAVENUE DE FRANCE APPT1 IMMB8 RE CHABAB                                   MA 13005678                3022   I1110006380000002P300PMX0506201030000000000000000000000000600000000227F1000000101197002052036000000000000  ABB 0000000000                                                                                 
1  012478AIT BOURJ                     EL HABIB                      09051986DR94526     Prue 15 apt5 taz                                                          MA 13005678                3022   I1110005190000002P300PMX0603201130000000001149600000000000350000000390F1000001504201115032036000034564011  ABB 0000000000                                                                                 
1  025652OUASSINI                      MOHAMED                       01011990AA3322      PRES 5 N 10 SALA                                                          MA 13005644                3022   I1110005180000002P300PMX0603201130000000000818600000000000250000000227F1000001504201115032036000024598972  ABB 0000000000                                                                                 
1                                                                    00000000            P                                                                         MA 8410539                 3022   I1010001140000002P300UMX0102201030000000000000000004780000700000000450F1000000104201001032035000067736349  ABB 0000000000                                                                                 
1  MCadreRabat                         Marocaine                     00000000            P                                                                         MA 8410539                 3022   I1010001130000002P300UMX0102201030000000000000000004780000600000000450F1000000104201001032035000048383095  ABB 0000000000                                                                                 
1        ALAOUI                        AYMANE                        05091978FR9456      P                                                                         MA 13005680                3022   I1010002340000002P300PMX0501201030000000000162800000000000600000000227F1000000102201001012035000057044153  ABB 0000000000                                                                                 
1  012478AIT BOURJ                     EL HABIB                      09051986DR94526     Prue 15 apt5 taz                                                          MA 13005678                3022   I1110005120000002P300PMX0603201130000000001642300000000000500000000390F1000001504201115032036000049377157  ABB 0000000000                                                                                 
1  215487EL YOUSFI                     BRAHIM                        17011994DA80448     PCasablanca Tama                                                          MA 13005649                3022   I1110007540000002P300PMX0101201012000000000000000000000000100000000227F1000000101197001092021000000000000  ABB 0000000000                                                                                 
1                                                                    00000000            P                                                                         MA 8410539                 3022   I1010001120000002P300UMX0102201030000000000000000004780000400000000341F1000000101197006112035000000000000  ABB 0000000000                                                                                 
100000000ALAOUI                        AYMANE                        05091978FR9456      P                                                                         MA 13005680                3022   I1010002330000002P300PMX0501201030000000000163600000000000600000000420F1000002802201030012035000057827371  ABB 0000000000                                                                                 
1  012478AIT BOURJ                     EL HABIB                      09051986DR94526     Prue 15 apt5 taz                                                          MA 13005678                3022   I1110005150000002P300PMX0603201107200000000338500000000000110000000390F1000001504201115032017000010060905  ABB 0000000000                                                                                 
1  MCadreRabat                         Marocaine                     00000000            P                                                                         MA 8410539                 3022   I1010001110000002P300UMX0102201030000000000000000004780000600000000227F1000000104201001032035000047706942  ABB 0000000000                                                                                 
100000000HAMMANI                       ANAS                          05041987DR9456      P                                                                         MA 13005685                3022   I1010002320000002P300PMX0501201030000000000163600000000000600000000420F1000002802201030012035000057827371  ABB 0000000000                                                                                 
1  012478AIT BOURJ                     EL HABIB                      09051986DR94526     Prue 15 apt5 taz                                                          MA 13005678                3022   I1110005140000002P300UMX0603201127700000000000000052630000600000000390F1000001504201115042034000059100475  ABB 0000000000                                                                                 
1                                                                    00000000            P                                                                         MA 8410539                 3022   I1010001180000002P300UMX0102201030000000000000000004780000600000000341F1000000101197006112035000000000000  ABB 0000000000                                                                                 
1        AJDID                         TARIK                         01011980EZ22110     P                                                                         MA 13005659                3022   I1010002390000002P300PMX0102201030000000000000000000000000800000000341F1000000101197006112035000000000000  ABB 0000000000                                                                                 
1  012560AIT BOURJ                     EL HABIB                      01011990QQ3322      PRABAT                                                                    MA 13005647                3022   I1110007510000002P006PMX0110201001200000000028300000000000100000000420F1000001511201015102011000000000000  ABB 0000000000                                                                                 
1                                                                    00000000            P                                                                         MA                                E1110007010000002P300PMX0108200908400000000275000132000000300000000200F1000010109200901082016000021438800  ABB 0000000000                                                                                 
1        Rabat                                                       00000000            P                                                                         MA 8410539                 3022   I1010001170000002P300PMX0108201030000000000000000478080000600000000227F1000000101197006112035000000000000  ABB 0000000000                                                                                 
1                                                                    00000000            P                                                                         MA                                E1110007000000002P300PMX0101201024000000000525000132000000800000000200F1000003103201028022030000052097928  ABB 0000000000                                                                                 
1  012478AIT BOURJ                     EL HABIB                      09051986DR94526     Prue 15 apt5 taz                                                          MA 13005678                3022   I1110005110000002P300PMX0603201107200000000400100000000000130000000390F1000001504201115032017000011890166  ABB 0000000000                                                                                 
1   62300AAMOUM                        MOHAMMED                      01011985XW9002      PAVENUE MED V                                                             MA 13005686                3022   I1110007530000002P300UMX0110201130000003263160000052630000600000000420F1000001511201115102036000060000000  ABB 0000005000                                                                                 
1                                                                    00000000            P                                                                         MA 8410539                 3022   I1010001150000002P300UMX0105201030000000000000000004780000600000000450F1000000105201001042035000058253969  ABB 0000000000                                                                                 
1        ALAOUI                        AYMANE                        05091978FR9456      P                                                                         MA 13005680                3022   I1010002360000002P300PMX0501201030000000000217700000000000800000000341F1000000102201001012035000076686964  ABB 0000000000                                                                                 
199999999EL YOUSFI                     BRAHIM                        17011994DA80448     PCasablanca Tama                                                          MA 13005664                3022   I1110005100000002P300PMX0101201012000000000959100000000000300000000227F1000033101201031032020000025981092  ABB 0000000000                                                                                 
1   54210AJDID                         TARIK                         13061988A66655      PAPPT 1 RESIDENCE2 AVENUE MOULA ALI CHRIF KENITRA MAROC                   MA 13005635                3022   I1110007520000002P006PMX0105200830000000001480400000000000450000000227F1000001506200820102011000000000000  ABB 0000000000                                                                                 
1  012478HADDAOUI                      MUSTAPHA                      01011990QD1100      Prue 15 apt5 taz                                                          MA 13005678                3023   C1110004850000002P300PMX0603201108300000000108200326880000050000000450F1000011504201115032018000004714521  ABB 0000000000                                                                                 
1  012478AIT BOURJ                     EL HABIB                      09051986DR94526     Prue 15 apt5 taz                                                          MA 13005678                3023   C1110004820000002P300PMX0603201107200000000000000326880000030000000450F1000010101197006042017000000000000  ABB 0000000000                                                                                 
1   12222ASKARI                        FATIMA                        01011987A3000       Pres maamoura 12                                                          MA 13005662                3023   C1110004830000002P300PMX0603201108300000000108200326880000050000000450F1000011504201115032018000004714521  ABB 0000000000                                                                                 
1        EL YOUSFI                     BRAHIM                        17011994DA80448     P                                                                         MA 13005685                3023   C1110003670000002P300PMX0101201011900000000018100326880000100000000450F1000012802201031012020000008691382  ABB 0000000000                                                                                 
1  114420AAMOUM                        MOHAMMED                      01011980ZZ222       PNUM 10 APPT 15                                                           MA 13005684                3023   C1110004890000002P300PMX0503201107100000000193100393120000075000000450F1000011504201115032017000006980615  ABB 0000000000                                                                                 
1                                                                    00000000            P                                                                         MA 8410539                 3022   I1010001030000002P300UMX0105201030000000000000000004780000600000000450F1000000105201001042035000058628074  ABB 0000000000                                                                                 
1        AALAM                         HAMZA                         11091990AD25956     P                                                                         MA 13005847                3022   I1110004030000002P300PMX0506201030000000000926300000000000279000000341F1000032009201020112035000027538886  ABB 0000000000                                                                                 
1  013111AALAM                         HAMZA                         11091990AD25956     P                                                                         MA 13005847                3022   I1110004020000002P300PMX0506201030000000001992000000000000600000000227F1000032009201020112035000058812507  ABB 0000000000                                                                                 
1  019500AAMOUM                        MOHAMMED                      01011990XW33221     PRES SALAM N 15                                                           MA 13005649                3022   I1110005230000002P300PMX0603201125000000000000000000000000130000000227F1000001504201115012032000000000000  ABB 0000000000                                                                                 
1        EL YOUSFI                     BRAHIM                        17011994DA80448     P                                                                         MA 13005685                3022   I1110004050000002P999PMX0101201024000000001986700000000000600000000227F1000033004201015102011000000000000  ABB 0000000000                                                                                 
1  012478AIT BOURJ                     EL HABIB                      09051986DR94526     Prue 15 apt5 taz                                                          MA 13005678                3022   I1110005260000002P300PMX0603201112900000000722100000000000277000000390F1000001504201115122021000021611270  ABB 0000000000                                                                                 
1  MBANQURabat                         Marocaine                     00000000            P                                                                         MA 8410539                 3022   I1010001000000002P300UMX0105201030000000000000000004780007000000000450F1000000105201001042035000000000000  ABB 0000000000                                                                                 
1        EL YOUSFI                     BRAHIM                        17011994DA80448     P                                                                         MA 8410539                 3022   I1010001070000002P300UMX0105201030000000000000000052630007000000000341F1000000101197004012036000000000000  ABB 0000000000                                                                                 
1  012478AIT BOURJ                     EL HABIB                      09051986DR94526     Prue 15 apt5 taz                                                          MA 13005678                3022   I1110005200000002P300PMX0603201112000000000510100000000000160000000390F1000001504201115032021000015257987  ABB 0000000000                                                                                 
1  MIngenRabat                         Marocaine                     00000000            P                                                                         MA 8410539                 3022   I1010001060000002P300UMX0102201024000000000000000004780000600000000227F1000000101197006112030000000000000  ABB 0000000000                                                                                 
1  526412HADDAOUI                      MUSTAPHA                      01011991DD55500     P                                                                         MA 13005654                3022   I1010002270000002P300PMX0101201030000000000977700000000000300000000227F1000000102201001012035000028531591  ABB 0000000000                                                                                 
1  652417AIT BOURJ                     EL HABIB                      01011990QQ3322      P                                                                         MA 13005647                3022   I1010002260000002P300PMX0501201010000000000038700000000000600000000227F1000000103201001062018000054091703  ABB 0000000000                                                                                 
1        EL YOUSFI                     BRAHIM                        17011994DA80448     P                                                                         MA 13005685                3022   I1110004000000002P300UMX0101201024000000000000000036420000500000000227F1000000101197007012031000000000000  ABB 0000000000                                                                                 
1    1234AJDID                         TARIK                         01011980EZ22110     Pres maamora                                                              MA 13005659                3023   C1110003520000002P300PMX2001201106000000000110100393120000045000000450F1000011502201115022016000003966214  ABB 0000000000                                                                                 
1  011211AJDID                         TARIK                         01011980EZ22110     PAVENUE ALLAL IBN ABDELLAH n15 PPT 10                                     MA 13005659                3023   C1110005940000002P300PMX1303201108300000000000000393120000025000000450F1000010101197013032018000000000000  ABB 0000000000                                                                                 
1  020145AJDID                         TARIK                         05091986AD141952    Pcasa                                                                     MA 13005669                3023   C1110003530000002P117PMX0201201112000000000000000326880000270000000450F1000011503201115032021000027000000  ABB 0000000000                                                                                 
1  012478AIT BOURJ                     EL HABIB                      09051986DR94526     Prue 15 apt5 taza                                                         MA 13005678                3023   C1110005910000002P300PMX1203201112000000000330900326880000150000000450F1000011504201115042021000014478362  ABB 0000000000                                                                                 
1  018030AJDID                         TARIK                         08091977DF45236     PSIDI BOUKNADEL                                                           MA 13005669                3023   C1110003500000002P300PMX0112201012000000000051800393120000020000000450F1000011501201115012021000001885922  ABB 0000000000                                                                                 
1  012478AIT BOURJ                     EL HABIB                      09051986DR94526     Prue 15 apt5 taza                                                         MA 13005678                3023   C1110005930000002P300PMX1203201112000000000330900326880000150000000450F1000011504201115042021000014478362  ABB 0000000000                                                                                 
1  020145OUASSINI                      MOHAMED                       15021970WX0023      PCASA                                                                     MA 13005682                3023   C1110003570000002P300PMX2101201112000000000083300393120000067250000450F1000011502201115022021000003030988  ABB 0000000000                                                                                 
1   11111AJDID                         TARIK                         01011960AW1100      Pres maamora                                                              MA 13005660                3023   C1110004780000002P300PMX0603201111900000002670801972800000200000000450F1000011504201115032021000019371699  ABB 0000000000                                                                                 
1  012478AIT BOURJ                     EL HABIB                      09051986DR94526     Prue 15 apt5 taz                                                          MA 13005678                3023   C1110004790000002P300PMX0603201107200000000000000326880000050000000450F1000010101197006042017000000000000  ABB 0000000000                                                                                 
1        AAMOUM                        MOHAMED                       24041996FR94562     P                                                                         MA 13005674                3022   I1110004180000002P300PMX0706201029700000000935100000000000279000000341F1000032007201020062035000027469016  ABB 0000000000                                                                                 
1   15247AIT BOURJ                     EL HABIB                      09051986DR94526     PHAY ZITOUNE TAR                                                          MA 13005678                3022   I1110004140000002P300PMX0106201019700000001968200000000000600000000227F1000001507201015112026000056118120  ABB 0000000000                                                                                 
1  012478AIT BOURJ                     EL HABIB                      09051986DR94526     Prue15 n13 rabat takadoum                                                 MA 13005678                3022   I1110005370000002P300PMX0803201129700000001313600000000000500000000390F1000001504201115122035000039493175  ABB 0000000000                                                                                 
1  012523HADDAOUI                      MUSTAPHA                      14041990AB95632     PAIN LOUH                                                                 MA 13005845                3022   I1110004150000002P300PMX0104201030000000001432000000000000435000000420F1000001505201015042035000042141108  ABB 0000000000                                                                                 
1   15269AIT BOURJ                     EL HABIB                      09051986DR94526     P                                                                         MA 13005678                3022   I1110004100000002P300PMX0106201030000000001978400000000000600000000227F1000001507201015062035000057775977  ABB 0000000000                                                                                 
1  012478AIT BOURJ                     EL HABIB                      09051986DR94526     Prue 15 apt5 taz                                                          MA 13005678                3022   I1110005310000002P300PMX0703201130000000000617700000000000188000000450F1000001504201115032036000018575120  ABB 0000000000                                                                                 
1                                                                    00000000            P                                                                         MA 8410539                 3022   I1010000180000002P300UMX3010201012000000000000000004780007000000000341F1000003011201031102020000643398466  ABB 0000000000                                                                                 
1                                                                    00000000            P                                                                         MA                         3022   I1010001390000002P300UMX0103201030000000000000000000000000600000000227F1000003103201028022035000057098198  ABB 0000000000                                                                                 
1                                                                    00000000            P                                                                         MA                         3022   I1010001380000002P300UMX0103201030000000000000000048840000600000000227F1000000101197006112035000000000000  ABB 0000000000                                                                                 
100000000ASKARI                        FATIMA                        05091994DF98523     P                                                                         MA 13005671                3022   I1010002590000002P300PMX0102201015200000000000000000000000350000000227F1000002802201029092022000000000000  ABB 0000000000                                                                                 
1        AAMOUM                        MOHAMED                       05091986HH54263     P                                                                         MA 13005675                3022   I1010002580000002P300PMX0101201030000000000000000000000000600000000227F1000000101197006112035000000000000  ABB 0000000000                                                                                 
1  012478AIT BOURJ                     EL HABIB                      09051986DR94526     Prue15 n13 rabat                                                          MA 13005678                3022   I1110005320000002P300PMX0703201125900000000826200000000000250000000390F1000001504201115102032000024827259  ABB 0000000000                                                                                 
1  012542AAMOUM                        MOHAMMED                      01011990XW33221     PIMM 15 APPT 16 RES ABWAB SALE                                            MA 13005649                3023   C1110005830000002P117PMX1003201108300000000069200326880000032000000450F1000011504201115032018000002017290  ABB 0000000000                                                                                 
1   01254AAMOUM                        MOHAMMED                      01011980ZZ222       Pvilla floride bd zerktouni                                               MA 13005684                3023   C1110005800000002P999PMX1003201111900000000253300393120000095500000450F1000011504201115102011000000000000  ABB 0000000000                                                                                 
1     10MRabat                                                       00000000            P                                                                         MA 8410539                 3022   I1010000100000002P300UMX0102201024000000000000000004780000600000000450F1000033105201031072030000057763588  ABB 0000000000                                                                                 
100000000HADDAOUI                      MUSTAPHA                      05091989AB6523      P                                                                         MA 13005650                3022   I1010002520000002P300PMX0102201030000000000118900000000000435000000450F1000003003201028022035000042093941  ABB 0000000000                                                                                 
1        OUASSINI                      MOHAMED                       01011975WX0023      P                                                                         MA 13005682                3022   I1010002510000002P300PMX0612201012000000000625600000000000200000000420F1000003001201130122020000018712236  ABB 0000000000                                                                                 
100000000HADDAOUI                      MUSTAPHA                      01011971AA332211    P                                                                         MA 13005634                3022   I1010002500000002P300PMX0102201030000000000118900000000000435000000450F1000003003201028022035000042093941  ABB 0000000000                                                                                 
1  012478AIT BOURJ                     EL HABIB                      09051986DR94526     Prue 15 apt5 taza                                                         MA 13005678                3023   C1110005870000002P300PMX1003201112000000000330900326880000150000000450F1000011504201115042021000014478362  ABB 0000000000                                                                                 
1   00000AJDID                         TARIK                         05091986AD141952    PXXXXX                                                                    MA 13005667                3023   C1110005880000002P300PMX1203201108400000000000000326880000050000000450F1000010112202201122029000000000000  ABB 0000000000                                                                                 
1   30021OUASSINI                      MOHAMED                       15021970WX0023      PNUM 10 APPT 15                                                           MA 13005682                3023   C1110004680000002P300PMX0603201111900000001291500872640000220000000250F1000011504201115032021000021154423  ABB 0000000000                                                                                 
1   28900HADDAOUI                      MUSTAPHA                      01011971AA332211    Pres maamora                                                              MA 13005634                3023   C1110003480000002P300PMX2012201012000000000194400393120000075000000450F1000011501201115012021000007072220  ABB 0000000000                                                                                 
1 1122335BOUZAIDI                      ACHRAF                        01011980SQ21112     PNUM 10 APPT 15                                                           MA 13005689                3023   C1110004690000002P300PMX0603201111900000000371300393120000140000000450F1000011504201115032021000013509449  ABB 0000000000                                                                                 
1  029360AJDID                         TARIK                         08091977DF45236     PLAAYOUNE                                                                 MA 13005669                3023   C1010003090000002P300PMX0612201012000000001562800872640000270000000450F1000011501201115012021000025623190  ABB 0000000000                                                                                 
1  029359AJDID                         TARIK                         05091986AD141952    PBLOC A NO 12 HA                                                          MA 13005667                3023   C1010003080000002P300PMX0602201012000000000702400393120000270000000450F1000011501201115012021000025555462  ABB 0000000000                                                                                 
1                                                                    00000000            P                                                                         MA 8410539                 3022   I1010000040000002P300UMX0102201012000000000000000004780000600000000450F1000003103201029022020000051974241  ABB 0000000000                                                                                 
1  015236OUASSINI                      MOHAMED                       15021970QS98546     PTEST TEST                                                                MA 13005672                3022   I1110004250000002P300PMX0103201129700000001991400000000000600000000227F1000031504201115032036000059841666  ABB 0000000000                                                                                 
1   12530AAMOUM                        MOHAMMED                      01011990XW33221     PAPPT1 RUE 5 AVENUE ALLAL IBN ADELLAH                                     MA 13005649                3022   I1110006660000002P300PMX0607200830000000001985300000000000600000000420F1000001508200815072033000055753312  ABB 0000000000                                                                                 
1  012478AIT BOURJ                     EL HABIB                      09051986DR94526     Prue15 n13 rabat takadoum                                                 MA 13005678                3022   I1110005480000002P300PMX0803201112000000000478200000000000150000000390F1000001504201115032021000014304364  ABB 0000000000                                                                                 
1   15200AIT BOURJ                     EL HABIB                      01011980VX00121     PAPPT5 IMMB8 RUE 8 AVENUE ERRAZ KENITRA                                   MA 13005687                3022   I1110006690000002P117PMX0109200818700000001462700000000000450000000227F1000011511200815062024000026840014  ABB 0000000000                                                                                 
1  010325AAMOUM                        MOHAMED                       24041996FR94562     PRABAT                                                                    MA 13005674                3022   I1110004260000002P300UMX0203201130000000000000000052630000600000000420F1000001504201115032036000059245133  ABB 0000000000                                                                                 
1   01254AAMOUM                        MOHAMED                       05041987AZ59633     PRES SALAM N 15                                                           MA 13005676                3022   I1110005470000002P300PMX0803201125000000000815400000000000250000000227F1000001504201115012032000024485498  ABB 0000000000                                                                                 
1        ASKARI                        FATIMA                        01011991A3212       P                                                                         MA 13005640                3022   I1110006680000002P006UMX0105200930000000000000000052630000350000000450F1000001506200915102011000000000000  ABB 0000000000                                                                                 
199999999                                                            00000000            PBoulvard hassan                                                          MA                         3022   I1110004210000002P300PMX0101201024000000000000000000000000600000000227F1000030101197028042031000000000000  ABB 0000000000                                                                                 
1   28152AJDID                         TARIK                         13061988A66655      PLOT EL IRAKI APPT1 AVENUE MED  RABAT                                     MA 13005635                3022   I1110006650000002P300PMX0607200830000000002768100000000000600000000450F1000011509200815092033000056162891  ABB 0000000000                                                                                 
100000000EL YOUSFI                     BRAHIM                        17011994DA80448     P                                                                         MA 8410539                 3022   I1010002470000002P300UMX0110201012000000000000000000000000600000000420F1000010101201101012021000000000000  ABB 0000000000                                                                                 
1  010563HADDAOUI                      MUSTAPHA                      01011971AA332211    PAPPT1 IMMB8 AVENUE MOHAMED TRII CASABLANCA 20000                         MA 13005634                3022   I1110006640000002P300PMX0607200930000000001982900000000000600000000227F1000001508200915072034000056196458  ABB 0000000000                                                                                 
1   12300ASKARI                        FATIMA                        01011987A3000       Pres maamoura 12                                                          MA 13005662                3023   C1110004510000002P300PMX0503201104700000000072000326880000035000000450F1000011504201115032015000003104242  ABB 0000000000                                                                                 
1  012478AIT BOURJ                     EL HABIB                      09051986DR94526     Prue 15 apt5 taza                                                         MA 13005678                3023   C1110005730000002P300PMX1003201112000000000066200326880000030000000450F1000011504201115042021000002895671  ABB 0000000000                                                                                 
1  012000OUASSINI                      MOHAMED                       01011990AA3322      PTEST                                                                     MA 13005644                3023   C1110006940000002P006PMX0101201012000000000645800326880000300000000450F1000001502201015102011000000000000  ABB 0000000000                                                                                 
1  021445AAMOUM                        MOHAMMED                      01011980ZZ222       Ptanger                                                                   MA 13005684                3023   C1110004530000002P300PMX0503201108300000000130100393120000050000000450F1000011504201115032018000004715309  ABB 0000000000                                                                                 
1  033200ASKARI                        FATIMA                        01011991A3212       Pvilla floride bd zerktouni                                               MA 13005640                3023   C1110005740000002P300PMX1003201108300000000158000326880000073000000450F1000011504201115032018000006883192  ABB 0000000000                                                                                 
1 0254545AAMOUM                        MOHAMED                       24041996FR94562     PIMM 15 APPT 15 RES SEMIRAMIS SID HAJJI                                   MA 13005674                3023   C1110005750000002P300PMX1003201107100000000535100326880000250000000450F1000011504201115032017000023264762  ABB 0000000000                                                                                 
1  012211AAMOUM                        MOHAMED                       24041996FR94562     Pn 15 appt 06 res essafae                                                 MA 13005674                3023   C1110005700000002P300PMX1003201104700000000074100326880000036000000450F1000011504201115032015000003192934  ABB 0000000000                                                                                 
1   01201ALAOUI                        AYMANE                        05091978FR9456      Pav madagascar n 15 sala al jadda                                         MA 13005680                3023   C1110005710000002P300PMX1003201111900000000265200393120000100000000450F1000011504201115032021000009649610  ABB 0000000000                                                                                 
1  018030AJDID                         TARIK                         05091986AD141952    PSIDI BOUKNADEL                                                           MA 13005667                3023   C1010003110000002P300PMX0612201012000000000702400393120000270000000450F1000011501201115012021000025555462  ABB 0000000000                                                                                 
1   01233HADDAOUI                      MUSTAPHA                      01011991DD55500     Pres maamora                                                              MA 13005654                3023   C1010003180000002P300PMX0101201012000000000385700393120000150000000450F1000001502201015012020000014019284  ABB 0000000000                                                                                 
1  018021OUASSINI                      MOHAMED                       15021970WX0023      Pres salamat n15 appt 16                                                  MA 13005682                3023   C1110005790000002P300PMX1003201109500000000466400872640000080000000450F1000011504201115032019000007626934  ABB 0000000000                                                                                 
1  015245OUASSINI                      MOHAMED                       15021970QS98546     PSETTAT                                                                   MA 13005672                3022   I1110004360000002P300PMX0105201016600000001142400000000000350000000420F1000001506201015032024000032424727  ABB 0000000000                                                                                 
1        AIT BOURJ                     EL HABIB                      09051986DR94526     P                                                                         MA 13005678                3022   I1110005560000002P300PMX0903201130000000001640900000000000500000000341F1000001504201115032036000049326872  ABB 0000000000                                                                                 
1  012563AIT BOURJ                     EL HABIB                      09051986DR94526     PHAY EL MENZEH AVENUE DES FAR RBAT                                        MA 13005678                3022   I1110005590000002P300PMX0110201019700000000962200000000000600000000227F1000001511201015032027000028859680  ABB 0000000000                                                                                 
1  MBANQUrabat                         Marocaine                     00000000            P                                                                         MA 8410539                 3022   I1010000340000002P300UMX3110201030000000000000000048840000600000000450F1000013009201030092035000058880973  ABB 0000000000                                                                                 
1   15284AAMOUM                        MOHAMED                       24041996FR94562     PN37 CITE MILITA                                                          MA 13005674                3022   I1110004320000002P300PMX0303201130000000001964600000000000600000000227F1000001504201115032036000059037532  ABB 0000000000                                                                                 
1  012478AIT BOURJ                     EL HABIB                      09051986DR94526     Prue15 n13 rabat takadoum                                                 MA 13005678                3022   I1110005530000002P300PMX0903201130000000001484600000000000452000000390F1000001504201115032036000044636951  ABB 0000000000                                                                                 
1  010862AJDID                         TARIK                         13061988AZ9562      PN8 RUE NAHDA                                                             MA 13005909                3022   I1110004310000002P300PMX0106201030000000001846500000000000560000000227F1000001507201015062035000037147942  ABB 0000000000                                                                                 
1  012478AIT BOURJ                     EL HABIB                      09051986DR94526     Prue15 n13 rabat takadoum                                                 MA 13005678                3022   I1110005520000002P300PMX0903201128800000001477500000000000450000000450F1000001504201115032035000044422429  ABB 0000000000                                                                                 
1        AIT BOURJ                     EL HABIB                      01011990QQ3322      P                                                                         MA 13005647                3022   I1110006730000002P300PMX0105200830000000001979200000000000600000000450F1000001506200815052033000055708982  ABB 0000000000                                                                                 
1  012478AIT BOURJ                     EL HABIB                      09051986DR94526     Prue15 n13 rabat takadoum                                                 MA 13005678                3022   I1110005550000002P300PMX0603201130600000000000000000000000600000000227F1000001504201115092036000059452008  ABB 0000000000                                                                                 
1  012345EL YOUSFI                     BRAHIM                        17011994DA80448     Prabat agdal                                                              MA 8410539                 3022   I1010001590000002P300PMX0101201030000000000000001972800000300000000227F1000002003201020022035000019034238  ABB 0000000000                                                                                 
100000000ASKARI                        FATIMA                        20121978DF98523     P                                                                         MA 13005671                3022   I1010002710000002P300PMX0102201020000000000093000000000000350000000227F1000000103201001102026000031143557  ABB 0000000000                                                                                 
1 0125236BOUZAIDI                      ACHRAF                        01011980SQ21112     Pappt1 rue5 avenue allal ibn abellh                                       MA 13005689                3022   I1110006700000002P300PMX0101200830000000001629500000000000500000000227F1000001502200815012033000044599788  ABB 0000000000                                                                                 
1  012000AJDID                         TARIK                         13061988A66655      PTEST                                                                     MA 13005635                3022   I1110005500000002P300PMX0903201115200000001130200000000000350000000227F1000000105201101122023000033847736  ABB 0000000000                                                                                 
1   00211OUASSINI                      MOHAMED                       01011990AA3322      PAPPT1 IMMB E RESIDENCE SEKKAT ABAT                                       MA 13005644                3022   I1110006710000002P300PMX0101200708400000000485000000000000150000000420F1000001502200715012014000011248288  ABB 0000000000                                                                                 
100000000AIT BOURJ                     EL HABIB                      01011990QQ3322      P                                                                         MA 13005647                3022   I1010002740000002P300UMX0101201012000000000000000000000000200000000227F1000000101197006112020000000000000  ABB 0000000000                                                                                 
100000000OUASSINI                      MOHAMED                       01011975WX0023      P                                                                         MA 13005682                3022   I1010002730000002P300PMX0102201016600000000053600000000000200000000420F1000000103201001122023000018259865  ABB 0000000000                                                                                 
1                                                                    00000000            P                                                                         MA                         3022   I1010001510000002P300UMX0101201012000000000000000000000000150000000227F1000003101201031122019000000000000  ABB 0000000000                                                                                 
1   01254OUASSINI                      MOHAMED                       15021970WX0023      Pvilla floride bd zerktouni                                               MA 13005682                3023   C1110006020000002P300PMX1003201108300000000000000872640000250000000450F1000010101197010032018000000000000  ABB 0000000000                                                                                 
1  028745AAMOUM                        MOHAMMED                      01011980ZZ222       PN 15 APPT 16 AGDAL                                                       MA 13005684                3023   C1110006040000002P999PMX0304201111900000000132100393120000050000000450F1000011504201115102011000000000000  ABB 0000000000                                                                                 
1                                                                    00000000            P                                                                         MA                                E1110006970000002P300PMX0608201008400000000275000132000000300000000200F1000013009201030082017000025597113  ABB 0000000000                                                                                 
1                                                                    00000000            P                                                                         MA                                E1110006950000002P300PMX0608200912000000000546800132000000600000000650F1000013008200930072019000030701200  ABB 0000000000                                                                                 
1   01222ASKARI                        FATIMA                        01011987A3000       PN 15 APPT 16 AGDAL                                                       MA 13005662                3023   C1110007060000002P300PMX0106201111900000000787400326880000350000000450F1000011507201115062021000034321672  ABB 0000000000                                                                                 
100000000AIT BOURJ                     EL HABIB                      01011990QQ3322      P                                                                         MA 13005647                3022   I1010002680000002P300PMX0102201030000000000054600000000000200000000227F1000011503201015032035000019156747  ABB 0000000000                                                                                 
1   10236AIT BOURJ                     EL HABIB                      09051986DR94526     PRABAT                                                                    MA 13005678                3022   I1110004470000002P300UMX0403201130000000000000000052630000600000000420F1000001504201115032036000059245133  ABB 0000000000                                                                                 
1  012478AIT BOURJ                     EL HABIB                      09051986DR94526     Prue15 n13 rabat takadoum                                                 MA 13005678                3022   I1110005680000002P300PMX1003201130000000001310200000000000500000000390F1000001504201115032036000039391158  ABB 0000000000                                                                                 
1  102563ASKARI                        FATIMA                        01011991A3212       PJKNJKNKJKOJ                                                              MA 13005640                3022   I1110006890000002P300PMX1005200930000000001814300000000000550000000450F1000001506200915052034000052292933  ABB 0000000000                                                                                 
1   12540AAMOUM                        MOHAMED                       24041996FR94562     PRABAT                                                                    MA 13005674                3022   I1110004460000002P300PMX0403201130000000001972700000000000600000000450F1000001504201115032036000059321640  ABB 0000000000                                                                                 
100000000AIT BOURJ                     EL HABIB                      09051986DR94526     PZZZZZZZZZZZZZZ                                                           MA 13005678                3022   I1110004490000002P300PMX0101201007200000000449300000000000150000000390F1000001502201015012016000011050968  ABB 0000000000                                                                                 
1        AAMOUM                        MOHAMED                       24041996FR94562     P                                                                         MA 13005674                3022   I1110004480000002P300PMX0403201130000000000262900000000000080000000420F1000001504201115032036000007905038  ABB 0000000000                                                                                 
1   25000BOUZAIDI                      ACHRAF                        01011980SQ21112     PFDSF                                                                     MA 13005689                3022   I1110006850000002P300PMX1001200830000000001629500000000000500000000227F1000001502200815012033000044599788  ABB 0000000000                                                                                 
1                                                                    00000000            P                                                                         MA                         3022   I1010000280000002P300UMX0102201024000000000000000004780000600000000450F1000003103201028022030000000000000  ABB 0000000000                                                                                 
1   82536SAMIR                         SAMIR                         12121999B12222      PMERS EL KHEIR N                                                          MA 13003804                3022   I1110004450000002P300PMX0403201116600000001457000000000000450000000450F1000001504201115012025000043697254  ABB 0000000000                                                                                 
1  012478EL HANAFI                     RADIA                         05091979D159463     Prue15 n13 rabat takadoum                                                 MA 13006306                3022   I1110005660000002P300PMX1003201130000000001642300000000000500000000390F1000001504201115032036000049377157  ABB 0000000000                                                                                 
1   25000AIT BOURJ                     EL HABIB                      01011980VX00121     PSDFDGDGD                                                                 MA 13005687                3022   I1110006870000002P006PMX1009200830000000001106700000000000400000000450F1000001510200815102011000000000000  ABB 0000000000                                                                                 
1   15236WAKIL                         BILAL                         12041990IE506050    PAPPT5 IMMB8                                                              MA 13005340                3022   I1110004440000002P300PMX0403201127900000001863600000000000600000000227F1000001504201115062034000055986495  ABB 0000000000                                                                                 
1   15123EL YAZGHI                     TAHAR                         08091980XX95236     PRUE EL BYROUNI AVENUE LA RESISANCE N 5 IMM B9 RABAT                      MA 13006305                3022   I1110005650000002P300PMX0110201030000000001941500000000000600000000227F1000001511201015102035000058340047  ABB 0000000000                                                                                 
100000000OUASSINI                      MOHAMED                       15021970QS98546     P                                                                         MA 13005672                3022   I1010002600000002P300PMX0102201016600000000000000000000000200000000450F1000001504201115012025000000000000  ABB 0000000000                                                                                 
1        EL YOUSFI                     BRAHIM                        17011994DA80448     P                                                                         MA 13005685                3023   C1110003970000002P300PMX0101201011900000000000000326880000100000000450F1000010101197006012021000000000000  ABB 0000000000                                                                                 
1  125300OUASSINI                      MOHAMED                       01011990AA3322      PTEST                                                                     MA 13005644                3022   I1110006830000002P300PMX1001200730000000001966200000000000600000000450F1000001502200715012032000053810398  ABB 0000000000                                                                                 
1        EL YOUSFI                     BRAHIM                        17011994DA80448     P                                                                         MA 13005685                3023   C1110003920000002P300PMX0103201011900000000016600326880000100000000450F1000013103201029022020000008762433  ABB 0000000000                                                                                 
1        AIT BOURJ                     EL HABIB                      01011990QQ3322      P                                                                         MA 13005647                3022   I1010002630000002P300UMX0101201012000000000000000000000000200000000450F1000000101197006112020000000000000  ABB 0000000000                                                                                 
199998888EL YOUSFI                     BRAHIM                        17011994DA80448     PBouskoura Ville                                                          MA 13005664                3022   I1110004580000002P300PMX0101201012000000001861800000000000600000000227F1000003101201031122019000050258027  ABB 0000000000                                                                                 
1 0108452ASKARI                        FATIMA                        20121978AD845213    PAVENUE EL OUARD                                                          MA 13005670                3022   I1110004570000002P300PMX0603201115200000001123700000000000350000000227F1000001504201115112023000033654067  ABB 0000000000                                                                                 
1  MBANQURabat                         Marocaine                     00000000            P                                                                         MA 8410539                 3022   I1010000570000002P300UMX3010201006000000000000000004780000500000000420F1000000101197006112015000000000000  ABB 0000000000                                                                                 
1        EL YOUSFI                     BRAHIM                        17011994DA80448     P                                                                         MA 8410539                 3022   I1010001780000002P300PMX0101201030000000000000000000000000500000000227F1000000101197006112035000000000000  ABB 0000000000                                                                                 
1 0105236HADDAOUI                      MUSTAPHA                      14041990AB95632     PRABAT                                                                    MA 13005845                3022   I1110004540000002P117PMX0603201130000000000000000000000000350000000420F1000001504201115032036000035000000  ABB 0000000000                                                                                 
1   12231AJDID                         TARIK                         08061989RT9455      P                                                                         MA 13005657                3022   I1110003350000002P300PMX0102201030000000000152300000000000560000000227F1000001503201015022035000036715100  ABB 0000000000                                                                                 
1  015325AJDID                         TARIK                         13061988AZ9562      PAVENUE 5 N8                                                              MA 13005909                3022   I1110004560000002P300PMX0603201129700000001505000000000000450000000450F1000031504201115032036000045000000  ABB 0000000000                                                                                 
1  012211AIT BOURJ                     EL HABIB                      01011990QQ3322      PNum 15 appt 16 imm essadiyine ue N1 quartier belvue                      MA 13005647                3022   I1110005770000002P999PMX1003201130000000000000000000000000250000000227F1000001504201120102011000000000000  ABB 0000000000                                                                                 
1  215487EL YOUSFI                     BRAHIM                        17011994DA80448     PCasablanca Tama                                                          MA 13005649                3022   I1110006980000002P300PMX0101201012000000000000000000000000100000000450F1000000101197031072021000000000000  ABB 0000000000                                                                                 
1        EL YOUSFI                     BRAHIM                        17011994DA80448     P                                                                         MA 8410539                 3022   I1110003340000002P300PMX0101201030000000000000000000000000600000000227F1000000101197002122035000000000000  ABB 0000000000                                                                                 
1  012365OUASSINI                      MOHAMED                       15021970QS98546     PAVENUE KHANSAE                                                           MA 13005672                3022   I1110004550000002P300PMX0603201116600000000647600000000000200000000450F1000001504201115012025000019421001  ABB 0000000000                                                                                 
1   15000BOUZAIDI                      ACHRAF                        01011980SQ21112     PAZE                                                                      MA 13005689                3022   I1110006920000002P300PMX1001200819800000001966200000000000600000000450F1000001502200815072024000040155003  ABB 0000000000                                                                                 
1   12000AIT BOURJ                     EL HABIB                      01011980VX00121     PSRFEFR                                                                   MA 13005687                3022   I1110006910000002P300PMX0109200830600000001992000000000000600000000450F1000001510200815032034000056275115  ABB 0000000000                                                                                 
1  012478AIT BOURJ                     EL HABIB                      09051986DR94526     Prue 15 apt5 taz                                                          MA 13005678                3022   I1110005720000002P300PMX1003201130000000001970800000000000600000000390F1000001504201115032036000059252589  ABB 0000000000                                                                                 
1   54202OUASSINI                      MOHAMED                       01011990AA3322      PQSDQS                                                                    MA 13005644                3022   I1110006930000002P300PMX0102200730000000001960000000000000600000000227F1000001503200715022032000041846902  ABB 0000000000                                                                                 
1        EL YOUSFI                     BRAHIM                        17011994DA80448     P                                                                         MA 8410539                 3022   I1010001760000002P300PMX0101201030000000000000000000000000600000000227F1000003101201031122034000056756663  ABB 0000000000                                                                                 
1  018030AJDID                         TARIK                         05091986AD141952    PABB                                                                      MA 13005667                3023   C1110003830000002P117PMX0201201112000000000000000326880000020000000450F1000011503201115032021000002000000  ABB 0000000000                                                                                 
1  125400AAMOUM                        MOHAMMED                      01011990XW33221     PKJKMLM                                                                   MA 13005649                3022   I1110006900000002P300PMX1607200830000000001982900000000000600000000227F1000001508200815072033000054424907  ABB 0000000000                                                                                 
1  123456EL YOUSFI                     BRAHIM                        17011994DA80448     P                                                                         MA 8410539                 3022   I1010001680000002P300PMX0612201030000000000000000326880000300000000227F1000003112201030112035000019465623  ABB 0000000000                                                                                 
1   15230ALAOUI                        AYMANE                        05091978FR9456      P                                                                         MA 13005680                3022   I1110003470000002P300PMX0102201017300000000153000000000000560000000420F1000001503201015072024000036360212  ABB 0000000000                                                                                 
1  013333AJDID                         TARIK                         13061988A66655      PTEST TEST                                                                MA 13005635                3022   I1110005890000002P300PMX1203201130000000000898300000000000270000000227F1000030105201101072036000026994559  ABB 0000000000                                                                                 
1  013953EL YOUSFI                     BRAHIM                        17011994DA80448     P                                                                         MA 8410539                 3022   I1010001670000002P300PMX0612201030000000000000000326880000500000000227F1000003112201030112035000048664053  ABB 0000000000                                                                                 
1   12344HADDAOUI                      MUSTAPHA                      14041990RC94632     Pres maamora                                                              MA 13005653                3023   C1110004900000002P300PMX0503201111900000000209500326880000095000000450F1000011504201115032021000009165657  ABB 0000000000                                                                                 
1   15236HAMMANI                       ANAS                          05041987DR9456      P                                                                         MA 13005685                3022   I1110003490000002P300PMX0103201030000000000164200000000000600000000420F1000001504201015032035000058056607  ABB 0000000000                                                                                 
1  105263AIT BOURJ                     EL HABIB                      09051986DR94526     PRABAT                                                                    MA 13005678                3022   I1110004650000002P300PMX0603201130000000001972700000000000600000000450F1000001504201115032036000059321640  ABB 0000000000                                                                                 
1  012478AIT BOURJ                     EL HABIB                      09051986DR94526     Prue 15 apt5 taz                                                          MA 13005678                3022   I1110005860000002P300PMX1003201130000000001642300000000000500000000390F1000001504201115032036000049377157  ABB 0000000000                                                                                 
1   56210ALAOUI                        AYMANE                        05091978FR9456      P                                                                         MA 13005680                3022   I1110003430000002P300PMX0102201015000000000070000000000000262500000420F1000001503201015082022000024169316  ABB 0000000000                                                                                 
1 0104823AAMOUM                        MOHAMED                       24041996FR94562     PRABAT CENTRE                                                             MA 13005674                3022   I1110004640000002P300PMX0603201130000000001146000000000000350000000227F1000001504201115032036000034438563  ABB 0000000000                                                                                 
1 0129452HADDAOUI                      MUSTAPHA                      14041990RC94632     PAVENUE ZREKTOUNI RUE NOUR APPT IMMB9 CASA                                MA 13005653                3022   I1110005850000002P300PMX0105201030000000000000000000000000600000000450F1000000101197013022036000000000000  ABB 0000000000                                                                                 
1   15263ALAOUI                        AYMANE                        05091978FR9456      P                                                                         MA 13005680                3022   I1110003450000002P300PMX0106201014400000000071500000000000262500000420F1000001507201015062022000024062880  ABB 0000000000                                                                                 
1    1233HADDAOUI                      MUSTAPHA                      01011990AA332211    Pres maamora                                                              MA 13005654                3023   C1010001960000002P300PMX0101201012000000000318600000000000150000000450F1000001503201015022020000013924738  ABB 0000000000                                                                                 
1  020145AJDID                         TARIK                         08091977DF45236     PCASA                                                                     MA 13005669                3023   C1110004950000002P300PMX0503201107100000001287300393120000500000000450F1000011504201115032017000046537413  ABB 0000000000                                                                                 
100000000OUASSINI                      MOHAMED                       01011975WX0023      P                                                                         MA 13005682                3022   I1010002820000002P300UMX0102201030000000000000000000000000600000000420F1000000104201001032035000058858646  ABB 0000000000                                                                                 
1        ALAOUI                        AYMANE                        05091978FR9456      P                                                                         MA 13005680                3022   I1110003400000002P300PMX0101201012000000000026200000000000100000000227F1000003103201029022020000008528378  ABB 0000000000                                                                                 
1  012478AIT BOURJ                     EL HABIB                      09051986DR94526     Pn 15 apt 12 rue                                                          MA 13005678                3022   I1110004610000002P300UMX0101201012000000000000000024420000200000000227F1000001502201015012020000016850134  ABB 0000000000                                                                                 
1   12563AAMOUM                        MOHAMED                       24041996FR94562     PAVENUE LALLA AMINA IMMB 8 APPT  RABAT                                    MA 13005674                3022   I1110005820000002P300PMX1003201130000000000000000000000000600000000450F1000001504201115032036000000000000  ABB 0000000000                                                                                 
1  012478AJDID                         TARIK                         01011960AW1100      Prue 15 apt5 TAZA rue 15 apt5 TZA rue 15 apt5 TAZA TEST 1 TES             MA 13005678                3023   C1110004960000002P300PMX0110201101200000000000001972800000250000000450F1000011511201115112012000025000000  ABB 0000008000                                                                                 
1   28288EL YOUSFI                     BRAHIM                        17011994DA80448     PMENZAH ZEIR                                                              MA 8410539                 3022   I1010001600000002P300PMX2802201028000000000000000326880000500000000227F1000003004201030072033000047479698  ABB 0000000000                                                                                 
100000000AJDID                         TARIK                         01011984XC33220     P                                                                         MA 13005658                3022   I1010002800000002P006UMX0102201030000000000000000000000000600000000227F1000000104201001102011000000000000  ABB 0000000000                                                                                 
1 0105892HADDAOUI                      MUSTAPHA                      14041990AB95632     PRUE MARASSA BAB                                                          MA 13005845                3022   I1110004630000002P300PMX0603201130000000001478100000000000450000000390F1000001504201115032036000044439444  ABB 0000000000                                                                                 
1        AAMOUM                        MOHAMED                       24041996FR94562     P                                                                         MA 13005674                3022   I1110005840000002P300PMX1003201130000000000000000000000000082500000450F1000001504201115032036000000000000  ABB 0000000000                                                                                 
1  012478AIT BOURJ                     EL HABIB                      09051986DR94526     Prue 15 apt5 taz                                                          MA 13005678                3023   C1110004980000002P300PMX0503201108800000000065100326880000030000000450F1000011504201115082018000002841104  ABB 0000000000                                                                                 
199998888EL YOUSFI                     BRAHIM                        17011994DA80448     PBouskoura Ville                                                          MA 13005664                3022   I1110004620000002P300PMX0101201025000000042682400000000000600000000227F1000003101201031102030000028047195  ABB 0000001100                                                                                 
1   01254EL YOUSFI                     BRAHIM                        17011994DA80448     Ptemara                                                                   MA 8410539                 3022   I1010001630000002P300PMX0105201030000000000000000326880000400000000227F1000003105201030042035000038259394  ABB 0000000000                                                                                 
1  012478AIT BOURJ                     EL HABIB                      09051986DR94526     Prue 15 apt5 taz                                                          MA 13005678                3023   C1110004990000002P300PMX0603201108000000000172700326880000080000000450F1000011504201115122017000007521401  ABB 0000000000                                                                                 
1                                                                    00000000            P                                                                         MA                                E1110006610000002P300PMX0301201112000000000733300132000000800000000650F1000120102201101012021000080000000  ABB 0000000000                                                                                 
1                                                                    00000000            P                                                                         MA                                E1110006600000002P300PMX0401200906000000000000000132000000050000000000F1000590102200901012014000005000000  ABB 0000000000                                                                                 
1                                                                    00000000            Pt                                                                       MA 8410539                 3022   I1010000790000002P300UMX0102201024000000000000000004780007000000000450F1000000101197006112030000000000000  ABB 0000000000                                                                                 
1  152369AAMOUM                        MOHAMED                       24041996FR94562     PHAY LINBIAT IMMEUBLE 5 APPARTEENT10  AVENUE MOHAMMED V SALE              MA 13005674                3022   I1110005970000002P300PMX0403201130300000000000000000000000600000000420F1000001504201115062036000059591546  ABB 0000000000                                                                                 
1   15263HADDAOUI                      MUSTAPHA                      14041990AB95632     P                                                                         MA 13005845                3022   I1110003540000002P300PMX0112201030000000001146600000000000350000000450F1000001501201115122035000034484915  ABB 0000000000                                                                                 
101999999AIT BOURJ                     EL HABIB                      09051986DR94526     Prue 15 apt5 taz                                                          MA 13005678                3022   I1110004750000002P300PMX0603201130000000000000000000000000500000000390F1000001504201115032036000000000000  ABB 0000000000                                                                                 
1   01254OUASSINI                      MOHAMED                       15021970WX0023      PAVENUE DES FAR N 15                                                      MA 13005682                3022   I1110005960000002P300PMX1303201120000000000818800000000000250000000227F1000011505201115012028000024510626  ABB 0000000000                                                                                 
1        AIT BOURJ                     EL HABIB                      09051986DR94526     P                                                                         MA 13005678                3022   I1110005990000002P300PMX0403201130000000000493200000000000400000000450F1000001504201115032036000014830411  ABB 0000000000                                                                                 
1  011111ZNATI                         AMINA                         14051980AD15236     P                                                                         MA 13005840                3022   I1110003560000002P300UMX0112201008400000000000000024420000150000000227F1000001501201115122017000013348552  ABB 0000000000                                                                                 
1  125403AIT BOURJ                     EL HABIB                      09051986DR94526     PRUE LALLA YAKOUT  AVENUE HASSA2                                          MA 13005678                3022   I1110005980000002P300PMX0403201125600000001804100000000000600000000420F1000001504201115072032000054214987  ABB 0000000000                                                                                 
1  012369AJDID                         TARIK                         13061988A66655      P                                                                         MA 13005635                3022   I1110003510000002P300PMX0112201030000000001139800000000000350000000450F1000001501201115122035000034272166  ABB 0000000000                                                                                 
1  012478AIT BOURJ                     EL HABIB                      09051986DR94526     Prue 15 apt5 taz                                                          MA 13005678                3022   I1110005920000002P300PMX1203201130000000001642300000000000500000000390F1000001504201115032036000049377157  ABB 0000000000                                                                                 
100000000AJDID                         TARIK                         01011990A66655      Pres maamoura 12                                                          MA 13005635                3023   C1010002430000002P300PMX0101201001200000000000000000000000020000000450F1000000101197006112011000000000000  ABB 0000000000                                                                                 
1  012478AIT BOURJ                     EL HABIB                      09051986DR94526     PQUARTIER 1 VILLE2 RUE 9 CASA B                                           MA 13005678                3022   I1110005900000002P300PMX1203201130000000001970800000000000600000000390F1000001504201115032036000059252589  ABB 0000000000                                                                                 
1    1234AJDID                         TARIK                         08091977DF45236     PFES                                                                      MA 13005669                3023   C1110004060000002P300PMX1501201105100000000024500393120000010000000450F1000011503201115062015000000879155  ABB 0000000000                                                                                 
100000000AJDID                         TARIK                         01011990A66655      Pres maamora                                                              MA 13005635                3023   C1010002450000002P300PMX0101201012000000000000000000000000050000000450F1000000101197006112020000000000000  ABB 0000000000                                                                                 
1  029359EL YOUSFI                     BRAHIM                        17011994DA80448     P                                                                         MA 13005685                3023   C1110004070000002P300PMX0101201012000000000216100326880000100000000450F1000013101201031012020000008603856  ABB 0000000000                                                                                 
1   28002OUASSINI                      MOHAMED                       15021970WX0023      PRES SALAM N 15                                                           MA 13005682                3023   C1110005210000002P300PMX0603201108700000000331400872640000055000000450F1000001504201115072018000005414710  ABB 0000000000                                                                                 
1  021444AAMOUM                        MOHAMED                       24041996FR94562     PRES SALAM N 15                                                           MA 13005674                3023   C1110005220000002P300PMX0603201112300000000466200326880000210000000450F1000001504201115072021000020537511  ABB 0000000000                                                                                 
1   01254BOUZAIDI                      ACHRAF                        01011980SQ21112     PRES SALAM N 15                                                           MA 13005689                3023   C1110005240000002P006PMX0603201108300000000195200393120000075000000450F1000011504201115102011000000000000  ABB 0000000000                                                                                 
1                                                                    00000000            P                                                                         MA                                E1110006500000002P300PMX0101200808400000000000000132000000150000000200F1000010102200801012015000007332496  ABB 0000000000                                                                                 
199999999EL YOUSFI                     BRAHIM                        17011994DA80448     PRoudani                                                                  MA 13005685                3023   C1110005090000002P300PMX0101201012000000000000000326880000600000000450F1000010101197006032021000000000000  ABB 0000000000                                                                                 
1  MBANQUrabat                         Marocaine                     00000000            P                                                                         MA 8410539                 3022   I1010000690000002P300UMX0105201012000000000000000048840000400000000420F1000000105201001042020000000000000  ABB 0000000000                                                                                 
1   14263AJDID                         TARIK                         13061988A66655      P                                                                         MA 13005635                3022   I1110003690000002P300PMX0402201130000000001969500000000000600000000450F1000003003201129022036000059222997  ABB 0000000000                                                                                 
1                                                                    00000000            P                                                                         MA                                E1110006590000002P300PMX0307201009000000000090900132000000400000000650F1000010108201001012018000008755292  ABB 0000000000                                                                                 
1                                                                    00000000            P                                                                         MA                                E1110006580000002P300PMX0106201112000000000000000132000000350000000700F1000000107201101062021000034214336  ABB 0000000000                                                                                 
1        EL YOUSFI                     BRAHIM                        17011994DA80448     P                                                                         MA 13005685                3022   I1110003660000002P300UMX0103201024000000000000000036420000500000000227F1000003004201031032030000046886200  ABB 0000000000                                                                                 
1        EL YOUSFI                     BRAHIM                        17011994DA80448     P                                                                         MA 13005685                3022   I1110003650000002P300PMX0101201030000000000162800000000000600000000227F1000002802201031012035000057061974  ABB 0000000000                                                                                 
1  012478AAMOUM                        MOHAMMED                      01011985XW9002      Prue 15 apt5 taz                                                          MA 13005678                3022   I1110004860000002P300PMX0603201112000000000637700000000000200000000390F1000001504201115032021000019072480  ABB 0000000000                                                                                 
1                                                                    00000000            P                                                                         MA                                E1110006560000002P300PMX0101201012000000000000000132000000100000000200F1000063101201031122019000000000000  ABB 0000000000                                                                                 
1        EL YOUSFI                     BRAHIM                        17011994DA80448     P                                                                         MA 13005685                3022   I1110003680000002P300PMX0101201030000000000109500000000000400000000450F1000003103201028022035000038760021  ABB 0000000000                                                                                 
1                                                                    00000000            P                                                                         MA                                E1110006550000002P300PMX0806200808400000000000000132000000300000000200F1000010107200801062015000016470494  ABB 0000000000                                                                                 
1        EL YOUSFI                     BRAHIM                        17011994DA80448     P                                                                         MA 13005664                3022   I1110003640000002P300PMX0101201030000000000162800000000000600000000227F1000003101201031122034000057048053  ABB 0000000000                                                                                 
1        EL YOUSFI                     BRAHIM                        17011994DA80448     P                                                                         MA 13005685                3022   I1110003630000002P300PMX0101201012000000000000000000000000600000000227F1000000101197004012021000000000000  ABB 0000000000                                                                                 
100000000AJDID                         TARIK                         01011990A66655      Pres maamora                                                              MA 13005635                3023   C1010002550000002P300PMX0101201012000000000562100000000000220000000450F1000001503201015022020000020430494  ABB 0000000000                                                                                 
1  MBANQURabat                         Marocaine                     00000000            P                                                                         MA 8410539                 3022   I1010000660000002P300UMX3004201012000000000000000048840000400000000227F1000000105201001042020000000000000  ABB 0000000000                                                                                 
100000000AJDID                         TARIK                         01011990A66655      Pres maamora                                                              MA 13005635                3023   C1010002540000002P300PMX0101201012000000000153300000000000060000000450F1000001503201015022020000005571951  ABB 0000000000                                                                                 
1        AJDID                         TARIK                         01011990A66655      P                                                                         MA 13005635                3022   I1010001860000002P300PMX2001201030000000000261000000000000080000000341F1000000104201001032035000007846313  ABB 0000000000                                                                                 
100000000AJDID                         TARIK                         01011990A66655      Pres maamora                                                              MA 13005635                3023   C1010002530000002P300PMX0101201012000000000000000000000000050000000450F1000001503201015022020000000000000  ABB 0000000000                                                                                 
1                                                                    00000000            P                                                                         MA 8410539                 3022   I1010000640000002P300UMX2208201030000000000000000004780000600000000450F1000003009201031082035000058560771  ABB 0000000000                                                                                 
1        AJDID                         TARIK                         01011990A66655      P                                                                         MA 13005635                3022   I1010001850000002P117PMX2001201030000000000000000000000000600000000227F1000000103201001022035000019809275  ABB 0000000000                                                                                 
1   MSansEL YOUSFI                     BRAHIM                        17011994DA80448     Paaa                                                                      MA 13005648                3023   C1010001310000002P300PMX0101201012000000000213800326880000600000000450F1000003101201031122019000008534143  ABB 0000000000                                                                                 
1   12536AAMOUM                        MOHAMMED                      01011990XW33221     P                                                                         MA 13005649                3022   I1010001840000002P300PMX1001201030000000000000000000000000600000000420F1000000101197006112035000000000000  ABB 0000000000                                                                                 
1  032522OUASSINI                      MOHAMED                       15021970WX0023      PN 15 APPT 2 SAL                                                          MA 13005682                3023   C1110005160000002P300PMX0603201101200000000089800872640000025000000450F1000011504201115042012000001273220  ABB 0000000000                                                                                 
1   01254AJDID                         TARIK                         01011980EZ22110     P2 res 5 sale                                                             MA 13005659                3023   C1110005130000002P300PMX0603201111900000000503900393120000190000000450F1000011504201115032021000018334254  ABB 0000000000                                                                                 
1                                                                    00000000            P                                                                         MA                                E1110006430000002P300PMX0101201012000000000000000132000000600000000200F1000123101201031122019000054929538  ABB 0000000000                                                                                 
1                                                                    00000000            P                                                                         MA                                E1110006420000002P300PMX0106200912000000000000000132000000900000000560F1000030109200901062019000057522828  ABB 0000000000                                                                                 
1                                                                    00000000            P                                                                         MA                                E1110006400000002P300PMX0306201106000000000000000132000000050000000000F1000590107201101062016000005000000  ABB 0000000000                                                                                 
1                                                                    00000000            P                                                                         MA                                E1110006480000002P300PMX0706201108400000000000000132000000250000000200F1000010107201101062018000024161030  ABB 0000000000                                                                                 
1   15230ASKARI                        FATIMA                        20121968AD845213    P                                                                         MA 13005670                3022   I1110003790000002P300PMX3012201015200000001104400000000000350000000227F1000003001201130082023000033070252  ABB 0000000000                                                                                 
1        EL YOUSFI                     BRAHIM                        17011994DA80448     P                                                                         MA 13005685                3022   I1110003780000002P300PMX0101201030000000000000000000000000600000000227F1000030101197005042036000000000000  ABB 0000000000                                                                                 
100000000AJDID                         TARIK                         05091988AZ9562      Pres maamora                                                              MA 13005642                3023   C1010002620000002P300PMX0101201012000000000000000393120000060000000450F1000000101197006112020000000000000  ABB 0000000000                                                                                 
1        AJDID                         TARIK                         13061988A66655      P                                                                         MA 13005635                3022   I1110003730000002P300PMX0402201130000000000262600000000000080000000450F1000003003201129022036000007896403  ABB 0000000000                                                                                 
1  012478AAMOUM                        MOHAMMED                      01011990SQ33200     Prue 15 apt5 taz                                                          MA 13005678                3022   I1110004940000002P300UMX0503201112000000000000000024420000500000000390F1000001504201115032021000047633973  ABB 0000000000                                                                                 
1   12501ASKARI                        FATIMA                        01011991A3212       P                                                                         MA 13005640                3022   I1110003720000002P300PMX0102201130000000000000000000000000600000000227F1000000101197001022036000000000000  ABB 0000000000                                                                                 
1  MBANQURabat                         Marocaine                     00000000            P                                                                         MA 8410539                 3022   I1010000930000002P300PMX2811201012000000000000000478080000500000000420F1000000105201001042020000000000000  ABB 0000000000                                                                                 
1   01254ASKARI                        FATIMA                        01011991A3212       PAVENUE ALLAL IBN ABDELLAH NUM 5 APPT 16 ETG 10 RUE ALLAH BEN             MA 13005640                3023   C1110007400000002P300PMX0110201111900000000000000326880000150000000450F1000011511201115102021000015000000  ABB 0000000000                                                                                 
1  MBANQURabat                         Marocaine                     00000000            P                                                                         MA 8410539                 3022   I1010000920000002P300UMX2208201012000000000000000004780000400000000227F1000000105201001042020000034639929  ABB 0000000000                                                                                 
1        EL YOUSFI                     BRAHIM                        17011994DA80448     P                                                                         MA 13005685                3022   I1110003740000002P300UMX0101201024000000000000000036420000500000000227F1000000101197005012031000000000000  ABB 0000000000                                                                                 
1  MBANQURabat                         Marocaine                     00000000            P                                                                         MA 8410539                 3022   I1010000990000002P300UMX0105201030000000000000000004780000500000000450F1000000105201001042035000000000000  ABB 0000000000                                                                                 
1  MSalarRabat                         Marocaine                     00000000            P                                                                         MA 8410539                 3022   I1010000970000002P300UMX0102201030000000000000000004780000230000000227F1000003103201028022035000021887639  ABB 0000000000                                                                                 
