00301102011B                                                                                                                                                                                                                                                                                                                                                                                                   
1  012478AIT BOURJ                     EL HABIB                      09051986DR94526     Prue 15 apt5 taz                                                          MA 13005678                3022   I1110005190000002P300PMX0603201130000000001147500332000003500000000390F1000001511201115032036000034564011  ABB 0000000000                                                                                 
1  025652OUASSINI                      MOHAMED                       01011990AA3322      PRES 5 N 10 SALA                                                          MA 13005644                3022   I1110005180000002P300PMX0603201130000000000816700332000002500000000227F1000001511201115032036000024598972  ABB 0000000000                                                                                 
1                                                                    01011970            P                                                                         MA 8410539                 3022   I1010001140000002P300UMX0102201030000000000000000003320007000000000450F1000000104201001032035000067736349  ABB 0000000000                                                                                 
1  MCadreRabat                         Marocaine                     01011970            P                                                                         MA 8410539                 3022   I1010001130000002P300UMX0102201030000000000000000003320006000000000450F1000000104201001032035000048383095  ABB 0000000000                                                                                 
1        ALAOUI                        AYMANE                        05091978FR9456      P                                                                         MA 13005680                3022   I1010002340000002P300PMX0501201030000000001893900332000006000000000227F1000000111201101012035000057044153  ABB 0000000000                                                                                 
1  012478AIT BOURJ                     EL HABIB                      09051986DR94526     Prue 15 apt5 taz                                                          MA 13005678                3022   I1110005120000002P300PMX0603201130000000001639300332000005000000000390F1000001511201115032036000049377157  ABB 0000000000                                                                                 
100000000ALAOUI                        AYMANE                        05091978FR9456      P                                                                         MA 13005680                3022   I1010002330000002P300PMX0501201030000000001919900332000006000000000420F1000003011201130012035000057827371  ABB 0000000000                                                                                 
1  012478AIT BOURJ                     EL HABIB                      09051986DR94526     Prue 15 apt5 taz                                                          MA 13005678                3022   I1110005150000002P300PMX0603201107200000000334000332000001100000000390F1000001511201115032017000010060905  ABB 0000000000                                                                                 
1  MCadreRabat                         Marocaine                     01011970            P                                                                         MA 8410539                 3022   I1010001110000002P300UMX0102201030000000000000000003320006000000000227F1000000104201001032035000047706942  ABB 0000000000                                                                                 
100000000HAMMANI                       ANAS                          05041987DR9456      P                                                                         MA 13005685                3022   I1010002320000002P300PMX0501201030000000001919900332000006000000000420F1000003011201130012035000057827371  ABB 0000000000                                                                                 
1  012478AIT BOURJ                     EL HABIB                      09051986DR94526     Prue 15 apt5 taz                                                          MA 13005678                3022   I1110005140000002P300UMX0603201127700000000000000438600006000000000390F1000001504201115042034000059100475  ABB 0000000000                                                                                 
1  012560AIT BOURJ                     EL HABIB                      01011990QQ3322      PRABAT                                                                    MA 13005647                3022   I1110007510000002P006PMX0110201001200000000028300332000001000000000420F1000001511201015102011000000000000  ABB 0000000000                                                                                 
1  012478AIT BOURJ                     EL HABIB                      09051986DR94526     Prue 15 apt5 taz                                                          MA 13005678                3022   I1110005110000002P300PMX0603201107200000000394800332000001300000000390F1000001511201115032017000011890166  ABB 0000000000                                                                                 
1   62300AAMOUM                        MOHAMMED                      01011985XW9002      PAVENUE MED V                                                             MA 13005686                3022   I1110007530000002P300UMX0110201130000003263160000438600006000000000420F1000001511201115102036000060000000  ABB 0000005000                                                                                 
1                                                                    01011970            P                                                                         MA 8410539                 3022   I1010001150000002P300UMX0105201030000000000000000003320006000000000450F1000000105201001042035000058253969  ABB 0000000000                                                                                 
1        ALAOUI                        AYMANE                        05091978FR9456      P                                                                         MA 13005680                3022   I1010002360000002P300PMX0501201030000000002546000332000008000000000341F1000000111201101012035000076686964  ABB 0000000000                                                                                 
199999999EL YOUSFI                     BRAHIM                        17011994DA80448     PCasablanca Tama                                                          MA 13005664                3022   I1110005100000002P300PMX0101201012000000000862600332000003000000000227F1000033011201131032020000025981092  ABB 0000000000                                                                                 
1   54210AJDID                         TARIK                         13061988A66655      PAPPT 1 RESIDENCE2 AVENUE MOULA ALI CHRIF KENITRA MAROC                   MA 13005635                3022   I1110007520000002P006PMX0105200830000000001351400332000004500000000227F1000001506200820102011000000000000  ABB 0000000000                                                                                 
1  012478HADDAOUI                      MUSTAPHA                      01011990QD1100      Prue 15 apt5 taz                                                          MA 13005678                3023   C1110004850000002P300PMX0603201108300000000107000227000000500000000450F1000011511201115032018000004714521  ABB 0000000000                                                                                 
1   12222ASKARI                        FATIMA                        01011987A3000       Pres maamoura 12                                                          MA 13005662                3023   C1110004830000002P300PMX0603201108300000000107000227000000500000000450F1000011511201115032018000004714521  ABB 0000000000                                                                                 
1        EL YOUSFI                     BRAHIM                        17011994DA80448     P                                                                         MA 13005685                3023   C1110003670000002P300PMX0101201011900000000197300227000001000000000450F1000013011201131012020000008691382  ABB 0000000000                                                                                 
1  114420AAMOUM                        MOHAMMED                      01011980ZZ222       PNUM 10 APPT 15                                                           MA 13005684                3023   C1110004890000002P300PMX0503201107100000000190600273000000750000000450F1000011511201115032017000006980615  ABB 0000000000                                                                                 
1                                                                    01011970            P                                                                         MA 8410539                 3022   I1010001030000002P300UMX0105201030000000000000000003320006000000000450F1000000105201001042035000058628074  ABB 0000000000                                                                                 
1        AALAM                         HAMZA                         11091990AD25956     P                                                                         MA 13005847                3022   I1110004030000002P300PMX0506201030000000000914300332000002790000000341F1000032011201120112035000027538886  ABB 0000000000                                                                                 
1  013111AALAM                         HAMZA                         11091990AD25956     P                                                                         MA 13005847                3022   I1110004020000002P300PMX0506201030000000001952600332000006000000000227F1000032011201120112035000058812507  ABB 0000000000                                                                                 
1        EL YOUSFI                     BRAHIM                        17011994DA80448     P                                                                         MA 13005685                3022   I1110004050000002P006PMX0101201024000000001911100332000006000000000227F1000033004201015102011000000000000  ABB 0000000000                                                                                 
1  012478AIT BOURJ                     EL HABIB                      09051986DR94526     Prue 15 apt5 taz                                                          MA 13005678                3022   I1110005260000002P300PMX0603201112900000000717500332000002770000000390F1000001511201115122021000021611270  ABB 0000000000                                                                                 
1  012478AIT BOURJ                     EL HABIB                      09051986DR94526     Prue 15 apt5 taz                                                          MA 13005678                3022   I1110005200000002P300PMX0603201112000000000506600332000001600000000390F1000001511201115032021000015257987  ABB 0000000000                                                                                 
1  526412HADDAOUI                      MUSTAPHA                      01011991DD55500     P                                                                         MA 13005654                3022   I1010002270000002P300PMX0101201030000000000947200332000003000000000227F1000000111201101012035000028531591  ABB 0000000000                                                                                 
1  652417AIT BOURJ                     EL HABIB                      01011990QQ3322      P                                                                         MA 13005647                3022   I1010002260000002P300PMX0501201010000000001795800332000006000000000227F1000000111201101062018000054091703  ABB 0000000000                                                                                 
1    1234AJDID                         TARIK                         01011980EZ22110     Pres maamora                                                              MA 13005659                3023   C1110003520000002P300PMX2001201106000000000108300273000000450000000450F1000011511201115022016000003966214  ABB 0000000000                                                                                 
1  020145AJDID                         TARIK                         05091986AD141952    Pcasa                                                                     MA 13005669                3023   C1110003530000002P117PMX0201201112000000000592800227000002700000000450F1000011504201115032021000027000000  ABB 0000000000                                                                                 
1  012478AIT BOURJ                     EL HABIB                      09051986DR94526     Prue 15 apt5 taza                                                         MA 13005678                3023   C1110005910000002P300PMX1203201112000000000328700227000001500000000450F1000011511201115042021000014478362  ABB 0000000000                                                                                 
1  018030AJDID                         TARIK                         08091977DF45236     PSIDI BOUKNADEL                                                           MA 13005669                3023   C1110003500000002P300PMX0112201012000000000051500273000000200000000450F1000011511201115012021000001885922  ABB 0000000000                                                                                 
1  012478AIT BOURJ                     EL HABIB                      09051986DR94526     Prue 15 apt5 taza                                                         MA 13005678                3023   C1110005930000002P300PMX1203201112000000000328700227000001500000000450F1000011511201115042021000014478362  ABB 0000000000                                                                                 
1  020145OUASSINI                      MOHAMED                       15021970WX0023      PCASA                                                                     MA 13005682                3023   C1110003570000002P300PMX2101201112000000000082700273000000672500000450F1000011511201115022021000003030988  ABB 0000000000                                                                                 
1   11111AJDID                         TARIK                         01011960AW1100      Pres maamora                                                              MA 13005660                3023   C1110004780000002P300PMX0603201111900000002653901372000002000000000450F1000011511201115032021000019371699  ABB 0000000000                                                                                 
1        AAMOUM                        MOHAMED                       24041996FR94562     P                                                                         MA 13005674                3022   I1110004180000002P300PMX0706201029700000000912000332000002790000000341F1000032011201120062035000027469016  ABB 0000000000                                                                                 
1   15247AIT BOURJ                     EL HABIB                      09051986DR94526     PHAY ZITOUNE TAR                                                          MA 13005678                3022   I1110004140000002P300PMX0106201019700000001863100332000006000000000227F1000001511201115112026000056118120  ABB 0000000000                                                                                 
1  012478AIT BOURJ                     EL HABIB                      09051986DR94526     Prue15 n13 rabat takadoum                                                 MA 13005678                3022   I1110005370000002P300PMX0803201129700000001311200332000005000000000390F1000001511201115122035000039493175  ABB 0000000000                                                                                 
1  012523HADDAOUI                      MUSTAPHA                      14041990AB95632     PAIN LOUH                                                                 MA 13005845                3022   I1110004150000002P300PMX0104201030000000001399100332000004350000000420F1000001511201115042035000042141108  ABB 0000000000                                                                                 
1   15269AIT BOURJ                     EL HABIB                      09051986DR94526     P                                                                         MA 13005678                3022   I1110004100000002P300PMX0106201030000000001918200332000006000000000227F1000001511201115062035000057775977  ABB 0000000000                                                                                 
1  012478AIT BOURJ                     EL HABIB                      09051986DR94526     Prue 15 apt5 taz                                                          MA 13005678                3022   I1110005310000002P300PMX0703201130000000000616700332000001880000000450F1000001511201115032036000018575120  ABB 0000000000                                                                                 
1                                                                    01011970            P                                                                         MA 8410539                 3022   I1010000180000002P300UMX3010201012000000000000000003320070000000000341F1000003011201031102020000643398466  ABB 0000000000                                                                                 
1                                                                    01011970            P                                                                         MA                         3022   I1010001390000002P300UMX0103201030000000000000000407000006000000000227F1000003103201028022035000057098198  ABB 0000000000                                                                                 
1  012478AIT BOURJ                     EL HABIB                      09051986DR94526     Prue15 n13 rabat                                                          MA 13005678                3022   I1110005320000002P300PMX0703201125900000000824300332000002500000000390F1000001511201115102032000024827259  ABB 0000000000                                                                                 
1  012542AAMOUM                        MOHAMMED                      01011990XW33221     PIMM 15 APPT 16 RES ABWAB SALE                                            MA 13005649                3023   C1110005830000002P300PMX1003201108300000000045800227000000320000000450F1000011511201115032018000002017290  ABB 0000000000                                                                                 
1   01254AAMOUM                        MOHAMMED                      01011980ZZ222       Pvilla floride bd zerktouni                                               MA 13005684                3023   C1110005800000002P006PMX1003201111900000000253300273000000955000000450F1000011504201115102011000000000000  ABB 0000000000                                                                                 
1     10MRabat                                                       01011970            P                                                                         MA 8410539                 3022   I1010000100000002P300UMX0102201024000000000000000003320006000000000450F1000033105201031072030000057763588  ABB 0000000000                                                                                 
100000000HADDAOUI                      MUSTAPHA                      05091989AB6523      P                                                                         MA 13005650                3022   I1010002520000002P300PMX0102201030000000001397500332000004350000000450F1000003011201128022035000042093941  ABB 0000000000                                                                                 
1        OUASSINI                      MOHAMED                       01011975WX0023      P                                                                         MA 13005682                3022   I1010002510000002P300PMX0612201012000000000621200332000002000000000420F1000003011201130122020000018712236  ABB 0000000000                                                                                 
100000000HADDAOUI                      MUSTAPHA                      01011971AA332211    P                                                                         MA 13005634                3022   I1010002500000002P300PMX0102201030000000001397500332000004350000000450F1000003011201128022035000042093941  ABB 0000000000                                                                                 
1  012478AIT BOURJ                     EL HABIB                      09051986DR94526     Prue 15 apt5 taza                                                         MA 13005678                3023   C1110005870000002P300PMX1003201112000000000328700227000001500000000450F1000011511201115042021000014478362  ABB 0000000000                                                                                 
1   30021OUASSINI                      MOHAMED                       15021970WX0023      PNUM 10 APPT 15                                                           MA 13005682                3023   C1110004680000002P300PMX0603201111900000001282000606000002200000000250F1000011511201115032021000021154423  ABB 0000000000                                                                                 
1   28900HADDAOUI                      MUSTAPHA                      01011971AA332211    Pres maamora                                                              MA 13005634                3023   C1110003480000002P300PMX2012201012000000000193100273000000750000000450F1000011511201115012021000007072220  ABB 0000000000                                                                                 
1 1122335BOUZAIDI                      ACHRAF                        01011980SQ21112     PNUM 10 APPT 15                                                           MA 13005689                3023   C1110004690000002P300PMX0603201111900000000368800273000001400000000450F1000011511201115032021000013509449  ABB 0000000000                                                                                 
1  029360AJDID                         TARIK                         08091977DF45236     PLAAYOUNE                                                                 MA 13005669                3023   C1010003090000002P300PMX0612201012000000001552800606000002700000000450F1000011511201115012021000025623190  ABB 0000000000                                                                                 
1  029359AJDID                         TARIK                         05091986AD141952    PBLOC A NO 12 HA                                                          MA 13005667                3023   C1010003080000002P300PMX0602201012000000000697700273000002700000000450F1000011511201115012021000025555462  ABB 0000000000                                                                                 
1                                                                    01011970            P                                                                         MA 8410539                 3022   I1010000040000002P300UMX0102201012000000000000000003320006000000000450F1000003103201029022020000051974241  ABB 0000000000                                                                                 
1  015236OUASSINI                      MOHAMED                       15021970QS98546     PTEST TEST                                                                MA 13005672                3022   I1110004250000002P300PMX0103201129700000001986700332000006000000000227F1000031511201115032036000059841666  ABB 0000000000                                                                                 
1   12530AAMOUM                        MOHAMMED                      01011990XW33221     PAPPT1 RUE 5 AVENUE ALLAL IBN ADELLAH                                     MA 13005649                3022   I1110006660000002P300PMX0607200830000000001851000332000006000000000420F1000001511201115072033000055753312  ABB 0000000000                                                                                 
1  012478AIT BOURJ                     EL HABIB                      09051986DR94526     Prue15 n13 rabat takadoum                                                 MA 13005678                3022   I1110005480000002P300PMX0803201112000000000474900332000001500000000390F1000001511201115032021000014304364  ABB 0000000000                                                                                 
1   15200AIT BOURJ                     EL HABIB                      01011980VX00121     PAPPT5 IMMB8 RUE 8 AVENUE ERRAZ KENITRA                                   MA 13005687                3022   I1110006690000002P300PMX0109200818700000000891100332000004500000000227F1000011511201115062024000026840014  ABB 0000000000                                                                                 
1  010325AAMOUM                        MOHAMED                       24041996FR94562     PRABAT                                                                    MA 13005674                3022   I1110004260000002P300UMX0203201130000000000000000438600006000000000420F1000001504201115032036000059245133  ABB 0000000000                                                                                 
1   01254AAMOUM                        MOHAMED                       05041987AZ59633     PRES SALAM N 15                                                           MA 13005676                3022   I1110005470000002P300PMX0803201125000000000812900332000002500000000227F1000001511201115012032000024485498  ABB 0000000000                                                                                 
1        ASKARI                        FATIMA                        01011991A3212       P                                                                         MA 13005640                3022   I1110006680000002P006UMX0105200930000000000000000438600003500000000450F1000001506200915102011000000000000  ABB 0000000000                                                                                 
1   28152AJDID                         TARIK                         13061988A66655      PLOT EL IRAKI APPT1 AVENUE MED  RABAT                                     MA 13005635                3022   I1110006650000002P300PMX0607200830000000001865900332000006000000000450F1000011511201115092033000056162891  ABB 0000000000                                                                                 
1  010563HADDAOUI                      MUSTAPHA                      01011971AA332211    PAPPT1 IMMB8 AVENUE MOHAMED TRII CASABLANCA 20000                         MA 13005634                3022   I1110006640000002P300PMX0607200930000000001865700332000006000000000227F1000001511201115072034000056196458  ABB 0000000000                                                                                 
1   12300ASKARI                        FATIMA                        01011987A3000       Pres maamoura 12                                                          MA 13005662                3023   C1110004510000002P300PMX0503201104700000000070500227000000350000000450F1000011511201115032015000003104242  ABB 0000000000                                                                                 
1  012478AIT BOURJ                     EL HABIB                      09051986DR94526     Prue 15 apt5 taza                                                         MA 13005678                3023   C1110005730000002P300PMX1003201112000000000065700227000000300000000450F1000011511201115042021000002895671  ABB 0000000000                                                                                 
1  012000OUASSINI                      MOHAMED                       01011990AA3322      PTEST                                                                     MA 13005644                3023   C1110006940000002P006PMX0101201012000000000590600227000003000000000450F1000001502201015102011000000000000  ABB 0000000000                                                                                 
1  021445AAMOUM                        MOHAMMED                      01011980ZZ222       Ptanger                                                                   MA 13005684                3023   C1110004530000002P300PMX0503201108300000000128700273000000500000000450F1000011511201115032018000004715309  ABB 0000000000                                                                                 
1  033200ASKARI                        FATIMA                        01011991A3212       Pvilla floride bd zerktouni                                               MA 13005640                3023   C1110005740000002P300PMX1003201108300000000156200227000000730000000450F1000011511201115032018000006883192  ABB 0000000000                                                                                 
1 0254545AAMOUM                        MOHAMED                       24041996FR94562     PIMM 15 APPT 15 RES SEMIRAMIS SID HAJJI                                   MA 13005674                3023   C1110005750000002P300PMX1003201107100000000528100227000002500000000450F1000011511201115032017000023264762  ABB 0000000000                                                                                 
1  012211AAMOUM                        MOHAMED                       24041996FR94562     Pn 15 appt 06 res essafae                                                 MA 13005674                3023   C1110005700000002P300PMX1003201104700000000072500227000000360000000450F1000011511201115032015000003192934  ABB 0000000000                                                                                 
1   01201ALAOUI                        AYMANE                        05091978FR9456      Pav madagascar n 15 sala al jadda                                         MA 13005680                3023   C1110005710000002P300PMX1003201111900000000263400273000001000000000450F1000011511201115032021000009649610  ABB 0000000000                                                                                 
1  018030AJDID                         TARIK                         05091986AD141952    PSIDI BOUKNADEL                                                           MA 13005667                3023   C1010003110000002P300PMX0612201012000000000697700273000002700000000450F1000011511201115012021000025555462  ABB 0000000000                                                                                 
1   01233HADDAOUI                      MUSTAPHA                      01011991DD55500     Pres maamora                                                              MA 13005654                3023   C1010003180000002P300PMX0101201012000000000382700273000001500000000450F1000001511201115012020000014019284  ABB 0000000000                                                                                 
1  018021OUASSINI                      MOHAMED                       15021970WX0023      Pres salamat n15 appt 16                                                  MA 13005682                3023   C1110005790000002P300PMX1003201109500000000462200606000000800000000450F1000011511201115032019000007626934  ABB 0000000000                                                                                 
1  015245OUASSINI                      MOHAMED                       15021970QS98546     PSETTAT                                                                   MA 13005672                3022   I1110004360000002P300PMX0105201016600000001076500332000003500000000420F1000001511201115032024000032424727  ABB 0000000000                                                                                 
1        AIT BOURJ                     EL HABIB                      09051986DR94526     P                                                                         MA 13005678                3022   I1110005560000002P300PMX0903201130000000001637700332000005000000000341F1000001511201115032036000049326872  ABB 0000000000                                                                                 
1  012563AIT BOURJ                     EL HABIB                      09051986DR94526     PHAY EL MENZEH AVENUE DES FAR RBAT                                        MA 13005678                3022   I1110005590000002P300PMX0110201019700000000958100332000006000000000227F1000001511201115032027000028859680  ABB 0000000000                                                                                 
1  MBANQUrabat                         Marocaine                     01011970            P                                                                         MA 8410539                 3022   I1010000340000002P300UMX3110201030000000000000000407000006000000000450F1000013009201030092035000058880973  ABB 0000000000                                                                                 
1   15284AAMOUM                        MOHAMED                       24041996FR94562     PN37 CITE MILITA                                                          MA 13005674                3022   I1110004320000002P300PMX0303201130000000001960000332000006000000000227F1000001511201115032036000059037532  ABB 0000000000                                                                                 
1  012478AIT BOURJ                     EL HABIB                      09051986DR94526     Prue15 n13 rabat takadoum                                                 MA 13005678                3022   I1110005530000002P300PMX0903201130000000001481900332000004520000000390F1000001511201115032036000044636951  ABB 0000000000                                                                                 
1  010862AJDID                         TARIK                         13061988AZ9562      PN8 RUE NAHDA                                                             MA 13005909                3022   I1110004310000002P300PMX0106201030000000001233300332000005600000000227F1000001511201115062035000037147942  ABB 0000000000                                                                                 
1  012478AIT BOURJ                     EL HABIB                      09051986DR94526     Prue15 n13 rabat takadoum                                                 MA 13005678                3022   I1110005520000002P300PMX0903201128800000001474800332000004500000000450F1000001511201115032035000044422429  ABB 0000000000                                                                                 
1        AIT BOURJ                     EL HABIB                      01011990QQ3322      P                                                                         MA 13005647                3022   I1110006730000002P300PMX0105200830000000001849500332000006000000000450F1000001511201115052033000055708982  ABB 0000000000                                                                                 
1  012478AIT BOURJ                     EL HABIB                      09051986DR94526     Prue15 n13 rabat takadoum                                                 MA 13005678                3022   I1110005550000002P300PMX0603201130600000002000100332000006000000000227F1000001502201215092036000059452008  ABB 0000000000                                                                                 
1  012345EL YOUSFI                     BRAHIM                        17011994DA80448     Prabat agdal                                                              MA 8410539                 3022   I1010001590000002P300PMX0101201030000000000000001372000003000000000227F1000002003201020022035000019034238  ABB 0000000000                                                                                 
100000000ASKARI                        FATIMA                        20121978DF98523     P                                                                         MA 13005671                3022   I1010002710000002P300PMX0102201020000000001034000332000003500000000227F1000000111201101102026000031143557  ABB 0000000000                                                                                 
1 0125236BOUZAIDI                      ACHRAF                        01011980SQ21112     Pappt1 rue5 avenue allal ibn abellh                                       MA 13005689                3022   I1110006700000002P300PMX0101200830000000001480700332000005000000000227F1000001511201115012033000044599788  ABB 0000000000                                                                                 
1  012000AJDID                         TARIK                         13061988A66655      PTEST                                                                     MA 13005635                3022   I1110005500000002P300PMX0903201115200000001123700332000003500000000227F1000000111201101122023000033847736  ABB 0000000000                                                                                 
1   00211OUASSINI                      MOHAMED                       01011990AA3322      PAPPT1 IMMB E RESIDENCE SEKKAT ABAT                                       MA 13005644                3022   I1110006710000002P300PMX0101200708400000000373400332000001500000000420F1000001511201115012014000011248288  ABB 0000000000                                                                                 
100000000OUASSINI                      MOHAMED                       01011975WX0023      P                                                                         MA 13005682                3022   I1010002730000002P300PMX0102201016600000000606200332000002000000000420F1000000111201101122023000018259865  ABB 0000000000                                                                                 
1  028745AAMOUM                        MOHAMMED                      01011980ZZ222       PN 15 APPT 16 AGDAL                                                       MA 13005684                3023   C1110006040000002P006PMX0304201111900000000132100273000000500000000450F1000011504201115102011000000000000  ABB 0000000000                                                                                 
1   01222ASKARI                        FATIMA                        01011987A3000       PN 15 APPT 16 AGDAL                                                       MA 13005662                3023   C1110007060000002P300PMX0106201111900000000782200227000003500000000450F1000011511201115062021000034321672  ABB 0000000000                                                                                 
100000000AIT BOURJ                     EL HABIB                      01011990QQ3322      P                                                                         MA 13005647                3022   I1010002680000002P300PMX0102201030000000000636000332000002000000000227F1000011511201115032035000019156747  ABB 0000000000                                                                                 
1   10236AIT BOURJ                     EL HABIB                      09051986DR94526     PRABAT                                                                    MA 13005678                3022   I1110004470000002P300UMX0403201130000000000000000438600006000000000420F1000001504201115032036000059245133  ABB 0000000000                                                                                 
1  012478AIT BOURJ                     EL HABIB                      09051986DR94526     Prue15 n13 rabat takadoum                                                 MA 13005678                3022   I1110005680000002P300PMX1003201130000000001307800332000005000000000390F1000001511201115032036000039391158  ABB 0000000000                                                                                 
1  102563ASKARI                        FATIMA                        01011991A3212       PJKNJKNKJKOJ                                                              MA 13005640                3022   I1110006890000002P300PMX1005200930000000001736100332000005500000000450F1000001511201115052034000052292933  ABB 0000000000                                                                                 
1   12540AAMOUM                        MOHAMED                       24041996FR94562     PRABAT                                                                    MA 13005674                3022   I1110004460000002P300PMX0403201130000000001969500332000006000000000450F1000001511201115032036000059321640  ABB 0000000000                                                                                 
100000000AIT BOURJ                     EL HABIB                      09051986DR94526     PZZZZZZZZZZZZZZ                                                           MA 13005678                3022   I1110004490000002P300PMX0101201007200000000366900332000001500000000390F1000001511201115012016000011050968  ABB 0000000000                                                                                 
1        AAMOUM                        MOHAMED                       24041996FR94562     P                                                                         MA 13005674                3022   I1110004480000002P300PMX0403201130000000000262400332000000800000000420F1000001511201115032036000007905038  ABB 0000000000                                                                                 
1   25000BOUZAIDI                      ACHRAF                        01011980SQ21112     PFDSF                                                                     MA 13005689                3022   I1110006850000002P300PMX1001200830000000001480700332000005000000000227F1000001511201115012033000044599788  ABB 0000000000                                                                                 
1   82536SAMIR                         SAMIR                         12121999B12222      PMERS EL KHEIR N                                                          MA 13003804                3022   I1110004450000002P300PMX0403201116600000001450700332000004500000000450F1000001511201115012025000043697254  ABB 0000000000                                                                                 
1  012478EL HANAFI                     RADIA                         05091979D159463     Prue15 n13 rabat takadoum                                                 MA 13006306                3022   I1110005660000002P300PMX1003201130000000001639300332000005000000000390F1000001511201115032036000049377157  ABB 0000000000                                                                                 
1   25000AIT BOURJ                     EL HABIB                      01011980VX00121     PSDFDGDGD                                                                 MA 13005687                3022   I1110006870000002P006PMX1009200830000000001245600332000004000000000450F1000001510200815102011000000000000  ABB 0000000000                                                                                 
1   15236WAKIL                         BILAL                         12041990IE506050    PAPPT5 IMMB8                                                              MA 13005340                3022   I1110004440000002P300PMX0403201127900000001858800332000006000000000227F1000001511201115062034000055986495  ABB 0000000000                                                                                 
1   15123EL YAZGHI                     TAHAR                         08091980XX95236     PRUE EL BYROUNI AVENUE LA RESISANCE N 5 IMM B9 RABAT                      MA 13006305                3022   I1110005650000002P300PMX0110201030000000001936900332000006000000000227F1000001511201115102035000058340047  ABB 0000000000                                                                                 
1  125300OUASSINI                      MOHAMED                       01011990AA3322      PTEST                                                                     MA 13005644                3022   I1110006830000002P300PMX1001200730000000001786500332000006000000000450F1000001511201115012032000053810398  ABB 0000000000                                                                                 
1        EL YOUSFI                     BRAHIM                        17011994DA80448     P                                                                         MA 13005685                3023   C1110003920000002P300PMX0103201011900000000198900227000001000000000450F1000013011201129022020000008762433  ABB 0000000000                                                                                 
199998888EL YOUSFI                     BRAHIM                        17011994DA80448     PBouskoura Ville                                                          MA 13005664                3022   I1110004580000002P300PMX0101201012000000001668600332000006000000000227F1000003011201131122019000050258027  ABB 0000000000                                                                                 
1 0108452ASKARI                        FATIMA                        20121978AD845213    PAVENUE EL OUARD                                                          MA 13005670                3022   I1110004570000002P300PMX0603201115200000001117300332000003500000000227F1000001511201115112023000033654067  ABB 0000000000                                                                                 
1 0105236HADDAOUI                      MUSTAPHA                      14041990AB95632     PRABAT                                                                    MA 13005845                3022   I1110004540000002P117PMX0603201130000000001150200332000003500000000420F1000001504201115032036000035000000  ABB 0000000000                                                                                 
1   12231AJDID                         TARIK                         08061989RT9455      P                                                                         MA 13005657                3022   I1110003350000002P300PMX0102201030000000001218900332000005600000000227F1000001511201115022035000036715100  ABB 0000000000                                                                                 
1  015325AJDID                         TARIK                         13061988AZ9562      PAVENUE 5 N8                                                              MA 13005909                3022   I1110004560000002P300PMX0603201129700000001502500332000004500000000450F1000031511201115032036000045000000  ABB 0000000000                                                                                 
1  012365OUASSINI                      MOHAMED                       15021970QS98546     PAVENUE KHANSAE                                                           MA 13005672                3022   I1110004550000002P300PMX0603201116600000000644800332000002000000000450F1000001511201115012025000019421001  ABB 0000000000                                                                                 
1   15000BOUZAIDI                      ACHRAF                        01011980SQ21112     PAZE                                                                      MA 13005689                3022   I1110006920000002P300PMX1001200819800000001333100332000006000000000450F1000001511201115072024000040155003  ABB 0000000000                                                                                 
1   12000AIT BOURJ                     EL HABIB                      01011980VX00121     PSRFEFR                                                                   MA 13005687                3022   I1110006910000002P300PMX0109200830600000001868300332000006000000000450F1000001511201115032034000056275115  ABB 0000000000                                                                                 
1  012478AIT BOURJ                     EL HABIB                      09051986DR94526     Prue 15 apt5 taz                                                          MA 13005678                3022   I1110005720000002P300PMX1003201130000000001967200332000006000000000390F1000001511201115032036000059252589  ABB 0000000000                                                                                 
1   54202OUASSINI                      MOHAMED                       01011990AA3322      PQSDQS                                                                    MA 13005644                3022   I1110006930000002P300PMX0102200730000000001389300332000006000000000227F1000001511201115022032000041846902  ABB 0000000000                                                                                 
1        EL YOUSFI                     BRAHIM                        17011994DA80448     P                                                                         MA 8410539                 3022   I1010001760000002P300PMX0101201030000000000000000332000006000000000227F1000003101201031122034000056756663  ABB 0000000000                                                                                 
1  018030AJDID                         TARIK                         05091986AD141952    PABB                                                                      MA 13005667                3023   C1110003830000002P117PMX0201201112000000000043800227000000200000000450F1000011504201115032021000002000000  ABB 0000000000                                                                                 
1  125400AAMOUM                        MOHAMMED                      01011990XW33221     PKJKMLM                                                                   MA 13005649                3022   I1110006900000002P300PMX1607200830000000001806900332000006000000000227F1000001511201115072033000054424907  ABB 0000000000                                                                                 
1  123456EL YOUSFI                     BRAHIM                        17011994DA80448     P                                                                         MA 8410539                 3022   I1010001680000002P300PMX0612201030000000000000000227000003000000000227F1000003112201030112035000019465623  ABB 0000000000                                                                                 
1   15230ALAOUI                        AYMANE                        05091978FR9456      P                                                                         MA 13005680                3022   I1110003470000002P300PMX0102201017300000001207200332000005600000000420F1000001511201115072024000036360212  ABB 0000000000                                                                                 
1  013333AJDID                         TARIK                         13061988A66655      PTEST TEST                                                                MA 13005635                3022   I1110005890000002P300PMX1203201130000000000896200332000002700000000227F1000030111201101072036000026994559  ABB 0000000000                                                                                 
1  013953EL YOUSFI                     BRAHIM                        17011994DA80448     P                                                                         MA 8410539                 3022   I1010001670000002P300PMX0612201030000000000000000227000005000000000227F1000003112201030112035000048664053  ABB 0000000000                                                                                 
1   12344HADDAOUI                      MUSTAPHA                      14041990RC94632     Pres maamora                                                              MA 13005653                3023   C1110004900000002P300PMX0503201111900000000208100227000000950000000450F1000011511201115032021000009165657  ABB 0000000000                                                                                 
1   15236HAMMANI                       ANAS                          05041987DR9456      P                                                                         MA 13005685                3022   I1110003490000002P300PMX0103201030000000001927500332000006000000000420F1000001511201115032035000058056607  ABB 0000000000                                                                                 
1  105263AIT BOURJ                     EL HABIB                      09051986DR94526     PRABAT                                                                    MA 13005678                3022   I1110004650000002P300PMX0603201130000000001969500332000006000000000450F1000001511201115032036000059321640  ABB 0000000000                                                                                 
1  012478AIT BOURJ                     EL HABIB                      09051986DR94526     Prue 15 apt5 taz                                                          MA 13005678                3022   I1110005860000002P300PMX1003201130000000001639300332000005000000000390F1000001511201115032036000049377157  ABB 0000000000                                                                                 
1   56210ALAOUI                        AYMANE                        05091978FR9456      P                                                                         MA 13005680                3022   I1110003430000002P300PMX0102201015000000000802400332000002625000000420F1000001511201115082022000024169316  ABB 0000000000                                                                                 
1 0104823AAMOUM                        MOHAMED                       24041996FR94562     PRABAT CENTRE                                                             MA 13005674                3022   I1110004640000002P300PMX0603201130000000001143400332000003500000000227F1000001511201115032036000034438563  ABB 0000000000                                                                                 
1   15263ALAOUI                        AYMANE                        05091978FR9456      P                                                                         MA 13005680                3022   I1110003450000002P300PMX0106201014400000000798900332000002625000000420F1000001511201115062022000024062880  ABB 0000000000                                                                                 
1    1233HADDAOUI                      MUSTAPHA                      01011990AA332211    Pres maamora                                                              MA 13005654                3023   C1010001960000002P300PMX0101201012000000000316100000000001500000000450F0000001511201115022020000013924738  ABB 0000000000                                                                                 
1  020145AJDID                         TARIK                         08091977DF45236     PCASA                                                                     MA 13005669                3023   C1110004950000002P300PMX0503201107100000001270500273000005000000000450F1000011511201115032017000046537413  ABB 0000000000                                                                                 
100000000OUASSINI                      MOHAMED                       01011975WX0023      P                                                                         MA 13005682                3022   I1010002820000002P300UMX0102201030000000000000000438600006000000000420F1000000104201001032035000058858646  ABB 0000000000                                                                                 
1        ALAOUI                        AYMANE                        05091978FR9456      P                                                                         MA 13005680                3022   I1110003400000002P300PMX0101201012000000000283100332000001000000000227F1000003011201129022020000008528378  ABB 0000000000                                                                                 
1  012478AIT BOURJ                     EL HABIB                      09051986DR94526     Pn 15 apt 12 rue                                                          MA 13005678                3022   I1110004610000002P300UMX0101201012000000000000000203570002000000000227F1000001502201015012020000016850134  ABB 0000000000                                                                                 
1  012478AJDID                         TARIK                         01011960AW1100      Prue 15 apt5 TAZA rue 15 apt5 TZA rue 15 apt5 TAZA TEST 1 TES             MA 13005678                3023   C1110004960000002P300PMX0110201101200000182302001372000002500000000450F1000011512201115112012000025000000  ABB 0000008000                                                                                 
1   28288EL YOUSFI                     BRAHIM                        17011994DA80448     PMENZAH ZEIR                                                              MA 8410539                 3022   I1010001600000002P300PMX2802201028000000000000000227000005000000000227F1000003004201030072033000047479698  ABB 0000000000                                                                                 
100000000AJDID                         TARIK                         01011984XC33220     P                                                                         MA 13005658                3022   I1010002800000002P006UMX0102201030000000000000000438600006000000000227F1000000104201001102011000000000000  ABB 0000000000                                                                                 
1 0105892HADDAOUI                      MUSTAPHA                      14041990AB95632     PRUE MARASSA BAB                                                          MA 13005845                3022   I1110004630000002P300PMX0603201130000000001475400332000004500000000390F1000001511201115032036000044439444  ABB 0000000000                                                                                 
1  012478AIT BOURJ                     EL HABIB                      09051986DR94526     Prue 15 apt5 taz                                                          MA 13005678                3023   C1110004980000002P300PMX0503201108800000000064500227000000300000000450F1000011511201115082018000002841104  ABB 0000000000                                                                                 
199998888EL YOUSFI                     BRAHIM                        17011994DA80448     PBouskoura Ville                                                          MA 13005664                3022   I1110004620000002P300PMX0101201025000000041871100332000006000000000227F1000003011201131102030000028047195  ABB 0000001100                                                                                 
1   01254EL YOUSFI                     BRAHIM                        17011994DA80448     Ptemara                                                                   MA 8410539                 3022   I1010001630000002P300PMX0105201030000000000000000227000004000000000227F1000003105201030042035000038259394  ABB 0000000000                                                                                 
1  012478AIT BOURJ                     EL HABIB                      09051986DR94526     Prue 15 apt5 taz                                                          MA 13005678                3023   C1110004990000002P300PMX0603201108000000000170700227000000800000000450F1000011511201115122017000007521401  ABB 0000000000                                                                                 
1  152369AAMOUM                        MOHAMED                       24041996FR94562     PHAY LINBIAT IMMEUBLE 5 APPARTEENT10  AVENUE MOHAMMED V SALE              MA 13005674                3022   I1110005970000002P300PMX0403201130300000002001200332000006000000000420F1000001511201115062036000059591546  ABB 0000000000                                                                                 
1   15263HADDAOUI                      MUSTAPHA                      14041990AB95632     P                                                                         MA 13005845                3022   I1110003540000002P300PMX0112201030000000001144900332000003500000000450F1000001511201115122035000034484915  ABB 0000000000                                                                                 
1   01254OUASSINI                      MOHAMED                       15021970WX0023      PAVENUE DES FAR N 15                                                      MA 13005682                3022   I1110005960000002P300PMX1303201120000000000815600332000002500000000227F1000011511201115012028000024510626  ABB 0000000000                                                                                 
1        AIT BOURJ                     EL HABIB                      09051986DR94526     P                                                                         MA 13005678                3022   I1110005990000002P300PMX0403201130000000000492400332000004000000000450F1000001511201115032036000014830411  ABB 0000000000                                                                                 
1  011111ZNATI                         AMINA                         14051980AD15236     P                                                                         MA 13005840                3022   I1110003560000002P300UMX0112201008400000000000000203570001500000000227F1000001501201115122017000013348552  ABB 0000000000                                                                                 
1  125403AIT BOURJ                     EL HABIB                      09051986DR94526     PRUE LALLA YAKOUT  AVENUE HASSA2                                          MA 13005678                3022   I1110005980000002P300PMX0403201125600000001799900332000006000000000420F1000001511201115072032000054214987  ABB 0000000000                                                                                 
1  012369AJDID                         TARIK                         13061988A66655      P                                                                         MA 13005635                3022   I1110003510000002P300PMX0112201030000000001137800332000003500000000450F1000001511201115122035000034272166  ABB 0000000000                                                                                 
1  012478AIT BOURJ                     EL HABIB                      09051986DR94526     Prue 15 apt5 taz                                                          MA 13005678                3022   I1110005920000002P300PMX1203201130000000001639300332000005000000000390F1000001511201115032036000049377157  ABB 0000000000                                                                                 
1  012478AIT BOURJ                     EL HABIB                      09051986DR94526     PQUARTIER 1 VILLE2 RUE 9 CASA B                                           MA 13005678                3022   I1110005900000002P300PMX1203201130000000001967200332000006000000000390F1000001511201115032036000059252589  ABB 0000000000                                                                                 
1    1234AJDID                         TARIK                         08091977DF45236     PFES                                                                      MA 13005669                3023   C1110004060000002P300PMX1501201105100000000024000273000000100000000450F1000011511201115062015000000879155  ABB 0000000000                                                                                 
1  029359EL YOUSFI                     BRAHIM                        17011994DA80448     P                                                                         MA 13005685                3023   C1110004070000002P300PMX0101201012000000000196100227000001000000000450F1000013011201131012020000008603856  ABB 0000000000                                                                                 
1   28002OUASSINI                      MOHAMED                       15021970WX0023      PRES SALAM N 15                                                           MA 13005682                3023   C1110005210000002P300PMX0603201108700000000328100606000000550000000450F1000001511201115072018000005414710  ABB 0000000000                                                                                 
1  021444AAMOUM                        MOHAMED                       24041996FR94562     PRES SALAM N 15                                                           MA 13005674                3023   C1110005220000002P300PMX0603201112300000000466200227000002100000000450F1000001511201115072021000020537511  ABB 0000000000                                                                                 
1   01254BOUZAIDI                      ACHRAF                        01011980SQ21112     PRES SALAM N 15                                                           MA 13005689                3023   C1110005240000002P006PMX0603201108300000000195200273000000750000000450F1000011504201115102011000000000000  ABB 0000000000                                                                                 
1   14263AJDID                         TARIK                         13061988A66655      P                                                                         MA 13005635                3022   I1110003690000002P300PMX0402201130000000001966200332000006000000000450F1000003011201129022036000059222997  ABB 0000000000                                                                                 
1        EL YOUSFI                     BRAHIM                        17011994DA80448     P                                                                         MA 13005685                3022   I1110003660000002P300UMX0103201024000000000000000303570005000000000227F1000003004201031032030000046886200  ABB 0000000000                                                                                 
1        EL YOUSFI                     BRAHIM                        17011994DA80448     P                                                                         MA 13005685                3022   I1110003650000002P300PMX0101201030000000001894500332000006000000000227F1000003011201131012035000057061974  ABB 0000000000                                                                                 
1  012478AAMOUM                        MOHAMMED                      01011985XW9002      Prue 15 apt5 taz                                                          MA 13005678                3022   I1110004860000002P300PMX0603201112000000000633200332000002000000000390F1000001511201115032021000019072480  ABB 0000000000                                                                                 
1        EL YOUSFI                     BRAHIM                        17011994DA80448     P                                                                         MA 13005685                3022   I1110003680000002P300PMX0101201030000000001286800332000004000000000450F1000003011201128022035000038760021  ABB 0000000000                                                                                 
1        EL YOUSFI                     BRAHIM                        17011994DA80448     P                                                                         MA 13005664                3022   I1110003640000002P300PMX0101201030000000001894000332000006000000000227F1000003011201131122034000057048053  ABB 0000000000                                                                                 
100000000AJDID                         TARIK                         01011990A66655      Pres maamora                                                              MA 13005635                3023   C1010002550000002P300PMX0101201012000000000557800273000002200000000450F1000001511201115022020000020430494  ABB 0000000000                                                                                 
100000000AJDID                         TARIK                         01011990A66655      Pres maamora                                                              MA 13005635                3023   C1010002540000002P300PMX0101201012000000000152100273000000600000000450F1000001511201115022020000005571951  ABB 0000000000                                                                                 
1        AJDID                         TARIK                         01011990A66655      P                                                                         MA 13005635                3022   I1010001860000002P300PMX2001201030000000000260500332000000800000000341F1000000111201101032035000007846313  ABB 0000000000                                                                                 
1                                                                    01011970            P                                                                         MA 8410539                 3022   I1010000640000002P300UMX2208201030000000000000000003320006000000000450F1000003009201031082035000058560771  ABB 0000000000                                                                                 
1        AJDID                         TARIK                         01011990A66655      P                                                                         MA 13005635                3022   I1010001850000002P117PMX2001201030000000000650200332000006000000000227F1000000105201101022035000019809275  ABB 0000000000                                                                                 
1   MSansEL YOUSFI                     BRAHIM                        17011994DA80448     Paaa                                                                      MA 13005648                3023   C1010001310000002P300PMX0101201012000000000193700227000006000000000450F1000003011201131122019000008534143  ABB 0000000000                                                                                 
1  032522OUASSINI                      MOHAMED                       15021970WX0023      PN 15 APPT 2 SAL                                                          MA 13005682                3023   C1110005160000002P300PMX0603201101200000000077200606000000250000000450F1000011511201115042012000001273220  ABB 0000000000                                                                                 
1   01254AJDID                         TARIK                         01011980EZ22110     P2 res 5 sale                                                             MA 13005659                3023   C1110005130000002P300PMX0603201111900000000500500273000001900000000450F1000011511201115032021000018334254  ABB 0000000000                                                                                 
1   15230ASKARI                        FATIMA                        20121968AD845213    P                                                                         MA 13005670                3022   I1110003790000002P300PMX3012201015200000001097900332000003500000000227F1000003011201130082023000033070252  ABB 0000000000                                                                                 
1        AJDID                         TARIK                         13061988A66655      P                                                                         MA 13005635                3022   I1110003730000002P300PMX0402201130000000000262200332000000800000000450F1000003011201129022036000007896403  ABB 0000000000                                                                                 
1  012478AAMOUM                        MOHAMMED                      01011990SQ33200     Prue 15 apt5 taz                                                          MA 13005678                3022   I1110004940000002P300UMX0503201112000000000000000203570005000000000390F1000001504201115032021000047633973  ABB 0000000000                                                                                 
1   01254ASKARI                        FATIMA                        01011991A3212       PAVENUE ALLAL IBN ABDELLAH NUM 5 APPT 16 ETG 10 RUE ALLAH BEN             MA 13005640                3023   C1110007400000002P300PMX0110201111900000000341900227000001500000000450F1000011512201115102021000015000000  ABB 0000000000                                                                                 
1  MBANQURabat                         Marocaine                     01011970            P                                                                         MA 8410539                 3022   I1010000920000002P300UMX2208201012000000000000000003320004000000000227F1000000105201001042020000034639929  ABB 0000000000                                                                                 
1  MSalarRabat                         Marocaine                     01011970            P                                                                         MA 8410539                 3022   I1010000970000002P300UMX0102201030000000000000000003320002300000000227F1000003103201028022035000021887639  ABB 0000000000                                                                                 
1  012478AIT BOURJ                     EL HABIB                      01011980VX00121     Prue 15 apt5 taz                                                          MA 13005678                3022   I1110004920000002P300UMX0503201112000000000000000203570001500000000390F1000001504201115032021000014290191  ABB 0000000000                                                                                 
1  028745AJDID                         TARIK                         01011980EZ22110     Pres agdal n 15                                                           MA 13005659                3023   C1110005030000002P300PMX0603201108300000000489200273000001900000000450F1000011511201115032018000017918165  ABB 0000000000                                                                                 
1  055221AJDID                         TARIK                         01011960AW1100      PRES 04 N 5                                                               MA 13005660                3023   C1110005040000002P300PMX0603201104700000000305101372000000250000000450F1000011511201115032015000002226878  ABB 0000000000                                                                                 
1  012478AIT BOURJ                     EL HABIB                      09051986DR94526     Prue 15 apt5 taz                                                          MA 13005678                3023   C1110005060000002P300PMX0603201108100000000128200227000000600000000450F1000011511201115012018000005646643  ABB 0000000000                                                                                 
1 0125466AAMOUM                        MOHAMMED                      01011990XW33221     Pvilla floride bd zerktouni TES TEST TEST TEST XXXXXXXXXXXXXX             MA 13005649                3023   C1110007410000002P300PMX0110201108400000219029200227000005000000000450F1000011512201115112018000050000000  ABB 0000005000                                                                                 
1  012478AIT BOURJ                     EL HABIB                      09051986DR94526     Prue 15 apt5 taz                                                          MA 13005678                3023   C1110005000000002P300PMX0603201108100000000164500227000000770000000450F1000011511201115012018000007246528  ABB 0000000000                                                                                 
1   01254AJDID                         TARIK                         01011980EZ22110     Pvilla floride bd zerktouni TES TEST TEST TEST 11111111111112             MA 13005659                3023   C1110007420000002P006PMX0110201001200000000011700273000000500000000450F1000011510201015102011000000000000  ABB 0000000000                                                                                 
1                                                                    01011970            P                                                                         MA 8410539                 3022   I1010000900000002P300UMX0105201030000000000000000449740006000000000450F1000003105201030042035000058155328  ABB 0000000000                                                                                 
1  012478AIT BOURJ                     EL HABIB                      09051986DR94526     Prue 15 apt5 taz                                                          MA 13005678                3023   C1110005010000002P300PMX0603201108100000000320400227000001500000000450F1000011511201115012018000014116607  ABB 0000000000                                                                                 
1   01254AJDID                         TARIK                         01011980EZ22110     PAVENUE ALLAL IBN ABDELLAH TESTTEST TEST TEST TEST TEST TEST              MA 13005659                3023   C1110007430000002P300PMX0110201111900000006406400273000016000000000450F1000011511201115092021000160000000  ABB 0000000000                                                                                 
1  010988BOUZAIDI                      ACHRAF                        01011980SQ21112     Pimm ghandi appt 15 etg 1 rue e qastaoui N15 test test test C             MA 13005689                3023   C1110007440000002P300PMX0110201102300000000123300273000000450000000450F1000011512201115102013000004500000  ABB 0000000000                                                                                 
1  125300AIT BOURJ                     EL HABIB                      01011980VX00121     PAPPT1 IMMB 5 RESIDENCE NOUR RU EL YASSAMINE AVENUE ENNAJAH 1             MA 13005687                3022   I1110007050000002P300PMX0109200930000000001875400332000006000000000227F1000001511201115092034000056486768  ABB 0000000000                                                                                 
1        EL YOUSFI                     BRAHIM                        17011994DA80448     P                                                                         MA 13005685                3022   I1110003890000002P300UMX0101201024000000000000000303570005000000000227F1000003101201031122029000046383208  ABB 0000000000                                                                                 
100000000AJDID                         TARIK                         01011990A66655      Pres maamora                                                              MA 13005635                3023   C1010002720000002P300PMX0101201006000000000067000273000000300000000450F1000001511201115022015000002454082  ABB 0000000000                                                                                 
1   12345AJDID                         TARIK                         01011984XC33220     Pvilla floride bd zerktouni                                               MA 13005658                3023   C1110006130000002P006PMX0404201108300000000142200227000000650000000450F1000011505201115102011000000000000  ABB 0000000000                                                                                 
1        EL KHAMLIC                    IMAD                          09061980AZ6524      P                                                                         MA 13006369                       E1110006210000002P300PMX0504201109000000000275000000000006000000000200F0000121510201215102018000030000000  ABB 0000000000                                                                                 
1  012345HADDAOUI                      MUSTAPHA                      01011991DD55500     Pres maamora                                                              MA 13005654                3023   C1010003190000002P300PMX0101201012000000000127600273000000500000000450F1000001511201115012020000004673099  ABB 0000000000                                                                                 
1        AIT BOURJ                     EL HABIB                      01011980VX00121     P                                                                         MA 13005687                3022   I1010003170000002P300UMX0102201010500000000000000130780002000000000450F1000001501201115092019000019340008  ABB 0000000000                                                                                 
1  010802HADDAOUI                      MUSTAPHA                      09102000RC94632     P                                                                         MA 13005653                3022   I1010003120000002P300PMX0102201030000000001282900332000004000000000420F1000001511201115022035000038640357  ABB 0000000000                                                                                 
1   18263OUASSINI                      MOHAMED                       15021970QS98546     P                                                                         MA 13005672                3022   I1110003990000002P300PMX3012201016600000000634400332000002000000000227F1000001511201115112024000019108499  ABB 0000000000                                                                                 
1   12345OUASSINI                      MOHAMED                       15021970WX0023      PRES MAAMORA 12                                                           MA 13005682                3023   C1110004400000002P300PMX0403201104900000000081400606000000350000000680F1000012011201120052015000001343074  ABB 0000000000                                                                                 
1   01254OUASSINI                      MOHAMED                       15021970WX0023      Pvilla floride bd zerktouni                                               MA 13005682                3023   C1110005610000002P300PMX0903201108300000000858300606000001500000000450F1000011511201115032018000014162992  ABB 0000000000                                                                                 
1  011215HADDAOUI                      MUSTAPHA                      01011990QD1100      Pvilla floride bd zerktouni                                               MA 13005655                3023   C1110006820000002P300PMX0101200911900000000115500227000000650000000450F1000011511201115012019000005067807  ABB 0000000000                                                                                 
1  152869AJDID                         TARIK                         08091977DF45236     P                                                                         MA 13005669                3022   I1110003950000002P300PMX0105201030000000001625700332000005600000000227F1000001511201115052035000048967011  ABB 0000000000                                                                                 
1 0254545ASKARI                        FATIMA                        01011987A3000       Pvilla floride bd zerktouni                                               MA 13005662                3023   C1110005620000002P300PMX0903201108300000000299700227000001400000000450F1000011511201115032018000013200654  ABB 0000000000                                                                                 
1  321211AAMOUM                        MOHAMMED                      01011980ZZ222       PN 5 APT 6 AGD                                                           MA 13005684                3023   C1110004420000002P300PMX0403201106200000000290600273000001500000000450F1000011511201115062016000010645921  ABB 0000000000                                                                                 
1  012478AIT BOURJ                     EL HABIB                      09051986DR94526     Prue 15 apt5 taza                                                         MA 13005678                3023   C1110005630000002P300PMX0903201107200000000317300227000001500000000450F1000011511201115042017000013976623  ABB 0000000000                                                                                 
1        EL YOUSFI                     BRAHIM                        17011994DA80448     P                                                                         MA 13005685                3022   I1110003960000002P300PMX0101201024000000001389500332000006000000000227F1000033011201131032030000041851507  ABB 0000000000                                                                                 
1        EL YOUSFI                     BRAHIM                        17011994DA80448     P                                                                         MA 13005685                3022   I1110003910000002P300PMX0101201030000000001889500332000006000000000227F1000003011201131122034000056911494  ABB 0000000000                                                                                 
1        EL YOUSFI                     BRAHIM                        17011994DA80448     P                                                                         MA 13005685                3022   I1110003900000002P300PMX0101201030000000001915400332000006000000000227F1000033011201131032035000057692311  ABB 0000000000                                                                                 
1   02122AIT BOURJ                     EL HABIB                      01011980VX00121     PN 15 APPT 16 AGDAL                                                       MA 13005655                3023   C1110006800000002P300PMX0101201012000000000285400273000001200000000450F1000011511201115022020000010411920  ABB 0000000000                                                                                 
1  152369ASKARI                        FATIMA                        20121978DF98523     P                                                                         MA 13005671                3022   I1110003930000002P300PMX0106201030000000001918200332000006000000000227F1000003011201130062035000057775977  ABB 0000000000                                                                                 
1   01254OUASSINI                      MOHAMED                       15021970WX0023      Pvilla floride bd zerktouni                                               MA 13005682                3023   C1110005600000002P300PMX0903201111900000001463600606000002500000000450F1000011511201115032021000024151840  ABB 0000000000                                                                                 
1  012478AIT BOURJ                     EL HABIB                      09051986DR94526     Prue 15 apt5 taza                                                         MA 13005678                3023   C1110005690000002P300PMX1003201112000000000328700227000001500000000450F1000011511201115042021000014478362  ABB 0000000000                                                                                 
1  125454AJDID                         TARIK                         13061988A66655      PAVENUE ALLAL IBN ABDELLAH                                                MA 13005635                3023   C1110006860000002P300PMX0101200808400000000178300227000001500000000450F1000011511201115022015000007825357  ABB 0000000000                                                                                 
1    1234HADDAOUI                      MUSTAPHA                      01011971AA332211    Pres maamora                                                              MA 13005635                3023   C1010003280000002P300PMX0101201012000000000775401372000000600000000450F1000001511201115012020000005659975  ABB 0000000000                                                                                 
1  545454AJDID                         TARIK                         01011980EZ22110     PN 15 APPT 16 AGDAL                                                       MA 13005659                3023   C1110006880000002P300PMX0101200907600000000166300273000000980000000450F1000010111201101062015000006067677  ABB 0000000000                                                                                 
1    1234HADDAOUI                      MUSTAPHA                      01011991DD55500     Pres maamora                                                              MA 13005654                3023   C1010002050000002P300PMX0101201010000000000481100227000002250000000450F1000001511201115062018000021194655  ABB 0000000000                                                                                 
1  215487EL YOUSFI                     BRAHIM                        17011994DA80448     PCasablanca Tama                                                          MA 8410539                 3022   I1110007250000002P300PMX0101201012000000000283600332000001000000000450F1000003011201131122019000008542396  ABB 0000000000                                                                                 
1  215487EL YOUSFI                     BRAHIM                        17011994DA80448     PCasablanca Tama                                                          MA 13005648                3022   I1110006000000002P300PMX0101201029700000001920400332000006000000000500F1000033011201131122034000057460667  ABB 0000000000                                                                                 
1   12563AAMOUM                        MOHAMMED                      01011985XW9002      P                                                                         MA 13005686                3022   I1010003050000002P300PMX0102201030000000101926600332000006000000000227F1000001511201115122035000058029194  ABB 0000000000                                                                                 
1                                                                    01011970            P                                                                         MA                                E1110007290000002P300PMX0409201112000000000000013078000006500000000650F1000013010201130092021000065000000  ABB 0000000000                                                                                 
1  120021OUASSINI                      MOHAMED                       15021970WX0023      PN 5 APPT 25                                                              MA 13005682                3023   C1110004370000002P300PMX0303201111900000000439100606000000750000000450F1000011511201115032021000007245551  ABB 0000000000                                                                                 
1   01254AJDID                         TARIK                         05091986AD141952    Pvilla floride bd zerktouni                                               MA 13005667                3023   C1110005580000002P300PMX0903201107100000000095100227000000450000000450F1000011511201115032017000004187657  ABB 0000000000                                                                                 
1  021100BOUZAIDI                      ACHRAF                        01011980SQ21112     PN 15 APPT 16 AGDAL                                                       MA 13005689                3023   C1110006790000002P300PMX0101201007600000000115800273000000550000000450F1000011511201115062016000004225493  ABB 0000000000                                                                                 
1   28900HADDAOUI                      MUSTAPHA                      01011990AA332211    Pres maamora                                                              MA 13005634                3023   C1010002140000002P300PMX0101201006000000000092800227000000500000000450F1000001511201115022015000004088526  ABB 0000000000                                                                                 
1    3333HADDAOUI                      MUSTAPHA                      01011991DD55500     Pres maamora                                                              MA 13005654                3023   C1010002180000002P300PMX0101201012000000000126400227000000600000000450F1000001511201115022020000005569898  ABB 0000000000                                                                                 
1  123456OUASSINI                      MOHAMED                       15021970WX0023      PNUM 15 APPT 06                                                           MA 13005682                3023   C1110004340000002P300PMX0303201112000000000439300606000000750000000450F1000011511201115042021000007248681  ABB 0000000000                                                                                 
1   65100AJDID                         TARIK                         13061988A66655      Pres semiramis N 12 appt 15                                              MA 13005635                3023   C1110006760000002P300PMX0101200808300000000176000227000001500000000450F1000011511201115012015000007722186  ABB 0000000000                                                                                 
1  015211AJDID                         TARIK                         01011980EZ22110     Pvilla floride bd zerktouni                                               MA 13005659                3023   C1110006770000002P300PMX0101200809600000000191300273000000980000000450F1000011511201115022017000006979876  ABB 0000000000                                                                                 
1   01254AAMOUM                        MOHAMED                       24041996FR94562     Pvilla floride bd zerktouni                                               MA 13005674                3023   C1110005570000002P300PMX0803201112000000000219100227000001000000000450F1000011511201115042021000009652244  ABB 0000000000                                                                                 
1  012211ASKARI                        FATIMA                        01011991A3212       PN 15 APPT 16 AGDAL                                                       MA 13005640                3023   C1110006780000002P300PMX0101200707600000000023600227000000350000000450F1000011511201115062013000001035804  ABB 0000000000                                                                                 
1   12345AJDID                         TARIK                         08091977DF45236     PFES                                                                      MA 13005669                3023   C1110004190000002P300PMX1501201106000000000024600273000000100000000450F1000011511201115032016000000900400  ABB 0000000000                                                                                 
1   01254ASKARI                        FATIMA                        01011987A3000       PTEST ADRESSE 1 TEST ADRESSE 2 EST ADRESSE 3 TEST ADRESSE 4               MA 13005662                3022   I1110007370000002P300UMX0110201130000001359650000438600002500000000450F1000001510201115092036000025000000  ABB 0000005000                                                                                 
1   RABATASKARI                        FATIMA                        01011987A3000       PAPP T2 IMM 2  AVENUE ALLAL IBNABDELLAH RABAT                             MA 13005662                3022   I1110007380000002P300PMX0109200830000000000742400332000006000000000227F1000001511201115092033000022361849  ABB 0000000000                                                                                 
1  012356AJDID                         TARIK                         13061988A66655      PAVENUE ALLAL EL FASSI APPT1 IMB8  RABAT                                  MA 13005635                3022   I1110006140000002P300PMX0102201130300000001466400332000004500000000227F1000001511201115052036000044168596  ABB 0000000000                                                                                 
1  012478AIT BOURJ                     EL HABIB                      09051986DR94526     Prue 15 apt5 taza                                                         MA 13005678                3023   C1110005400000002P300PMX0803201108800000000148400227000000700000000450F1000001511201115072018000006535796  ABB 0000000000                                                                                 
1   12345ASKARI                        FATIMA                        20121968AD845213    PSETTAT                                                                   MA 13005670                3023   C1110004200000002P300PMX1501201111900000000320000606000000550000000450F1000011511201115022021000005280013  ABB 0000000000                                                                                 
1  012478AIT BOURJ                     EL HABIB                      09051986DR94526     Prue 15 apt5 taza                                                         MA 13005678                3023   C1110005420000002P300PMX0803201107200000000063500227000000300000000450F1000011511201115042017000002795327  ABB 0000000000                                                                                 
1   02825ASKARI                        FATIMA                        01011987A3000       Pvilla floride bd zerktouni                                               MA 13005662                3023   C1110006630000002P300PMX0507201112000000000146200227000000650000000450F1000010111201101082021000006417092  ABB 0000000000                                                                                 
1    1234HADDAOUI                      MUSTAPHA                      01011991DD55500     Pres maamora                                                              MA 13005654                3023   C1010002200000002P300PMX0101201007200000058932500606000005000000000450F1000001511201115012016000026648511  ABB 0000002500                                                                                 
1   12233AJDID                         TARIK                         01011980EZ22110     PNUM 10 APPT 15                                                           MA 13005659                3023   C1110004280000002P300PMX0203201111900000000158100273000000600000000450F1000011511201115032021000005789766  ABB 0000000000                                                                                 
1  012211AAMOUM                        MOHAMED                       05041987AZ59633     Pvilla floride bd zerktouni                                               MA 13005676                3023   C1110005490000002P300PMX0803201108300000000117700227000000550000000450F1000011511201115032018000005185971  ABB 0000000000                                                                                 
1  020145AJDID                         TARIK                         08091977DF45236     PCASA                                                                     MA 13005669                3023   C1110004290000002P300PMX1502201111900000000816600273000003100000000450F1000011511201115032021000029793926  ABB 0000000000                                                                                 
1  023528AJDID                         TARIK                         05091986AD141952    PRUE ABDELKIM GN                                                          MA 13005667                3023   C1110004220000002P300PMX1501201106000000000020300227000000100000000450F1000011511201115032016000000896307  ABB 0000000000                                                                                 
1  012478AIT BOURJ                     EL HABIB                      09051986DR94526     Prue 15 apt5 taza                                                         MA 13005678                3023   C1110005430000002P300PMX0603201108100000000320400227000001500000000450F1000011511201115012018000014116607  ABB 0000000000                                                                                 
