00301112012B                                                                                                                                                                                                                                                                                                                                                                                                   
1   28956RAMA                          HIND                          01011999S4545       PSDGFSD                                                                   MA 13051408                3023   CI1210009150000002P300PMX1004201030000000001901200332000000600000000600F1000003005201030042035000057263876  ABB 0000000000                                                                                 
1  215487EL YOUSFI                     BRAHIM                        17011994DA80448     PCasablanca Tama                                                          MA 13005649                3023   CI1110007580000002P300PMX0101201010000000000427500332000000150000000227F1000003101201030042018000012720445  ABB 0000000000                                                                                 
1  012478AIT BOURJ                     EL HABIB                      09051986DR94526     Prue 15 apt5 taz                                                          MA 13005678                3023   CI1110005190000002P300PMX0603201130000000001119600332000000350000000390F1000001504201115032036000033722055  ABB 0000000000                                                                                 
1  025652OUASSINI                      MOHAMED                       01011990AA3322      PRES 5 N 10 SALA                                                          MA 13005644                3023   CI1110005180000002P300PMX0703201130000000000791400332000000250000000227F1000001504201115032036000023836018  ABB 0000000000                                                                                 
1  MCadreRabat                         Marocaine                     01011970            P                                                                         MA 8410539                 3023   CI1010001130000002P300UMX0103201030000000000000000003320000600000000450F1000000104201001032035000047162777  ABB 0000000000                                                                                 
1  012478AIT BOURJ                     EL HABIB                      09051986DR94526     Prue 15 apt5 taz                                                          MA 13005678                3023   CI1110005120000002P300PMX0603201130000000001599400332000000500000000390F1000001504201115032036000048174363  ABB 0000000000                                                                                 
100000000ALAOUI                        AYMANE                        05091978FR9456      P                                                                         MA 13005680                3023   CI1010002330000002P300PMX2001201030000000001876900332000000600000000420F1000002802201030012035000056534002  ABB 0000000000                                                                                 
1  012478AIT BOURJ                     EL HABIB                      09051986DR94526     Prue 15 apt5 taz                                                          MA 13005678                3023   CI1110005150000002P300PMX0603201107200000000273800332000000110000000390F1000001504201115032017000008247387  ABB 0000000000                                                                                 
1  MCadreRabat                         Marocaine                     01011970            P                                                                         MA 8410539                 3023   CI1010001110000002P300UMX0103201030000000000000000003320000600000000227F1000000104201001032035000046059897  ABB 0000000000                                                                                 
100000000HAMMANI                       ANAS                          05041987DR9456      P                                                                         MA 13005685                3023   CI1010002320000002P300PMX2001201030000000001876900332000000600000000420F1000002802201030012035000056534002  ABB 0000000000                                                                                 
1  012478AIT BOURJ                     EL HABIB                      09051986DR94526     Prue 15 apt5 taz                                                          MA 13005678                3023   CI1110005140000002P300UMX0603201127700000000000000438600000600000000390F1000001504201115042034000057369125  ABB 0000000000                                                                                 
1  012478AIT BOURJ                     EL HABIB                      09051986DR94526     Prue 15 apt5 taz                                                          MA 13005678                3023   CI1110005110000002P300PMX0603201107200000000323600332000000130000000390F1000001504201115032017000009746925  ABB 0000000000                                                                                 
1   62300AAMOUM                        MOHAMMED                      01011985XW9002      PAVENUE MED V                                                             MA 13005686                3023   CI1110007530000002P300UMX0110201130000000000000000438600000600000000420F1000001511201115102036000058581747  ABB 0000005000                                                                                 
199999999EL YOUSFI                     BRAHIM                        17011994DA80448     PCasablanca Tama                                                          MA 13005664                3023   CI1110005100000002P300PMX0101201012300000000763000332000000300000000227F1000033101201031032020000022980728  ABB 0000000000                                                                                 
1  012478HADDAOUI                      MUSTAPHA                      01011990QD1100      Prue 15 apt5 taz                                                          MA 13005678                3023   CC1110004850000002P300PMX0603201108400000000007600227000000050000000450F1000011504201115032018000004020561  ABB 0000000000                                                                                 
1   12222ASKARI                        FATIMA                        01011987A3000       Pres maamoura 12                                                          MA 13005662                3023   CC1110004830000002P300PMX0603201108400000000007600227000000050000000450F1000011504201115032018000004020561  ABB 0000000000                                                                                 
1  114420AAMOUM                        MOHAMMED                      01011980ZZ222       PNUM 10 APPT 15                                                           MA 13005684                3023   CC1110004890000002P300PMX0503201107500000000013900273000000075000000450F1000001504201115062017000006096928  ABB 0000000000                                                                                 
1  010236AIT BOURJ                     EL HABIB                      01011990QQ3322      PQSDQSD                                                                   MA 13005647                3023   CC1210008880000002P300PMX3011201009600000000004500227000000030000000450F1000001512201015112018000002380345  ABB 0000000000                                                                                 
1  013111AALAM                         HAMZA                         11091990AD25956     P                                                                         MA 13005847                3023   CI1110004020000002P300PMX2006201030300000001890800332000000600000000227F1000032009201020112035000056953154  ABB 0000000000                                                                                 
1  012478AIT BOURJ                     EL HABIB                      09051986DR94526     Prue 15 apt5 taz                                                          MA 13005678                3023   CI1110005260000002P300PMX0703201112900000000656200332000000277000000390F1000001504201115122021000019766559  ABB 0000000000                                                                                 
1  012478AIT BOURJ                     EL HABIB                      09051986DR94526     Prue 15 apt5 taz                                                          MA 13005678                3023   CI1110005200000002P300PMX0603201112000000000459000332000000160000000390F1000001504201115032021000013825059  ABB 0000000000                                                                                 
1  015230EL GHAZI                      NABIL                         10061980WQ9452      PRABAT RABAT                                                              MA 13049929                3023   CI1110007620000002P300PMX0111201130000000001951000332000000600000000420F1000001512201115112036000058766143  ABB 0000000000                                                                                 
1  526412HADDAOUI                      MUSTAPHA                      01011991DD55500     P                                                                         MA 13005654                3023   CI1010002270000002P300PMX1501201030000000000915800332000000300000000227F1000000102201001012035000027584625  ABB 0000000000                                                                                 
1  652417AIT BOURJ                     EL HABIB                      01011990QQ3322      P                                                                         MA 13005647                3023   CI1010002260000002P300PMX0102201010000000001531600332000000600000000227F1000000103201001062018000046132670  ABB 0000000000                                                                                 
1  215487EL YOUSFI                     BRAHIM                        01011960DA80448     PCasablanca                                                               MA 13005649                3023   CI1110007630000002P300PMX0101201012000000001469200332000000600000000227F1000003101201031122019000044253892  ABB 0000000000                                                                                 
1    1234AJDID                         TARIK                         01011980EZ22110     Pres maamora                                                              MA 13005659                3023   CC1110003520000002P300PMX2801201106100000000006900273000000045000000450F1000011502201115022016000003053701  ABB 0000000000                                                                                 
1  020145AJDID                         TARIK                         05091986AD141952    Pcasa                                                                     MA 13005669                3023   CC1110003530000002P117PMX1101201112100000000044800227000000270000000450F1000011503201115032021000027000000  ABB 0000000000                                                                                 
1  012478AIT BOURJ                     EL HABIB                      09051986DR94526     Prue 15 apt5 taza                                                         MA 13005678                3023   CC1110005910000002P300PMX1203201112100000000024900227000000150000000450F1000011504201115042021000013151579  ABB 0000000000                                                                                 
1  018030AJDID                         TARIK                         08091977DF45236     PSIDI BOUKNADEL                                                           MA 13005669                3023   CC1110003500000002P300PMX0812201012100000000003900273000000020000000450F1000011501201115012021000001711514  ABB 0000000000                                                                                 
1  012478AIT BOURJ                     EL HABIB                      09051986DR94526     Prue 15 apt5 taza                                                         MA 13005678                3023   CC1110005930000002P300PMX1203201112100000000019500227000000150000000450F1000011504201115042021000010288970  ABB 0000000000                                                                                 
1  020145OUASSINI                      MOHAMED                       15021970WX0023      PCASA                                                                     MA 13005682                3023   CC1110003570000002P300PMX3101201112100000000006200273000000067250000450F1000011502201115022021000002747105  ABB 0000000000                                                                                 
1   11111AJDID                         TARIK                         01011960AW1100      Pres maamora                                                              MA 13005660                3023   CC1110004780000002P300PMX0603201112000000000201101372000000200000000450F1000011504201115032021000017589259  ABB 0000000000                                                                                 
1   15247AIT BOURJ                     EL HABIB                      09051986DR94526     PHAY ZITOUNE TAR                                                          MA 13005678                3023   CI1110004140000002P300PMX1006201019700000001754700332000000600000000227F1000001507201015112026000052851999  ABB 0000000000                                                                                 
1  012478AIT BOURJ                     EL HABIB                      09051986DR94526     Prue15 n13 rabat takadoum                                                 MA 13005678                3023   CI1110005370000002P300PMX0803201129700000001278700332000000500000000390F1000001504201115122035000038514429  ABB 0000000000                                                                                 
199999999EL YOUSFI                     BRAHIM                        01011960DA80448     PCasablanca Tamaris rue roudanin12365 , val d'anfa                        MA 8410539                 3023   CI1110007790000002P300PMX0104201010000000016893800332000008600000000450F1000003004201031072018000508849399  ABB 0000000000                                                                                 
1  012523HADDAOUI                      MUSTAPHA                      14041990AB95632     PAIN LOUH                                                                 MA 13005845                3023   CI1110004150000002P300PMX1004201030000000001364300332000000435000000420F1000001505201015042035000041094222  ABB 0000000000                                                                                 
1   15269AIT BOURJ                     EL HABIB                      09051986DR94526     P                                                                         MA 13005678                3023   CI1110004100000002P006PMX1006201030000000001860900332000000600000000227F1000001507201015112012000060000000  ABB 0000000000                                                                                 
1  012478AIT BOURJ                     EL HABIB                      09051986DR94526     Prue 15 apt5 taz                                                          MA 13005678                3023   CI1110005310000002P300PMX0703201130000000000603000332000000188000000450F1000001504201115032036000018162667  ABB 0000000000                                                                                 
1  012478AIT BOURJ                     EL HABIB                      09051986DR94526     Prue15 n13 rabat                                                          MA 13005678                3023   CI1110005320000002P300PMX0703201125900000000798600332000000250000000390F1000001504201115102032000024054919  ABB 0000000000                                                                                 
1  215487HADDAOUI                      MUSTAPHA                      01011971AA332211    PCasablanca Tama                                                          MA 13005634                3023   CI1110007740000002P300PMX1503201130000000001850500332000000577500000420F1000001504201115032036000055737007  ABB 0000000000                                                                                 
1  012542AAMOUM                        MOHAMMED                      01011990XW33221     PIMM 15 APPT 16 RES ABWAB SALE                                            MA 13005649                3023   CC1110005830000002P300PMX1003201108400000000003300227000000032000000450F1000011504201115032018000001720358  ABB 0000000000                                                                                 
1 0125456BOUZAIDI                      ACHRAF                        01011980SQ21112     PAV SIDI MED BELHASSAN RUE ALLA BEN ABDELLAH APPARTEMENT 05 I             MA 13005689                3023   CI1110007710000002P300PMX0110201112100000000454500332000000250000000227F1000011510201115102021000013690382  ABB 0000000000                                                                                 
1     10MRabat                                                       01011970            P                                                                         MA 8410539                 3023   CI1010000100000002P300UMX0105201024300000000000000003320000600000000450F1000033105201031072030000055681265  ABB 0000000000                                                                                 
100000000HADDAOUI                      MUSTAPHA                      05091989AB6523      P                                                                         MA 13005650                3023   CI1010002520000002P300PMX1002201030000000001368100332000000435000000450F1000003003201028022035000041208042  ABB 0000000000                                                                                 
100000000HADDAOUI                      MUSTAPHA                      01011971AA332211    P                                                                         MA 13005634                3023   CI1010002500000002P300PMX1002201030000000001368100332000000435000000450F1000003003201028022035000041208042  ABB 0000000000                                                                                 
1  012478AIT BOURJ                     EL HABIB                      09051986DR94526     Prue 15 apt5 taza                                                         MA 13005678                3023   CC1110005870000002P300PMX1003201112100000000024900227000000150000000450F1000011504201115042021000013151579  ABB 0000000000                                                                                 
1   30021OUASSINI                      MOHAMED                       15021970WX0023      PNUM 10 APPT 15                                                           MA 13005682                3023   CC1110004680000002P300PMX0603201112000000000096000606000000220000000250F1000011504201115032021000019003209  ABB 0000000000                                                                                 
1   28900HADDAOUI                      MUSTAPHA                      01011971AA332211    Pres maamora                                                              MA 13005634                3023   CC1110003480000002P300PMX2812201012100000000014600273000000075000000450F1000011501201115012021000006418214  ABB 0000000000                                                                                 
1  015236OUASSINI                      MOHAMED                       15021970QS98546     PTEST TEST                                                                MA 13005672                3023   CI1110004250000002P300PMX0103201130000000001925100332000000600000000227F1000031504201115032036000057985637  ABB 0000000000                                                                                 
1   12530AAMOUM                        MOHAMMED                      01011990XW33221     PAPPT1 RUE 5 AVENUE ALLAL IBN ADELLAH                                     MA 13005649                3023   CI1110006660000002P300PMX1607200830000000001798700332000000600000000420F1000001508200815072033000054177057  ABB 0000000000                                                                                 
1   15200AIT BOURJ                     EL HABIB                      01011980VX00121     PAPPT5 IMMB8 RUE 8 AVENUE ERRAZ KENITRA                                   MA 13005687                3023   CI1110006690000002P300PMX1009200814200000000823700332000000450000000227F1000011511200815082020000024811088  ABB 0000000000                                                                                 
1  010325AAMOUM                        MOHAMED                       24041996FR94562     PRABAT                                                                    MA 13005674                3023   CI1110004260000002P300UMX0203201130000000000000000438600000600000000420F1000001504201115032036000057788214  ABB 0000000000                                                                                 
1   01254AAMOUM                        MOHAMED                       05041987AZ59633     PRES SALAM N 15                                                           MA 13005676                3023   CI1110005470000002P300PMX0803201125000000000780400332000000250000000227F1000001504201115012032000023506656  ABB 0000000000                                                                                 
1   28152AJDID                         TARIK                         13061988A66655      PLOT EL IRAKI APPT1 AVENUE MED  RABAT                                     MA 13005635                3023   CI1110006650000002P300PMX1607200830100000001815900332000000600000000450F1000011509200815092033000054657668  ABB 0000000000                                                                                 
1  010563HADDAOUI                      MUSTAPHA                      01011971AA332211    PAPPT1 IMMB8 AVENUE MOHAMED TRII CASABLANCA 20000                         MA 13005634                3023   CI1110006640000002P300PMX1607200930000000001801900332000000600000000227F1000001508200915072034000054274952  ABB 0000000000                                                                                 
1   12300ASKARI                        FATIMA                        01011987A3000       Pres maamoura 12                                                          MA 13005662                3023   CC1110004510000002P300PMX0503201104800000000004100227000000035000000450F1000011504201115032015000002176611  ABB 0000000000                                                                                 
1  012222EL YOUSFI                     BRAHIM                        01011960DA80448     PTEST ADRESSE                                                             MA 8410539                 3023   CI1110007800000002P300UMX0712201112000000000000000203570000350000000450F1000001501201215122021000032462087  ABB 0000000000                                                                                 
1  012478AIT BOURJ                     EL HABIB                      09051986DR94526     Prue 15 apt5 taza                                                         MA 13005678                3023   CC1110005730000002P300PMX1003201112100000000005000227000000030000000450F1000011504201115042021000002630309  ABB 0000000000                                                                                 
1  021445AAMOUM                        MOHAMMED                      01011980ZZ222       Ptanger                                                                   MA 13005684                3023   CC1110004530000002P300PMX0503201108400000000009100273000000050000000450F1000011504201115032018000004021421  ABB 0000000000                                                                                 
1  033200ASKARI                        FATIMA                        01011991A3212       Pvilla floride bd zerktouni                                               MA 13005640                3023   CC1110005740000002P300PMX1003201108400000000011100227000000073000000450F1000011504201115032018000005870009  ABB 0000000000                                                                                 
1 0254545AAMOUM                        MOHAMED                       24041996FR94562     PIMM 15 APPT 15 RES SEMIRAMIS SID HAJJI                                   MA 13005674                3023   CC1110005750000002P300PMX1003201107200000000036100227000000250000000450F1000011504201115032017000019100721  ABB 0000000000                                                                                 
1  012211AAMOUM                        MOHAMED                       24041996FR94562     Pn 15 appt 06 res essafae                                                 MA 13005674                3023   CC1110005700000002P300PMX1003201104800000000004200227000000036000000450F1000011504201115032015000002238799  ABB 0000000000                                                                                 
1   01201ALAOUI                        AYMANE                        05091978FR9456      Pav madagascar n 15 sala al jadda                                         MA 13005680                3023   CC1110005710000002P300PMX1003201112000000000019900273000000100000000450F1000011504201115032021000008755821  ABB 0000000000                                                                                 
1   25100AJDID                         TARIK                         15091975A66655      PCVHGF                                                                    MA 13005635                3023   CI1210010910000002P300PMX0208201230000000001483400332000000450000000200F1000001509201215082037000044679281  ABB 0000000000                                                                                 
1   25100AJDID                         TARIK                         01011984XC33220     PGFHGF                                                                    MA 13005658                3023   CI1210010920000002P300PMX0208201230000000001977800332000000600000000200F1000001509201215082037000059572376  ABB 0000000000                                                                                 
1   DFGTDHADDAOUI                      MUSTAPHA                      01011971AA332211    PFHGF                                                                     MA 13005634                3023   CI1210010900000002P300PMX0208201220000000001902400332000000600000000200F1000001509201215042029000057302394  ABB 0000000000                                                                                 
1   12500AJDID                         TARIK                         01011984XC33220     PTEST TEST KHJKJ                                                          MA 13005658                3023   CC1210009980000002P300PMX1007201012000000000018600227000000120000000400F1000011509201015082020000009807112  ABB 0000000000                                                                                 
1  018021OUASSINI                      MOHAMED                       15021970WX0023      Pres salamat n15 appt 16                                                  MA 13005682                3023   CC1110005790000002P300PMX1003201109600000000033700606000000080000000450F1000011504201115032019000006683090  ABB 0000000000                                                                                 
1  015245OUASSINI                      MOHAMED                       15021970QS98546     PSETTAT                                                                   MA 13005672                3023   CI1110004360000002P300PMX1005201016600000001006900332000000350000000420F1000001506201015032024000030328365  ABB 0000000000                                                                                 
1  012563AIT BOURJ                     EL HABIB                      09051986DR94526     PHAY EL MENZEH AVENUE DES FAR RBAT                                        MA 13005678                3023   CI1110005590000002P300PMX2010201019700000000903900332000000600000000227F1000001511201015032027000027224814  ABB 0000000000                                                                                 
1  MBANQUrabat                         Marocaine                     01011970            P                                                                         MA 8410539                 3023   CI1010000340000002P300UMX1808201030100000000000000407000000600000000450F1000013009201030092035000057448157  ABB 0000000000                                                                                 
1   15284AAMOUM                        MOHAMED                       24041996FR94562     PN37 CITE MILITA                                                          MA 13005674                3023   CI1110004320000002P300PMX0303201130000000001899300332000000600000000227F1000001504201115032036000057206446  ABB 0000000000                                                                                 
1  012478AIT BOURJ                     EL HABIB                      09051986DR94526     Prue15 n13 rabat takadoum                                                 MA 13005678                3023   CI1110005530000002P300PMX0903201120000000001440500332000000452000000390F1000001504201115112027000043389265  ABB 0000000000                                                                                 
1  010862AJDID                         TARIK                         13061988AZ9562      PN8 RUE NAHDA                                                             MA 13005909                3023   CI1110004310000002P300PMX1006201030000000001193400332000000560000000227F1000001507201015062035000035944800  ABB 0000000000                                                                                 
1  012478AIT BOURJ                     EL HABIB                      09051986DR94526     Prue15 n13 rabat takadoum                                                 MA 13005678                3023   CI1110005520000002P300PMX0903201128800000001439600332000000450000000450F1000001504201115032035000043360244  ABB 0000000000                                                                                 
1  012478AIT BOURJ                     EL HABIB                      09051986DR94526     Prue15 n13 rabat takadoum                                                 MA 13005678                3023   CI1110005550000002P300PMX0803201130600000001953300332000000600000000227F1000001504201115092036000058833306  ABB 0000000000                                                                                 
1  012345EL YOUSFI                     BRAHIM                        17011994DA80448     Prabat agdal                                                              MA 8410539                 3023   CI1010001590000002P300PMX0103201030000000000000001372000000300000000227F1000002003201020022035000018373996  ABB 0000000000                                                                                 
100000000ASKARI                        FATIMA                        20121978DF98523     P                                                                         MA 13005671                3023   CI1010002710000002P300PMX1002201020000000000973400332000000350000000227F1000000103201001102026000029318555  ABB 0000000000                                                                                 
1  012000AJDID                         TARIK                         13061988A66655      PTEST                                                                     MA 13005635                3023   CI1110005500000002P300PMX0903201115200000001038900332000000350000000227F1000000105201101122023000031293266  ABB 0000000000                                                                                 
1   00211OUASSINI                      MOHAMED                       01011990AA3322      PAPPT1 IMMB E RESIDENCE SEKKAT ABAT                                       MA 13005644                3023   CI1110006710000002P300PMX1001200708400000000198900332000000150000000420F1000001502200715012014000005990512  ABB 0000000000                                                                                 
100000000OUASSINI                      MOHAMED                       01011975WX0023      P                                                                         MA 13005682                3023   CI1010002730000002P300PMX1002201016600000000567600332000000200000000420F1000000103201001122023000017096230  ABB 0000000000                                                                                 
1  256100EL KHALQI                     YOUSRA                        01091979CB29632     PTEST                                                                     MA 13053384                3023   CI1210010850000002P300PMX0208201230000000001977800332000000600000000200F1000001509201215082037000059572376  ABB 0000000000                                                                                 
100000000AIT BOURJ                     EL HABIB                      01011990QQ3322      P                                                                         MA 13005647                3023   CI1010002680000002P300PMX0102201030100000000616700332000000200000000227F1000011503201015032035000018576262  ABB 0000000000                                                                                 
1   10236AIT BOURJ                     EL HABIB                      09051986DR94526     PRABAT                                                                    MA 13005678                3023   CI1110004470000002P300UMX0403201130000000000000000438600000600000000420F1000001504201115032036000057788214  ABB 0000000000                                                                                 
1  012478AIT BOURJ                     EL HABIB                      09051986DR94526     Prue15 n13 rabat takadoum                                                 MA 13005678                3023   CI1110005680000002P300PMX1003201130000000001275900332000000500000000390F1000001504201115032036000038431614  ABB 0000000000                                                                                 
1  102563ASKARI                        FATIMA                        01011991A3212       PJKNJKNKJKOJ                                                              MA 13005640                3023   CI1110006890000002P300PMX2005200930000000001691900332000000550000000450F1000001506200915052034000050961366  ABB 0000000000                                                                                 
1   12540AAMOUM                        MOHAMED                       24041996FR94562     PRABAT                                                                    MA 13005674                3023   CI1110004460000002P300PMX0403201130000000001925700332000000600000000450F1000001504201115032036000058004418  ABB 0000000000                                                                                 
100000000AIT BOURJ                     EL HABIB                      09051986DR94526     PZZZZZZZZZZZZZZ                                                           MA 13005678                3023   CI1110004490000002P300PMX1001201007200000000280200332000000150000000390F1000001502201015012016000008439239  ABB 0000000000                                                                                 
1   25000BOUZAIDI                      ACHRAF                        01011980SQ21112     PFDSF                                                                     MA 13005689                3023   CI1110006850000002P300PMX2001200830000000001425200332000000500000000227F1000001502200815012033000042927549  ABB 0000000000                                                                                 
1   82536SAMIR                         SAMIR                         12121999B12222      PMERS EL KHEIR N                                                          MA 13003804                3023   CI1110004450000002P300PMX0403201116600000001366800332000000450000000450F1000001504201115012025000041167597  ABB 0000000000                                                                                 
1  012478EL HANAFI                     RADIA                         05091979D159463     Prue15 n13 rabat takadoum                                                 MA 13006306                3023   CI1110005660000002P300PMX1003201130000000001599400332000000500000000390F1000001504201115032036000048174363  ABB 0000000000                                                                                 
1   15236WAKIL                         BILAL                         12041990IE506050    PAPPT5 IMMB8                                                              MA 13005340                3023   CI1110004440000002P300PMX0403201127900000001794700332000000600000000227F1000001504201115062034000054058311  ABB 0000000000                                                                                 
1   15123EL YAZGHI                     TAHAR                         08091980XX95236     PRUE EL BYROUNI AVENUE LA RESISANCE N 5 IMM B9 RABAT                      MA 13006305                3023   CI1110005650000002P300PMX1010201030000000001875400332000000600000000227F1000001511201015102035000056486768  ABB 0000000000                                                                                 
1  125300OUASSINI                      MOHAMED                       01011990AA3322      PTEST                                                                     MA 13005644                3023   CI1110006830000002P300PMX2001200730000000001731900332000000600000000450F1000001502200715012032000052165170  ABB 0000000000                                                                                 
199998888EL YOUSFI                     BRAHIM                        17011994DA80448     PBouskoura Ville                                                          MA 13005664                3023   CI1110004580000002P300PMX0101201012000000001469200332000000600000000227F1000003101201031122019000044253892  ABB 0000000000                                                                                 
1 0108452ASKARI                        FATIMA                        20121978AD845213    PAVENUE EL OUARD                                                          MA 13005670                3023   CI1110004570000002P300PMX0603201115200000001032300332000000350000000227F1000001504201115112023000031093433  ABB 0000000000                                                                                 
1 0105236HADDAOUI                      MUSTAPHA                      14041990AB95632     PRABAT                                                                    MA 13005845                3023   CI1110004540000002P117PMX0603201130000000001123600332000000350000000420F1000001504201115032036000035000000  ABB 0000000000                                                                                 
1   12231AJDID                         TARIK                         08061989RT9455      P                                                                         MA 13005657                3023   CI1110003350000002P300PMX1002201030000000001181800332000000560000000227F1000001503201015022035000035597314  ABB 0000000000                                                                                 
1  015325AJDID                         TARIK                         13061988AZ9562      PAVENUE 5 N8                                                              MA 13005909                3023   CI1110004560000002P300PMX0603201130000000001469100332000000450000000450F1000031504201115032036000044250744  ABB 0000000000                                                                                 
1  012365OUASSINI                      MOHAMED                       15021970QS98546     PAVENUE KHANSAE                                                           MA 13005672                3023   CI1110004550000002P300PMX0603201116600000000607500332000000200000000450F1000001504201115012025000018296707  ABB 0000000000                                                                                 
1  012345AJDID                         TARIK                         01011960AW1100      Prabat agdal                                                              MA 13005660                3023   CC1210007820000002P300PMX0201201206000000000009901372000000010000000450F1000001503201215022017000000864348  ABB 0000000000                                                                                 
1   12000AIT BOURJ                     EL HABIB                      01011980VX00121     PSRFEFR                                                                   MA 13005687                3023   CI1110006910000002P300PMX0109200830600000001838100332000000600000000450F1000001510200815032034000055363210  ABB 0000000000                                                                                 
1  012478AIT BOURJ                     EL HABIB                      09051986DR94526     Prue 15 apt5 taz                                                          MA 13005678                3023   CI1110005720000002P300PMX1003201130000000001919300332000000600000000390F1000001504201115032036000057809237  ABB 0000000000                                                                                 
1   54202OUASSINI                      MOHAMED                       01011990AA3322      PQSDQS                                                                    MA 13005644                3023   CI1110006930000002P300PMX0102200730000000001334100332000000600000000227F1000001503200715022032000040183059  ABB 0000000000                                                                                 
1  018030AJDID                         TARIK                         05091986AD141952    PABB                                                                      MA 13005667                3023   CC1110003830000002P117PMX1201201112100000000003300227000000020000000450F1000011503201115032021000002000000  ABB 0000000000                                                                                 
1  123456EL YOUSFI                     BRAHIM                        17011994DA80448     P                                                                         MA 8410539                 3023   CI1010001680000002P300PMX0612201030000000000000000227000000300000000227F1000003112201030112035000018818129  ABB 0000000000                                                                                 
1   15230ALAOUI                        AYMANE                        05091978FR9456      P                                                                         MA 13005680                3023   CI1110003470000002P300PMX1202201017300000001134500332000000560000000420F1000001503201015072024000034171172  ABB 0000000000                                                                                 
1  013333AJDID                         TARIK                         13061988A66655      PTEST TEST                                                                MA 13005635                3023   CI1110005890000002P300PMX0104201130300000000868900332000000270000000227F1000030105201101072036000026173017  ABB 0000000000                                                                                 
1  013953EL YOUSFI                     BRAHIM                        17011994DA80448     P                                                                         MA 8410539                 3023   CI1010001670000002P300PMX0612201030000000000000000227000000500000000227F1000003112201030112035000047045317  ABB 0000000000                                                                                 
1   12344HADDAOUI                      MUSTAPHA                      14041990RC94632     Pres maamora                                                              MA 13005653                3023   CC1110004900000002P300PMX0503201112000000000015700227000000095000000450F1000011504201115032021000008316399  ABB 0000000000                                                                                 
1   15236HAMMANI                       ANAS                          05041987DR9456      P                                                                         MA 13005685                3023   CI1110003490000002P300PMX1203201030000000001885000332000000600000000420F1000001504201015032035000056776019  ABB 0000000000                                                                                 
1  105263AIT BOURJ                     EL HABIB                      09051986DR94526     PRABAT                                                                    MA 13005678                3023   CI1110004650000002P300PMX0603201130000000001925700332000000600000000450F1000001504201115032036000058004418  ABB 0000000000                                                                                 
1  012478AIT BOURJ                     EL HABIB                      09051986DR94526     Prue 15 apt5 taz                                                          MA 13005678                3023   CI1110005860000002P300PMX1003201130000000001599400332000000500000000390F1000001504201115032036000048174363  ABB 0000000000                                                                                 
1   56210ALAOUI                        AYMANE                        05091978FR9456      P                                                                         MA 13005680                3023   CI1110003430000002P300PMX1502201015000000000746500332000000262500000420F1000001503201015082022000022484406  ABB 0000000000                                                                                 
1 0104823AAMOUM                        MOHAMED                       24041996FR94562     PRABAT CENTRE                                                             MA 13005674                3023   CI1110004640000002P300PMX0603201130000000001107900332000000350000000227F1000001504201115032036000033370430  ABB 0000000000                                                                                 
1   15263ALAOUI                        AYMANE                        05091978FR9456      P                                                                         MA 13005680                3023   CI1110003450000002P300PMX1206201014400000000738000332000000262500000420F1000001507201015062022000022227781  ABB 0000000000                                                                                 
1    1233HADDAOUI                      MUSTAPHA                      01011990AA332211    Pres maamora                                                              MA 13005654                3023   CC1010001960000002P300PMX0801201012000000000023600000000000150000000450F0000001503201015022020000012450174  ABB 0000000000                                                                                 
1  020145AJDID                         TARIK                         08091977DF45236     PCASA                                                                     MA 13005669                3023   CC1110004950000002P300PMX1503201107200000000086900273000000500000000450F1000011504201115032017000038209768  ABB 0000000000                                                                                 
100000000OUASSINI                      MOHAMED                       01011975WX0023      P                                                                         MA 13005682                3023   CI1010002820000002P300UMX0103201030000000000000000438600000600000000420F1000000104201001032035000057307782  ABB 0000000000                                                                                 
1  012478AIT BOURJ                     EL HABIB                      09051986DR94526     Pn 15 apt 12 rue                                                          MA 13005678                3023   CI1110004610000002P300UMX1001201012000000000000000203570000200000000227F1000001502201015012020000014830179  ABB 0000000000                                                                                 
1  012478AJDID                         TARIK                         01011960AW1100      Prue 15 apt5 TAZA rue 15 apt5 TZA rue 15 apt5 TAZA TEST 1 TES             MA 13005678                3023   CC1110004960000002P006PMX0110201101300000020872201372000000250000000450F1000011511201115112012000025000000  ABB 0000008000                                                                                 
1   28288EL YOUSFI                     BRAHIM                        17011994DA80448     PMENZAH ZEIR                                                              MA 8410539                 3023   CI1010001600000002P300PMX0104201028000000000000000227000000500000000227F1000003004201030072033000045674324  ABB 0000000000                                                                                 
1  215487EL YOUSFI                     BRAHIM                        01011960DA80448     PCasablanca Tama                                                          MA 13005649                3023   CC1210007960000002P300PMX0704201005700000000245301372000000446000000450F1000011504201015122014000021456225  ABB 0000000000                                                                                 
1 0105892HADDAOUI                      MUSTAPHA                      14041990AB95632     PRUE MARASSA BAB                                                          MA 13005845                3023   CI1110004630000002P300PMX0603201130000000001439500332000000450000000390F1000001504201115032036000043356932  ABB 0000000000                                                                                 
1  012478AIT BOURJ                     EL HABIB                      09051986DR94526     Prue 15 apt5 taz                                                          MA 13005678                3023   CC1110004980000002P300PMX0503201108900000000004600227000000030000000450F1000011504201115082018000002452680  ABB 0000000000                                                                                 
1  215487EL YOUSFI                     BRAHIM                        01011960DA80448     PCasablanca Tama                                                          MA 13005649                3023   CC1210007950000002P300PMX0704201005700000000049500273000000446000000900F1000011504201015122014000021774743  ABB 0000000000                                                                                 
199998888EL YOUSFI                     BRAHIM                        17011994DA80448     PBouskoura Ville                                                          MA 13005664                3023   CI1110004620000002P300PMX0101201025000000041535200332000000600000000227F1000003101201031102030000027693546  ABB 0000001100                                                                                 
1   01254EL YOUSFI                     BRAHIM                        17011994DA80448     Ptemara                                                                   MA 8410539                 3023   CI1010001630000002P300PMX0104201030000000000000000227000000400000000227F1000003105201030042035000036944705  ABB 0000000000                                                                                 
1  012478AIT BOURJ                     EL HABIB                      09051986DR94526     Prue 15 apt5 taz                                                          MA 13005678                3023   CC1110004990000002P300PMX0603201108100000000012000227000000080000000450F1000011504201115122017000006361831  ABB 0000000000                                                                                 
1  152369AAMOUM                        MOHAMED                       24041996FR94562     PHAY LINBIAT IMMEUBLE 5 APPARTEENT10  AVENUE MOHAMMED V SALE              MA 13005674                3023   CI1110005970000002P300PMX1403201130300000001955400332000000600000000420F1000001504201115062036000058229604  ABB 0000000000                                                                                 
1   15263HADDAOUI                      MUSTAPHA                      14041990AB95632     P                                                                         MA 13005845                3023   CI1110003540000002P300PMX1212201030000000001122500332000000350000000450F1000001501201115122035000033808795  ABB 0000000000                                                                                 
1   01254OUASSINI                      MOHAMED                       15021970WX0023      PAVENUE DES FAR N 15                                                      MA 13005682                3023   CI1110005960000002P300PMX0304201120100000000772300332000000250000000227F1000011505201115012028000023210316  ABB 0000000000                                                                                 
1  011111ZNATI                         AMINA                         14051980AD15236     P                                                                         MA 13005840                3023   CI1110003560000002P300UMX1112201008400000000000000203570000150000000227F1000001501201115122017000011149700  ABB 0000000000                                                                                 
1  012369AJDID                         TARIK                         13061988A66655      P                                                                         MA 13005635                3023   CI1110003510000002P300PMX1212201030000000001112100332000000350000000450F1000001501201115122035000033497056  ABB 0000000000                                                                                 
1  012478AIT BOURJ                     EL HABIB                      09051986DR94526     PQUARTIER 1 VILLE2 RUE 9 CASA B                                           MA 13005678                3023   CI1110005900000002P300PMX1203201130000000001919300332000000600000000390F1000001504201115032036000057809237  ABB 0000000000                                                                                 
1   14263AJDID                         TARIK                         13061988A66655      P                                                                         MA 13005635                3023   CI1110003690000002P300PMX1402201130000000001922300332000000600000000450F1000003003201129022036000057899904  ABB 0000000000                                                                                 
1  012478AAMOUM                        MOHAMMED                      01011985XW9002      Prue 15 apt5 taz                                                          MA 13005678                3023   CI1110004860000002P300PMX0603201112000000000573700332000000200000000390F1000001504201115032021000017281311  ABB 0000000000                                                                                 
1  012695EL HAJJAR                     ABDESLAM                      05091980WB945233    PAPPT 1 IMMB 6 AVENUE MOULAY ISAIL RABAT 10000                            MA 13052322                3023   CC1210012240000002P300PMX0210201212000000000022800273000000100000000400F1000011511201215102022000010000000  ABB 0000000000                                                                                 
1   15230ASKARI                        FATIMA                        20121968AD845213    P                                                                         MA 13005670                3023   CI1110003790000002P300PMX0601201115200000001012300332000000350000000227F1000003001201130082023000030491038  ABB 0000000000                                                                                 
1  012478AAMOUM                        MOHAMMED                      01011990SQ33200     Prue 15 apt5 taz                                                          MA 13005678                3023   CI1110004940000002P300UMX0503201112000000000000000203570000500000000390F1000001504201115032021000043079996  ABB 0000000000                                                                                 
1  MBANQURabat                         Marocaine                     01011970            P                                                                         MA 8410539                 3023   CI1010000920000002P300UMX0204201012000000000000000003320000400000000227F1000000105201001042020000030622507  ABB 0000000000                                                                                 
1  MSalarRabat                         Marocaine                     01011970            P                                                                         MA 8410539                 3023   CI1010000970000002P300UMX0103201030000000000000000003320000230000000227F1000003103201028022035000021128427  ABB 0000000000                                                                                 
1  012478AIT BOURJ                     EL HABIB                      01011980VX00121     Prue 15 apt5 taz                                                          MA 13005678                3023   CI1110004920000002P300UMX0503201112000000000000000203570000150000000390F1000001504201115032021000012923996  ABB 0000000000                                                                                 
1   12120ES SAADI                      MERYEM                        01011990RT94563     Presidence essada imm 06 apprt 5 rabat                                    MA 13004003                3023   CC1210012020000002P300PMX0609201212000000000009400227000000050000000400F1000011510201215092022000004966450  ABB 0000000000                                                                                 
1    2100ALAOUI                        AYMANE                        05091978FR9456      Presidence salam n 105 appt 15 abat agdal                                 MA 13005680                3023   CC1210012050000002P300PMX0609201211900000000010100273000000045000000400F1000001510201215082022000004439513  ABB 0000000000                                                                                 
1   18263OUASSINI                      MOHAMED                       15021970QS98546     P                                                                         MA 13005672                3023   CI1110003990000002P300PMX1001201116600000000590500332000000200000000227F1000001502201115112024000017786158  ABB 0000000000                                                                                 
1  256300EL HAJJAR                     ABDESLAM                      05091980WB945233    Prue najmiz2	tes   hhj    B ETG5 N 6 CASABLANCA                          MA 13052322                3023   CI1210011280000002P300PMX0209201230000000001982500332000000600000000200F1000001510201215092037000059715226  ABB 0000000000                                                                                 
1  152869AJDID                         TARIK                         08091977DF45236     P                                                                         MA 13005669                3023   CI1110003950000002P300PMX1005201030000000001572800332000000560000000227F1000001506201015052035000047373337  ABB 0000000000                                                                                 
1  152369ASKARI                        FATIMA                        20121978DF98523     P                                                                         MA 13005671                3023   CI1110003930000002P300PMX1006201030000000001856000332000000600000000227F1000003007201030062035000055904746  ABB 0000000000                                                                                 
1  154745OUASSINI                      MOHAMED                       15021970WX0023      PFGH                                                                      MA 13005682                3023   CC1210010170000002P300PMX1001201201800000000006100606000000025000000400F1000011502201215072013000001196118  ABB 0000000000                                                                                 
1  256314EL JOUNDI                     AMIR                          09081979AD159753    Prtrttghghfgdf                                                            MA 13049996                3023   CI1210012330000002P300PMX1006201230000000001968300332000000600000000200F1000001507201215062037000059285749  ABB 0000000000                                                                                 
1 2561003EL JOUNDI                     AMIR                          09081979AD159753    PZERTRYTRYTRT                                                             MA 13049996                3023   CI1210012280000002P300UMX0210201230000000000000000438600000600000000200F1000011511201215102037000060000000  ABB 0000000000                                                                                 
1  012695ALAOUI                        MOHAMMED A                    06091978LK6875      Pavenu el abtal                                                           MA 13052693                3023   CI1210012260000002P300UMX0210201230000000000000000438600000600000000200F1000001511201215102037000059849805  ABB 0000000000                                                                                 
1  012695ALAOUI                        MOHAMMED A                    06091978LK6875      PAPPT 1 IMMB 6 AVENUE MOULAY ISAIL RABAT 10000                            MA 13052693                3023   CI1210012250000002P300PMX0210201230000000001987300332000000600000000200F1000001511201215102037000059857767  ABB 0000000000                                                                                 
1   22554OUASSINI                      MOHAMED                       01011990AA3322      Ptest                                                                     MA 13005644                3023   CC1210012320000002P300PMX0106201206000000000012000227000000070000000400F1000003006201230052017000006367460  ABB 0000000000                                                                                 
1   01223ASKARI                        FATIMA                        01011991A3212       Ptest                                                                     MA 13005640                3023   CC1210012300000002P300PMX0101201211900000000004400227000000025000000400F1000001502201215122021000002329440  ABB 0000000000                                                                                 
1  020145BURGUN                        Pierre                        08091977DF45236     PCASA                                                                     MA 13005669                3023   CC0000000000000002P300UMX1001201012000000000030000000000007000000000450F1000003101201031122019000037656552  ABB 0000000000                                                                                 
1   12730AAMOUM                        MOHAMMED                      01011980ZZ222       PGJKGHKJ                                                                  MA 13005684                3023   CC1210010610000002P300PMX1307201006100000000021800273000000100000000400F1000011508201215082017000009550729  ABB 0000000000                                                                                 
1  215601LAMRINI                       HAMZA                         22041990AB10010     PDSD                                                                      MA 13051173                3023   CI1210013030000002P300UMX0211201230000000000000000438600000210000000600F1000003012201230112037000021000000  ABB 0000000000                                                                                 
1  215600ZIZI                          HANANE                        01011990HG951       PTEST TEST                                                                MA 13006584                3023   CI1210013020000002P300UMX0211201212000000000000000203570000600000000600F1000003012201230112022000060000000  ABB 0000000000                                                                                 
1  029360AJDID                         TARIK                         08091977DF45236     PLAAYOUNE                                                                 MA 13005669                3023   CC1010003090000002P300PMX0612201012100000000117800606000000270000000450F1000011501201115012021000023329854  ABB 0000000000                                                                                 
1  029359AJDID                         TARIK                         05091986AD141952    PBLOC A NO 12 HA                                                          MA 13005667                3023   CC1010003080000002P300PMX0612201012100000000052800273000000270000000450F1000011501201115012021000023192221  ABB 0000000000                                                                                 
1  018030AJDID                         TARIK                         05091986AD141952    PSIDI BOUKNADEL                                                           MA 13005667                3023   CC1010003110000002P300PMX0612201012100000000052800273000000270000000450F1000011501201115012021000023192221  ABB 0000000000                                                                                 
1   01233HADDAOUI                      MUSTAPHA                      01011991DD55500     Pres maamora                                                              MA 13005654                3023   CC1010003180000002P300PMX0801201012000000000028500273000000150000000450F1000001502201015012020000012521883  ABB 0000000000                                                                                 
1  012563ASKARI                        FATIMA                        20121978DF98523     PAVENUE MOULAY ISMAIL HASSAN RAAT 10000                                   MA 13005647                3023   CI1210007990000002P300PMX1003201030000000001878000332000000600000000420F1000001504201015032035000056567301  ABB 0000000000                                                                                 
1  010852AIT BOURJ                     EL HABIB                      09051986DR94526     PGFGFTHY                                                                  MA 13005678                3023   CI1210007920000002P300PMX1001201030000000001870400332000000600000000420F1000001502201015012035000056337154  ABB 0000000000                                                                                 
1   01222ASKARI                        FATIMA                        01011987A3000       PN 15 APPT 16 AGDAL                                                       MA 13005662                3023   CC1110007060000002P300PMX1006201112000000000059300227000000350000000450F1000011507201115062021000031244393  ABB 0000000000                                                                                 
1   01254EL ALAOUI                     MERYEM                        01011990DE554       PTEST                                                                     MA 9402343                 3023   CI1210007860000002P300UMX0201201230000000000000000438600000500000000600F1000003003201228022037000049337501  ABB 0000000000                                                                                 
1   01222EL ALAOUI                     MERYEM                        01011990DE554       PTEST TEST TEST                                                           MA 9402343                 3023   CI1210007850000002P300PMX0201201220100000000974600332000000300000000600F1000012902201230102028000029356047  ABB 0000000000                                                                                 
1  215487LINA                          LINA                          01011990DF111       PCasablanca Tama                                                          MA 13005649                3023   CI1210007830000002P300PMX1505201130000000001859800332000000577500000450F1000001505201115042036000056018673  ABB 0000000000                                                                                 
1  012563AIT BOURJ                     EL HABIB                      01011990QQ3322      PAPPT 1 IMMB8  AVENUE 10 RABAT                                            MA 13005647                3023   CI1210008810000002P300PMX1004201030000000000940900332000000300000000420F1000001505201015042035000028340830  ABB 0000000000                                                                                 
1   25100BEN ALI                       HAMID                         05081969AA112       PFDGD                                                                     MA 13052519                3023   CC1210010860000002P300PMX0208201212000000000050300606000000100000000400F1000011510201215092022000009933033  ABB 0000000000                                                                                 
1  152360SALHAOUI                      ANASS                         24021999P340448     PSDDS                                                                     MA 13052879                3023   CI1210009910000002P300PMX1006201030000000002804200332000000900000000300F1000001507201015062035000084463168  ABB 0000000000                                                                                 
1  152360SALHAOUI                      ANASS                         24021999P340448     PAVENUE HASSAN 2                                                          MA 13052879                3023   CI1210009900000002P300PMX1006201030000000002159300332000000700000000200F1000001507201015062035000065039015  ABB 0000000000                                                                                 
1    1234AJDID                         TARIK                         08091977DF45236     PFES                                                                      MA 13005669                3023   CC1110004060000002P300PMX2401201105200000000001400273000000010000000450F1000011503201115062015000000635954  ABB 0000000000                                                                                 
1  029359EL YOUSFI                     BRAHIM                        17011994DA80448     P                                                                         MA 13005685                3023   CC1110004070000002P300PMX0101201012100000000014600227000000100000000450F1000013101201031012020000007665274  ABB 0000000000                                                                                 
1   28002OUASSINI                      MOHAMED                       15021970WX0023      PRES SALAM N 15                                                           MA 13005682                3023   CC1110005210000002P300PMX0603201108800000000023600606000000055000000450F1000001504201115072018000004665305  ABB 0000000000                                                                                 
1  021444AAMOUM                        MOHAMED                       24041996FR94562     PRES SALAM N 15                                                           MA 13005674                3023   CC1110005220000002P300PMX0603201112400000000035900227000000210000000450F1000001504201115072021000018965792  ABB 0000000000                                                                                 
1  745210AIT BOURJ                     EL HABIB                      09061988ZD9452      PVGXFGFDGFDGD                                                             MA 13005679                3023   CC1210008060000002P300PMX1103201012000000000051700227000000350000000450F1000001504201015032020000027340885  ABB 0000000000                                                                                 
1  362001ALAOUI                        AYMANE                        05091978FR9456      PFXDGFDSF                                                                 MA 13005680                3023   CC1210008050000002P300PMX1103201012000000000053300273000000300000000450F1000001504201015032020000023444509  ABB 0000000000                                                                                 
1  152361LEKHLIFI                      FADOUA                        01012000GK150113    PAVENUE HASSAN 2                                                          MA 13050248                3023   CI1210009880000002P300PMX1006201030000000002159300332000000700000000200F1000001507201015062035000065039015  ABB 0000000000                                                                                 
1  152360LEKHLIFI                      FADOUA                        01012000GK150113    PAVENUE HASSAN 2                                                          MA 13050248                3023   CI1210009890000002P300PMX1006201030000000002804200332000000900000000300F1000001507201015062035000084463168  ABB 0000000000                                                                                 
1  152360SAFAE                         FAYZ                          02012000C110145     PAVENUE EL ABTAL                                                          MA 13051640                3023   CI1210009870000002P300PMX1006201030000000002804200332000000900000000300F1000001507201015062035000084463168  ABB 0000000000                                                                                 
1  152360SAFAE                         FAYZ                          02012000C110145     PAPPT 1 IMMB8 10000 RABAT                                                 MA 13051640                3023   CI1210009850000002P300PMX1006201030000000002159300332000000700000000200F1000001507201015062035000065039015  ABB 0000000000                                                                                 
1  251425AJDID                         TARIK                         05091986AD141952    PAPPT 1 HAY NARJIS RESIDENCE OU KELTOUM AVENUE BENABOUD RABAT             MA 13005667                3023   CI1210008620000002P300PMX1001201230000000001959600332000000600000000450F1000001502201215012037000059024390  ABB 0000000000                                                                                 
100000000AJDID                         TARIK                         01011990A66655      Pres maamora                                                              MA 13005635                3023   CC1010002550000002P300PMX0801201012000000000041600273000000220000000450F1000001503201015022020000018275451  ABB 0000000000                                                                                 
100000000AJDID                         TARIK                         01011990A66655      Pres maamora                                                              MA 13005635                3023   CC1010002540000002P300PMX0801201012000000000011300273000000060000000450F1000001503201015022020000004984208  ABB 0000000000                                                                                 
1   MSansEL YOUSFI                     BRAHIM                        17011994DA80448     Paaa                                                                      MA 13005648                3023   CC1010001310000002P300PMX0101201012000000000014400227000000600000000450F1000003101201031122019000007591585  ABB 0000000000                                                                                 
1   01254AJDID                         TARIK                         01011980EZ22110     P2 res 5 sale                                                             MA 13005659                3023   CC1110005130000002P300PMX0603201112000000000037800273000000190000000450F1000011504201115032021000016636043  ABB 0000000000                                                                                 
1   12945ASKARI                        FATIMA                        01011991A3212       PAPPT 1 IMMB5 AVENUE LALLA ASMA RABAT                                     MA 13005640                3023   CI1210008580000002P300PMX1001201230000000001697000332000000600000000450F1000001502201215012037000051106291  ABB 0000000000                                                                                 
1  018652AAMOUM                        MOHAMMED                      01011990XW33221     PAPPT 1 IMMB8 AVENUE ALLAL IBN BDELLAH RABAT                              MA 13005649                3023   CI1210008590000002P300PMX1001201221800000001614100332000000600000000420F1000001502201215032030000048618773  ABB 0000000000                                                                                 
1  289563AJDID                         TARIK                         13061988AZ9562      PRUE SEDRATI AVENUE EL JOULANE BENIMELLAL                                 MA 13005667                3023   CI1210008570000002P300PMX1001201230000000121958000332000000600000000420F1000001502201215012037000058976101  ABB 0000000000                                                                                 
1   01254ASKARI                        FATIMA                        01011991A3212       PAVENUE ALLAL IBN ABDELLAH NUM 5 APPT 16 ETG 10 RUE ALLAH BEN             MA 13005640                3023   CC1110007400000002P300PMX0110201112000000000026200227000000150000000450F1000011511201115102021000013799268  ABB 0000000000                                                                                 
1  028745AJDID                         TARIK                         01011980EZ22110     Pres agdal n 15                                                           MA 13005659                3023   CC1110005030000002P300PMX0603201108400000000034800273000000190000000450F1000011504201115032018000015281372  ABB 0000000000                                                                                 
1  055221AJDID                         TARIK                         01011960AW1100      PRES 04 N 5                                                               MA 13005660                3023   CC1110005040000002P300PMX0603201104800000000017901372000000025000000450F1000011504201115032015000001563247  ABB 0000000000                                                                                 
1   23650BENALI                        BENALI                        01041971A22         PAPPT1 IMMB8 AVENUE 5 RABAT 1000                                          MA 13052521                3023   CC1210009030000002P300PMX3011201012000000000038400606000000090000000450F1000001512201015112020000007608635  ABB 0000000000                                                                                 
1  012478AIT BOURJ                     EL HABIB                      09051986DR94526     Prue 15 apt5 taz                                                          MA 13005678                3023   CC1110005060000002P300PMX0603201108200000000009100227000000060000000450F1000011504201115012018000004789587  ABB 0000000000                                                                                 
1  010893BEN ALI                       HAMID                         05081969AA112       PAPPT1 IMMB8 AVENUE 5 RABAT 1000                                          MA 13052519                3023   CC1210009020000002P300PMX2911200909700000000010600606000000030000000450F1000011501201015012018000002082863  ABB 0000000000                                                                                 
1 0125466AAMOUM                        MOHAMMED                      01011990XW33221     Pvilla floride bd zerktouni TES TEST TEST TEST XXXXXXXXXXXXXX             MA 13005649                3023   CC1110007410000002P300PMX0110201108500000214049300227000000500000000450F1000011511201115112018000049107083  ABB 0000005000                                                                                 
1  012478AIT BOURJ                     EL HABIB                      09051986DR94526     Prue 15 apt5 taz                                                          MA 13005678                3023   CC1110005000000002P300PMX0603201108200000000011600227000000077000000450F1000011504201115012018000006146638  ABB 0000000000                                                                                 
1  012478AIT BOURJ                     EL HABIB                      09051986DR94526     Prue 15 apt5 taz                                                          MA 13005678                3023   CC1110005010000002P300PMX0603201108200000000022700227000000150000000450F1000011504201115012018000011973954  ABB 0000000000                                                                                 
1   01254AJDID                         TARIK                         01011980EZ22110     PAVENUE ALLAL IBN ABDELLAH TESTTEST TEST TEST TEST TEST TEST              MA 13005659                3023   CC1110007430000002P300PMX0110201112000000000332400273000001600000000450F1000011510201115092021000146113805  ABB 0000000000                                                                                 
1    2145BENALI                        KHALID                        20031972AA11        PAPPT1 IMMB8 AVENUE 5 RABAT 1000                                          MA 13052515                3023   CC1210009040000002P300PMX0612201006000000000004400273000000030000000450F1000001501201115122015000001939652  ABB 0000000000                                                                                 
1  125300AIT BOURJ                     EL HABIB                      01011980VX00121     PAPPT1 IMMB 5 RESIDENCE NOUR RU EL YASSAMINE AVENUE ENNAJAH 1             MA 13005687                3023   CI1110007050000002P300PMX1009200930000000001811900332000000600000000227F1000001510200915092034000054574500  ABB 0000000000                                                                                 
100000000AJDID                         TARIK                         01011990A66655      Pres maamora                                                              MA 13005635                3023   CC1010002720000002P300PMX0801201006000000000003900273000000030000000450F1000001503201015022015000001707239  ABB 0000000000                                                                                 
1  012345HADDAOUI                      MUSTAPHA                      01011991DD55500     Pres maamora                                                              MA 13005654                3023   CC1010003190000002P300PMX0801201012000000000009500273000000050000000450F1000001502201015012020000004173973  ABB 0000000000                                                                                 
1   28653HADDAOUI                      MUSTAPHA                      01011971AA332211    Ptest adresse                                                             MA 13005634                3023   CI1210009570000002P300PMX1005201030000000002153400332000000700000000200F1000001506201015052035000064862334  ABB 0000000000                                                                                 
1   28653HADDAOUI                      MUSTAPHA                      01011971AA332211    Pdsfrsdsdr                                                                MA 13005634                3023   CI1210009580000002P300PMX1005201030000000002175900332000000700000000300F1000001506201015052035000065538104  ABB 0000000000                                                                                 
1  010802HADDAOUI                      MUSTAPHA                      09102000RC94632     P                                                                         MA 13005653                3023   CI1010003120000002P300PMX1002201030000000001254400332000000400000000420F1000001503201015022035000037783050  ABB 0000000000                                                                                 
1   12500AIT BOURJ                     EL HABIB                      01011990QQ3322      Plot nassim al bahr mahdia  kentra                                        MA 13005647                3023   CI1210008310000002P300PMX1001201212000000001551200332000000500000000420F1000001502201215012022000046722012  ABB 0000000000                                                                                 
1   12345OUASSINI                      MOHAMED                       15021970WX0023      PRES MAAMORA 12                                                           MA 13005682                3023   CC1110004400000002P300PMX0403201105000000000004900606000000035000000680F1000011504201120052015000000969413  ABB 0000000000                                                                                 
1   01254OUASSINI                      MOHAMED                       15021970WX0023      Pvilla floride bd zerktouni                                               MA 13005682                3023   CC1110005610000002P300PMX0903201108400000000061000606000000150000000450F1000011504201115032018000012082692  ABB 0000000000                                                                                 
1  011215HADDAOUI                      MUSTAPHA                      01011990QD1100      Pvilla floride bd zerktouni                                               MA 13005655                3023   CC1110006820000002P300PMX0101200912000000000008400227000000065000000450F1000011502200915012019000004421891  ABB 0000000000                                                                                 
1 0254545ASKARI                        FATIMA                        01011987A3000       Pvilla floride bd zerktouni                                               MA 13005662                3023   CC1110005620000002P300PMX0903201108400000000021300227000000140000000450F1000011504201115032018000011257576  ABB 0000000000                                                                                 
1  321211AAMOUM                        MOHAMMED                      01011980ZZ222       PN 5 APT 6 AGD                                                           MA 13005684                3023   CC1110004420000002P300PMX0403201106300000000019000273000000150000000450F1000011504201115062016000008363388  ABB 0000000000                                                                                 
1  012478AIT BOURJ                     EL HABIB                      09051986DR94526     Prue 15 apt5 taza                                                         MA 13005678                3023   CC1110005630000002P300PMX0903201107300000000021800227000000150000000450F1000011504201115042017000011518266  ABB 0000000000                                                                                 
1   02122AIT BOURJ                     EL HABIB                      01011980VX00121     PN 15 APPT 16 AGDAL                                                       MA 13005655                3023   CC1110006800000002P300PMX0101201012100000000021200273000000120000000450F1000011502201015022020000009290287  ABB 0000000000                                                                                 
1   01254OUASSINI                      MOHAMED                       15021970WX0023      Pvilla floride bd zerktouni                                               MA 13005682                3023   CC1110005600000002P300PMX0903201112000000000110700606000000250000000450F1000011504201115032021000021919839  ABB 0000000000                                                                                 
1  012478AIT BOURJ                     EL HABIB                      09051986DR94526     Prue 15 apt5 taza                                                         MA 13005678                3023   CC1110005690000002P300PMX1003201112100000000024900227000000150000000450F1000011504201115042021000013151579  ABB 0000000000                                                                                 
1   12500EL HAIMADI                    AMAL                          09101975RG85423     PAPPT1 IMMB8 AVENUE ESSALAM RABT                                          MA 13005399                3023   CC1210008460000002P300PMX1001201210000000000020900273000000100000000450F1000001502201215052020000009173783  ABB 0000000000                                                                                 
1  125454AJDID                         TARIK                         13061988A66655      PAVENUE ALLAL IBN ABDELLAH                                                MA 13005635                3023   CC1110006860000002P300PMX0101200808500000000010300227000000150000000450F1000011502200815022015000005423338  ABB 0000000000                                                                                 
1    1234HADDAOUI                      MUSTAPHA                      01011971AA332211    Pres maamora                                                              MA 13005635                3023   CC1010003280000002P300PMX0801201012000000000058501372000000060000000450F1000001502201015012020000005117371  ABB 0000000000                                                                                 
1  362001AJDID                         TARIK                         15091975A66655      PAVENUE MOULAY ISMAIL HASSAN RAAT 10000                                   MA 13005635                3023   CC1210009620000002P300PMX1006201009600000000024800273000000280000000400F1000011507201015062018000010921166  ABB 0000000000                                                                                 
1  545454AJDID                         TARIK                         01011980EZ22110     PN 15 APPT 16 AGDAL                                                       MA 13005659                3023   CC1110006880000002P300PMX0101200907700000000010000273000000098000000450F1000010102200901062015000004390451  ABB 0000000000                                                                                 
1    1234HADDAOUI                      MUSTAPHA                      01011991DD55500     Pres maamora                                                              MA 13005654                3023   CC1010002050000002P300PMX0801201010000000000034500227000000225000000450F1000001503201015062018000018247808  ABB 0000000000                                                                                 
1   25601EL HAIMADI                    AMAL                          09101975RG85423     PAPPT1 IMMB8 AVENUE ESSALAM RABT                                          MA 13005399                3023   CC1210008490000002P300PMX1001201212000000000340000273000001600000000450F1000001502201215012022000149452319  ABB 0000000000                                                                                 
1  215487EL YOUSFI                     BRAHIM                        17011994DA80448     PCasablanca Tama                                                          MA 8410539                 3023   CI1110007250000002P300PMX0101201012000000000252700332000000100000000450F1000003101201031122019000007611617  ABB 0000000000                                                                                 
1  215487EL YOUSFI                     BRAHIM                        17011994DA80448     PCasablanca Tama                                                          MA 13005648                3023   CI1110006000000002P300PMX0101201030000000001876900332000000600000000500F1000033101201031122034000056160298  ABB 0000000000                                                                                 
1   12563AAMOUM                        MOHAMMED                      01011985XW9002      P                                                                         MA 13005686                3023   CI1010003050000002P300PMX0612201030000000101825500332000000600000000227F1000001501201115122035000054984743  ABB 0000000000                                                                                 
1  010896BENJILALI                     ADELMOUMEN                    01011984GE882365    PAPPT1 IMMB8 AVENUE ESSALAM RABT                                          MA 13005396                3023   CC1210008500000002P300PMX1001201212000000000088400227000000500000000450F1000001502201215012022000046705072  ABB 0000000000                                                                                 
1  120021OUASSINI                      MOHAMED                       15021970WX0023      PN 5 APPT 25                                                              MA 13005682                3023   CC1110004370000002P300PMX0303201112000000000033200606000000075000000450F1000011504201115032021000006575955  ABB 0000000000                                                                                 
1   01254AJDID                         TARIK                         05091986AD141952    Pvilla floride bd zerktouni                                               MA 13005667                3023   CC1110005580000002P300PMX0903201107200000000006500227000000045000000450F1000011504201115032017000003438132  ABB 0000000000                                                                                 
1   28900HADDAOUI                      MUSTAPHA                      01011990AA332211    Pres maamora                                                              MA 13005634                3023   CC1010002140000002P300PMX0801201006000000000005400227000000050000000450F1000001503201015022015000002842343  ABB 0000000000                                                                                 
1  129563OUASSINI                      MOHAMED                       01011990AA3322      PAPPT1 IMMB RUE NATJIS AVENUE MULAY EL HASSAN EL OUAZZANI TAZ             MA 13005644                3023   CC1210008530000002P300PMX1001201208200000000037300227000000300000000450F1000001502201215112018000019734143  ABB 0000000000                                                                                 
1    3333HADDAOUI                      MUSTAPHA                      01011991DD55500     Pres maamora                                                              MA 13005654                3023   CC1010002180000002P300PMX0801201012000000000009400227000000060000000450F1000001503201015022020000004980069  ABB 0000000000                                                                                 
1  123456OUASSINI                      MOHAMED                       15021970WX0023      PNUM 15 APPT 06                                                           MA 13005682                3023   CC1110004340000002P300PMX0303201112100000000033300606000000075000000450F1000011504201115042021000006586149  ABB 0000000000                                                                                 
1   65100AJDID                         TARIK                         13061988A66655      Pres semiramis N 12 appt 15                                              MA 13005635                3023   CC1110006760000002P300PMX0101200808400000000010000227000000150000000450F1000011502200815012015000005285854  ABB 0000000000                                                                                 
1   25630EL HAIMADI                    AMAL                          09101975RG85423     PAPPT1 IMMB8 AVENUE ESSALAM RABT                                          MA 13005399                3023   CC1210008520000002P300PMX1001201210000000000022900273000000120000000450F1000001502201215052020000010074488  ABB 0000000000                                                                                 
1  015211AJDID                         TARIK                         01011980EZ22110     Pvilla floride bd zerktouni                                               MA 13005659                3023   CC1110006770000002P300PMX0101200909700000000013000273000000098000000450F1000011502200915022017000005708585  ABB 0000000000                                                                                 
1   01254AAMOUM                        MOHAMED                       24041996FR94562     Pvilla floride bd zerktouni                                               MA 13005674                3023   CC1110005570000002P300PMX0903201112100000000016600227000000100000000450F1000011504201115042021000008767721  ABB 0000000000                                                                                 
1  012211ASKARI                        FATIMA                        01011991A3212       PN 15 APPT 16 AGDAL                                                       MA 13005640                3023   CC1110006780000002P300PMX0101200707700000000000700227000000035000000450F1000011502200715062013000000372290  ABB 0000000000                                                                                 
1   28963AJDID                         TARIK                         08061989RT9455      PAPPT1 IMMB8 AVENUE ESSALAM RABT                                          MA 13005657                3023   CC1210008540000002P300PMX1001201208400000100085000227000000500000000450F1000001502201215012019000044909960  ABB 0000000000                                                                                 
1   12345AJDID                         TARIK                         08091977DF45236     PFES                                                                      MA 13005669                3023   CC1110004190000002P300PMX2201201106100000000001600273000000010000000450F1000011503201115032016000000697590  ABB 0000000000                                                                                 
1   01254ASKARI                        FATIMA                        01011987A3000       PTEST ADRESSE 1 TEST ADRESSE 2 EST ADRESSE 3 TEST ADRESSE 4               MA 13005662                3023   CI1110007370000002P300UMX0110201130300000000000000438600000250000000450F1000001510201115122036000024566601  ABB 0000005000                                                                                 
1  284510YASSINE                       ALI                           19041985A222        PSDFSD                                                                    MA 13052522                3023   CI1210009350000002P300PMX0304200730000000002164100332000000760800000341F1000001505200715042032000065182955  ABB 0000000000                                                                                 
1   RABATASKARI                        FATIMA                        01011987A3000       PAPP T2 IMM 2  AVENUE ALLAL IBNABDELLAH RABAT                             MA 13005662                3023   CI1110007380000002P300PMX1009200830000000000715700332000000600000000227F1000001510200815092033000021557510  ABB 0000000000                                                                                 
1  028555ASKARI                        FATIMA                        01011991A3212       PAAAAAA  AAAAAA                                                           MA 13005640                3023   CI1210008120000002P300PMX2805201030100000001265700332000000400000000450F1000011506201015062035000038031211  ABB 0000000000                                                                                 
1  284510YASSINE                       ALI                           19041985A222        PKENITRA                                                                  MA 13052522                3023   CI1210009340000002P300PMX0304200730000000001662900332000000600000000227F1000001505200715042032000050086505  ABB 0000000000                                                                                 
