00301062012B                                                                                                                                                                                                                                                                                                                                                                                                   
1   28956RAMA                          HIND                          01011999S4545       PSDGFSD                                                                   MA 13051408                3022   I1210009150000002P300PMX1004201030000000000000000332000000600000000600F1000003005201030042035000057736254  ABB 0000000000                                                                                 
1  215487EL YOUSFI                     BRAHIM                        17011994DA80448     PCasablanca Tama                                                          MA 13005649                3022   I1110007580000002P300PMX0101201010000000000455600332000000150000000227F1000003101201030042018000013555762  ABB 0000000000                                                                                 
1  012478AIT BOURJ                     EL HABIB                      09051986DR94526     Prue 15 apt5 taz                                                          MA 13005678                3022   I1110005190000002P300PMX0603201130000000001130500332000000350000000390F1000001504201115032036000034050944  ABB 0000000000                                                                                 
1  025652OUASSINI                      MOHAMED                       01011990AA3322      PRES 5 N 10 SALA                                                          MA 13005644                3022   I1110005180000002P300PMX0703201130000000000801200332000000250000000227F1000001504201115032036000024132293  ABB 0000000000                                                                                 
1                                                                    01011970            P                                                                         MA 8410539                 3022   I1010001140000002P300UMX0103201030000000000000000003320000700000000450F1000000104201001032035000066695847  ABB 0000000000                                                                                 
1  MCadreRabat                         Marocaine                     01011970            P                                                                         MA 8410539                 3022   I1010001130000002P300UMX0103201030000000000000000003320000600000000450F1000000104201001032035000047639874  ABB 0000000000                                                                                 
1        ALAOUI                        AYMANE                        05091978FR9456      P                                                                         MA 13005680                3022   I1010002340000002P300PMX1001201030000000001858400332000000600000000227F1000000102201001012035000055974791  ABB 0000000000                                                                                 
1  012478AIT BOURJ                     EL HABIB                      09051986DR94526     Prue 15 apt5 taz                                                          MA 13005678                3022   I1110005120000002P300PMX0603201130000000001615000332000000500000000390F1000001504201115032036000048644206  ABB 0000000000                                                                                 
100000000ALAOUI                        AYMANE                        05091978FR9456      P                                                                         MA 13005680                3022   I1010002330000002P300PMX2001201030000000001893700332000000600000000420F1000002802201030012035000057039772  ABB 0000000000                                                                                 
1  012478AIT BOURJ                     EL HABIB                      09051986DR94526     Prue 15 apt5 taz                                                          MA 13005678                3022   I1110005150000002P300PMX0603201107200000000297300332000000110000000390F1000001504201115032017000008955794  ABB 0000000000                                                                                 
1  MCadreRabat                         Marocaine                     01011970            P                                                                         MA 8410539                 3022   I1010001110000002P300UMX0103201030000000000000000003320000600000000227F1000000104201001032035000046698648  ABB 0000000000                                                                                 
100000000HAMMANI                       ANAS                          05041987DR9456      P                                                                         MA 13005685                3022   I1010002320000002P300PMX2001201030000000001893700332000000600000000420F1000002802201030012035000057039772  ABB 0000000000                                                                                 
1  012478AIT BOURJ                     EL HABIB                      09051986DR94526     Prue 15 apt5 taz                                                          MA 13005678                3022   I1110005140000002P300UMX0603201127700000000000000438600000600000000390F1000001504201115042034000058044551  ABB 0000000000                                                                                 
1  012478AIT BOURJ                     EL HABIB                      09051986DR94526     Prue 15 apt5 taz                                                          MA 13005678                3022   I1110005110000002P300PMX0603201107200000000351400332000000130000000390F1000001504201115032017000010584131  ABB 0000000000                                                                                 
1   62300AAMOUM                        MOHAMMED                      01011985XW9002      PAVENUE MED V                                                             MA 13005686                3022   I1110007530000002P300UMX0110201130000000000000000438600000600000000420F1000001511201115102036000059135628  ABB 0000005000                                                                                 
1                                                                    01011970            P                                                                         MA 8410539                 3022   I1010001150000002P300UMX0304201030000000000000000003320000600000000450F1000000105201001042035000057364474  ABB 0000000000                                                                                 
1        ALAOUI                        AYMANE                        05091978FR9456      P                                                                         MA 13005680                3022   I1010002360000002P300PMX1001201030000000002506300332000000800000000341F1000000102201001012035000075490406  ABB 0000000000                                                                                 
199999999EL YOUSFI                     BRAHIM                        17011994DA80448     PCasablanca Tama                                                          MA 13005664                3022   I1110005100000002P300PMX0101201012000000000801600332000000300000000227F1000033101201031032020000024145852  ABB 0000000000                                                                                 
1  012478HADDAOUI                      MUSTAPHA                      01011990QD1100      Prue 15 apt5 taz                                                          MA 13005678                3023   C1110004850000002P300PMX0603201108300000000097500227000000050000000450F1000011504201115032018000004294790  ABB 0000000000                                                                                 
1   12222ASKARI                        FATIMA                        01011987A3000       Pres maamoura 12                                                          MA 13005662                3023   C1110004830000002P300PMX0603201108300000000097500227000000050000000450F1000011504201115032018000004294790  ABB 0000000000                                                                                 
1        EL YOUSFI                     BRAHIM                        17011994DA80448     P                                                                         MA 13005685                3023   C1110003670000002P300PMX1501201011900000000184500227000000100000000450F1000012802201031012020000008129228  ABB 0000000000                                                                                 
1  114420AAMOUM                        MOHAMMED                      01011980ZZ222       PNUM 10 APPT 15                                                           MA 13005684                3023   C1110004890000002P300PMX0503201107400000000179900273000000075000000450F1000001504201115062017000006590368  ABB 0000000000                                                                                 
1  010236AIT BOURJ                     EL HABIB                      01011990QQ3322      PQSDQSD                                                                   MA 13005647                3023   C1210008880000002P300PMX3011201009600000000057300227000000030000000450F1000001512201015112018000002522369  ABB 0000000000                                                                                 
1                                                                    01011970            P                                                                         MA 8410539                 3022   I1010001030000002P300UMX0204201030000000000000000003320000600000000450F1000000105201001042035000057732868  ABB 0000000000                                                                                 
1        AALAM                         HAMZA                         11091990AD25956     P                                                                         MA 13005847                3022   I1110004030000002P300PMX2006201030000000000899300332000000279000000341F1000032009201020112035000027088421  ABB 0000000000                                                                                 
1  013111AALAM                         HAMZA                         11091990AD25956     P                                                                         MA 13005847                3022   I1110004020000002P300PMX2006201030000000001914800332000000600000000227F1000032009201020112035000057675191  ABB 0000000000                                                                                 
1  012478AIT BOURJ                     EL HABIB                      09051986DR94526     Prue 15 apt5 taz                                                          MA 13005678                3022   I1110005260000002P300PMX0703201112900000000680200332000000277000000390F1000001504201115122021000020487151  ABB 0000000000                                                                                 
1  012478AIT BOURJ                     EL HABIB                      09051986DR94526     Prue 15 apt5 taz                                                          MA 13005678                3022   I1110005200000002P300PMX0603201112000000000477600332000000160000000390F1000001504201115032021000014384798  ABB 0000000000                                                                                 
1  015230EL GHAZI                      NABIL                         10061980WQ9452      PRABAT RABAT                                                              MA 13049929                3022   I1110007620000002P300PMX0111201130000000001968400332000000600000000420F1000001512201115112036000059287770  ABB 0000000000                                                                                 
1  526412HADDAOUI                      MUSTAPHA                      01011991DD55500     P                                                                         MA 13005654                3022   I1010002270000002P300PMX1501201030000000000928000332000000300000000227F1000000102201001012035000027952357  ABB 0000000000                                                                                 
1  652417AIT BOURJ                     EL HABIB                      01011990QQ3322      P                                                                         MA 13005647                3022   I1010002260000002P300PMX0102201010000000001634200332000000600000000227F1000000103201001062018000049223380  ABB 0000000000                                                                                 
1  215487EL YOUSFI                     BRAHIM                        01011960DA80448     PCasablanca                                                               MA 13005649                3022   I1110007630000002P300PMX0101201012000000001546600332000000600000000227F1000003101201031122019000046585463  ABB 0000000000                                                                                 
1    1234AJDID                         TARIK                         01011980EZ22110     Pres maamora                                                              MA 13005659                3023   C1110003520000002P300PMX2801201106000000000093200273000000045000000450F1000011502201115022016000003413355  ABB 0000000000                                                                                 
1  020145AJDID                         TARIK                         05091986AD141952    Pcasa                                                                     MA 13005669                3023   C1110003530000002P117PMX1101201112000000000560700227000000270000000450F1000011503201115032021000027000000  ABB 0000000000                                                                                 
1  012478AIT BOURJ                     EL HABIB                      09051986DR94526     Prue 15 apt5 taza                                                         MA 13005678                3023   C1110005910000002P300PMX1203201112000000000310500227000000150000000450F1000011504201115042021000013679366  ABB 0000000000                                                                                 
1  018030AJDID                         TARIK                         08091977DF45236     PSIDI BOUKNADEL                                                           MA 13005669                3023   C1110003500000002P300PMX0812201012000000000048600273000000020000000450F1000011501201115012021000001781121  ABB 0000000000                                                                                 
1  012478AIT BOURJ                     EL HABIB                      09051986DR94526     Prue 15 apt5 taza                                                         MA 13005678                3023   C1110005930000002P300PMX1203201112000000000242900227000000150000000450F1000011504201115042021000010701878  ABB 0000000000                                                                                 
1  020145OUASSINI                      MOHAMED                       15021970WX0023      PCASA                                                                     MA 13005682                3023   C1110003570000002P300PMX3101201112000000000078100273000000067250000450F1000011502201115022021000002860374  ABB 0000000000                                                                                 
1   11111AJDID                         TARIK                         01011960AW1100      Pres maamora                                                              MA 13005660                3023   C1110004780000002P300PMX0603201111900000002515201372000000200000000450F1000011504201115032021000018359523  ABB 0000000000                                                                                 
1        AAMOUM                        MOHAMED                       24041996FR94562     P                                                                         MA 13005674                3022   I1110004180000002P300PMX2006201029700000000896600332000000279000000341F1000032007201020062035000027007172  ABB 0000000000                                                                                 
1   15247AIT BOURJ                     EL HABIB                      09051986DR94526     PHAY ZITOUNE TAR                                                          MA 13005678                3022   I1110004140000002P300PMX1006201019700000001796800332000000600000000227F1000001507201015112026000054120323  ABB 0000000000                                                                                 
1  012478AIT BOURJ                     EL HABIB                      09051986DR94526     Prue15 n13 rabat takadoum                                                 MA 13005678                3022   I1110005370000002P300PMX0803201129700000001291400332000000500000000390F1000001504201115122035000038896753  ABB 0000000000                                                                                 
199999999EL YOUSFI                     BRAHIM                        01011960DA80448     PCasablanca Tamaris rue roudanin12365 , val d'anfa                        MA 8410539                 3022   I1110007790000002P300PMX0104201010000000017945900332000008600000000450F1000003004201031072018000540538613  ABB 0000000000                                                                                 
1  012523HADDAOUI                      MUSTAPHA                      14041990AB95632     PAIN LOUH                                                                 MA 13005845                3022   I1110004150000002P300PMX1004201030000000001377900332000000435000000420F1000001505201015042035000041503606  ABB 0000000000                                                                                 
1   15269AIT BOURJ                     EL HABIB                      09051986DR94526     P                                                                         MA 13005678                3022   I1110004100000002P300PMX1006201030000000001880200332000000600000000227F1000001507201015062035000056631398  ABB 0000000000                                                                                 
1  012478AIT BOURJ                     EL HABIB                      09051986DR94526     Prue 15 apt5 taz                                                          MA 13005678                3022   I1110005310000002P300PMX0703201130000000000608400332000000188000000450F1000001504201115032036000018324131  ABB 0000000000                                                                                 
1                                                                    01011970            P                                                                         MA 8410539                 3022   I1010000180000002P300UMX0210201012000000000000000003320007000000000341F1000003011201031102020000602816525  ABB 0000000000                                                                                 
1                                                                    01011970            P                                                                         MA                         3022   I1010001390000002P300UMX0103201030000000000000000407000000600000000227F1000003103201028022035000055885731  ABB 0000000000                                                                                 
1  012478AIT BOURJ                     EL HABIB                      09051986DR94526     Prue15 n13 rabat                                                          MA 13005678                3022   I1110005320000002P300PMX0703201125900000000808600332000000250000000390F1000001504201115102032000024356616  ABB 0000000000                                                                                 
1  215487HADDAOUI                      MUSTAPHA                      01011971AA332211    PCasablanca Tama                                                          MA 13005634                3022   I1110007740000002P300PMX1503201130000000001867700332000000577500000420F1000001504201115032036000056256115  ABB 0000000000                                                                                 
1  012542AAMOUM                        MOHAMMED                      01011990XW33221     PIMM 15 APPT 16 RES ABWAB SALE                                            MA 13005649                3023   C1110005830000002P300PMX1003201108300000000041700227000000032000000450F1000011504201115032018000001837697  ABB 0000000000                                                                                 
1 0125456BOUZAIDI                      ACHRAF                        01011980SQ21112     PAV SIDI MED BELHASSAN RUE ALLA BEN ABDELLAH APPARTEMENT 05 I             MA 13005689                3022   I1110007710000002P300PMX0110201112000000000781800332000000250000000227F1000011510201115102021000023548778  ABB 0000000000                                                                                 
1     10MRabat                                                       01011970            P                                                                         MA 8410539                 3022   I1010000100000002P300UMX0105201024000000000000000003320000600000000450F1000033105201031072030000056495373  ABB 0000000000                                                                                 
100000000HADDAOUI                      MUSTAPHA                      05091989AB6523      P                                                                         MA 13005650                3022   I1010002520000002P300PMX1002201030000000001379600332000000435000000450F1000003003201028022035000041554847  ABB 0000000000                                                                                 
1        OUASSINI                      MOHAMED                       01011975WX0023      P                                                                         MA 13005682                3022   I1010002510000002P300PMX0612201012000000000586100332000000200000000420F1000003001201130122020000017652546  ABB 0000000000                                                                                 
100000000HADDAOUI                      MUSTAPHA                      01011971AA332211    P                                                                         MA 13005634                3022   I1010002500000002P300PMX1002201030000000001379600332000000435000000450F1000003003201028022035000041554847  ABB 0000000000                                                                                 
1  012478AIT BOURJ                     EL HABIB                      09051986DR94526     Prue 15 apt5 taza                                                         MA 13005678                3023   C1110005870000002P300PMX1003201112000000000310500227000000150000000450F1000011504201115042021000013679366  ABB 0000000000                                                                                 
1   30021OUASSINI                      MOHAMED                       15021970WX0023      PNUM 10 APPT 15                                                           MA 13005682                3023   C1110004680000002P300PMX0603201111900000001204300606000000220000000250F1000011504201115032021000019873518  ABB 0000000000                                                                                 
1   28900HADDAOUI                      MUSTAPHA                      01011971AA332211    Pres maamora                                                              MA 13005634                3023   C1110003480000002P300PMX2812201012000000000182300273000000075000000450F1000011501201115012021000006679231  ABB 0000000000                                                                                 
1                                                                    01011970            P                                                                         MA 8410539                 3022   I1010000040000002P300UMX0103201012000000000000000003320000600000000450F1000003103201029022020000048518382  ABB 0000000000                                                                                 
1  015236OUASSINI                      MOHAMED                       15021970QS98546     PTEST TEST                                                                MA 13005672                3022   I1110004250000002P300PMX0103201129700000001949100332000000600000000227F1000031504201115032036000058706383  ABB 0000000000                                                                                 
1   12530AAMOUM                        MOHAMMED                      01011990XW33221     PAPPT1 RUE 5 AVENUE ALLAL IBN ADELLAH                                     MA 13005649                3022   I1110006660000002P300PMX1607200830000000001819100332000000600000000420F1000001508200815072033000054793449  ABB 0000000000                                                                                 
1  012478AIT BOURJ                     EL HABIB                      09051986DR94526     Prue15 n13 rabat takadoum                                                 MA 13005678                3022   I1110005480000002P300PMX0803201112000000000447700332000000150000000390F1000001504201115032021000013485749  ABB 0000000000                                                                                 
1   15200AIT BOURJ                     EL HABIB                      01011980VX00121     PAPPT5 IMMB8 RUE 8 AVENUE ERRAZ KENITRA                                   MA 13005687                3022   I1110006690000002P300PMX1009200818700000000851700332000000450000000227F1000011511200815062024000025652860  ABB 0000000000                                                                                 
1  010325AAMOUM                        MOHAMED                       24041996FR94562     PRABAT                                                                    MA 13005674                3022   I1110004260000002P300UMX0203201130000000000000000438600000600000000420F1000001504201115032036000058357197  ABB 0000000000                                                                                 
1   01254AAMOUM                        MOHAMED                       05041987AZ59633     PRES SALAM N 15                                                           MA 13005676                3022   I1110005470000002P300PMX0803201125000000000793000332000000250000000227F1000001504201115012032000023886767  ABB 0000000000                                                                                 
1   28152AJDID                         TARIK                         13061988A66655      PLOT EL IRAKI APPT1 AVENUE MED  RABAT                                     MA 13005635                3022   I1110006650000002P300PMX1607200830000000001835400332000000600000000450F1000011509200815092033000055246918  ABB 0000000000                                                                                 
1  010563HADDAOUI                      MUSTAPHA                      01011971AA332211    PAPPT1 IMMB8 AVENUE MOHAMED TRII CASABLANCA 20000                         MA 13005634                3022   I1110006640000002P300PMX1607200930000000001826700332000000600000000227F1000001508200915072034000055021124  ABB 0000000000                                                                                 
1   12300ASKARI                        FATIMA                        01011987A3000       Pres maamoura 12                                                          MA 13005662                3023   C1110004510000002P300PMX0503201104700000000057700227000000035000000450F1000011504201115032015000002541133  ABB 0000000000                                                                                 
1  012222EL YOUSFI                     BRAHIM                        01011960DA80448     PTEST ADRESSE                                                             MA 8410539                 3022   I1110007800000002P300UMX0712201112000000000000000203570000350000000450F1000001501201215122021000033629940  ABB 0000000000                                                                                 
1  012478AIT BOURJ                     EL HABIB                      09051986DR94526     Prue 15 apt5 taza                                                         MA 13005678                3023   C1110005730000002P300PMX1003201112000000000062100227000000030000000450F1000011504201115042021000002735870  ABB 0000000000                                                                                 
1  021445AAMOUM                        MOHAMMED                      01011980ZZ222       Ptanger                                                                   MA 13005684                3023   C1110004530000002P300PMX0503201108300000000117300273000000050000000450F1000011504201115032018000004296213  ABB 0000000000                                                                                 
1  033200ASKARI                        FATIMA                        01011991A3212       Pvilla floride bd zerktouni                                               MA 13005640                3023   C1110005740000002P300PMX1003201108300000000142300227000000073000000450F1000011504201115032018000006270382  ABB 0000000000                                                                                 
1 0254545AAMOUM                        MOHAMED                       24041996FR94562     PIMM 15 APPT 15 RES SEMIRAMIS SID HAJJI                                   MA 13005674                3023   C1110005750000002P300PMX1003201107100000000470900227000000250000000450F1000011504201115032017000020742988  ABB 0000000000                                                                                 
1  012211AAMOUM                        MOHAMED                       24041996FR94562     Pn 15 appt 06 res essafae                                                 MA 13005674                3023   C1110005700000002P300PMX1003201104700000000059300227000000036000000450F1000011504201115032015000002613738  ABB 0000000000                                                                                 
1   01201ALAOUI                        AYMANE                        05091978FR9456      Pav madagascar n 15 sala al jadda                                         MA 13005680                3023   C1110005710000002P300PMX1003201111900000000248800273000000100000000450F1000011504201115032021000009112526  ABB 0000000000                                                                                 
1  018021OUASSINI                      MOHAMED                       15021970WX0023      Pres salamat n15 appt 16                                                  MA 13005682                3023   C1110005790000002P300PMX1003201109500000000428100606000000080000000450F1000011504201115032019000007064765  ABB 0000000000                                                                                 
1  015245OUASSINI                      MOHAMED                       15021970QS98546     PSETTAT                                                                   MA 13005672                3022   I1110004360000002P300PMX1005201016600000001034100332000000350000000420F1000001506201015032024000031148145  ABB 0000000000                                                                                 
1        AIT BOURJ                     EL HABIB                      09051986DR94526     P                                                                         MA 13005678                3022   I1110005560000002P300PMX0903201130000000001611400332000000500000000341F1000001504201115032036000048537402  ABB 0000000000                                                                                 
1  012563AIT BOURJ                     EL HABIB                      09051986DR94526     PHAY EL MENZEH AVENUE DES FAR RBAT                                        MA 13005678                3022   I1110005590000002P300PMX2010201019700000000924900332000000600000000227F1000001511201015032027000027859679  ABB 0000000000                                                                                 
1  MBANQUrabat                         Marocaine                     01011970            P                                                                         MA 8410539                 3022   I1010000340000002P300UMX1808201030000000000000000407000000600000000450F1000013009201030092035000058008332  ABB 0000000000                                                                                 
1   15284AAMOUM                        MOHAMED                       24041996FR94562     PN37 CITE MILITA                                                          MA 13005674                3022   I1110004320000002P300PMX0303201130000000001922900332000000600000000227F1000001504201115032036000057917504  ABB 0000000000                                                                                 
1  012478AIT BOURJ                     EL HABIB                      09051986DR94526     Prue15 n13 rabat takadoum                                                 MA 13005678                3022   I1110005530000002P300PMX0903201130000000001459900332000000452000000390F1000001504201115032036000043974363  ABB 0000000000                                                                                 
1  010862AJDID                         TARIK                         13061988AZ9562      PN8 RUE NAHDA                                                             MA 13005909                3022   I1110004310000002P300PMX1006201030000000001208900332000000560000000227F1000001507201015062035000036412015  ABB 0000000000                                                                                 
1  012478AIT BOURJ                     EL HABIB                      09051986DR94526     Prue15 n13 rabat takadoum                                                 MA 13005678                3022   I1110005520000002P300PMX0903201128800000001453400332000000450000000450F1000001504201115032035000043776059  ABB 0000000000                                                                                 
1        AIT BOURJ                     EL HABIB                      01011990QQ3322      P                                                                         MA 13005647                3022   I1110006730000002P300PMX1005200830000000001486600332000000600000000450F1000001506200815052033000044776732  ABB 0000000000                                                                                 
1  012478AIT BOURJ                     EL HABIB                      09051986DR94526     Prue15 n13 rabat takadoum                                                 MA 13005678                3022   I1110005550000002P300PMX0803201130600000001976800332000000600000000227F1000001504201115092036000059452008  ABB 0000000000                                                                                 
1  012345EL YOUSFI                     BRAHIM                        17011994DA80448     Prabat agdal                                                              MA 8410539                 3022   I1010001590000002P300PMX0103201030000000000000001372000000300000000227F1000002003201020022035000018630048  ABB 0000000000                                                                                 
100000000ASKARI                        FATIMA                        20121978DF98523     P                                                                         MA 13005671                3022   I1010002710000002P300PMX1002201020000000000996900332000000350000000227F1000000103201001102026000030027253  ABB 0000000000                                                                                 
1  012000AJDID                         TARIK                         13061988A66655      PTEST                                                                     MA 13005635                3022   I1110005500000002P300PMX0903201115200000001071900332000000350000000227F1000000105201101122023000032285236  ABB 0000000000                                                                                 
1   00211OUASSINI                      MOHAMED                       01011990AA3322      PAPPT1 IMMB E RESIDENCE SEKKAT ABAT                                       MA 13005644                3022   I1110006710000002P300PMX1001200708400000000267100332000000150000000420F1000001502200715012014000008046559  ABB 0000000000                                                                                 
100000000OUASSINI                      MOHAMED                       01011975WX0023      P                                                                         MA 13005682                3022   I1010002730000002P300PMX1002201016600000000582700332000000200000000420F1000000103201001122023000017551268  ABB 0000000000                                                                                 
100000000AIT BOURJ                     EL HABIB                      01011990QQ3322      P                                                                         MA 13005647                3022   I1010002680000002P300PMX0102201030000000000624200332000000200000000227F1000011503201015032035000018801680  ABB 0000000000                                                                                 
1   10236AIT BOURJ                     EL HABIB                      09051986DR94526     PRABAT                                                                    MA 13005678                3022   I1110004470000002P300UMX0403201130000000000000000438600000600000000420F1000001504201115032036000058357197  ABB 0000000000                                                                                 
1  012478AIT BOURJ                     EL HABIB                      09051986DR94526     Prue15 n13 rabat takadoum                                                 MA 13005678                3022   I1110005680000002P300PMX1003201130000000001288400332000000500000000390F1000001504201115032036000038806438  ABB 0000000000                                                                                 
1  102563ASKARI                        FATIMA                        01011991A3212       PJKNJKNKJKOJ                                                              MA 13005640                3022   I1110006890000002P300PMX2005200930000000001709200332000000550000000450F1000001506200915052034000051482638  ABB 0000000000                                                                                 
1   12540AAMOUM                        MOHAMED                       24041996FR94562     PRABAT                                                                    MA 13005674                3022   I1110004460000002P300PMX0403201130000000001942900332000000600000000450F1000001504201115032036000058520073  ABB 0000000000                                                                                 
100000000AIT BOURJ                     EL HABIB                      09051986DR94526     PZZZZZZZZZZZZZZ                                                           MA 13005678                3022   I1110004490000002P300PMX1001201007200000000314100332000000150000000390F1000001502201015012016000009459448  ABB 0000000000                                                                                 
1        AAMOUM                        MOHAMED                       24041996FR94562     P                                                                         MA 13005674                3022   I1110004480000002P300PMX0403201130000000000258700332000000080000000420F1000001504201115032036000007793055  ABB 0000000000                                                                                 
1   25000BOUZAIDI                      ACHRAF                        01011980SQ21112     PFDSF                                                                     MA 13005689                3022   I1110006850000002P300PMX2001200830000000001446800332000000500000000227F1000001502200815012033000043576926  ABB 0000000000                                                                                 
1   82536SAMIR                         SAMIR                         12121999B12222      PMERS EL KHEIR N                                                          MA 13003804                3022   I1110004450000002P300PMX0403201116600000001399600332000000450000000450F1000001504201115012025000042157886  ABB 0000000000                                                                                 
1  012478EL HANAFI                     RADIA                         05091979D159463     Prue15 n13 rabat takadoum                                                 MA 13006306                3022   I1110005660000002P300PMX1003201130000000001615000332000000500000000390F1000001504201115032036000048644206  ABB 0000000000                                                                                 
1   15236WAKIL                         BILAL                         12041990IE506050    PAPPT5 IMMB8                                                              MA 13005340                3022   I1110004440000002P300PMX0403201127900000001819600332000000600000000227F1000001504201115062034000054807078  ABB 0000000000                                                                                 
1   15123EL YAZGHI                     TAHAR                         08091980XX95236     PRUE EL BYROUNI AVENUE LA RESISANCE N 5 IMM B9 RABAT                      MA 13006305                3022   I1110005650000002P300PMX1010201030000000001899300332000000600000000227F1000001511201015102035000057206446  ABB 0000000000                                                                                 
1  125300OUASSINI                      MOHAMED                       01011990AA3322      PTEST                                                                     MA 13005644                3022   I1110006830000002P300PMX2001200730000000001753300332000000600000000450F1000001502200715012032000052809229  ABB 0000000000                                                                                 
1        EL YOUSFI                     BRAHIM                        17011994DA80448     P                                                                         MA 13005685                3023   C1110003920000002P300PMX0103201011900000000186200227000000100000000450F1000013103201029022020000008202869  ABB 0000000000                                                                                 
199998888EL YOUSFI                     BRAHIM                        17011994DA80448     PBouskoura Ville                                                          MA 13005664                3022   I1110004580000002P300PMX0101201012000000001546600332000000600000000227F1000003101201031122019000046585463  ABB 0000000000                                                                                 
1 0108452ASKARI                        FATIMA                        20121978AD845213    PAVENUE EL OUARD                                                          MA 13005670                3022   I1110004570000002P300PMX0603201115200000001065300332000000350000000227F1000001504201115112023000032087797  ABB 0000000000                                                                                 
1 0105236HADDAOUI                      MUSTAPHA                      14041990AB95632     PRABAT                                                                    MA 13005845                3022   I1110004540000002P117PMX0603201130000000001134000332000000350000000420F1000001504201115032036000035000000  ABB 0000000000                                                                                 
1   12231AJDID                         TARIK                         08061989RT9455      P                                                                         MA 13005657                3022   I1110003350000002P300PMX1002201030000000001196200332000000560000000227F1000001503201015022035000036031381  ABB 0000000000                                                                                 
1  015325AJDID                         TARIK                         13061988AZ9562      PAVENUE 5 N8                                                              MA 13005909                3022   I1110004560000002P300PMX0603201129700000001482200332000000450000000450F1000031504201115032036000044644131  ABB 0000000000                                                                                 
1  012365OUASSINI                      MOHAMED                       15021970QS98546     PAVENUE KHANSAE                                                           MA 13005672                3022   I1110004550000002P300PMX0603201116600000000622100332000000200000000450F1000001504201115012025000018736836  ABB 0000000000                                                                                 
1   15000BOUZAIDI                      ACHRAF                        01011980SQ21112     PAZE                                                                      MA 13005689                3022   I1110006920000002P300PMX1001200819800000001283500332000000600000000450F1000001502200815072024000038659270  ABB 0000000000                                                                                 
1  012345AJDID                         TARIK                         01011960AW1100      Prabat agdal                                                              MA 13005660                3023   C1210007820000002P300PMX0201201206000000000129401372000000010000000450F1000001503201215022017000000943077  ABB 0000000000                                                                                 
1   12000AIT BOURJ                     EL HABIB                      01011980VX00121     PSRFEFR                                                                   MA 13005687                3022   I1110006910000002P300PMX0109200830600000001857100332000000600000000450F1000001510200815032034000055936947  ABB 0000000000                                                                                 
1  012478AIT BOURJ                     EL HABIB                      09051986DR94526     Prue 15 apt5 taz                                                          MA 13005678                3022   I1110005720000002P300PMX1003201130000000001938000332000000600000000390F1000001504201115032036000058373049  ABB 0000000000                                                                                 
1   54202OUASSINI                      MOHAMED                       01011990AA3322      PQSDQS                                                                    MA 13005644                3022   I1110006930000002P300PMX0102200730000000001355500332000000600000000227F1000001503200715022032000040829173  ABB 0000000000                                                                                 
1        EL YOUSFI                     BRAHIM                        17011994DA80448     P                                                                         MA 8410539                 3022   I1010001760000002P300PMX0101201030000000000000000332000000600000000227F1000003101201031122034000055540008  ABB 0000000000                                                                                 
1  018030AJDID                         TARIK                         05091986AD141952    PABB                                                                      MA 13005667                3023   C1110003830000002P117PMX1201201112000000000041500227000000020000000450F1000011503201115032021000002000000  ABB 0000000000                                                                                 
1  125400AAMOUM                        MOHAMMED                      01011990XW33221     PKJKMLM                                                                   MA 13005649                3022   I1110006900000002P300PMX2607200830000000001766700332000000600000000227F1000001508200815072033000053215089  ABB 0000000000                                                                                 
1  123456EL YOUSFI                     BRAHIM                        17011994DA80448     P                                                                         MA 8410539                 3022   I1010001680000002P300PMX0612201030000000000000000227000000300000000227F1000003112201030112035000019069238  ABB 0000000000                                                                                 
1   15230ALAOUI                        AYMANE                        05091978FR9456      P                                                                         MA 13005680                3022   I1110003470000002P300PMX1202201017300000001162900332000000560000000420F1000001503201015072024000035027194  ABB 0000000000                                                                                 
1  013333AJDID                         TARIK                         13061988A66655      PTEST TEST                                                                MA 13005635                3022   I1110005890000002P300PMX0104201130000000000879500332000000270000000227F1000030105201101072036000026492045  ABB 0000000000                                                                                 
1  013953EL YOUSFI                     BRAHIM                        17011994DA80448     P                                                                         MA 8410539                 3022   I1010001670000002P300PMX0612201030000000000000000227000000500000000227F1000003112201030112035000047673089  ABB 0000000000                                                                                 
1   12344HADDAOUI                      MUSTAPHA                      14041990RC94632     Pres maamora                                                              MA 13005653                3023   C1110004900000002P300PMX0503201111900000000196400227000000095000000450F1000011504201115032021000008654166  ABB 0000000000                                                                                 
1   15236HAMMANI                       ANAS                          05041987DR9456      P                                                                         MA 13005685                3022   I1110003490000002P300PMX1203201030000000001901600332000000600000000420F1000001504201015032035000057276791  ABB 0000000000                                                                                 
1  105263AIT BOURJ                     EL HABIB                      09051986DR94526     PRABAT                                                                    MA 13005678                3022   I1110004650000002P300PMX0603201130000000001942900332000000600000000450F1000001504201115032036000058520073  ABB 0000000000                                                                                 
1  012478AIT BOURJ                     EL HABIB                      09051986DR94526     Prue 15 apt5 taz                                                          MA 13005678                3022   I1110005860000002P300PMX1003201130000000001615000332000000500000000390F1000001504201115032036000048644206  ABB 0000000000                                                                                 
1   56210ALAOUI                        AYMANE                        05091978FR9456      P                                                                         MA 13005680                3022   I1110003430000002P300PMX1502201015000000000770100332000000262500000420F1000001503201015082022000023196720  ABB 0000000000                                                                                 
1 0104823AAMOUM                        MOHAMED                       24041996FR94562     PRABAT CENTRE                                                             MA 13005674                3022   I1110004640000002P300PMX0603201130000000001121700332000000350000000227F1000001504201115032036000033785217  ABB 0000000000                                                                                 
1   15263ALAOUI                        AYMANE                        05091978FR9456      P                                                                         MA 13005680                3022   I1110003450000002P300PMX1206201014400000000761800332000000262500000420F1000001507201015062022000022945393  ABB 0000000000                                                                                 
1    1233HADDAOUI                      MUSTAPHA                      01011990AA332211    Pres maamora                                                              MA 13005654                3023   C1010001960000002P300PMX0801201012000000000295900000000000150000000450F0000001503201015022020000013035367  ABB 0000000000                                                                                 
1  020145AJDID                         TARIK                         08091977DF45236     PCASA                                                                     MA 13005669                3023   C1110004950000002P300PMX1503201107100000001132900273000000500000000450F1000011504201115032017000041499931  ABB 0000000000                                                                                 
100000000OUASSINI                      MOHAMED                       01011975WX0023      P                                                                         MA 13005682                3022   I1010002820000002P300UMX0103201030000000000000000438600000600000000420F1000000104201001032035000057913455  ABB 0000000000                                                                                 
1        ALAOUI                        AYMANE                        05091978FR9456      P                                                                         MA 13005680                3022   I1110003400000002P300PMX1502201012000000000263400332000000100000000227F1000003103201029022020000007932608  ABB 0000000000                                                                                 
1  012478AIT BOURJ                     EL HABIB                      09051986DR94526     Pn 15 apt 12 rue                                                          MA 13005678                3022   I1110004610000002P300UMX1001201012000000000000000203570000200000000227F1000001502201015012020000015613551  ABB 0000000000                                                                                 
1  012478AJDID                         TARIK                         01011960AW1100      Prue 15 apt5 TAZA rue 15 apt5 TZA rue 15 apt5 TAZA TEST 1 TES             MA 13005678                3023   C1110004960000002P300PMX0110201101200000094647101372000000250000000450F1000011511201115112012000013911503  ABB 0000008000                                                                                 
1   28288EL YOUSFI                     BRAHIM                        17011994DA80448     PMENZAH ZEIR                                                              MA 8410539                 3022   I1010001600000002P300PMX0104201028000000000000000227000000500000000227F1000003004201030072033000046374478  ABB 0000000000                                                                                 
1  215487EL YOUSFI                     BRAHIM                        01011960DA80448     PCasablanca Tama                                                          MA 13005649                3023   C1210007960000002P300PMX0704201005600000003510401372000000446000000450F1000011504201015122014000025586059  ABB 0000000000                                                                                 
1 0105892HADDAOUI                      MUSTAPHA                      14041990AB95632     PRUE MARASSA BAB                                                          MA 13005845                3022   I1110004630000002P300PMX0603201130000000001453500332000000450000000390F1000001504201115032036000043779790  ABB 0000000000                                                                                 
1  012478AIT BOURJ                     EL HABIB                      09051986DR94526     Prue 15 apt5 taz                                                          MA 13005678                3023   C1110004980000002P300PMX0503201108800000000059200227000000030000000450F1000011504201115082018000002606301  ABB 0000000000                                                                                 
1  215487EL YOUSFI                     BRAHIM                        01011960DA80448     PCasablanca Tama                                                          MA 13005649                3023   C1210007950000002P300PMX0704201005600000003517101372000000446000000900F1000011504201015122014000025634479  ABB 0000000000                                                                                 
199998888EL YOUSFI                     BRAHIM                        17011994DA80448     PBouskoura Ville                                                          MA 13005664                3022   I1110004620000002P300PMX0101201025000000041670400332000000600000000227F1000003101201031102030000027835862  ABB 0000001100                                                                                 
1   01254EL YOUSFI                     BRAHIM                        17011994DA80448     Ptemara                                                                   MA 8410539                 3022   I1010001630000002P300PMX0104201030000000000000000227000000400000000227F1000003105201030042035000037454564  ABB 0000000000                                                                                 
1  012478AIT BOURJ                     EL HABIB                      09051986DR94526     Prue 15 apt5 taz                                                          MA 13005678                3023   C1110004990000002P300PMX0603201108000000000154800227000000080000000450F1000011504201115122017000006819823  ABB 0000000000                                                                                 
1  152369AAMOUM                        MOHAMED                       24041996FR94562     PHAY LINBIAT IMMEUBLE 5 APPARTEENT10  AVENUE MOHAMMED V SALE              MA 13005674                3022   I1110005970000002P300PMX1403201130300000001973300332000000600000000420F1000001504201115062036000058762190  ABB 0000000000                                                                                 
1   15263HADDAOUI                      MUSTAPHA                      14041990AB95632     P                                                                         MA 13005845                3022   I1110003540000002P300PMX1212201030000000001131200332000000350000000450F1000001501201115122035000034073477  ABB 0000000000                                                                                 
1   01254OUASSINI                      MOHAMED                       15021970WX0023      PAVENUE DES FAR N 15                                                      MA 13005682                3022   I1110005960000002P300PMX0304201120000000000789100332000000250000000227F1000011505201115012028000023715261  ABB 0000000000                                                                                 
1        AIT BOURJ                     EL HABIB                      09051986DR94526     P                                                                         MA 13005678                3022   I1110005990000002P300PMX1403201130000000000485700332000000400000000450F1000001504201115032036000014630021  ABB 0000000000                                                                                 
1  011111ZNATI                         AMINA                         14051980AD15236     P                                                                         MA 13005840                3022   I1110003560000002P300UMX1112201008400000000000000203570000150000000227F1000001501201115122017000012002451  ABB 0000000000                                                                                 
1  125403AIT BOURJ                     EL HABIB                      09051986DR94526     PRUE LALLA YAKOUT  AVENUE HASSA2                                          MA 13005678                3022   I1110005980000002P006PMX1403201125600000001770600332000000600000000420F1000001504201130062012000060000000  ABB 0000000000                                                                                 
1  012369AJDID                         TARIK                         13061988A66655      P                                                                         MA 13005635                3022   I1110003510000002P300PMX1212201030000000001122200332000000350000000450F1000001501201115122035000033800489  ABB 0000000000                                                                                 
1  012478AIT BOURJ                     EL HABIB                      09051986DR94526     PQUARTIER 1 VILLE2 RUE 9 CASA B                                           MA 13005678                3022   I1110005900000002P300PMX1203201130000000001938000332000000600000000390F1000001504201115032036000058373049  ABB 0000000000                                                                                 
1   14263AJDID                         TARIK                         13061988A66655      P                                                                         MA 13005635                3022   I1110003690000002P300PMX1402201130000000001939500332000000600000000450F1000003003201129022036000058417857  ABB 0000000000                                                                                 
1        EL YOUSFI                     BRAHIM                        17011994DA80448     P                                                                         MA 13005685                3022   I1110003660000002P300UMX3003201024000000000000000303570000500000000227F1000003004201031032030000045537885  ABB 0000000000                                                                                 
1        EL YOUSFI                     BRAHIM                        17011994DA80448     P                                                                         MA 13005685                3022   I1110003650000002P300PMX1501201030000000001859000332000000600000000227F1000002802201031012035000055992955  ABB 0000000000                                                                                 
1  012478AAMOUM                        MOHAMMED                      01011985XW9002      Prue 15 apt5 taz                                                          MA 13005678                3022   I1110004860000002P300PMX0603201112000000000597000332000000200000000390F1000001504201115032021000017980988  ABB 0000000000                                                                                 
1        EL YOUSFI                     BRAHIM                        17011994DA80448     P                                                                         MA 13005685                3022   I1110003680000002P300PMX0102201030000000001270300332000000400000000450F1000003103201028022035000038263018  ABB 0000000000                                                                                 
1        EL YOUSFI                     BRAHIM                        17011994DA80448     P                                                                         MA 13005664                3022   I1110003640000002P300PMX0101201030000000001858300332000000600000000227F1000003101201031122034000055973533  ABB 0000000000                                                                                 
1        AJDID                         TARIK                         01011990A66655      P                                                                         MA 13005635                3022   I1010001860000002P300PMX0102201030000000000256500332000000080000000341F1000000104201001032035000007725404  ABB 0000000000                                                                                 
1                                                                    01011970            P                                                                         MA 8410539                 3022   I1010000640000002P300UMX2008201030000000000000000003320000600000000450F1000003009201031082035000057687701  ABB 0000000000                                                                                 
1        AJDID                         TARIK                         01011990A66655      P                                                                         MA 13005635                3022   I1010001850000002P117PMX0102201030000000000638200332000000600000000227F1000000103201001022035000019809275  ABB 0000000000                                                                                 
1   15230ASKARI                        FATIMA                        20121968AD845213    P                                                                         MA 13005670                3022   I1110003790000002P300PMX0601201115200000001045600332000000350000000227F1000003001201130082023000031492617  ABB 0000000000                                                                                 
1        AJDID                         TARIK                         13061988A66655      P                                                                         MA 13005635                3022   I1110003730000002P300PMX1402201130000000000258600332000000080000000450F1000003003201129022036000007789052  ABB 0000000000                                                                                 
1  012478AAMOUM                        MOHAMMED                      01011990SQ33200     Prue 15 apt5 taz                                                          MA 13005678                3022   I1110004940000002P300UMX0503201112000000000000000203570000500000000390F1000001504201115032021000044856572  ABB 0000000000                                                                                 
1  MBANQURabat                         Marocaine                     01011970            P                                                                         MA 8410539                 3022   I1010000920000002P300UMX0204201012000000000000000003320000400000000227F1000000105201001042020000032180530  ABB 0000000000                                                                                 
1  MSalarRabat                         Marocaine                     01011970            P                                                                         MA 8410539                 3022   I1010000970000002P300UMX0103201030000000000000000003320000230000000227F1000003103201028022035000021422863  ABB 0000000000                                                                                 
1  012478AIT BOURJ                     EL HABIB                      01011980VX00121     Prue 15 apt5 taz                                                          MA 13005678                3022   I1110004920000002P300UMX0503201112000000000000000203570000150000000390F1000001504201115032021000013456969  ABB 0000000000                                                                                 
1                                                                    01011970            P                                                                         MA 8410539                 3022   I1010000900000002P300UMX0105201030000000000000000449740000600000000450F1000003105201030042035000057267344  ABB 0000000000                                                                                 
1        EL YOUSFI                     BRAHIM                        17011994DA80448     P                                                                         MA 13005685                3022   I1110003890000002P300UMX0101201024000000000000000303570000500000000227F1000003101201031122029000045026458  ABB 0000000000                                                                                 
1   18263OUASSINI                      MOHAMED                       15021970QS98546     P                                                                         MA 13005672                3022   I1110003990000002P300PMX1001201116600000000607500332000000200000000227F1000001502201115112024000018299659  ABB 0000000000                                                                                 
1  152869AJDID                         TARIK                         08091977DF45236     P                                                                         MA 13005669                3022   I1110003950000002P300PMX1005201030000000001593300332000000560000000227F1000001506201015052035000047992204  ABB 0000000000                                                                                 
1        EL YOUSFI                     BRAHIM                        17011994DA80448     P                                                                         MA 13005685                3022   I1110003960000002P300PMX0101201024000000001351000332000000600000000227F1000033101201031032030000040693183  ABB 0000000000                                                                                 
1        EL YOUSFI                     BRAHIM                        17011994DA80448     P                                                                         MA 13005685                3022   I1110003910000002P300PMX0101201030000000001853900332000000600000000227F1000003101201031122034000055840356  ABB 0000000000                                                                                 
1        EL YOUSFI                     BRAHIM                        17011994DA80448     P                                                                         MA 13005685                3022   I1110003900000002P300PMX0101201030000000001879900332000000600000000227F1000033101201031032035000056623816  ABB 0000000000                                                                                 
1  152369ASKARI                        FATIMA                        20121978DF98523     P                                                                         MA 13005671                3022   I1110003930000002P300PMX1006201030000000001880200332000000600000000227F1000003007201030062035000056631398  ABB 0000000000                                                                                 
1  020145BURGUN                        Pierre                        08091977DF45236     PCASA                                                                     MA 13005669                3023   C0000000000000002P300UMX1001201012000000000030000000000007000000000450F1000003101201031122019000039520431  ABB 0000000000                                                                                 
1  029360AJDID                         TARIK                         08091977DF45236     PLAAYOUNE                                                                 MA 13005669                3023   C1010003090000002P300PMX0612201012000000001470700606000000270000000450F1000011501201115012021000024269343  ABB 0000000000                                                                                 
1  029359AJDID                         TARIK                         05091986AD141952    PBLOC A NO 12 HA                                                          MA 13005667                3023   C1010003080000002P300PMX0612201012000000000658900273000000270000000450F1000011501201115012021000024135405  ABB 0000000000                                                                                 
1  018030AJDID                         TARIK                         05091986AD141952    PSIDI BOUKNADEL                                                           MA 13005667                3023   C1010003110000002P300PMX0612201012000000000658900273000000270000000450F1000011501201115012021000024135405  ABB 0000000000                                                                                 
1   01233HADDAOUI                      MUSTAPHA                      01011991DD55500     Pres maamora                                                              MA 13005654                3023   C1010003180000002P300PMX0801201012000000000358100273000000150000000450F1000001502201015012020000013117833  ABB 0000000000                                                                                 
1  012563ASKARI                        FATIMA                        20121978DF98523     PAVENUE MOULAY ISMAIL HASSAN RAAT 10000                                   MA 13005647                3022   I1210007990000002P300PMX1003201030000000001896900332000000600000000420F1000001504201015032035000057134335  ABB 0000000000                                                                                 
1  010852AIT BOURJ                     EL HABIB                      09051986DR94526     PGFGFTHY                                                                  MA 13005678                3022   I1210007920000002P300PMX1001201030000000001889400332000000600000000420F1000001502201015012035000056908941  ABB 0000000000                                                                                 
1        TERER                         DF DFDG                       10101987AZ12355     P                                                                         MA 8410539                        BBb781ca0260a10000002P300UMX1001201012000000001135000002270007000000000450F1000001212202212112032000050000000  ABB 0000000000                                                                                 
1   01222ASKARI                        FATIMA                        01011987A3000       PN 15 APPT 16 AGDAL                                                       MA 13005662                3023   C1110007060000002P300PMX1006201111900000000740000227000000350000000450F1000011507201115062021000032468997  ABB 0000000000                                                                                 
1   01254EL ALAOUI                     MERYEM                        01011990DE554       PTEST                                                                     MA 9402343                 3022   I1210007860000002P300UMX0201201230000000000000000438600000500000000600F1000003003201228022037000049709224  ABB 0000000000                                                                                 
1   01222EL ALAOUI                     MERYEM                        01011990DE554       PTEST TEST TEST                                                           MA 9402343                 3022   I1210007850000002P300PMX0201201220100000000989100332000000300000000600F1000012902201230102028000029793374  ABB 0000000000                                                                                 
1  215487LINA                          LINA                          01011990DF111       PCasablanca Tama                                                          MA 13005649                3022   I1210007830000002P300PMX1505201130000000001876300332000000577500000450F1000001505201115042036000056513578  ABB 0000000000                                                                                 
1  012563AIT BOURJ                     EL HABIB                      01011990QQ3322      PAPPT 1 IMMB8  AVENUE 10 RABAT                                            MA 13005647                3022   I1210008810000002P300PMX1004201030000000000950300332000000300000000420F1000001505201015042035000028623166  ABB 0000000000                                                                                 
1  152360SALHAOUI                      ANASS                         24021999P340448     PSDDS                                                                     MA 13052879                3022   I1210009910000002P300PMX1006201030000000002837100332000000900000000300F1000001507201015062035000085453386  ABB 0000000000                                                                                 
1  152360SALHAOUI                      ANASS                         24021999P340448     PAVENUE HASSAN 2                                                          MA 13052879                3022   I1210009900000002P300PMX1006201030000000002188400332000000700000000200F1000001507201015062035000065916711  ABB 0000000000                                                                                 
1    1234AJDID                         TARIK                         08091977DF45236     PFES                                                                      MA 13005669                3023   C1110004060000002P300PMX2401201105100000000020000273000000010000000450F1000011503201115062015000000731671  ABB 0000000000                                                                                 
1  029359EL YOUSFI                     BRAHIM                        17011994DA80448     P                                                                         MA 13005685                3023   C1110004070000002P300PMX0101201012000000000183200227000000100000000450F1000013101201031012020000008037591  ABB 0000000000                                                                                 
1   28002OUASSINI                      MOHAMED                       15021970WX0023      PRES SALAM N 15                                                           MA 13005682                3023   C1110005210000002P300PMX0603201108700000000301000606000000055000000450F1000001504201115072018000004967256  ABB 0000000000                                                                                 
1  021444AAMOUM                        MOHAMED                       24041996FR94562     PRES SALAM N 15                                                           MA 13005674                3023   C1110005220000002P300PMX0603201112300000000447200227000000210000000450F1000001504201115072021000019700514  ABB 0000000000                                                                                 
1  745210AIT BOURJ                     EL HABIB                      09061988ZD9452      PVGXFGFDGFDGD                                                             MA 13005679                3023   C1210008060000002P300PMX1103201012000000000650000227000000350000000450F1000001504201015032020000028633508  ABB 0000000000                                                                                 
1  362001ALAOUI                        AYMANE                        05091978FR9456      PFXDGFDSF                                                                 MA 13005680                3023   C1210008050000002P300PMX1103201012000000000670400273000000300000000450F1000001504201015032020000024555847  ABB 0000000000                                                                                 
1  152361LEKHLIFI                      FADOUA                        01012000GK150113    PAVENUE HASSAN 2                                                          MA 13050248                3022   I1210009880000002P300PMX1006201030000000002188400332000000700000000200F1000001507201015062035000065916711  ABB 0000000000                                                                                 
1  152360LEKHLIFI                      FADOUA                        01012000GK150113    PAVENUE HASSAN 2                                                          MA 13050248                3022   I1210009890000002P300PMX1006201030000000002837100332000000900000000300F1000001507201015062035000085453386  ABB 0000000000                                                                                 
1  152360SAFAE                         FAYZ                          02012000C110145     PAVENUE EL ABTAL                                                          MA 13051640                3022   I1210009870000002P300PMX1006201030000000002837100332000000900000000300F1000001507201015062035000085453386  ABB 0000000000                                                                                 
1  152360SAFAE                         FAYZ                          02012000C110145     PAPPT 1 IMMB8 10000 RABAT                                                 MA 13051640                3022   I1210009850000002P300PMX1006201030000000002188400332000000700000000200F1000001507201015062035000065916711  ABB 0000000000                                                                                 
1  251425AJDID                         TARIK                         05091986AD141952    PAPPT 1 HAY NARJIS RESIDENCE OU KELTOUM AVENUE BENABOUD RABAT             MA 13005667                3022   I1210008620000002P300PMX1001201230000000001976000332000000600000000450F1000001502201215012037000059517617  ABB 0000000000                                                                                 
100000000AJDID                         TARIK                         01011990A66655      Pres maamora                                                              MA 13005635                3023   C1010002550000002P300PMX0801201012000000000522300273000000220000000450F1000001503201015022020000019133331  ABB 0000000000                                                                                 
100000000AJDID                         TARIK                         01011990A66655      Pres maamora                                                              MA 13005635                3023   C1010002540000002P300PMX0801201012000000000142500273000000060000000450F1000001503201015022020000005218177  ABB 0000000000                                                                                 
1   MSansEL YOUSFI                     BRAHIM                        17011994DA80448     Paaa                                                                      MA 13005648                3023   C1010001310000002P300PMX0101201012000000000180800227000000600000000450F1000003101201031122019000007965412  ABB 0000000000                                                                                 
1   01254AJDID                         TARIK                         01011980EZ22110     P2 res 5 sale                                                             MA 13005659                3023   C1110005130000002P300PMX0603201111900000000472700273000000190000000450F1000011504201115032021000017313783  ABB 0000000000                                                                                 
1   12945ASKARI                        FATIMA                        01011991A3212       PAPPT 1 IMMB5 AVENUE LALLA ASMA RABAT                                     MA 13005640                3022   I1210008580000002P300PMX1001201230000000001711200332000000600000000450F1000001502201215012037000051533353  ABB 0000000000                                                                                 
1  018652AAMOUM                        MOHAMMED                      01011990XW33221     PAPPT 1 IMMB8 AVENUE ALLAL IBN BDELLAH RABAT                              MA 13005649                3022   I1210008590000002P300PMX1001201221800000001638400332000000600000000420F1000001502201215032030000049349944  ABB 0000000000                                                                                 
1  289563AJDID                         TARIK                         13061988AZ9562      PRUE SEDRATI AVENUE EL JOULANE BENIMELLAL                                 MA 13005667                3022   I1210008570000002P300PMX1001201230000000121975200332000000600000000420F1000001502201215012037000059493391  ABB 0000000000                                                                                 
1   01254ASKARI                        FATIMA                        01011991A3212       PAVENUE ALLAL IBN ABDELLAH NUM 5 APPT 16 ETG 10 RUE ALLAH BEN             MA 13005640                3023   C1110007400000002P300PMX0110201111900000000326300227000000150000000450F1000011511201115102021000014315731  ABB 0000000000                                                                                 
1  028745AJDID                         TARIK                         01011980EZ22110     Pres agdal n 15                                                           MA 13005659                3023   C1110005030000002P300PMX0603201108300000000445700273000000190000000450F1000011504201115032018000016325588  ABB 0000000000                                                                                 
1  055221AJDID                         TARIK                         01011960AW1100      PRES 04 N 5                                                               MA 13005660                3023   C1110005040000002P300PMX0603201104700000000250801372000000025000000450F1000011504201115032015000001830753  ABB 0000000000                                                                                 
1   23650BENALI                        BENALI                        01041971A22         PAPPT1 IMMB8 AVENUE 5 RABAT 1000                                          MA 13052521                3023   C1210009030000002P300PMX3011201012000000000481200606000000090000000450F1000001512201015112020000007941016  ABB 0000000000                                                                                 
1  012478AIT BOURJ                     EL HABIB                      09051986DR94526     Prue 15 apt5 taz                                                          MA 13005678                3023   C1110005060000002P300PMX0603201108100000000116400227000000060000000450F1000011504201115012018000005128152  ABB 0000000000                                                                                 
1  010893BEN ALI                       HAMID                         05081969AA112       PAPPT1 IMMB8 AVENUE 5 RABAT 1000                                          MA 13052519                3023   C1210009020000002P300PMX2911200909600000000135900606000000030000000450F1000011501201015012018000002232273  ABB 0000000000                                                                                 
1 0125466AAMOUM                        MOHAMMED                      01011990XW33221     Pvilla floride bd zerktouni TES TEST TEST TEST XXXXXXXXXXXXXX             MA 13005649                3023   C1110007410000002P300PMX0110201108400000217134100227000000500000000450F1000011511201115112018000049567386  ABB 0000005000                                                                                 
1  012478AIT BOURJ                     EL HABIB                      09051986DR94526     Prue 15 apt5 taz                                                          MA 13005678                3023   C1110005000000002P300PMX0603201108100000000149400227000000077000000450F1000011504201115012018000006581130  ABB 0000000000                                                                                 
1  012478AIT BOURJ                     EL HABIB                      09051986DR94526     Prue 15 apt5 taz                                                          MA 13005678                3023   C1110005010000002P300PMX0603201108100000000291000227000000150000000450F1000011504201115012018000012820371  ABB 0000000000                                                                                 
1   01254AJDID                         TARIK                         01011980EZ22110     PAVENUE ALLAL IBN ABDELLAH TESTTEST TEST TEST TEST TEST TEST              MA 13005659                3023   C1110007430000002P300PMX0110201111900000004140400273000001600000000450F1000011510201115092021000151663426  ABB 0000000000                                                                                 
1  010988BOUZAIDI                      ACHRAF                        01011980SQ21112     Pimm ghandi appt 15 etg 1 rue e qastaoui N15 test test test C             MA 13005689                3023   C1110007440000002P300PMX0110201102300000000087100273000000045000000450F1000011511201115102013000003178195  ABB 0000000000                                                                                 
1  215487EL YOUSFI                     BRAHIM                        01011960DA80448     PCasablanca Tama                                                          MA 13005649                3022   I1110007080000002P300PMX3101201012000000001873700332000000800000000420F1000003101201031122019000056435715  ABB 0000000000                                                                                 
1    2145BENALI                        KHALID                        20031972AA11        PAPPT1 IMMB8 AVENUE 5 RABAT 1000                                          MA 13052515                3023   C1210009040000002P300PMX0612201006000000000059600273000000030000000450F1000001501201115122015000002181389  ABB 0000000000                                                                                 
1  125300AIT BOURJ                     EL HABIB                      01011980VX00121     PAPPT1 IMMB 5 RESIDENCE NOUR RU EL YASSAMINE AVENUE ENNAJAH 1             MA 13005687                3022   I1110007050000002P300PMX1009200930000000001836500332000000600000000227F1000001510200915092034000055317086  ABB 0000000000                                                                                 
100000000AJDID                         TARIK                         01011990A66655      Pres maamora                                                              MA 13005635                3023   C1010002720000002P300PMX0801201006000000000054600273000000030000000450F1000001503201015022015000002000986  ABB 0000000000                                                                                 
1  012345HADDAOUI                      MUSTAPHA                      01011991DD55500     Pres maamora                                                              MA 13005654                3023   C1010003190000002P300PMX0801201012000000000119400273000000050000000450F1000001502201015012020000004372621  ABB 0000000000                                                                                 
1        AIT BOURJ                     EL HABIB                      01011980VX00121     P                                                                         MA 13005687                3022   I1010003170000002P300UMX3112201010500000000000000130780000200000000450F1000001501201115092019000017986967  ABB 0000000000                                                                                 
1   28653HADDAOUI                      MUSTAPHA                      01011971AA332211    Ptest adresse                                                             MA 13005634                3022   I1210009570000002P300PMX1005201030000000002182600332000000700000000200F1000001506201015052035000065741930  ABB 0000000000                                                                                 
1   28653HADDAOUI                      MUSTAPHA                      01011971AA332211    Pdsfrsdsdr                                                                MA 13005634                3022   I1210009580000002P300PMX1005201030000000002201500332000000700000000300F1000001506201015052035000066310649  ABB 0000000000                                                                                 
1  010802HADDAOUI                      MUSTAPHA                      09102000RC94632     P                                                                         MA 13005653                3022   I1010003120000002P300PMX1002201030000000001265500332000000400000000420F1000001503201015022035000038118300  ABB 0000000000                                                                                 
1   12500AIT BOURJ                     EL HABIB                      01011990QQ3322      Plot nassim al bahr mahdia  kentra                                        MA 13005647                3022   I1210008310000002P300PMX1001201212000000001606200332000000500000000420F1000001502201215012022000048378105  ABB 0000000000                                                                                 
1   12345OUASSINI                      MOHAMED                       15021970WX0023      PRES MAAMORA 12                                                           MA 13005682                3023   C1110004400000002P300PMX0403201104900000000067800606000000035000000680F1000011504201120052015000001118864  ABB 0000000000                                                                                 
1   01254OUASSINI                      MOHAMED                       15021970WX0023      Pvilla floride bd zerktouni                                               MA 13005682                3023   C1110005610000002P300PMX0903201108300000000782900606000000150000000450F1000011504201115032018000012919410  ABB 0000000000                                                                                 
1  011215HADDAOUI                      MUSTAPHA                      01011990QD1100      Pvilla floride bd zerktouni                                               MA 13005655                3023   C1110006820000002P300PMX0101200911900000000106600227000000065000000450F1000011502200915012019000004677567  ABB 0000000000                                                                                 
1 0254545ASKARI                        FATIMA                        01011987A3000       Pvilla floride bd zerktouni                                               MA 13005662                3023   C1110005620000002P300PMX0903201108300000000273000227000000140000000450F1000011504201115032018000012025410  ABB 0000000000                                                                                 
1  321211AAMOUM                        MOHAMMED                      01011980ZZ222       PN 5 APT 6 AGD                                                           MA 13005684                3023   C1110004420000002P300PMX0403201106200000000252900273000000150000000450F1000011504201115062016000009263570  ABB 0000000000                                                                                 
1  012478AIT BOURJ                     EL HABIB                      09051986DR94526     Prue 15 apt5 taza                                                         MA 13005678                3023   C1110005630000002P300PMX0903201107200000000283500227000000150000000450F1000011504201115042017000012487978  ABB 0000000000                                                                                 
1   02122AIT BOURJ                     EL HABIB                      01011980VX00121     PN 15 APPT 16 AGDAL                                                       MA 13005655                3023   C1110006800000002P300PMX0101201012000000000266900273000000120000000450F1000011502201015022020000009736617  ABB 0000000000                                                                                 
1   01254OUASSINI                      MOHAMED                       15021970WX0023      Pvilla floride bd zerktouni                                               MA 13005682                3023   C1110005600000002P300PMX0903201111900000001383700606000000250000000450F1000011504201115032021000022832860  ABB 0000000000                                                                                 
1  012478AIT BOURJ                     EL HABIB                      09051986DR94526     Prue 15 apt5 taza                                                         MA 13005678                3023   C1110005690000002P300PMX1003201112000000000310500227000000150000000450F1000011504201115042021000013679366  ABB 0000000000                                                                                 
1   12500EL HAIMADI                    AMAL                          09101975RG85423     PAPPT1 IMMB8 AVENUE ESSALAM RABT                                          MA 13005399                3023   C1210008460000002P300PMX1001201210000000000262000273000000100000000450F1000001502201215052020000009597309  ABB 0000000000                                                                                 
1  125454AJDID                         TARIK                         13061988A66655      PAVENUE ALLAL IBN ABDELLAH                                                MA 13005635                3023   C1110006860000002P300PMX0101200808400000000145100227000000150000000450F1000011502200815022015000006367100  ABB 0000000000                                                                                 
1    1234HADDAOUI                      MUSTAPHA                      01011971AA332211    Pres maamora                                                              MA 13005635                3023   C1010003280000002P300PMX0801201012000000000733101372000000060000000450F1000001502201015012020000005350936  ABB 0000000000                                                                                 
1  362001AJDID                         TARIK                         15091975A66655      PAVENUE MOULAY ISMAIL HASSAN RAAT 10000                                   MA 13005635                3023   C1210009620000002P300PMX1006201009500000000050400273000000280000000400F1000011507201015062018000022091155  ABB 0000000000                                                                                 
1  545454AJDID                         TARIK                         01011980EZ22110     PN 15 APPT 16 AGDAL                                                       MA 13005659                3023   C1110006880000002P300PMX0101200907600000000138400273000000098000000450F1000010102200901062015000005049785  ABB 0000000000                                                                                 
1    1234HADDAOUI                      MUSTAPHA                      01011991DD55500     Pres maamora                                                              MA 13005654                3023   C1010002050000002P300PMX0801201010000000000440700227000000225000000450F1000001503201015062018000019413046  ABB 0000000000                                                                                 
1   25601EL HAIMADI                    AMAL                          09101975RG85423     PAPPT1 IMMB8 AVENUE ESSALAM RABT                                          MA 13005399                3023   C1210008490000002P300PMX1001201212000000004228200273000001600000000450F1000001502201215012022000154879352  ABB 0000000000                                                                                 
1  215487EL YOUSFI                     BRAHIM                        17011994DA80448     PCasablanca Tama                                                          MA 8410539                 3022   I1110007250000002P300PMX0101201012000000000264800332000000100000000450F1000003101201031122019000007975991  ABB 0000000000                                                                                 
1  215487EL YOUSFI                     BRAHIM                        17011994DA80448     PCasablanca Tama                                                          MA 13005648                3022   I1110006000000002P300PMX0101201029700000001894000332000000600000000500F1000033101201031122034000056670271  ABB 0000000000                                                                                 
