00101122011B                                                                                                                                                                                                                                                                                                                                                                                                   
1  215487EL YOUSFI                     BRAHIM                        01011960DA80448     PCasablanca Tama                                                          MA 13005649                3022   I1110007080000002P300PMX3101201012000000001975300332000000600000000420F1000003101201231122019000059497169  ABB 0000000000                                                                                 
1  012222EL YOUSFI                     BRAHIM                        01011960DA80448     PTEST ADRESSE                                                             MA 8410539                 3022   I1110007800000002P300UMX0712201112000000000000000203570000350000000450F1000001501201215122021000035000000  ABB 0000000000                                                                                 
199999999EL YOUSFI                     BRAHIM                        01011960DA80448     PCasablanca Tamaris rue roudanin12365 , val d'anfa                        MA 8410539                 3022   I1110007790000002P300PMX0104201010000000019177900332000007000000000450F1000003101201231072018000577647184  ABB 0000000000                                                                                 
1  215487HADDAOUI                      MUSTAPHA                      01011971AA332211    PCasablanca Tama                                                          MA 13005634                3022   I1110007740000002P300PMX1503201130000000001887900332000000577500000420F1000001501201215032036000056864914  ABB 0000000000                                                                                 
1  MBANQUrabat                         Marocaine                     0101197000D         P                                                                         MA 8410539                 3023   C1010000480000002PCTX MX2008201000000000000000000000000000100000000450F0000003110201031012016000003059997  ABB 0000000000                                                                                 
1  MBANQURabat                         Marocaine                     0101197000M         P                                                                         MA 8420539                 3023   C1010000910000002P006 MX0204201000000000000000000000000000100000000400F0000000105201005122010000000000000  ABB 0000000000                                                                                 
1    1234HADDAOUI                      MUSTAPHA                      01011991DD55500     Pres maamora                                                              MA                         3023   C1010002050000002P117PMX0801201000000000000471100227000000225000000450F1000001501201215062018000020755038  ABB 0040000000                                                                                 
1    1234HADDAOUI                      MUSTAPHA                      01011991DD55500     Pres maamora                                                              MA                         3023   C1010002200000002P117PMX0801201000000000057607600606000000500000000450F1000001501201215012016000026030532  ABB 0000002500                                                                                 
1  020320ASKARI                        FATIMA                        05091990AD845213    PLOT MABROUKA IM                                                          MA 13005670                3023   C1010003140000002P006PMX0612201000000000000000000273000000051600000450F1000011501201106122010000000000000  ABB 0000000000                                                                                 
1 1122335BOUZAIDI                      ACHRAF                        01011980SQ21112     PNUM 10 APPT 15                                                           MA 13005689                3023   C1110004690000002PCTXPMX0603201100000000000383700273000000140000000450F1000011504201130122011000000000000  ABB 0000000000                                                                                 
1 0286555BOUZAIDI                      ACHRAF                        01011980SQ21112     PRES SALAM N 15                                                           MA 13005689                3023   C1110005290000002PCTXPMX0703201100000000000003800273000000035000000450F1000011501201215032012000000139490  ABB 0000000000                                                                                 
1  MBANQURabat                         Marocaine                     0101197002M         P                                                                         MA 8420539                 3022   I1010000800000002P006UMX0204201000000000000000000003320000400000000300F1000000105201001122010000000000000  ABB 0000000000                                                                                 
1  MBANQURabat                         Marocaine                     0101197002M         P                                                                         MA 8420539                 3022   I1010000820000002P006PMX0204201000000000000000000332000000600000000420F1000000105201001122010000000000000  ABB 0000000000                                                                                 
1  MBANQURabat                         Marocaine                     0101197002C         P                                                                         MA 8410539                 3022   I1010000940000002PCTXPMX0204201000000000000000000332000000400000000450F1000000105201001122010000000000000  ABB 0000000000                                                                                 
1  MBANQURabat                         Marocaine                     0101197002C         P                                                                         MA 8410539                 3022   I1010000940000002P117PMX0204201000000000000000000332000000400000000450F1000000105201001122010000000000000  ABB 0000000000                                                                                 
1  MBANQURabat                         Marocaine                     0101197002C         P                                                                         MA 8410539                 3022   I1010000940000002P117PMX0204201000000000000000000332000000400000000450F1000000105201001122010000000000000  ABB 0010000000                                                                                 
1                                                                    01011970            P                                                                         MA 8410539                 3022   I1010001080000002P999UMX0204201000000000000000000003320007000000000341F1000000105201001122010000000000000  ABB 0000000000                                                                                 
1                                                                    01011970            P                                                                         MA 8410539                 3022   I1010001080000002P117UMX0204201000000000000000000003320007000000000341F1000000105201001122010000000000000  ABB 0000000000                                                                                 
1                                                                    01011970            P                                                                         MA 8410539                 3022   I1010001260000002P006 MX0101201000000000000000000000000000600000000227F0000003101201001122010000000000000  ABB 0000000000                                                                                 
1        AJDID                         TARIK                         01011990A66655      P                                                                         MA 13005635                3022   I1010001850000002P117PMX0102201000000000000657700332000000600000000227F1000000105201101022035000019809275  ABB 0000000000                                                                                 
1        ASKARI                        FATIMA                        01011991A3212       P                                                                         MA 13005640                3022   I1010002060000002P117PMX1501201000000000001291400332000000600000000227F1000001501201215012035000038898723  ABB 0000000000                                                                                 
1  221350ASKARI                        FATIMA                        01011987A3000       P                                                                         MA                         3022   I1010002150000002P006PMX0102201000000000000000000332000000350000000227F1000000103201006122010000000000000  ABB 0000000000                                                                                 
1  523654OUASSINI                      MOHAMED                       01011990AA3322      P                                                                         MA                         3022   I1010002190000002P999PMX0102201000000000000000000332000000200000000227F1000000103201006122010000000000000  ABB 0000000000                                                                                 
100000000ASKARI                        FATIMA                        05091994DF98523     P                                                                         MA 13005671                3022   I1010002280000002P006PMX1001201000000000000000000332000000200000000450F1000011503201031122010000000000000  ABB 0000000000                                                                                 
100000000HADDAOUI                      MUSTAPHA                      01011990XW2200      P                                                                         MA 13005656                3022   I1010002810000002P999PMX0101197000000000000000000332000000000000000420F1000000101197006122010000000000000  ABB 0000000000                                                                                 
1   15236OUASSINI                      MOHAMED                       15021970WX0023      P                                                                         MA 13005682                3022   I1010003040000002P006PMX1002201000000000000000000332000000600000000420F1000001501201106122010000000000000  ABB 0000000000                                                                                 
1        AIT BOURJ                     EL HABIB                      01011980VX00121     P                                                                         MA 13005687                3022   I1010003170000002P117UMX3112201000000000000000000130780000200000000450F1000001501201115092019000019005914  ABB 0050000000                                                                                 
1 0125236BOUZAIDI                      ACHRAF                        01011980SQ21112     Pappt1 rue5 avenue allal ibn abellh                                       MA 13005689                3022   I1110006700000002PCTXPMX1001200800000000001660000332000000500000000227F1000001502200816122011000000000000  ABB 0000000000                                                                                 
1   25000BOUZAIDI                      ACHRAF                        01011980SQ21112     PFDSF                                                                     MA 13005689                3022   I1110006850000002PCTXPMX2001200800000000001472300332000000500000000227F1000001501201215012033000044345918  ABB 0000000000                                                                                 
Z000029         865887                                                                                                                                                                                                                                                                                                                                                                                         