00301122011B                                                                                                                                                                                                                                                                                                                                                                                                   
1  215487EL YOUSFI                     BRAHIM                        17011994DA80448     PCasablanca Tama                                                          MA 13005649                3022   I1110007580000002P300PMX0101201010000000000483000332000001500000000227F1000002902201230042018000014372812  ABB 0000000000                                                                                 
1  012478AIT BOURJ                     EL HABIB                      09051986DR94526     Prue 15 apt5 taz                                                          MA 13005678                3022   I1110005190000002P300PMX0603201130000000001143300332000003500000000390F1000001501201215032036000034437240  ABB 0000000000                                                                                 
1  025652OUASSINI                      MOHAMED                       01011990AA3322      PRES 5 N 10 SALA                                                          MA 13005644                3022   I1110005180000002P300PMX0603201130000000000812800332000002500000000227F1000001501201215032036000024483145  ABB 0000000000                                                                                 
1                                                                    01011970            P                                                                         MA 8410539                 3022   I1010001140000002P300UMX0102201030000000000000000003320007000000000450F1000000104201001032035000067479427  ABB 0000000000                                                                                 
1  MCadreRabat                         Marocaine                     01011970            P                                                                         MA 8410539                 3022   I1010001130000002P300UMX0102201030000000000000000003320006000000000450F1000000104201001032035000048199578  ABB 0000000000                                                                                 
1        ALAOUI                        AYMANE                        05091978FR9456      P                                                                         MA 13005680                3022   I1010002340000002P300PMX0501201030000000001885100332000006000000000227F1000000101201201012035000056778743  ABB 0000000000                                                                                 
1  012478AIT BOURJ                     EL HABIB                      09051986DR94526     Prue 15 apt5 taz                                                          MA 13005678                3022   I1110005120000002P300PMX0603201130000000001633300332000005000000000390F1000001501201215032036000049196057  ABB 0000000000                                                                                 
100000000ALAOUI                        AYMANE                        05091978FR9456      P                                                                         MA 13005680                3022   I1010002330000002P300PMX0501201030000000001913400332000006000000000420F1000003001201230012035000057632930  ABB 0000000000                                                                                 
1  012478AIT BOURJ                     EL HABIB                      09051986DR94526     Prue 15 apt5 taz                                                          MA 13005678                3022   I1110005150000002P300PMX0603201107200000000325000332000001100000000390F1000001501201215032017000009787851  ABB 0000000000                                                                                 
1  MCadreRabat                         Marocaine                     01011970            P                                                                         MA 8410539                 3022   I1010001110000002P300UMX0102201030000000000000000003320006000000000227F1000000104201001032035000047456439  ABB 0000000000                                                                                 
100000000HAMMANI                       ANAS                          05041987DR9456      P                                                                         MA 13005685                3022   I1010002320000002P300PMX0501201030000000001913400332000006000000000420F1000003001201230012035000057632930  ABB 0000000000                                                                                 
1  012478AIT BOURJ                     EL HABIB                      09051986DR94526     Prue 15 apt5 taz                                                          MA 13005678                3022   I1110005140000002P300UMX0603201127700000000000000438600006000000000390F1000001504201115042034000058839314  ABB 0000000000                                                                                 
1  012478AIT BOURJ                     EL HABIB                      09051986DR94526     Prue 15 apt5 taz                                                          MA 13005678                3022   I1110005110000002P300PMX0603201107200000000384000332000001300000000390F1000001501201215032017000011567467  ABB 0000000000                                                                                 
1   62300AAMOUM                        MOHAMMED                      01011985XW9002      PAVENUE MED V                                                             MA 13005686                3022   I1110007530000002P300UMX0110201130000000000000000438600006000000000420F1000001511201115102036000059786392  ABB 0000005000                                                                                 
1                                                                    01011970            P                                                                         MA 8410539                 3022   I1010001150000002P300UMX0105201030000000000000000003320006000000000450F1000000105201001042035000058034333  ABB 0000000000                                                                                 
1        ALAOUI                        AYMANE                        05091978FR9456      P                                                                         MA 13005680                3022   I1010002360000002P300PMX0501201030000000002536200332000008000000000341F1000000101201201012035000076390915  ABB 0000000000                                                                                 
199999999EL YOUSFI                     BRAHIM                        17011994DA80448     PCasablanca Tama                                                          MA 13005664                3022   I1110005100000002P300PMX0101201012000000000847400332000003000000000227F1000033101201231032020000025525594  ABB 0000000000                                                                                 
1  012478HADDAOUI                      MUSTAPHA                      01011990QD1100      Prue 15 apt5 taz                                                          MA 13005678                3023   C1110004850000002P300PMX0603201108300000000104700227000000500000000450F1000011501201215032018000004610951  ABB 0000000000                                                                                 
1   12222ASKARI                        FATIMA                        01011987A3000       Pres maamoura 12                                                          MA 13005662                3023   C1110004830000002P300PMX0603201108300000000104700227000000500000000450F1000011501201215032018000004610951  ABB 0000000000                                                                                 
1        EL YOUSFI                     BRAHIM                        17011994DA80448     P                                                                         MA 13005685                3023   C1110003670000002P300PMX0101201011900000000194100227000001000000000450F1000013101201231012020000008552668  ABB 0000000000                                                                                 
1  114420AAMOUM                        MOHAMMED                      01011980ZZ222       PNUM 10 APPT 15                                                           MA 13005684                3023   C1110004890000002P300PMX0503201107400000000190300273000000750000000450F1000001503201215062017000006887607  ABB 0000000000                                                                                 
1                                                                    01011970            P                                                                         MA 8410539                 3022   I1010001030000002P300UMX0105201030000000000000000003320006000000000450F1000000105201001042035000058407029  ABB 0000000000                                                                                 
1        AALAM                         HAMZA                         11091990AD25956     P                                                                         MA 13005847                3022   I1110004030000002P300PMX0506201030000000000910600332000002790000000341F1000032001201220112035000027427433  ABB 0000000000                                                                                 
1  013111AALAM                         HAMZA                         11091990AD25956     P                                                                         MA 13005847                3022   I1110004020000002P300PMX0506201030000000001943200332000006000000000227F1000032001201220112035000058530231  ABB 0000000000                                                                                 
1  012478AIT BOURJ                     EL HABIB                      09051986DR94526     Prue 15 apt5 taz                                                          MA 13005678                3022   I1110005260000002P300PMX0603201112900000000708300332000002770000000390F1000001501201215122021000021333520  ABB 0000000000                                                                                 
1  012478AIT BOURJ                     EL HABIB                      09051986DR94526     Prue 15 apt5 taz                                                          MA 13005678                3022   I1110005200000002P300PMX0603201112000000000499400332000001600000000390F1000001501201215032021000015042237  ABB 0000000000                                                                                 
1  015230EL GHAZI                      NABIL                         10061980WQ9452      PRABAT RABAT                                                              MA 13049929                3022   I1110007620000002P300PMX0111201130000000001988700332000006000000000420F1000001501201215112036000059899522  ABB 0000000000                                                                                 
1  526412HADDAOUI                      MUSTAPHA                      01011991DD55500     P                                                                         MA 13005654                3022   I1010002270000002P300PMX0101201030000000000942500332000003000000000227F1000000101201201012035000028387827  ABB 0000000000                                                                                 
1  652417AIT BOURJ                     EL HABIB                      01011990QQ3322      P                                                                         MA 13005647                3022   I1010002260000002P300PMX0501201010000000001755700332000006000000000227F1000000101201201062018000052883406  ABB 0000000000                                                                                 
1  215487EL YOUSFI                     BRAHIM                        01011960DA80448     PCasablanca                                                               MA 13005649                3022   I1110007630000002P300PMX0101201012000000001638300332000006000000000227F1000003101201231122019000049346513  ABB 0000000000                                                                                 
1    1234AJDID                         TARIK                         01011980EZ22110     Pres maamora                                                              MA 13005659                3023   C1110003520000002P300PMX2001201106000000000104600273000000450000000450F1000011501201215022016000003829813  ABB 0000000000                                                                                 
1  020145AJDID                         TARIK                         05091986AD141952    Pcasa                                                                     MA 13005669                3023   C1110003530000002P117PMX0201201112000000000584900227000002700000000450F1000011504201115032021000027000000  ABB 0000000000                                                                                 
1  012478AIT BOURJ                     EL HABIB                      09051986DR94526     Prue 15 apt5 taza                                                         MA 13005678                3023   C1110005910000002P300PMX1203201112000000000324200227000001500000000450F1000011501201215042021000014281208  ABB 0000000000                                                                                 
1  018030AJDID                         TARIK                         08091977DF45236     PSIDI BOUKNADEL                                                           MA 13005669                3023   C1110003500000002P300PMX0112201012000000000050800273000000200000000450F1000011501201215012021000001860065  ABB 0000000000                                                                                 
1  012478AIT BOURJ                     EL HABIB                      09051986DR94526     Prue 15 apt5 taza                                                         MA 13005678                3023   C1110005930000002P300PMX1203201112000000000324200227000001500000000450F1000011501201215042021000014281208  ABB 0000000000                                                                                 
1  020145OUASSINI                      MOHAMED                       15021970WX0023      PCASA                                                                     MA 13005682                3023   C1110003570000002P300PMX2101201112000000000081600273000000672500000450F1000011501201215022021000002988894  ABB 0000000000                                                                                 
1   11111AJDID                         TARIK                         01011960AW1100      Pres maamora                                                              MA 13005660                3023   C1110004780000002P300PMX0603201111900000002619801372000002000000000450F1000011501201215032021000019122743  ABB 0000000000                                                                                 
1        AAMOUM                        MOHAMED                       24041996FR94562     P                                                                         MA 13005674                3022   I1110004180000002P300PMX0706201029700000000908200332000002790000000341F1000032001201220062035000027354749  ABB 0000000000                                                                                 
1   15247AIT BOURJ                     EL HABIB                      09051986DR94526     PHAY ZITOUNE TAR                                                          MA 13005678                3022   I1110004140000002P300PMX0106201019700000001846700332000006000000000227F1000001501201215112026000055622276  ABB 0000000000                                                                                 
1  012478AIT BOURJ                     EL HABIB                      09051986DR94526     Prue15 n13 rabat takadoum                                                 MA 13005678                3022   I1110005370000002P300PMX0803201129700000001306300332000005000000000390F1000001501201215122035000039345809  ABB 0000000000                                                                                 
199999999EL YOUSFI                     BRAHIM                        01011960DA80448     PCasablanca Tamaris rue roudanin12365 , val d'anfa                        MA 8410539                 3022   I1110007790000002P300PMX0101201010000000019177900332000086000000000450F1000003101201231072018000577647184  ABB 0000000000                                                                                 
1  012523HADDAOUI                      MUSTAPHA                      14041990AB95632     PAIN LOUH                                                                 MA 13005845                3022   I1110004150000002P300PMX0104201030000000001393900332000004350000000420F1000001501201215042035000041983722  ABB 0000000000                                                                                 
1   15269AIT BOURJ                     EL HABIB                      09051986DR94526     P                                                                         MA 13005678                3022   I1110004100000002P300PMX0106201030000000001908700332000006000000000227F1000001501201215062035000057491898  ABB 0000000000                                                                                 
1  012478AIT BOURJ                     EL HABIB                      09051986DR94526     Prue 15 apt5 taz                                                          MA 13005678                3022   I1110005310000002P300PMX0703201130000000000614600332000001880000000450F1000001501201215032036000018513208  ABB 0000000000                                                                                 
1                                                                    01011970            P                                                                         MA 8410539                 3022   I1010000180000002P300UMX3010201012000000000000000003320070000000000341F1000003011201031102020000633347773  ABB 0000000000                                                                                 
1                                                                    01011970            P                                                                         MA                         3022   I1010001390000002P300UMX0103201030000000000000000407000006000000000227F1000003103201028022035000056796969  ABB 0000000000                                                                                 
1  012478AIT BOURJ                     EL HABIB                      09051986DR94526     Prue15 n13 rabat                                                          MA 13005678                3022   I1110005320000002P300PMX0703201125900000000820400332000002500000000390F1000001501201215102032000024710971  ABB 0000000000                                                                                 
1  215487HADDAOUI                      MUSTAPHA                      01011971AA332211    PCasablanca Tama                                                          MA 13005634                3022   I1110007740000002P300PMX1503201130000000001887900332000005775000000420F1000001501201215032036000056864914  ABB 0000000000                                                                                 
1  012542AAMOUM                        MOHAMMED                      01011990XW33221     PIMM 15 APPT 16 RES ABWAB SALE                                            MA 13005649                3023   C1110005830000002P300PMX1003201108300000000044800227000000320000000450F1000011501201215032018000001972975  ABB 0000000000                                                                                 
1 0125456BOUZAIDI                      ACHRAF                        01011980SQ21112     PAV SIDI MED BELHASSAN RUE ALLA BEN ABDELLAH APPARTEMENT 05 I             MA 13005689                3022   I1110007710000002P300PMX0110201112000000000818000332000002500000000227F1000011501201215102021000024639813  ABB 0000000000                                                                                 
1     10MRabat                                                       01011970            P                                                                         MA 8410539                 3022   I1010000100000002P300UMX0102201024000000000000000003320006000000000450F1000033105201031072030000057450439  ABB 0000000000                                                                                 
100000000HADDAOUI                      MUSTAPHA                      05091989AB6523      P                                                                         MA 13005650                3022   I1010002520000002P300PMX0102201030000000001393100332000004350000000450F1000003001201228022035000041960959  ABB 0000000000                                                                                 
1        OUASSINI                      MOHAMED                       01011975WX0023      P                                                                         MA 13005682                3022   I1010002510000002P300PMX0612201012000000000612600332000002000000000420F1000003001201230122020000018450621  ABB 0000000000                                                                                 
100000000HADDAOUI                      MUSTAPHA                      01011971AA332211    P                                                                         MA 13005634                3022   I1010002500000002P300PMX0102201030000000001393100332000004350000000450F1000003001201228022035000041960959  ABB 0000000000                                                                                 
1  012478AIT BOURJ                     EL HABIB                      09051986DR94526     Prue 15 apt5 taza                                                         MA 13005678                3023   C1110005870000002P300PMX1003201112000000000324200227000001500000000450F1000011501201215042021000014281208  ABB 0000000000                                                                                 
1   30021OUASSINI                      MOHAMED                       15021970WX0023      PNUM 10 APPT 15                                                           MA 13005682                3023   C1110004680000002P300PMX0603201111900000001262700606000002200000000250F1000011501201215032021000020836972  ABB 0000000000                                                                                 
1   28900HADDAOUI                      MUSTAPHA                      01011971AA332211    Pres maamora                                                              MA 13005634                3023   C1110003480000002P300PMX2012201012000000000190400273000000750000000450F1000011501201215012021000006975263  ABB 0000000000                                                                                 
1 1122335BOUZAIDI                      ACHRAF                        01011980SQ21112     PNUM 10 APPT 15                                                           MA 13005689                3023   C1110004690000002P006PMX0603201111900000000366300273000001400000000450F1000011504201130122011000000000000  ABB 0000000000                                                                                 
1  029360AJDID                         TARIK                         08091977DF45236     PLAAYOUNE                                                                 MA 13005669                3023   C1010003090000002P300PMX0612201012000000001532500606000002700000000450F1000011501201215012021000025289506  ABB 0000000000                                                                                 
1  029359AJDID                         TARIK                         05091986AD141952    PBLOC A NO 12 HA                                                          MA 13005667                3023   C1010003080000002P300PMX0602201012000000000688100273000002700000000450F1000011501201215012021000025205108  ABB 0000000000                                                                                 
1                                                                    01011970            P                                                                         MA 8410539                 3022   I1010000040000002P300UMX0102201012000000000000000003320006000000000450F1000003103201029022020000051120961  ABB 0000000000                                                                                 
1  015236OUASSINI                      MOHAMED                       15021970QS98546     PTEST TEST                                                                MA 13005672                3022   I1110004250000002P300PMX0103201129700000001977400332000006000000000227F1000031501201215032036000059559893  ABB 0000000000                                                                                 
1   12530AAMOUM                        MOHAMMED                      01011990XW33221     PAPPT1 RUE 5 AVENUE ALLAL IBN ADELLAH                                     MA 13005649                3022   I1110006660000002P300PMX0607200830000000001843100332000006000000000420F1000001501201215072033000055516343  ABB 0000000000                                                                                 
1  012478AIT BOURJ                     EL HABIB                      09051986DR94526     Prue15 n13 rabat takadoum                                                 MA 13005678                3022   I1110005480000002P300PMX0803201112000000000468200332000001500000000390F1000001501201215032021000014102098  ABB 0000000000                                                                                 
1   15200AIT BOURJ                     EL HABIB                      01011980VX00121     PAPPT5 IMMB8 RUE 8 AVENUE ERRAZ KENITRA                                   MA 13005687                3022   I1110006690000002P300PMX0109200818700000000881300332000004500000000227F1000011501201215062024000026545367  ABB 0000000000                                                                                 
1  010325AAMOUM                        MOHAMED                       24041996FR94562     PRABAT                                                                    MA 13005674                3022   I1110004260000002P300UMX0203201130000000000000000438600006000000000420F1000001504201115032036000059025702  ABB 0000000000                                                                                 
1   01254AAMOUM                        MOHAMED                       05041987AZ59633     PRES SALAM N 15                                                           MA 13005676                3022   I1110005470000002P300PMX0803201125000000000808000332000002500000000227F1000001501201215012032000024336896  ABB 0000000000                                                                                 
1   28152AJDID                         TARIK                         13061988A66655      PLOT EL IRAKI APPT1 AVENUE MED  RABAT                                     MA 13005635                3022   I1110006650000002P300PMX0607200830000000001858400332000006000000000450F1000011501201215092033000055936943  ABB 0000000000                                                                                 
1  010563HADDAOUI                      MUSTAPHA                      01011971AA332211    PAPPT1 IMMB8 AVENUE MOHAMED TRII CASABLANCA 20000                         MA 13005634                3022   I1110006640000002P300PMX0607200930000000001856000332000006000000000227F1000001501201215072034000055904746  ABB 0000000000                                                                                 
1   12300ASKARI                        FATIMA                        01011987A3000       Pres maamoura 12                                                          MA 13005662                3023   C1110004510000002P300PMX0503201104700000000067300227000000350000000450F1000011501201215032015000002965294  ABB 0000000000                                                                                 
1  012222EL YOUSFI                     BRAHIM                        01011960DA80448     PTEST ADRESSE                                                             MA 8410539                 3022   I1110007800000002P300UMX0312201112000000071249500203570003500000000450F1000001501201215122021000035000000  ABB 0000000000                                                                                 
1  012478AIT BOURJ                     EL HABIB                      09051986DR94526     Prue 15 apt5 taza                                                         MA 13005678                3023   C1110005730000002P300PMX1003201112000000000064800227000000300000000450F1000011501201215042021000002856240  ABB 0000000000                                                                                 
1  021445AAMOUM                        MOHAMMED                      01011980ZZ222       Ptanger                                                                   MA 13005684                3023   C1110004530000002P300PMX0503201108300000000125900273000000500000000450F1000011501201215032018000004611909  ABB 0000000000                                                                                 
1  033200ASKARI                        FATIMA                        01011991A3212       Pvilla floride bd zerktouni                                               MA 13005640                3023   C1110005740000002P300PMX1003201108300000000152800227000000730000000450F1000011501201215032018000006731978  ABB 0000000000                                                                                 
1 0254545AAMOUM                        MOHAMED                       24041996FR94562     PIMM 15 APPT 15 RES SEMIRAMIS SID HAJJI                                   MA 13005674                3023   C1110005750000002P300PMX1003201107100000000514000227000002500000000450F1000011501201215032017000022642508  ABB 0000000000                                                                                 
1  012211AAMOUM                        MOHAMED                       24041996FR94562     Pn 15 appt 06 res essafae                                                 MA 13005674                3023   C1110005700000002P300PMX1003201104700000000069200227000000360000000450F1000011501201215032015000003050016  ABB 0000000000                                                                                 
1   01201ALAOUI                        AYMANE                        05091978FR9456      Pav madagascar n 15 sala al jadda                                         MA 13005680                3023   C1110005710000002P300PMX1003201111900000000259800273000001000000000450F1000011501201215032021000009517101  ABB 0000000000                                                                                 
1  018030AJDID                         TARIK                         05091986AD141952    PSIDI BOUKNADEL                                                           MA 13005667                3023   C1010003110000002P300PMX0612201012000000000688100273000002700000000450F1000011501201215012021000025205108  ABB 0000000000                                                                                 
1   01233HADDAOUI                      MUSTAPHA                      01011991DD55500     Pres maamora                                                              MA 13005654                3023   C1010003180000002P300PMX0101201012000000000376700273000001500000000450F1000001501201215012020000013796879  ABB 0000000000                                                                                 
1  018021OUASSINI                      MOHAMED                       15021970WX0023      Pres salamat n15 appt 16                                                  MA 13005682                3023   C1110005790000002P300PMX1003201109500000000453800606000000800000000450F1000011501201215032019000007488375  ABB 0000000000                                                                                 
1  015245OUASSINI                      MOHAMED                       15021970QS98546     PSETTAT                                                                   MA 13005672                3022   I1110004360000002P300PMX0105201016600000001066000332000003500000000420F1000001501201215032024000032109567  ABB 0000000000                                                                                 
1        AIT BOURJ                     EL HABIB                      09051986DR94526     P                                                                         MA 13005678                3022   I1110005560000002P300PMX0903201130000000001631200332000005000000000341F1000001501201215032036000049131543  ABB 0000000000                                                                                 
1  012563AIT BOURJ                     EL HABIB                      09051986DR94526     PHAY EL MENZEH AVENUE DES FAR RBAT                                        MA 13005678                3022   I1110005590000002P300PMX0110201019700000000949900332000006000000000227F1000001501201215032027000028611483  ABB 0000000000                                                                                 
1  MBANQUrabat                         Marocaine                     01011970            P                                                                         MA 8410539                 3022   I1010000340000002P300UMX3110201030000000000000000407000006000000000450F1000013009201030092035000058665499  ABB 0000000000                                                                                 
1   15284AAMOUM                        MOHAMED                       24041996FR94562     PN37 CITE MILITA                                                          MA 13005674                3022   I1110004320000002P300PMX0303201130000000001950800332000006000000000227F1000001501201215032036000058759546  ABB 0000000000                                                                                 
1  012478AIT BOURJ                     EL HABIB                      09051986DR94526     Prue15 n13 rabat takadoum                                                 MA 13005678                3022   I1110005530000002P300PMX0903201130000000001476500332000004520000000390F1000001501201215032036000044473237  ABB 0000000000                                                                                 
1  010862AJDID                         TARIK                         13061988AZ9562      PN8 RUE NAHDA                                                             MA 13005909                3022   I1110004310000002P300PMX0106201030000000001227200332000005600000000227F1000001501201215062035000036965288  ABB 0000000000                                                                                 
1  012478AIT BOURJ                     EL HABIB                      09051986DR94526     Prue15 n13 rabat takadoum                                                 MA 13005678                3022   I1110005520000002P300PMX0903201128800000001469500332000004500000000450F1000001501201215032035000044262986  ABB 0000000000                                                                                 
1        AIT BOURJ                     EL HABIB                      01011990QQ3322      P                                                                         MA 13005647                3022   I1110006730000002P300PMX0105200830000000001841900332000006000000000450F1000001501201215052033000055478980  ABB 0000000000                                                                                 
1  012478AIT BOURJ                     EL HABIB                      09051986DR94526     Prue15 n13 rabat takadoum                                                 MA 13005678                3022   I1110005550000002P300PMX0603201130600000002000100332000006000000000227F1000001502201215092036000059452008  ABB 0000000000                                                                                 
1  012345EL YOUSFI                     BRAHIM                        17011994DA80448     Prabat agdal                                                              MA 8410539                 3022   I1010001590000002P300PMX0101201030000000000000001372000003000000000227F1000002003201020022035000018933820  ABB 0000000000                                                                                 
100000000ASKARI                        FATIMA                        20121978DF98523     P                                                                         MA 13005671                3022   I1010002710000002P300PMX0102201020000000001024800332000003500000000227F1000000101201201102026000030866495  ABB 0000000000                                                                                 
1 0125236BOUZAIDI                      ACHRAF                        01011980SQ21112     Pappt1 rue5 avenue allal ibn abellh                                       MA 13005689                3022   I1110006700000002P006PMX0101200830000000001476500332000005000000000227F1000001502200816122011000000000000  ABB 0000000000                                                                                 
1  012000AJDID                         TARIK                         13061988A66655      PTEST                                                                     MA 13005635                3022   I1110005500000002P300PMX0903201115200000001110900332000003500000000227F1000000101201201122023000033459930  ABB 0000000000                                                                                 
1   00211OUASSINI                      MOHAMED                       01011990AA3322      PAPPT1 IMMB E RESIDENCE SEKKAT ABAT                                       MA 13005644                3022   I1110006710000002P300PMX0101200708400000000347200332000001500000000420F1000001501201215012014000010457849  ABB 0000000000                                                                                 
100000000OUASSINI                      MOHAMED                       01011975WX0023      P                                                                         MA 13005682                3022   I1010002730000002P300PMX0102201016600000000600400332000002000000000420F1000000101201201122023000018084927  ABB 0000000000                                                                                 
1   01222ASKARI                        FATIMA                        01011987A3000       PN 15 APPT 16 AGDAL                                                       MA 13005662                3023   C1110007060000002P300PMX0106201111900000000771800227000003500000000450F1000011501201215062021000033864519  ABB 0000000000                                                                                 
100000000AIT BOURJ                     EL HABIB                      01011990QQ3322      P                                                                         MA 13005647                3022   I1010002680000002P300PMX0102201030000000000633100332000002000000000227F1000011501201215032035000019068621  ABB 0000000000                                                                                 
1   10236AIT BOURJ                     EL HABIB                      09051986DR94526     PRABAT                                                                    MA 13005678                3022   I1110004470000002P300UMX0403201130000000000000000438600006000000000420F1000001504201115032036000059025702  ABB 0000000000                                                                                 
1  012478AIT BOURJ                     EL HABIB                      09051986DR94526     Prue15 n13 rabat takadoum                                                 MA 13005678                3022   I1110005680000002P300PMX1003201130000000001303000332000005000000000390F1000001501201215032036000039246683  ABB 0000000000                                                                                 
1  102563ASKARI                        FATIMA                        01011991A3212       PJKNJKNKJKOJ                                                              MA 13005640                3022   I1110006890000002P300PMX1005200930000000001729500332000005500000000450F1000001501201215052034000052093054  ABB 0000000000                                                                                 
1   12540AAMOUM                        MOHAMED                       24041996FR94562     PRABAT                                                                    MA 13005674                3022   I1110004460000002P300PMX0403201130000000001962900332000006000000000450F1000001501201215032036000059123914  ABB 0000000000                                                                                 
100000000AIT BOURJ                     EL HABIB                      09051986DR94526     PZZZZZZZZZZZZZZ                                                           MA 13005678                3022   I1110004490000002P300PMX0101201007200000000353800332000001500000000390F1000001501201215012016000010657731  ABB 0000000000                                                                                 
1        AAMOUM                        MOHAMED                       24041996FR94562     P                                                                         MA 13005674                3022   I1110004480000002P300PMX0403201130000000000261500332000000800000000420F1000001501201215032036000007877392  ABB 0000000000                                                                                 
1   25000BOUZAIDI                      ACHRAF                        01011980SQ21112     PFDSF                                                                     MA 13005689                3022   I1110006850000002P300PMX1001200830000000001472300332000005000000000227F1000001501201215012033000044345918  ABB 0000000000                                                                                 
1   82536SAMIR                         SAMIR                         12121999B12222      PMERS EL KHEIR N                                                          MA 13003804                3022   I1110004450000002P300PMX0403201116600000001438100332000004500000000450F1000001501201215012025000043317531  ABB 0000000000                                                                                 
1  012478EL HANAFI                     RADIA                         05091979D159463     Prue15 n13 rabat takadoum                                                 MA 13006306                3022   I1110005660000002P300PMX1003201130000000001633300332000005000000000390F1000001501201215032036000049196057  ABB 0000000000                                                                                 
1   15236WAKIL                         BILAL                         12041990IE506050    PAPPT5 IMMB8                                                              MA 13005340                3022   I1110004440000002P300PMX0403201127900000001849000332000006000000000227F1000001501201215062034000055693769  ABB 0000000000                                                                                 
1   15123EL YAZGHI                     TAHAR                         08091980XX95236     PRUE EL BYROUNI AVENUE LA RESISANCE N 5 IMM B9 RABAT                      MA 13006305                3022   I1110005650000002P300PMX0110201030000000001927500332000006000000000227F1000001501201215102035000058058691  ABB 0000000000                                                                                 
1  125300OUASSINI                      MOHAMED                       01011990AA3322      PTEST                                                                     MA 13005644                3022   I1110006830000002P300PMX1001200730000000001778300332000006000000000450F1000001501201215012032000053563435  ABB 0000000000                                                                                 
1        EL YOUSFI                     BRAHIM                        17011994DA80448     P                                                                         MA 13005685                3023   C1110003920000002P300PMX0103201011900000000195800227000001000000000450F1000013101201229022020000008624359  ABB 0000000000                                                                                 
199998888EL YOUSFI                     BRAHIM                        17011994DA80448     PBouskoura Ville                                                          MA 13005664                3022   I1110004580000002P300PMX0101201012000000001638300332000006000000000227F1000003101201231122019000049346513  ABB 0000000000                                                                                 
1 0108452ASKARI                        FATIMA                        20121978AD845213    PAVENUE EL OUARD                                                          MA 13005670                3022   I1110004570000002P300PMX0603201115200000001104400332000003500000000227F1000001501201215112023000033265326  ABB 0000000000                                                                                 
1 0105236HADDAOUI                      MUSTAPHA                      14041990AB95632     PRABAT                                                                    MA 13005845                3022   I1110004540000002P117PMX0603201130000000001146200332000003500000000420F1000001504201115032036000035000000  ABB 0000000000                                                                                 
1   12231AJDID                         TARIK                         08061989RT9455      P                                                                         MA 13005657                3022   I1110003350000002P300PMX0102201030000000001213300332000005600000000227F1000001501201215022035000036545403  ABB 0000000000                                                                                 
1  015325AJDID                         TARIK                         13061988AZ9562      PAVENUE 5 N8                                                              MA 13005909                3022   I1110004560000002P300PMX0603201129700000001497500332000004500000000450F1000031501201215032036000045000000  ABB 0000000000                                                                                 
1  012365OUASSINI                      MOHAMED                       15021970QS98546     PAVENUE KHANSAE                                                           MA 13005672                3022   I1110004550000002P300PMX0603201116600000000639200332000002000000000450F1000001501201215012025000019252235  ABB 0000000000                                                                                 
1   15000BOUZAIDI                      ACHRAF                        01011980SQ21112     PAZE                                                                      MA 13005689                3022   I1110006920000002P300PMX1001200819800000001320900332000006000000000450F1000001501201215072024000039786043  ABB 0000000000                                                                                 
1   12000AIT BOURJ                     EL HABIB                      01011980VX00121     PSRFEFR                                                                   MA 13005687                3022   I1110006910000002P300PMX0109200830600000001868300332000006000000000450F1000001501201215032034000056275115  ABB 0000000000                                                                                 
1  012478AIT BOURJ                     EL HABIB                      09051986DR94526     Prue 15 apt5 taz                                                          MA 13005678                3022   I1110005720000002P300PMX1003201130000000001960000332000006000000000390F1000001501201215032036000059035269  ABB 0000000000                                                                                 
1   54202OUASSINI                      MOHAMED                       01011990AA3322      PQSDQS                                                                    MA 13005644                3022   I1110006930000002P300PMX0102200730000000001380900332000006000000000227F1000001501201215022032000041594306  ABB 0000000000                                                                                 
1        EL YOUSFI                     BRAHIM                        17011994DA80448     P                                                                         MA 8410539                 3022   I1010001760000002P300PMX0101201030000000000000000332000006000000000227F1000003101201031122034000056454394  ABB 0000000000                                                                                 
1  018030AJDID                         TARIK                         05091986AD141952    PABB                                                                      MA 13005667                3023   C1110003830000002P117PMX0201201112000000000043300227000000200000000450F1000011504201115032021000002000000  ABB 0000000000                                                                                 
1  125400AAMOUM                        MOHAMMED                      01011990XW33221     PKJKMLM                                                                   MA 13005649                3022   I1110006900000002P300PMX1607200830000000001796900332000006000000000227F1000001501201215072033000054124635  ABB 0000000000                                                                                 
1  123456EL YOUSFI                     BRAHIM                        17011994DA80448     P                                                                         MA 8410539                 3022   I1010001680000002P300PMX0612201030000000000000000227000003000000000227F1000003112201030112035000019367143  ABB 0000000000                                                                                 
1   15230ALAOUI                        AYMANE                        05091978FR9456      P                                                                         MA 13005680                3022   I1110003470000002P300PMX0102201017300000001196200332000005600000000420F1000001501201215072024000036031119  ABB 0000000000                                                                                 
1  013333AJDID                         TARIK                         13061988A66655      PTEST TEST                                                                MA 13005635                3022   I1110005890000002P300PMX1203201130000000000892100332000002700000000227F1000030101201201072036000026869839  ABB 0000000000                                                                                 
1  013953EL YOUSFI                     BRAHIM                        17011994DA80448     P                                                                         MA 8410539                 3022   I1010001670000002P300PMX0612201030000000000000000227000005000000000227F1000003112201030112035000048417855  ABB 0000000000                                                                                 
1   12344HADDAOUI                      MUSTAPHA                      14041990RC94632     Pres maamora                                                              MA 13005653                3023   C1110004900000002P300PMX0503201111900000000205200227000000950000000450F1000011501201215032021000009039445  ABB 0000000000                                                                                 
1   15236HAMMANI                       ANAS                          05041987DR9456      P                                                                         MA 13005685                3022   I1110003490000002P300PMX0103201030000000001921100332000006000000000420F1000001501201215032035000057864087  ABB 0000000000                                                                                 
1  105263AIT BOURJ                     EL HABIB                      09051986DR94526     PRABAT                                                                    MA 13005678                3022   I1110004650000002P300PMX0603201130000000001962900332000006000000000450F1000001501201215032036000059123914  ABB 0000000000                                                                                 
1  012478AIT BOURJ                     EL HABIB                      09051986DR94526     Prue 15 apt5 taz                                                          MA 13005678                3022   I1110005860000002P300PMX1003201130000000001633300332000005000000000390F1000001501201215032036000049196057  ABB 0000000000                                                                                 
1   56210ALAOUI                        AYMANE                        05091978FR9456      P                                                                         MA 13005680                3022   I1110003430000002P300PMX0102201015000000000797900332000002625000000420F1000001501201215082022000024032107  ABB 0000000000                                                                                 
1 0104823AAMOUM                        MOHAMED                       24041996FR94562     PRABAT CENTRE                                                             MA 13005674                3022   I1110004640000002P300PMX0603201130000000001138000332000003500000000227F1000001501201215032036000034276405  ABB 0000000000                                                                                 
1   15263ALAOUI                        AYMANE                        05091978FR9456      P                                                                         MA 13005680                3022   I1110003450000002P300PMX0106201014400000000789700332000002625000000420F1000001501201215062022000023786996  ABB 0000000000                                                                                 
1    1233HADDAOUI                      MUSTAPHA                      01011990AA332211    Pres maamora                                                              MA 13005654                3023   C1010001960000002P300PMX0101201012000000000311100000000001500000000450F0000001501201215022020000013705283  ABB 0000000000                                                                                 
1  020145AJDID                         TARIK                         08091977DF45236     PCASA                                                                     MA 13005669                3023   C1110004950000002P300PMX0503201107100000001236500273000005000000000450F1000011501201215032017000045294573  ABB 0000000000                                                                                 
100000000OUASSINI                      MOHAMED                       01011975WX0023      P                                                                         MA 13005682                3022   I1010002820000002P300UMX0102201030000000000000000438600006000000000420F1000000104201001032035000058625065  ABB 0000000000                                                                                 
1        ALAOUI                        AYMANE                        05091978FR9456      P                                                                         MA 13005680                3022   I1110003400000002P300PMX0101201012000000000278200332000001000000000227F1000003101201229022020000008380510  ABB 0000000000                                                                                 
1  012478AIT BOURJ                     EL HABIB                      09051986DR94526     Pn 15 apt 12 rue                                                          MA 13005678                3022   I1110004610000002P300UMX0101201012000000000000000203570002000000000227F1000001502201015012020000016542915  ABB 0000000000                                                                                 
1  012478AJDID                         TARIK                         01011960AW1100      Prue 15 apt5 TAZA rue 15 apt5 TZA rue 15 apt5 TAZA TEST 1 TES             MA 13005678                3023   C1110004960000002P300PMX0110201101200000172239901372000002500000000450F1000011501201215112012000025000000  ABB 0000008000                                                                                 
1   28288EL YOUSFI                     BRAHIM                        17011994DA80448     PMENZAH ZEIR                                                              MA 8410539                 3022   I1010001600000002P300PMX2802201028000000000000000227000005000000000227F1000003004201030072033000047205114  ABB 0000000000                                                                                 
1 0105892HADDAOUI                      MUSTAPHA                      14041990AB95632     PRUE MARASSA BAB                                                          MA 13005845                3022   I1110004630000002P300PMX0603201130000000001470000332000004500000000390F1000001501201215032036000044276454  ABB 0000000000                                                                                 
1  012478AIT BOURJ                     EL HABIB                      09051986DR94526     Prue 15 apt5 taz                                                          MA 13005678                3023   C1110004980000002P300PMX0503201108800000000063200227000000300000000450F1000011501201215082018000002783165  ABB 0000000000                                                                                 
199998888EL YOUSFI                     BRAHIM                        17011994DA80448     PBouskoura Ville                                                          MA 13005664                3022   I1110004620000002P300PMX0101201025000000041822600332000006000000000227F1000003101201231102030000027996173  ABB 0000001100                                                                                 
1   01254EL YOUSFI                     BRAHIM                        17011994DA80448     Ptemara                                                                   MA 8410539                 3022   I1010001630000002P300PMX0105201030000000000000000227000004000000000227F1000003105201030042035000038059439  ABB 0000000000                                                                                 
1  012478AIT BOURJ                     EL HABIB                      09051986DR94526     Prue 15 apt5 taz                                                          MA 13005678                3023   C1110004990000002P300PMX0603201108000000000166800227000000800000000450F1000011501201215122017000007348285  ABB 0000000000                                                                                 
1  152369AAMOUM                        MOHAMED                       24041996FR94562     PHAY LINBIAT IMMEUBLE 5 APPARTEENT10  AVENUE MOHAMMED V SALE              MA 13005674                3022   I1110005970000002P300PMX0403201130300000001994300332000006000000000420F1000001501201215062036000059386796  ABB 0000000000                                                                                 
1   15263HADDAOUI                      MUSTAPHA                      14041990AB95632     P                                                                         MA 13005845                3022   I1110003540000002P300PMX0112201030000000001141500332000003500000000450F1000001501201215122035000034383424  ABB 0000000000                                                                                 
1   01254OUASSINI                      MOHAMED                       15021970WX0023      PAVENUE DES FAR N 15                                                      MA 13005682                3022   I1110005960000002P300PMX1303201120000000000809000332000002500000000227F1000011501201215012028000024313220  ABB 0000000000                                                                                 
1        AIT BOURJ                     EL HABIB                      09051986DR94526     P                                                                         MA 13005678                3022   I1110005990000002P300PMX0403201130000000000490700332000004000000000450F1000001501201215032036000014780980  ABB 0000000000                                                                                 
1  011111ZNATI                         AMINA                         14051980AD15236     P                                                                         MA 13005840                3022   I1110003560000002P300UMX0112201008400000000000000203570001500000000227F1000001501201115122017000013014123  ABB 0000000000                                                                                 
1  125403AIT BOURJ                     EL HABIB                      09051986DR94526     PRUE LALLA YAKOUT  AVENUE HASSA2                                          MA 13005678                3022   I1110005980000002P300PMX0403201125600000001791600332000006000000000420F1000001501201215072032000053965123  ABB 0000000000                                                                                 
1  012369AJDID                         TARIK                         13061988A66655      P                                                                         MA 13005635                3022   I1110003510000002P300PMX0112201030000000001134000332000003500000000450F1000001501201215122035000034155815  ABB 0000000000                                                                                 
1  012478AIT BOURJ                     EL HABIB                      09051986DR94526     Prue 15 apt5 taz                                                          MA 13005678                3022   I1110005920000002P300PMX1203201130000000001633300332000005000000000390F1000001501201215032036000049196057  ABB 0000000000                                                                                 
1  012478AIT BOURJ                     EL HABIB                      09051986DR94526     PQUARTIER 1 VILLE2 RUE 9 CASA B                                           MA 13005678                3022   I1110005900000002P300PMX1203201130000000001960000332000006000000000390F1000001501201215032036000059035269  ABB 0000000000                                                                                 
1    1234AJDID                         TARIK                         08091977DF45236     PFES                                                                      MA 13005669                3023   C1110004060000002P300PMX1501201105100000000023000273000000100000000450F1000011501201215062015000000842769  ABB 0000000000                                                                                 
1  029359EL YOUSFI                     BRAHIM                        17011994DA80448     P                                                                         MA 13005685                3023   C1110004070000002P300PMX0101201012000000000192900227000001000000000450F1000013101201231012020000008464129  ABB 0000000000                                                                                 
1   28002OUASSINI                      MOHAMED                       15021970WX0023      PRES SALAM N 15                                                           MA 13005682                3023   C1110005210000002P300PMX0603201108700000000321400606000000550000000450F1000001501201215072018000005304426  ABB 0000000000                                                                                 
1  021444AAMOUM                        MOHAMED                       24041996FR94562     PRES SALAM N 15                                                           MA 13005674                3023   C1110005220000002P300PMX0603201112300000000466200227000002100000000450F1000001501201215072021000020537511  ABB 0000000000                                                                                 
1                                                                    01011970            P                                                                         MA                                E1110007750000002P300PMX0101200912000000000000013078000003000000000700F1000013001200930122018000023401462  ABB 0000000000                                                                                 
1                                                                    01011970            P                                                                         MA                                E1110007700000002P300PMX0211201106000000000000013078000000450000000500F1000593011201130102016000004500000  ABB 0000000000                                                                                 
1   14263AJDID                         TARIK                         13061988A66655      P                                                                         MA 13005635                3022   I1110003690000002P300PMX0402201130000000001959600332000006000000000450F1000003001201229022036000059024390  ABB 0000000000                                                                                 
1        EL YOUSFI                     BRAHIM                        17011994DA80448     P                                                                         MA 13005685                3022   I1110003660000002P300UMX0103201024000000000000000303570005000000000227F1000003004201031032030000046551221  ABB 0000000000                                                                                 
1        EL YOUSFI                     BRAHIM                        17011994DA80448     P                                                                         MA 13005685                3022   I1110003650000002P300PMX0101201030000000001885600332000006000000000227F1000003101201231012035000056796649  ABB 0000000000                                                                                 
1  012478AAMOUM                        MOHAMMED                      01011985XW9002      Prue 15 apt5 taz                                                          MA 13005678                3022   I1110004860000002P300PMX0603201112000000000624300332000002000000000390F1000001501201215032021000018802791  ABB 0000000000                                                                                 
1        EL YOUSFI                     BRAHIM                        17011994DA80448     P                                                                         MA 13005685                3022   I1110003680000002P300PMX0101201030000000001282800332000004000000000450F1000003101201228022035000038637423  ABB 0000000000                                                                                 
1                                                                    01011970            P                                                                         MA                                E1110007760000002P300PMX0101200912000000000000013078000005000000000700F1000013001200930122018000039002438  ABB 0000000000                                                                                 
1        EL YOUSFI                     BRAHIM                        17011994DA80448     P                                                                         MA 13005664                3022   I1110003640000002P300PMX0101201030000000001885100332000006000000000227F1000003101201231122034000056781363  ABB 0000000000                                                                                 
100000000AJDID                         TARIK                         01011990A66655      Pres maamora                                                              MA 13005635                3023   C1010002550000002P300PMX0101201012000000000549000273000002200000000450F1000001501201215022020000020110461  ABB 0000000000                                                                                 
100000000AJDID                         TARIK                         01011990A66655      Pres maamora                                                              MA 13005635                3023   C1010002540000002P300PMX0101201012000000000149700273000000600000000450F1000001501201215022020000005484669  ABB 0000000000                                                                                 
1        AJDID                         TARIK                         01011990A66655      P                                                                         MA 13005635                3022   I1010001860000002P300PMX2001201030000000000259500332000000800000000341F1000000101201201032035000007816398  ABB 0000000000                                                                                 
1                                                                    01011970            P                                                                         MA 8410539                 3022   I1010000640000002P300UMX2208201030000000000000000003320006000000000450F1000003009201031082035000058345192  ABB 0000000000                                                                                 
1        AJDID                         TARIK                         01011990A66655      P                                                                         MA 13005635                3022   I1010001850000002P117PMX2001201030000000000647200332000006000000000227F1000000105201101022035000019809275  ABB 0000000000                                                                                 
1   MSansEL YOUSFI                     BRAHIM                        17011994DA80448     Paaa                                                                      MA 13005648                3023   C1010001310000002P300PMX0101201012000000000190500227000006000000000450F1000003101201231122019000008393806  ABB 0000000000                                                                                 
1  032522OUASSINI                      MOHAMED                       15021970WX0023      PN 15 APPT 2 SAL                                                          MA 13005682                3023   C1110005160000002P300PMX0603201101200000000051700606000000250000000450F1000011501201215042012000000852814  ABB 0000000000                                                                                 
1   01254AJDID                         TARIK                         01011980EZ22110     P2 res 5 sale                                                             MA 13005659                3023   C1110005130000002P300PMX0603201111900000000493700273000001900000000450F1000011501201215032021000018082484  ABB 0000000000                                                                                 
1                                                                    01011970            P                                                                         MA                                E1110007680000002P300PMX0211201108400000000000000000000003500000000700F0000013011201130102018000034679365  ABB 0000000000                                                                                 
1   15230ASKARI                        FATIMA                        20121968AD845213    P                                                                         MA 13005670                3022   I1110003790000002P300PMX3012201015200000001084900332000003500000000227F1000003001201230082023000032678690  ABB 0000000000                                                                                 
1        AJDID                         TARIK                         13061988A66655      P                                                                         MA 13005635                3022   I1110003730000002P300PMX0402201130000000000261300332000000800000000450F1000003001201229022036000007869923  ABB 0000000000                                                                                 
1  012478AAMOUM                        MOHAMMED                      01011990SQ33200     Prue 15 apt5 taz                                                          MA 13005678                3022   I1110004940000002P300UMX0503201112000000000000000203570005000000000390F1000001504201115032021000046947038  ABB 0000000000                                                                                 
1   01254ASKARI                        FATIMA                        01011991A3212       PAVENUE ALLAL IBN ABDELLAH NUM 5 APPT 16 ETG 10 RUE ALLAH BEN             MA 13005640                3023   C1110007400000002P300PMX0110201111900000000339700227000001500000000450F1000011501201215102021000014903517  ABB 0000000000                                                                                 
1  MBANQURabat                         Marocaine                     01011970            P                                                                         MA 8410539                 3022   I1010000920000002P300UMX2208201012000000000000000003320004000000000227F1000000105201001042020000034028908  ABB 0000000000                                                                                 
1  MSalarRabat                         Marocaine                     01011970            P                                                                         MA 8410539                 3022   I1010000970000002P300UMX0102201030000000000000000003320002300000000227F1000003103201028022035000021772168  ABB 0000000000                                                                                 
1  012478AIT BOURJ                     EL HABIB                      01011980VX00121     Prue 15 apt5 taz                                                          MA 13005678                3022   I1110004920000002P300UMX0503201112000000000000000203570001500000000390F1000001504201115032021000014084110  ABB 0000000000                                                                                 
1  028745AJDID                         TARIK                         01011980EZ22110     Pres agdal n 15                                                           MA 13005659                3023   C1110005030000002P300PMX0603201108300000000478400273000001900000000450F1000011501201215032018000017525247  ABB 0000000000                                                                                 
1  055221AJDID                         TARIK                         01011960AW1100      PRES 04 N 5                                                               MA 13005660                3023   C1110005040000002P300PMX0603201104700000000291701372000000250000000450F1000011501201215032015000002129463  ABB 0000000000                                                                                 
1  012478AIT BOURJ                     EL HABIB                      09051986DR94526     Prue 15 apt5 taz                                                          MA 13005678                3023   C1110005060000002P300PMX0603201108100000000125300227000000600000000450F1000011501201215012018000005518705  ABB 0000000000                                                                                 
1 0125466AAMOUM                        MOHAMMED                      01011990XW33221     Pvilla floride bd zerktouni TES TEST TEST TEST XXXXXXXXXXXXXX             MA 13005649                3023   C1110007410000002P300PMX0110201108400000218793600227000005000000000450F1000011501201215112018000049946219  ABB 0000005000                                                                                 
1  012478AIT BOURJ                     EL HABIB                      09051986DR94526     Prue 15 apt5 taz                                                          MA 13005678                3023   C1110005000000002P300PMX0603201108100000000160800227000000770000000450F1000011501201215012018000007082338  ABB 0000000000                                                                                 
1                                                                    01011970            P                                                                         MA 8410539                 3022   I1010000900000002P300UMX0105201030000000000000000449740006000000000450F1000003105201030042035000057936065  ABB 0000000000                                                                                 
1  012478AIT BOURJ                     EL HABIB                      09051986DR94526     Prue 15 apt5 taz                                                          MA 13005678                3023   C1110005010000002P300PMX0603201108100000000313200227000001500000000450F1000011501201215012018000013796757  ABB 0000000000                                                                                 
1   01254AJDID                         TARIK                         01011980EZ22110     PAVENUE ALLAL IBN ABDELLAH TESTTEST TEST TEST TEST TEST TEST              MA 13005659                3023   C1110007430000002P300PMX0110201111900000004311800273000016000000000450F1000011501201215092021000157943213  ABB 0000000000                                                                                 
1  010988BOUZAIDI                      ACHRAF                        01011980SQ21112     Pimm ghandi appt 15 etg 1 rue e qastaoui N15 test test test C             MA 13005689                3023   C1110007440000002P300PMX0110201102300000000118200273000000450000000450F1000011501201215102013000004313647  ABB 0000000000                                                                                 
1  215487EL YOUSFI                     BRAHIM                        01011960DA80448     PCasablanca Tama                                                          MA 13005649                3022   I1110007080000002P300PMX0101201012000000001975300332000008000000000420F1000003101201231122019000059497169  ABB 0000000000                                                                                 
1  125300AIT BOURJ                     EL HABIB                      01011980VX00121     PAPPT1 IMMB 5 RESIDENCE NOUR RU EL YASSAMINE AVENUE ENNAJAH 1             MA 13005687                3022   I1110007050000002P300PMX0109200930000000001865700332000006000000000227F1000001501201215092034000056196458  ABB 0000000000                                                                                 
1        EL YOUSFI                     BRAHIM                        17011994DA80448     P                                                                         MA 13005685                3022   I1110003890000002P300UMX0101201024000000000000000303570005000000000227F1000003101201031122029000046046133  ABB 0000000000                                                                                 
100000000AJDID                         TARIK                         01011990A66655      Pres maamora                                                              MA 13005635                3023   C1010002720000002P300PMX0101201006000000000063900273000000300000000450F1000001501201215022015000002342295  ABB 0000000000                                                                                 
1        EL KHAMLIC                    IMAD                          09061980AZ6524      P                                                                         MA 13006369                       E1110006210000002P300PMX0504201109000000000275000000000006000000000200F0000121510201215102018000030000000  ABB 0000000000                                                                                 
1  012345HADDAOUI                      MUSTAPHA                      01011991DD55500     Pres maamora                                                              MA 13005654                3023   C1010003190000002P300PMX0101201012000000000125600273000000500000000450F1000001501201215012020000004598965  ABB 0000000000                                                                                 
1        AIT BOURJ                     EL HABIB                      01011980VX00121     P                                                                         MA 13005687                3022   I1010003170000002P300UMX0102201010500000000000000130780002000000000450F1000001501201115092019000019005914  ABB 0000000000                                                                                 
1  010802HADDAOUI                      MUSTAPHA                      09102000RC94632     P                                                                         MA 13005653                3022   I1010003120000002P300PMX0102201030000000001278600332000004000000000420F1000001501201215022035000038511472  ABB 0000000000                                                                                 
1   18263OUASSINI                      MOHAMED                       15021970QS98546     P                                                                         MA 13005672                3022   I1110003990000002P300PMX3012201016600000000627700332000002000000000227F1000001501201215112024000018907749  ABB 0000000000                                                                                 
1   12345OUASSINI                      MOHAMED                       15021970WX0023      PRES MAAMORA 12                                                           MA 13005682                3023   C1110004400000002P300PMX0403201104900000000078100606000000350000000680F1000012001201220052015000001288163  ABB 0000000000                                                                                 
1   01254OUASSINI                      MOHAMED                       15021970WX0023      Pvilla floride bd zerktouni                                               MA 13005682                3023   C1110005610000002P300PMX0903201108300000000839700606000001500000000450F1000011501201215032018000013856485  ABB 0000000000                                                                                 
1  011215HADDAOUI                      MUSTAPHA                      01011990QD1100      Pvilla floride bd zerktouni                                               MA 13005655                3023   C1110006820000002P300PMX0101200911900000000113300227000000650000000450F1000011501201215012019000004971514  ABB 0000000000                                                                                 
1  152869AJDID                         TARIK                         08091977DF45236     P                                                                         MA 13005669                3022   I1110003950000002P300PMX0105201030000000001617700332000005600000000227F1000001501201215052035000048725068  ABB 0000000000                                                                                 
1 0254545ASKARI                        FATIMA                        01011987A3000       Pvilla floride bd zerktouni                                               MA 13005662                3023   C1110005620000002P300PMX0903201108300000000293100227000001400000000450F1000011501201215032018000012910659  ABB 0000000000                                                                                 
1  321211AAMOUM                        MOHAMMED                      01011980ZZ222       PN 5 APT 6 AGD                                                           MA 13005684                3023   C1110004420000002P300PMX0403201106200000000281300273000001500000000450F1000011501201215062016000010304869  ABB 0000000000                                                                                 
1  012478AIT BOURJ                     EL HABIB                      09051986DR94526     Prue 15 apt5 taza                                                         MA 13005678                3023   C1110005630000002P300PMX0903201107200000000308900227000001500000000450F1000011501201215042017000013609296  ABB 0000000000                                                                                 
1        EL YOUSFI                     BRAHIM                        17011994DA80448     P                                                                         MA 13005685                3022   I1110003960000002P300PMX0101201024000000001379900332000006000000000227F1000033101201231032030000041564017  ABB 0000000000                                                                                 
1        EL YOUSFI                     BRAHIM                        17011994DA80448     P                                                                         MA 13005685                3022   I1110003910000002P300PMX0101201030000000001880600332000006000000000227F1000003101201231122034000056645643  ABB 0000000000                                                                                 
1        EL YOUSFI                     BRAHIM                        17011994DA80448     P                                                                         MA 13005685                3022   I1110003900000002P300PMX0101201030000000001906600332000006000000000227F1000033101201231032035000057427116  ABB 0000000000                                                                                 
1   02122AIT BOURJ                     EL HABIB                      01011980VX00121     PN 15 APPT 16 AGDAL                                                       MA 13005655                3023   C1110006800000002P300PMX0101201012000000000280800273000001200000000450F1000011501201215022020000010245312  ABB 0000000000                                                                                 
1  152369ASKARI                        FATIMA                        20121978DF98523     P                                                                         MA 13005671                3022   I1110003930000002P300PMX0106201030000000001908700332000006000000000227F1000003001201230062035000057491898  ABB 0000000000                                                                                 
1   01254OUASSINI                      MOHAMED                       15021970WX0023      Pvilla floride bd zerktouni                                               MA 13005682                3023   C1110005600000002P300PMX0903201111900000001443900606000002500000000450F1000011501201215032021000023826749  ABB 0000000000                                                                                 
1  012478AIT BOURJ                     EL HABIB                      09051986DR94526     Prue 15 apt5 taza                                                         MA 13005678                3023   C1110005690000002P300PMX1003201112000000000324200227000001500000000450F1000011501201215042021000014281208  ABB 0000000000                                                                                 
1  125454AJDID                         TARIK                         13061988A66655      PAVENUE ALLAL IBN ABDELLAH                                                MA 13005635                3023   C1110006860000002P300PMX0101200808400000000170100227000001500000000450F1000011501201215022015000007465529  ABB 0000000000                                                                                 
1    1234HADDAOUI                      MUSTAPHA                      01011971AA332211    Pres maamora                                                              MA 13005635                3023   C1010003280000002P300PMX0101201012000000000765001372000000600000000450F1000001501201215012020000005583964  ABB 0000000000                                                                                 
1  545454AJDID                         TARIK                         01011980EZ22110     PN 15 APPT 16 AGDAL                                                       MA 13005659                3023   C1110006880000002P300PMX0101200907600000000159400273000000980000000450F1000010101201201062015000005816544  ABB 0000000000                                                                                 
1    1234HADDAOUI                      MUSTAPHA                      01011991DD55500     Pres maamora                                                              MA 13005654                3023   C1010002050000002P300PMX0101201010000000000471100227000002250000000450F1000001501201215062018000020755038  ABB 0000000000                                                                                 
1  215487EL YOUSFI                     BRAHIM                        17011994DA80448     PCasablanca Tama                                                          MA 8410539                 3022   I1110007250000002P300PMX0101201012000000000279000332000001000000000450F1000003101201231122019000008402678  ABB 0000000000                                                                                 
1  215487EL YOUSFI                     BRAHIM                        17011994DA80448     PCasablanca Tama                                                          MA 13005648                3022   I1110006000000002P300PMX0101201029700000001913900332000006000000000500F1000033101201231122034000057265965  ABB 0000000000                                                                                 
1   12563AAMOUM                        MOHAMMED                      01011985XW9002      P                                                                         MA 13005686                3022   I1010003050000002P300PMX0102201030000000101911200332000006000000000227F1000001501201215122035000057567003  ABB 0000000000                                                                                 
1                                                                    01011970            P                                                                         MA                                E1110007290000002P300PMX0409201112000000000000013078000006500000000650F1000013010201130092021000064244101  ABB 0000000000                                                                                 
1  120021OUASSINI                      MOHAMED                       15021970WX0023      PN 5 APPT 25                                                              MA 13005682                3023   C1110004370000002P300PMX0303201111900000000433200606000000750000000450F1000011501201215032021000007148024  ABB 0000000000                                                                                 
1   01254AJDID                         TARIK                         05091986AD141952    Pvilla floride bd zerktouni                                               MA 13005667                3023   C1110005580000002P300PMX0903201107100000000092500227000000450000000450F1000011501201215032017000004075651  ABB 0000000000                                                                                 
1  021100BOUZAIDI                      ACHRAF                        01011980SQ21112     PN 15 APPT 16 AGDAL                                                       MA 13005689                3023   C1110006790000002P300PMX0101201007600000000112200273000000550000000450F1000011501201215062016000004091780  ABB 0000000000                                                                                 
1   28900HADDAOUI                      MUSTAPHA                      01011990AA332211    Pres maamora                                                              MA 13005634                3023   C1010002140000002P300PMX0101201006000000000088600227000000500000000450F1000001501201215022015000003901849  ABB 0000000000                                                                                 
1    3333HADDAOUI                      MUSTAPHA                      01011991DD55500     Pres maamora                                                              MA 13005654                3023   C1010002180000002P300PMX0101201012000000000124400227000000600000000450F1000001501201215022020000005482115  ABB 0000000000                                                                                 
1  123456OUASSINI                      MOHAMED                       15021970WX0023      PNUM 15 APPT 06                                                           MA 13005682                3023   C1110004340000002P300PMX0303201112000000000433400606000000750000000450F1000011501201215042021000007152217  ABB 0000000000                                                                                 
1   65100AJDID                         TARIK                         13061988A66655      Pres semiramis N 12 appt 15                                              MA 13005635                3023   C1110006760000002P300PMX0101200808300000000167700227000001500000000450F1000011501201215012015000007357183  ABB 0000000000                                                                                 
1  015211AJDID                         TARIK                         01011980EZ22110     Pvilla floride bd zerktouni                                               MA 13005659                3023   C1110006770000002P300PMX0101200809600000000186100273000000980000000450F1000011501201215022017000006790121  ABB 0000000000                                                                                 
1   01254AAMOUM                        MOHAMED                       24041996FR94562     Pvilla floride bd zerktouni                                               MA 13005674                3023   C1110005570000002P300PMX0803201112000000000216100227000001000000000450F1000011501201215042021000009520808  ABB 0000000000                                                                                 
1  012211ASKARI                        FATIMA                        01011991A3212       PN 15 APPT 16 AGDAL                                                       MA 13005640                3023   C1110006780000002P300PMX0101200707600000000021300227000000350000000450F1000011501201215062013000000936230  ABB 0000000000                                                                                 
1   12345AJDID                         TARIK                         08091977DF45236     PFES                                                                      MA 13005669                3023   C1110004190000002P300PMX1501201106000000000023800273000000100000000450F1000011501201215032016000000870089  ABB 0000000000                                                                                 
1   01254ASKARI                        FATIMA                        01011987A3000       PTEST ADRESSE 1 TEST ADRESSE 2 EST ADRESSE 3 TEST ADRESSE 4               MA 13005662                3022   I1110007370000002P300UMX0110201130300000000000000438600002500000000450F1000001510201115122036000024957458  ABB 0000005000                                                                                 
1   RABATASKARI                        FATIMA                        01011987A3000       PAPP T2 IMM 2  AVENUE ALLAL IBNABDELLAH RABAT                             MA 13005662                3022   I1110007380000002P300PMX0109200830000000000738400332000006000000000227F1000001501201215092033000022239739  ABB 0000000000                                                                                 
1  012356AJDID                         TARIK                         13061988A66655      PAVENUE ALLAL EL FASSI APPT1 IMB8  RABAT                                  MA 13005635                3022   I1110006140000002P300PMX0102201130300000001459400332000004500000000227F1000001501201215052036000043956865  ABB 0000000000                                                                                 
1  012478AIT BOURJ                     EL HABIB                      09051986DR94526     Prue 15 apt5 taza                                                         MA 13005678                3023   C1110005400000002P300PMX0803201108800000000145300227000000700000000450F1000001501201215072018000006400554  ABB 0000000000                                                                                 
1   12345ASKARI                        FATIMA                        20121968AD845213    PSETTAT                                                                   MA 13005670                3023   C1110004200000002P300PMX1501201111900000000315600606000000550000000450F1000011501201215022021000005208126  ABB 0000000000                                                                                 
1  012478AIT BOURJ                     EL HABIB                      09051986DR94526     Prue 15 apt5 taza                                                         MA 13005678                3023   C1110005420000002P300PMX0803201107200000000061800227000000300000000450F1000011501201215042017000002721862  ABB 0000000000                                                                                 
1   02825ASKARI                        FATIMA                        01011987A3000       Pvilla floride bd zerktouni                                               MA 13005662                3023   C1110006630000002P300PMX0507201112000000000144300227000000650000000450F1000010101201201082021000006333461  ABB 0000000000                                                                                 
1    1234HADDAOUI                      MUSTAPHA                      01011991DD55500     Pres maamora                                                              MA 13005654                3023   C1010002200000002P300PMX0101201007200000057607600606000005000000000450F1000001501201215012016000026030532  ABB 0000002500                                                                                 
1   12233AJDID                         TARIK                         01011980EZ22110     PNUM 10 APPT 15                                                           MA 13005659                3023   C1110004280000002P300PMX0203201111900000000155900273000000600000000450F1000011501201215032021000005710261  ABB 0000000000                                                                                 
1  012211AAMOUM                        MOHAMED                       05041987AZ59633     Pvilla floride bd zerktouni                                               MA 13005676                3023   C1110005490000002P300PMX0803201108300000000115100227000000550000000450F1000011501201215032018000005072043  ABB 0000000000                                                                                 
1  020145AJDID                         TARIK                         08091977DF45236     PCASA                                                                     MA 13005669                3023   C1110004290000002P300PMX1502201111900000000805400273000003100000000450F1000011501201215032021000029384793  ABB 0000000000                                                                                 
1  023528AJDID                         TARIK                         05091986AD141952    PRUE ABDELKIM GN                                                          MA 13005667                3023   C1110004220000002P300PMX1501201106000000000019700227000000100000000450F1000011501201215032016000000866097  ABB 0000000000                                                                                 
1  012478AIT BOURJ                     EL HABIB                      09051986DR94526     Prue 15 apt5 taza                                                         MA 13005678                3023   C1110005430000002P300PMX0603201108100000000313200227000001500000000450F1000011501201215012018000013796757  ABB 0000000000                                                                                 
