S350  001LSERV            2012-09-30                                                                                      99930   99910   10000   01000   BRIDS     30ABBb781ca0260a1                                                                                          074014500357                              120+0000000700000000001TERER DF DFDG                           1987-10-10+100000+100000001  WAFA 2010-01-10                     +00000000000000000003   +000000000+00000000000000000+00000000000000000+0000000000000-00-0000000-00-00+00000000500000000+00000000500000000+000000005000000000000-00-00+000000000000000002012-04-02+000000000000000002012-04-02 0000-00-00+00000000000000000+00000000000000000+00000000000000000MAD10000100000000+00000000000000000+00000000000000000+00000000000000000+00000000000000000                         0000-00-00MAD0000000000000
S350  001LSERV            2012-09-30                                                                                      99930   99910   10000   01000   BRIDS     30CC000000000                                                                                              074013641801                              120+0000000700000000001nom                                     1963-05-22+100000+100000003  WAFA 2010-01-10                     +000000000000000005     +000000000+00000000000000000+00000000000003000+0000000002012-09-3000000-00-00+00000000384062920+00000000384062920+000000005000000000000-00-00+000000000000000002012-06-02+000000000000000002012-06-02 0000-00-00+00000000000000000+00000000000000000+00000000000000000MAD10000100000000+00000000000000000+00000000000000000+00000000000000000+00000000000000000                         0000-00-00MAD0000000000000
S350  001LSERV            2012-09-30                                                                                      99930   99910   10000   01000   BRIDS     30CC000000000                                                                                              074013641801                              120+0000000700000000002nom                                     1966-03-29+100000+100000001  WAFA 2010-01-10                     +00000000000000000001   +000000000+00000000000000000+00000000000128750+0000332002012-09-3000000-00-00+00000000384062920+00000000384062920+000000005000000000000-00-00+000000000000000002012-06-02+000000000000000002012-06-02 0000-00-00+00000000000000000+00000000000000000+00000000000000000MAD10000100000000+00000000000000000+00000000000000000+00000000000000000+00000000000000000                         0000-00-00MAD0000000000000
S350  001LSERV            2012-09-30                                                                                      99930   99919   03000   10900   BRIDS     30CC101000131                                                                                              074013641801                              120+0000000060000000001EL YOUSFI BRAHIM                        1994-01-17+100000+100000004  WAFA 2010-01-01                     +00000000000000000003   +000000000+00000000000000000+00000000000001480+0000018912012-09-3000000-00-00+00000000077420440+00000000077420440+000000001000000000000-00-00+000000000000000002011-03-11+000000000000000002011-03-11 0000-00-00+00000000000000000+00000000000000000+00000000000000000MAD10000100000000+00000000000000000+00000000000000000+00000000000000000+00000000000000000                         0000-00-00MAD0000000000000
S350  001LSERV            2012-09-30                                                                                      99930   99919   03000   10900   BRIDS     30CC101000131                                                                                              074013641801                              120+0000000060000000040EL YOUSFI BRAHIM                        1994-01-17+100000+100000004  WAFA 2010-01-010101S01              +00000000000000000H03   +000000000+00000000000000000+00000000000000000+0000000002012-09-3000000-00-00+00000000077420440+00000000077420440+000000001000000000000-00-00+000000000000000002011-03-11+000000000000000002011-03-11 0000-00-00+00000000000000000+00000000000000000+00000000000000000MAD10000100000000+00000000000000000+00000000000000000+00000000000000000+00000000000000000                         0000-00-00MAD0000000000000
S350  001LSERV            2012-09-30                                                                                      99930   99910   10000   01000   BRIDS     30CC101000196                                                                                              074014507708                              120+0000000015000000002HADDAOUI MUSTAPHA                       1980-01-01+100000+100000004  WAFA 2010-01-01                     +00000000000000000203   +000000000+00000000000000000+00000000000002420+0000018912012-09-1500000-00-00+00000000126857040+00000000126857040+000000001500000000000-00-00+000000000000000002010-12-06+000000000000000002010-12-06 0000-00-00+00000000000000000+00000000000000000+00000000000000000MAD10000100000000+00000000000000000+00000000000000000+00000000000000000+00000000000000000                         0000-00-00MAD0000000000000
S350  001LSERV            2012-09-30                                                                                      99930   99910   10000   01000   BRIDS     30CC101000196                                                                                              074014507708                              120+0000000015000000039HADDAOUI MUSTAPHA                       1980-01-01+100000+100000004  WAFA 2010-01-010201S01              +00000000000000000H     +000000000+00000000000000000+00000000000000000+0000000002012-09-1500000-00-00+00000000126857040+00000000126857040+000000001500000000000-00-00+000000000000000002010-12-06+000000000000000002010-12-06 0000-00-00+00000000000000000+00000000000000000+00000000000000000MAD10000100000000+00000000000000000+00000000000000000+00000000000000000+00000000000000000                         0000-00-00MAD0000000000000
S350  001LSERV            2012-09-30                                                                                      99930   99910   10000   01000   BRIDS     30CC101000205                                                                                              074014507720                              100+0000000022500000001HADDAOUI MUSTAPHA                       1971-01-31+100000+100000004  WAFA 2010-01-01                     +00000000000000000203   +000000000+00000000000000000+00000000000003580+0000018912012-09-1500000-00-00+00000000187167960+00000000187167960+000000002250000000000-00-00+000000000000000002010-12-06+000000000000000002010-12-06 0000-00-00+00000000000000000+00000000000000000+00000000000000000MAD10000100000000+00000000000000000+00000000000000000+00000000000000000+00000000000000000                         0000-00-00MAD0000000000000
S350  001LSERV            2012-09-30                                                                                      99930   99910   10000   01000   BRIDS     30CC101000205                                                                                              074014507720                              100+0000000022500000040HADDAOUI MUSTAPHA                       1971-01-31+100000+100000004  WAFA 2010-01-010101S01              +00000000000000000H     +000000000+00000000000000000+00000000000000000+0000000002012-09-1500000-00-00+00000000187167960+00000000187167960+000000002250000000000-00-00+000000000000000002010-12-06+000000000000000002010-12-06 0000-00-00+00000000000000000+00000000000000000+00000000000000000MAD10000100000000+00000000000000000+00000000000000000+00000000000000000+00000000000000000                         0000-00-00MAD0000000000000
S350  001LSERV            2012-09-30                                                                                      99930   99910   10000   01000   BRIDS     30CC101000214                                                                                              074014507708                              060+0000000005000000001HADDAOUI MUSTAPHA                       1990-01-01+100000+100000004  WAFA 2010-01-01                     +00000000000000000203   +000000000+00000000000000000+00000000000000590+0000018912012-09-1500000-00-00+00000000030394180+00000000030394180+000000000500000000000-00-00+000000000000000002010-12-06+000000000000000002010-12-06 0000-00-00+00000000000000000+00000000000000000+00000000000000000MAD10000100000000+00000000000000000+00000000000000000+00000000000000000+00000000000000000                         0000-00-00MAD0000000000000
S350  001LSERV            2012-09-30                                                                                      99930   99910   10000   01000   BRIDS     30CC101000214                                                                                              074014507708                              060+0000000005000000040HADDAOUI MUSTAPHA                       1990-01-01+100000+100000004  WAFA 2010-01-010101S01              +00000000000000000H     +000000000+00000000000000000+00000000000000000+0000000002012-09-1500000-00-00+00000000030394180+00000000030394180+000000000500000000000-00-00+000000000000000002010-12-06+000000000000000002010-12-06 0000-00-00+00000000000000000+00000000000000000+00000000000000000MAD10000100000000+00000000000000000+00000000000000000+00000000000000000+00000000000000000                         0000-00-00MAD0000000000000
S350  001LSERV            2012-09-30                                                                                      99930   99910   10000   01000   BRIDS     30CC101000218                                                                                              074014507720                              120+0000000006000000001HADDAOUI MUSTAPHA                       1990-01-01+100000+100000004  WAFA 2010-01-01                     +00000000000000000203   +000000000+00000000000000000+00000000000000970+0000018912012-09-1500000-00-00+00000000050742810+00000000050742810+000000000600000000000-00-00+000000000000000002010-12-06+000000000000000002010-12-06 0000-00-00+00000000000000000+00000000000000000+00000000000000000MAD10000100000000+00000000000000000+00000000000000000+00000000000000000+00000000000000000                         0000-00-00MAD0000000000000
S350  001LSERV            2012-09-30                                                                                      99930   99910   10000   01000   BRIDS     30CC101000218                                                                                              074014507720                              120+0000000006000000040HADDAOUI MUSTAPHA                       1990-01-01+100000+100000004  WAFA 2010-01-010101S01              +00000000000000000H     +000000000+00000000000000000+00000000000000000+0000000002012-09-1500000-00-00+00000000050742810+00000000050742810+000000000600000000000-00-00+000000000000000002010-12-06+000000000000000002010-12-06 0000-00-00+00000000000000000+00000000000000000+00000000000000000MAD10000100000000+00000000000000000+00000000000000000+00000000000000000+00000000000000000                         0000-00-00MAD0000000000000
S350  001LSERV            2012-09-30                                                                                      99930   99910   10000   01000   BRIDS     30CC101000220                                                                                              074014507720                              072+0000000050000000001HADDAOUI MUSTAPHA                       1961-01-01+100000+100000004  WAFA 2010-01-01                     +00000000000000000205   +025000000+00000000000000000+00000000004843970+0020883832012-09-1500000-00-00+00000000227885780+00000000227885780+000000005000000000000-00-00+000000000000000002010-12-06+000000000000000002010-12-06 0000-00-00+00000000000000000+00000000000000000+00000000000000000MAD10000100000000+00000000000000000+00000000000000000+00000000000000000+00000000000000000                         0000-00-00MAD0000000000000
S350  001LSERV            2012-09-30                                                                                      99930   99910   10000   01000   BRIDS     30CC101000220                                                                                              074014507720                              072+0000000050000000040HADDAOUI MUSTAPHA                       1961-01-01+100000+100000004  WAFA 2010-01-010101S02              +00000000000000000H     +000000000+00000000000000000+00000000000179990+0000000002012-09-1500000-00-00+00000000227885780+00000000227885780+000000005000000000000-00-00+000000000000000002010-12-06+000000000000000002010-12-06 0000-00-00+00000000000000000+00000000000000000+00000000000000000MAD10000100000000+00000000000000000+00000000000000000+00000000000000000+00000000000000000                         0000-00-00MAD0000000000000
S350  001LSERV            2012-09-30                                                                                      99930   99910   10000   01000   BRIDS     30CC101000243                                                                                              074014507709                              012+0000000002000000001AJDID TARIK                             1990-01-01+100000+100000004  WAFA 2010-01-01                     +00000000000000000204   +000000000+00000000000000000+00000000000000000+0000000000000-00-0000000-00-00+00000000000000000+00000000000000000+000000000000000000000-00-00+000000000000000002010-12-06+000000000000000000000-00-00 0000-00-00+00000000000000000+00000000000000000+00000000000000000MAD10000100000000+00000000000000000+00000000000000000+00000000000000000+00000000000000000                         0000-00-00MAD0000000000000
S350  001LSERV            2012-09-30                                                                                      99930   99910   10000   01000   BRIDS     30CC101000243                                                                                              074014507709                              012+0000000002000000040AJDID TARIK                             1990-01-01+100000+100000004  WAFA 2010-01-010101S01              +00000000000000000H     +000000000+00000000000000000+00000000000000000+0000000000000-00-0000000-00-00+00000000000000000+00000000000000000+000000000000000000000-00-00+000000000000000002010-12-06+000000000000000000000-00-00 0000-00-00+00000000000000000+00000000000000000+00000000000000000MAD10000100000000+00000000000000000+00000000000000000+00000000000000000+00000000000000000                         0000-00-00MAD0000000000000
S350  001LSERV            2012-09-30                                                                                      99930   99910   10000   01000   BRIDS     30CC101000245                                                                                              074014507709                              120+0000000005000000001AJDID TARIK                             1990-01-01+100000+100000004  WAFA 2010-01-01                     +00000000000000000204   +000000000+00000000000000000+00000000000000000+0000000000000-00-0000000-00-00+00000000000000000+00000000000000000+000000000000000000000-00-00+000000000000000002010-12-06+000000000000000000000-00-00 0000-00-00+00000000000000000+00000000000000000+00000000000000000MAD10000100000000+00000000000000000+00000000000000000+00000000000000000+00000000000000000                         0000-00-00MAD0000000000000
S350  001LSERV            2012-09-30                                                                                      99930   99910   10000   01000   BRIDS     30CC101000245                                                                                              074014507709                              120+0000000005000000040AJDID TARIK                             1990-01-01+100000+100000004  WAFA 2010-01-010101S01              +00000000000000000H     +000000000+00000000000000000+00000000000000000+0000000000000-00-0000000-00-00+00000000000000000+00000000000000000+000000000000000000000-00-00+000000000000000002010-12-06+000000000000000000000-00-00 0000-00-00+00000000000000000+00000000000000000+00000000000000000MAD10000100000000+00000000000000000+00000000000000000+00000000000000000+00000000000000000                         0000-00-00MAD0000000000000
S350  001LSERV            2012-09-30                                                                                      99930   99910   10000   01000   BRIDS     30CC101000253                                                                                              074014507709                              120+0000000005000000001AJDID TARIK                             1990-01-01+100000+100000004  WAFA 2010-01-01                     +00000000000000000203   +000000000+00000000000000000+00000000000000000+0000018912012-09-1500000-00-00+00000000000000000+00000000000000000+000000000000000000000-00-00+000000000000000002010-12-06+000000000000000002010-12-06 0000-00-00+00000000000000000+00000000000000000+00000000000000000MAD10000100000000+00000000000000000+00000000000000000+00000000000000000+00000000000000000                         0000-00-00MAD0000000000000
S350  001LSERV            2012-09-30                                                                                      99930   99910   10000   01000   BRIDS     30CC101000253                                                                                              074014507709                              120+0000000005000000040AJDID TARIK                             1990-01-01+100000+100000004  WAFA 2010-01-010101S01              +00000000000000000H     +000000000+00000000000000000+00000000000000000+0000000002012-09-1500000-00-00+00000000000000000+00000000000000000+000000000000000000000-00-00+000000000000000002010-12-06+000000000000000002010-12-06 0000-00-00+00000000000000000+00000000000000000+00000000000000000MAD10000100000000+00000000000000000+00000000000000000+00000000000000000+00000000000000000                         0000-00-00MAD0000000000000
S350  001LSERV            2012-09-30                                                                                      99930   99910   10000   01000   BRIDS     30CC101000254                                                                                              074014507709                              120+0000000006000000001AJDID TARIK                             1990-01-01+100000+100000004  WAFA 2010-01-01                     +00000000000000000204   +000000000+00000000000000000+00000000000001170+0000022752012-09-1500000-00-00+00000000050783770+00000000050783770+000000000600000000000-00-00+000000000000000002010-12-06+000000000000000002010-12-06 0000-00-00+00000000000000000+00000000000000000+00000000000000000MAD10000100000000+00000000000000000+00000000000000000+00000000000000000+00000000000000000                         0000-00-00MAD0000000000000
S350  001LSERV            2012-09-30                                                                                      99930   99910   10000   01000   BRIDS     30CC101000254                                                                                              074014507709                              120+0000000006000000040AJDID TARIK                             1990-01-01+100000+100000004  WAFA 2010-01-010101S01              +00000000000000000H     +000000000+00000000000000000+00000000000000000+0000000002012-09-1500000-00-00+00000000050783770+00000000050783770+000000000600000000000-00-00+000000000000000002010-12-06+000000000000000002010-12-06 0000-00-00+00000000000000000+00000000000000000+00000000000000000MAD10000100000000+00000000000000000+00000000000000000+00000000000000000+00000000000000000                         0000-00-00MAD0000000000000
S350  001LSERV            2012-09-30                                                                                      99930   99910   10000   01000   BRIDS     30CC101000255                                                                                              074014507709                              120+0000000022000000001AJDID TARIK                             1990-01-01+100000+100000004  WAFA 2010-01-01                     +00000000000000000204   +000000000+00000000000000000+00000000000004280+0000022752012-09-1500000-00-00+00000000186207340+00000000186207340+000000002200000000000-00-00+000000000000000002010-12-06+000000000000000002010-12-06 0000-00-00+00000000000000000+00000000000000000+00000000000000000MAD10000100000000+00000000000000000+00000000000000000+00000000000000000+00000000000000000                         0000-00-00MAD0000000000000
S350  001LSERV            2012-09-30                                                                                      99930   99910   10000   01000   BRIDS     30CC101000255                                                                                              074014507709                              120+0000000022000000040AJDID TARIK                             1990-01-01+100000+100000004  WAFA 2010-01-010101S01              +00000000000000000H     +000000000+00000000000000000+00000000000000000+0000000002012-09-1500000-00-00+00000000186207340+00000000186207340+000000002200000000000-00-00+000000000000000002010-12-06+000000000000000002010-12-06 0000-00-00+00000000000000000+00000000000000000+00000000000000000MAD10000100000000+00000000000000000+00000000000000000+00000000000000000+00000000000000000                         0000-00-00MAD0000000000000
S350  001LSERV            2012-09-30                                                                                      99930   99910   10000   01000   BRIDS     30CC101000262                                                                                              074014507714                              120+0000000006000000001AJDID TARIK                             1988-09-05+100000+100000004  WAFA 2010-01-01                     +00000000000000000204   +000000000+00000000000000000+00000000000000000+0000000000000-00-0000000-00-00+00000000000000000+00000000000000000+000000000000000000000-00-00+000000000000000002010-12-06+000000000000000000000-00-00 0000-00-00+00000000000000000+00000000000000000+00000000000000000MAD10000100000000+00000000000000000+00000000000000000+00000000000000000+00000000000000000                         0000-00-00MAD0000000000000
S350  001LSERV            2012-09-30                                                                                      99930   99910   10000   01000   BRIDS     30CC101000262                                                                                              074014507714                              120+0000000006000000040AJDID TARIK                             1988-09-05+100000+100000004  WAFA 2010-01-010101S01              +00000000000000000H04   +000000000+00000000000000000+00000000000000000+0000000000000-00-0000000-00-00+00000000000000000+00000000000000000+000000000000000000000-00-00+000000000000000002010-12-06+000000000000000000000-00-00 0000-00-00+00000000000000000+00000000000000000+00000000000000000MAD10000100000000+00000000000000000+00000000000000000+00000000000000000+00000000000000000                         0000-00-00MAD0000000000000
S350  001LSERV            2012-09-30                                                                                      99930   99910   10000   01000   BRIDS     30CC101000272                                                                                              074014507709                              060+0000000003000000001AJDID TARIK                             1990-01-01+100000+100000004  WAFA 2010-01-01                     +00000000000000000204   +000000000+00000000000000000+00000000000000430+0000022752012-09-1500000-00-00+00000000018254680+00000000018254680+000000000300000000000-00-00+000000000000000002010-12-06+000000000000000002010-12-06 0000-00-00+00000000000000000+00000000000000000+00000000000000000MAD10000100000000+00000000000000000+00000000000000000+00000000000000000+00000000000000000                         0000-00-00MAD0000000000000
S350  001LSERV            2012-09-30                                                                                      99930   99910   10000   01000   BRIDS     30CC101000272                                                                                              074014507709                              060+0000000003000000040AJDID TARIK                             1990-01-01+100000+100000004  WAFA 2010-01-010101S01              +00000000000000000H04   +000000000+00000000000000000+00000000000000000+0000000002012-09-1500000-00-00+00000000018254680+00000000018254680+000000000300000000000-00-00+000000000000000002010-12-06+000000000000000002010-12-06 0000-00-00+00000000000000000+00000000000000000+00000000000000000MAD10000100000000+00000000000000000+00000000000000000+00000000000000000+00000000000000000                         0000-00-00MAD0000000000000
S350  001LSERV            2012-09-30                                                                                      99930   99910   10000   01000   BRIDS     30CC101000276                                                                                              074014507708                              120+0000000005000000001HADDAOUI MUSTAPHA                       1971-01-01+100000+100000004  WAFA 2010-01-01                     +00000000000000000206   +000000000+00000000000000000+00000000000000000+0000000000000-00-0000000-00-00+00000000000000000+00000000000000000+000000000000000000000-00-00+000000000000000002010-12-06+000000000000000000000-00-00 0000-00-00+00000000000000000+00000000000000000+00000000000000000MAD10000100000000+00000000000000000+00000000000000000+00000000000000000+00000000000000000                         0000-00-00MAD0000000000000
S350  001LSERV            2012-09-30                                                                                      99930   99910   10000   01000   BRIDS     30CC101000276                                                                                              074014507708                              120+0000000005000000040HADDAOUI MUSTAPHA                       1971-01-01+100000+100000004  WAFA 2010-01-010101S01              +00000000000000000H06   +000000000+00000000000000000+00000000000000000+0000000000000-00-0000000-00-00+00000000000000000+00000000000000000+000000000000000000000-00-00+000000000000000002010-12-06+000000000000000000000-00-00 0000-00-00+00000000000000000+00000000000000000+00000000000000000MAD10000100000000+00000000000000000+00000000000000000+00000000000000000+00000000000000000                         0000-00-00MAD0000000000000
S350  001LSERV            2012-09-30                                                                                      99930   99910   10000   01000   BRIDS     30CC101000308                                                                                              074014507733                              120+0000000027000000001AJDID TARIK                             1986-09-05+100000+100000004  WAFA 2010-02-06                     +00000000000000000204   +000000000+00000000000000000+00000000000005410+0000022752012-09-1500000-00-00+00000000235718400+00000000235718400+000000002700000000000-00-00+000000000000000002010-12-06+000000000000000002010-12-06 0000-00-00+00000000000000000+00000000000000000+00000000000000000MAD10000100000000+00000000000000000+00000000000000000+00000000000000000+00000000000000000                         0000-00-00MAD0000000000000
S350  001LSERV            2012-09-30                                                                                      99930   99910   10000   01000   BRIDS     30CC101000308                                                                                              074014507733                              120+0000000027000000040AJDID TARIK                             1986-09-05+100000+100000004  WAFA 2010-02-060101S01              +00000000000000000H04   +000000000+00000000000000000+00000000000000000+0000000002012-09-1500000-00-00+00000000235718400+00000000235718400+000000002700000000000-00-00+000000000000000002010-12-06+000000000000000002010-12-06 0000-00-00+00000000000000000+00000000000000000+00000000000000000MAD10000100000000+00000000000000000+00000000000000000+00000000000000000+00000000000000000                         0000-00-00MAD0000000000000
S350  001LSERV            2012-09-30                                                                                      99930   99910   10000   01000   BRIDS     30CC101000309                                                                                              074014507735                              120+0000000027000000001AJDID TARIK                             1977-09-08+100000+100000004  WAFA 2010-12-06                     +00000000000000000205   +000000000+00000000000000000+00000000000012070+0000050502012-09-1500000-00-00+00000000237080000+00000000237080000+000000002700000000000-00-00+000000000000000002010-12-06+000000000000000002010-12-06 0000-00-00+00000000000000000+00000000000000000+00000000000000000MAD10000100000000+00000000000000000+00000000000000000+00000000000000000+00000000000000000                         0000-00-00MAD0000000000000
S350  001LSERV            2012-09-30                                                                                      99930   99910   10000   01000   BRIDS     30CC101000309                                                                                              074014507735                              120+0000000027000000040AJDID TARIK                             1977-09-08+100000+100000004  WAFA 2010-12-060101S01              +00000000000000000H05   +000000000+00000000000000000+00000000000000000+0000000002012-09-1500000-00-00+00000000237080000+00000000237080000+000000002700000000000-00-00+000000000000000002010-12-06+000000000000000002010-12-06 0000-00-00+00000000000000000+00000000000000000+00000000000000000MAD10000100000000+00000000000000000+00000000000000000+00000000000000000+00000000000000000                         0000-00-00MAD0000000000000
S350  001LSERV            2012-09-30                                                                                      99930   99910   10000   01000   BRIDS     30CC101000311                                                                                              074014507733                              120+0000000027000000001AJDID TARIK                             1986-09-05+100000+100000004  WAFA 2010-12-06                     +00000000000000000204   +000000000+00000000000000000+00000000000005410+0000022752012-09-1500000-00-00+00000000235718400+00000000235718400+000000002700000000000-00-00+000000000000000002010-12-06+000000000000000002010-12-06 0000-00-00+00000000000000000+00000000000000000+00000000000000000MAD10000100000000+00000000000000000+00000000000000000+00000000000000000+00000000000000000                         0000-00-00MAD0000000000000
S350  001LSERV            2012-09-30                                                                                      99930   99910   10000   01000   BRIDS     30CC101000311                                                                                              074014507733                              120+0000000027000000040AJDID TARIK                             1986-09-05+100000+100000004  WAFA 2010-12-060101S01              +00000000000000000H04   +000000000+00000000000000000+00000000000000000+0000000002012-09-1500000-00-00+00000000235718400+00000000235718400+000000002700000000000-00-00+000000000000000002010-12-06+000000000000000002010-12-06 0000-00-00+00000000000000000+00000000000000000+00000000000000000MAD10000100000000+00000000000000000+00000000000000000+00000000000000000+00000000000000000                         0000-00-00MAD0000000000000
S350  001LSERV            2012-09-30                                                                                      99930   99910   10000   01000   BRIDS     30CC101000318                                                                                              074014507720                              120+0000000015000000001HADDAOUI MUSTAPHA                       1991-01-01+100000+100000004  WAFA 2010-01-01                     +00000000000000000204   +000000000+00000000000000000+00000000000002930+0000022752012-09-1500000-00-00+00000000127617430+00000000127617430+000000001500000000000-00-00+000000000000000002010-12-31+000000000000000002010-12-31 0000-00-00+00000000000000000+00000000000000000+00000000000000000MAD10000100000000+00000000000000000+00000000000000000+00000000000000000+00000000000000000                         0000-00-00MAD0000000000000
S350  001LSERV            2012-09-30                                                                                      99930   99910   10000   01000   BRIDS     30CC101000318                                                                                              074014507720                              120+0000000015000000040HADDAOUI MUSTAPHA                       1991-01-01+100000+100000004  WAFA 2010-01-010101S01              +00000000000000000H04   +000000000+00000000000000000+00000000000000000+0000000002012-09-1500000-00-00+00000000127617430+00000000127617430+000000001500000000000-00-00+000000000000000002010-12-31+000000000000000002010-12-31 0000-00-00+00000000000000000+00000000000000000+00000000000000000MAD10000100000000+00000000000000000+00000000000000000+00000000000000000+00000000000000000                         0000-00-00MAD0000000000000
S350  001LSERV            2012-09-30                                                                                      99930   99910   10000   01000   BRIDS     30CC101000319                                                                                              074014507720                              120+0000000005000000001HADDAOUI MUSTAPHA                       1991-01-01+100000+100000004  WAFA 2010-01-01                     +00000000000000000204   +000000000+00000000000000000+00000000000000980+0000022752012-09-1500000-00-00+00000000042539260+00000000042539260+000000000500000000000-00-00+000000000000000002010-12-31+000000000000000002010-12-31 0000-00-00+00000000000000000+00000000000000000+00000000000000000MAD10000100000000+00000000000000000+00000000000000000+00000000000000000+00000000000000000                         0000-00-00MAD0000000000000
S350  001LSERV            2012-09-30                                                                                      99930   99910   10000   01000   BRIDS     30CC101000319                                                                                              074014507720                              120+0000000005000000040HADDAOUI MUSTAPHA                       1991-01-01+100000+100000004  WAFA 2010-01-010101S01              +00000000000000000H04   +000000000+00000000000000000+00000000000000000+0000000002012-09-1500000-00-00+00000000042539260+00000000042539260+000000000500000000000-00-00+000000000000000002010-12-31+000000000000000002010-12-31 0000-00-00+00000000000000000+00000000000000000+00000000000000000MAD10000100000000+00000000000000000+00000000000000000+00000000000000000+00000000000000000                         0000-00-00MAD0000000000000
S350  001LSERV            2012-09-30                                                                                      99930   99910   10000   01000   BRIDS     30CC101000320                                                                                              074014507720                              120+0000000015000000001HADDAOUI MUSTAPHA                       1991-01-01+100000+100000004  WAFA 2010-01-01                     +00000000000000000204   +000000000+00000000000000000+00000000000000000+0000000000000-00-0000000-00-00+00000000000000000+00000000000000000+000000000000000000000-00-00+000000000000000002010-12-31+000000000000000000000-00-00 0000-00-00+00000000000000000+00000000000000000+00000000000000000MAD10000100000000+00000000000000000+00000000000000000+00000000000000000+00000000000000000                         0000-00-00MAD0000000000000
S350  001LSERV            2012-09-30                                                                                      99930   99910   10000   01000   BRIDS     30CC101000320                                                                                              074014507720                              120+0000000015000000040HADDAOUI MUSTAPHA                       1991-01-01+100000+100000004  WAFA 2010-01-010101S01              +00000000000000000H04   +000000000+00000000000000000+00000000000000000+0000000000000-00-0000000-00-00+00000000000000000+00000000000000000+000000000000000000000-00-00+000000000000000002010-12-31+000000000000000000000-00-00 0000-00-00+00000000000000000+00000000000000000+00000000000000000MAD10000100000000+00000000000000000+00000000000000000+00000000000000000+00000000000000000                         0000-00-00MAD0000000000000
S350  001LSERV            2012-09-30                                                                                      99930   99910   10000   01000   BRIDS     30CC101000328                                                                                              074014507708                              120+0000000006000000001HADDAOUI MUSTAPHA                       1971-01-01+100000+100000004  WAFA 2010-01-01                     +00000000000000000206   +000000000+00000000000000000+00000000000006010+0000114332012-09-1500000-00-00+00000000052113900+00000000052113900+000000000600000000000-00-00+000000000000000002011-01-01+000000000000000002011-01-01 0000-00-00+00000000000000000+00000000000000000+00000000000000000MAD10000100000000+00000000000000000+00000000000000000+00000000000000000+00000000000000000                         0000-00-00MAD0000000000000
S350  001LSERV            2012-09-30                                                                                      99930   99910   10000   01000   BRIDS     30CC101000328                                                                                              074014507708                              120+0000000006000000040HADDAOUI MUSTAPHA                       1971-01-01+100000+100000004  WAFA 2010-01-010101S01              +00000000000000000H06   +000000000+00000000000000000+00000000000000000+0000000002012-09-1500000-00-00+00000000052113900+00000000052113900+000000000600000000000-00-00+000000000000000002011-01-01+000000000000000002011-01-01 0000-00-00+00000000000000000+00000000000000000+00000000000000000MAD10000100000000+00000000000000000+00000000000000000+00000000000000000+00000000000000000                         0000-00-00MAD0000000000000
S350  001LSERV            2012-09-30                                                                                      99930   99910   10000   01000   BRIDS     30CC111000348                                                                                              074014507708                              120+0000000007500000001HADDAOUI MUSTAPHA                       1971-01-01+100000+100000004  WAFA 2010-12-20                     +00000000000000000204   +000000000+00000000000000000+00000000000001500+0000022752012-09-1500000-00-00+00000000065232700+00000000065232700+000000000750000000000-00-00+000000000000000002011-01-05+000000000000000002011-01-05 0000-00-00+00000000000000000+00000000000000000+00000000000000000MAD10000100000000+00000000000000000+00000000000000000+00000000000000000+00000000000000000                         0000-00-00MAD0000000000000
S350  001LSERV            2012-09-30                                                                                      99930   99910   10000   01000   BRIDS     30CC111000348                                                                                              074014507708                              120+0000000007500000040HADDAOUI MUSTAPHA                       1971-01-01+100000+100000004  WAFA 2010-12-200101S01              +00000000000000000H04   +000000000+00000000000000000+00000000000000000+0000000002012-09-1500000-00-00+00000000065232700+00000000065232700+000000000750000000000-00-00+000000000000000002011-01-05+000000000000000002011-01-05 0000-00-00+00000000000000000+00000000000000000+00000000000000000MAD10000100000000+00000000000000000+00000000000000000+00000000000000000+00000000000000000                         0000-00-00MAD0000000000000
S350  001LSERV            2012-09-30                                                                                      99930   99910   10000   01000   BRIDS     30CC111000350                                                                                              074014507735                              120+0000000002000000001AJDID TARIK                             1977-09-08+100000+100000004  WAFA 2010-12-01                     +00000000000000000204   +000000000+00000000000000000+00000000000000400+0000022752012-09-1500000-00-00+00000000017395300+00000000017395300+000000000200000000000-00-00+000000000000000002011-01-05+000000000000000002011-01-05 0000-00-00+00000000000000000+00000000000000000+00000000000000000MAD10000100000000+00000000000000000+00000000000000000+00000000000000000+00000000000000000                         0000-00-00MAD0000000000000
S350  001LSERV            2012-09-30                                                                                      99930   99910   10000   01000   BRIDS     30CC111000350                                                                                              074014507735                              120+0000000002000000040AJDID TARIK                             1977-09-08+100000+100000004  WAFA 2010-12-010101S01              +00000000000000000H04   +000000000+00000000000000000+00000000000000000+0000000002012-09-1500000-00-00+00000000017395300+00000000017395300+000000000200000000000-00-00+000000000000000002011-01-05+000000000000000002011-01-05 0000-00-00+00000000000000000+00000000000000000+00000000000000000MAD10000100000000+00000000000000000+00000000000000000+00000000000000000+00000000000000000                         0000-00-00MAD0000000000000
S350  001LSERV            2012-09-30                                                                                      99930   99910   10000   01000   BRIDS     30CC111000352                                                                                              074014507727                              060+0000000004500000001AJDID TARIK                             1980-01-01+100000+100000004  WAFA 2011-01-20                     +00000000000000000204   +000000000+00000000000000000+00000000000000740+0000022752012-09-1500000-00-00+00000000031984570+00000000031984570+000000000450000000000-00-00+000000000000000002011-02-01+000000000000000002011-02-01 0000-00-00+00000000000000000+00000000000000000+00000000000000000MAD10000100000000+00000000000000000+00000000000000000+00000000000000000+00000000000000000                         0000-00-00MAD0000000000000
S350  001LSERV            2012-09-30                                                                                      99930   99910   10000   01000   BRIDS     30CC111000352                                                                                              074014507727                              060+0000000004500000040AJDID TARIK                             1980-01-01+100000+100000004  WAFA 2011-01-200101S01              +00000000000000000H04   +000000000+00000000000000000+00000000000000000+0000000002012-09-1500000-00-00+00000000031984570+00000000031984570+000000000450000000000-00-00+000000000000000002011-02-01+000000000000000002011-02-01 0000-00-00+00000000000000000+00000000000000000+00000000000000000MAD10000100000000+00000000000000000+00000000000000000+00000000000000000+00000000000000000                         0000-00-00MAD0000000000000
S350  001LSERV            2012-09-30                                                                                      99930   99910   10000   01000   BRIDS     30CC111000353                                                                                              074014507733                              120+0000000027000000001AJDID TARIK                             1986-09-05+100000+100000004  WAFA 2011-01-02                     +00000000000000000203   +000000000+00000000000000000+00000000000000000+0000045400000-00-0000000-00-00+00000000270000000+00000000271417500+000000002700000000000-00-00+000000000000000002011-02-01+000000000000000002011-02-01 0000-00-00+00000000000000000+00000000000000000+00000000000000000MAD10000100000000+00000000000000000+00000000000000000+00000000000000000+00000000000000000                         0000-00-00MAD0000000000000
S350  001LSERV            2012-09-30                                                                                      99930   99910   10000   01000   BRIDS     30CC111000353                                                                                              074014507733                              120+0000000027000000040AJDID TARIK                             1986-09-05+100000+100000004  WAFA 2011-01-020101S01              +00000000000000000H03   +000000000+00000000000000000+00000000000000000+0000000000000-00-0000000-00-00+00000000270000000+00000000271417500+000000002700000000000-00-00+000000000000000002011-02-01+000000000000000002011-02-01 0000-00-00+00000000000000000+00000000000000000+00000000000000000MAD10000100000000+00000000000000000+00000000000000000+00000000000000000+00000000000000000                         0000-00-00MAD0000000000000
S350  001LSERV            2012-09-30                                                                                      99930   99910   10000   01000   BRIDS     30CC111000357                                                                                              074014507747                              120+0000000006725000001OUASSINI MOHAMED                        1970-02-15+100000+100000004  WAFA 2011-01-21                     +00000000000000000204   +000000000+00000000000000000+00000000000000640+0000022752012-09-1500000-00-00+00000000027926940+00000000027926940+000000000672500000000-00-00+000000000000000002011-02-04+000000000000000002011-02-04 0000-00-00+00000000000000000+00000000000000000+00000000000000000MAD10000100000000+00000000000000000+00000000000000000+00000000000000000+00000000000000000                         0000-00-00MAD0000000000000
S350  001LSERV            2012-09-30                                                                                      99930   99910   10000   01000   BRIDS     30CC111000357                                                                                              074014507747                              120+0000000006725000040OUASSINI MOHAMED                        1970-02-15+100000+100000004  WAFA 2011-01-210101S01              +00000000000000000H04   +000000000+00000000000000000+00000000000000000+0000000002012-09-1500000-00-00+00000000027926940+00000000027926940+000000000672500000000-00-00+000000000000000002011-02-04+000000000000000002011-02-04 0000-00-00+00000000000000000+00000000000000000+00000000000000000MAD10000100000000+00000000000000000+00000000000000000+00000000000000000+00000000000000000                         0000-00-00MAD0000000000000
S350  001LSERV            2012-09-30                                                                                      99930   99919   03000   10900   BRIDS     30CC111000367                                                                                              074013641801                              119+0000000010000000001EL YOUSFI BRAHIM                        1994-01-17+100000+100000004  WAFA 2010-01-01                     +00000000000000000203   +000000000+00000000000000000+00000000000000300+0000018912012-09-0600000-00-00+00000000000000000+00000000000000000+000000001000000000000-00-00+000000000000000002011-02-04+000000000000000002011-02-0432012-09-06+00000000000000000+00000000000000000+00000000000000000MAD10000100000000+00000000000000000+00000000000000000+00000000000000000+00000000000000000                         0000-00-00MAD0000000000000
S350  001LSERV            2012-09-30                                                                                      99930   99919   03000   10900   BRIDS     30CC111000367                                                                                              074013641801                              119+0000000010000000040EL YOUSFI BRAHIM                        1994-01-17+100000+100000004  WAFA 2010-01-010101S01              +00000000000000000H03   +000000000+00000000000000000+00000000000000000+0000000000000-00-0000000-00-00+00000000000000000+00000000000000000+000000001000000000000-00-00+000000000000000002011-02-04+000000000000000002011-02-0432012-09-06+00000000000000000+00000000000000000+00000000000000000MAD10000100000000+00000000000000000+00000000000000000+00000000000000000+00000000000000000                         0000-00-00MAD0000000000000
S350  001LSERV            2012-09-30                                                                                      99930   99910   10000   01000   BRIDS     30CC111000383                                                                                              074014507733                              120+0000000002000000001AJDID TARIK                             1986-09-05+100000+100000004  WAFA 2011-01-02                     +00000000000000000203   +000000000+00000000000000000+00000000000000000+0000017200000-00-0000000-00-00+00000000020000000+00000000020075000+000000000200000000000-00-00+000000000000000002011-02-05+000000000000000002011-02-05 0000-00-00+00000000000000000+00000000000000000+00000000000000000MAD10000100000000+00000000000000000+00000000000000000+00000000000000000+00000000000000000                         0000-00-00MAD0000000000000
S350  001LSERV            2012-09-30                                                                                      99930   99910   10000   01000   BRIDS     30CC111000383                                                                                              074014507733                              120+0000000002000000040AJDID TARIK                             1986-09-05+100000+100000004  WAFA 2011-01-020101S01              +00000000000000000H03   +000000000+00000000000000000+00000000000000000+0000000000000-00-0000000-00-00+00000000020000000+00000000020075000+000000000200000000000-00-00+000000000000000002011-02-05+000000000000000002011-02-05 0000-00-00+00000000000000000+00000000000000000+00000000000000000MAD10000100000000+00000000000000000+00000000000000000+00000000000000000+00000000000000000                         0000-00-00MAD0000000000000
S350  001LSERV            2012-09-30                                                                                      99930   99919   03000   10900   BRIDS     30CC111000392                                                                                              074013641801                              119+0000000010000000001EL YOUSFI BRAHIM                        1994-01-17+100000+100000004  WAFA 2010-03-01                     +00000000000000000203   +000000000+00000000000000000+00000000000001520+0000018912012-09-3000000-00-00+00000000079828730+00000000079828730+000000001000000000000-00-00+000000000000000002011-02-05+000000000000000002011-02-05 0000-00-00+00000000000000000+00000000000000000+00000000000000000MAD10000100000000+00000000000000000+00000000000000000+00000000000000000+00000000000000000                         0000-00-00MAD0000000000000
S350  001LSERV            2012-09-30                                                                                      99930   99919   03000   10900   BRIDS     30CC111000392                                                                                              074013641801                              119+0000000010000000040EL YOUSFI BRAHIM                        1994-01-17+100000+100000004  WAFA 2010-03-010101S01              +00000000000000000H03   +000000000+00000000000000000+00000000000000000+0000000002012-09-3000000-00-00+00000000079828730+00000000079828730+000000001000000000000-00-00+000000000000000002011-02-05+000000000000000002011-02-05 0000-00-00+00000000000000000+00000000000000000+00000000000000000MAD10000100000000+00000000000000000+00000000000000000+00000000000000000+00000000000000000                         0000-00-00MAD0000000000000
S350  001LSERV            2012-09-30                                                                                      99930   99919   03000   10900   BRIDS     30CC111000397                                                                                              074013641801                              119+0000000010000000001EL YOUSFI BRAHIM                        1994-01-17+100000+100000004  WAFA 2010-01-01                     +00000000000000000203   +000000000+00000000000000000+00000000000000000+0000000000000-00-0000000-00-00+00000000000000000+00000000000000000+000000000000000000000-00-00+000000000000000002011-02-06+000000000000000000000-00-00 0000-00-00+00000000000000000+00000000000000000+00000000000000000MAD10000100000000+00000000000000000+00000000000000000+00000000000000000+00000000000000000                         0000-00-00MAD0000000000000
S350  001LSERV            2012-09-30                                                                                      99930   99919   03000   10900   BRIDS     30CC111000397                                                                                              074013641801                              119+0000000010000000040EL YOUSFI BRAHIM                        1994-01-17+100000+100000004  WAFA 2010-01-010101S01              +00000000000000000H03   +000000000+00000000000000000+00000000000000000+0000000000000-00-0000000-00-00+00000000000000000+00000000000000000+000000000000000000000-00-00+000000000000000002011-02-06+000000000000000000000-00-00 0000-00-00+00000000000000000+00000000000000000+00000000000000000MAD10000100000000+00000000000000000+00000000000000000+00000000000000000+00000000000000000                         0000-00-00MAD0000000000000
S350  001LSERV            2012-09-30                                                                                      99930   99910   10000   01000   BRIDS     30CC111000406                                                                                              074014507735                              051+0000000001000000001AJDID TARIK                             1977-09-08+100000+100000004  WAFA 2011-01-15                     +00000000000000000204   +000000000+00000000000000000+00000000000000160+0000022752012-09-1500000-00-00+00000000006744790+00000000006744790+000000000100000000000-00-00+000000000000000002011-02-07+000000000000000002011-02-07 0000-00-00+00000000000000000+00000000000000000+00000000000000000MAD10000100000000+00000000000000000+00000000000000000+00000000000000000+00000000000000000                         0000-00-00MAD0000000000000
S350  001LSERV            2012-09-30                                                                                      99930   99910   10000   01000   BRIDS     30CC111000406                                                                                              074014507735                              051+0000000001000000040AJDID TARIK                             1977-09-08+100000+100000004  WAFA 2011-01-150101S01              +00000000000000000H04   +000000000+00000000000000000+00000000000000000+0000000002012-09-1500000-00-00+00000000006744790+00000000006744790+000000000100000000000-00-00+000000000000000002011-02-07+000000000000000002011-02-07 0000-00-00+00000000000000000+00000000000000000+00000000000000000MAD10000100000000+00000000000000000+00000000000000000+00000000000000000+00000000000000000                         0000-00-00MAD0000000000000
S350  001LSERV            2012-09-30                                                                                      99930   99919   03000   10900   BRIDS     30CC111000407                                                                                              074013641801                              120+0000000010000000001EL YOUSFI BRAHIM                        1994-01-17+100000+100000004  WAFA 2010-01-01                     +00000000000000000003   +000000000+00000000000000000+00000000000001500+0000018912012-09-3000000-00-00+00000000078151260+00000000078462060+000000001000000000000-00-00+000000000000000002011-02-07+000000000000000002011-02-07 0000-00-00+00000000000000000+00000000000000000+00000000000000170MAD10000100000000+00000000000000000+00000000000000000+00000000000000000+00000000000000000                         0000-00-00MAD0000000000000
S350  001LSERV            2012-09-30                                                                                      99930   99919   03000   10900   BRIDS     30CC111000407                                                                                              074013641801                              120+0000000010000000040EL YOUSFI BRAHIM                        1994-01-17+100000+100000004  WAFA 2010-01-010101S01              +00000000000000000H03   +000000000+00000000000000000+00000000000000000+0000000002012-09-3000000-00-00+00000000078151260+00000000078462060+000000001000000000000-00-00+000000000000000002011-02-07+000000000000000002011-02-07 0000-00-00+00000000000000000+00000000000000000+00000000000000000MAD10000100000000+00000000000000000+00000000000000000+00000000000000000+00000000000000000                         0000-00-00MAD0000000000000
S350  001LSERV            2012-09-30                                                                                      99930   99910   10000   01000   BRIDS     30CC111000408                                                                                              074014507733                              120+0000000030000000001AJDID TARIK                             1986-09-05+100000+100000004  WAFA 2011-01-15                     +00000000000000000203   +000000000+00000000000000000+00000000000000000+0000000000000-00-0000000-00-00+00000000000000000+00000000000000000+000000000000000000000-00-00+000000000000000002011-02-07+000000000000000000000-00-00 0000-00-00+00000000000000000+00000000000000000+00000000000000000MAD10000100000000+00000000000000000+00000000000000000+00000000000000000+00000000000000000                         0000-00-00MAD0000000000000
S350  001LSERV            2012-09-30                                                                                      99930   99910   10000   01000   BRIDS     30CC111000408                                                                                              074014507733                              120+0000000030000000040AJDID TARIK                             1986-09-05+100000+100000004  WAFA 2011-01-150101S01              +00000000000000000H03   +000000000+00000000000000000+00000000000000000+0000000000000-00-0000000-00-00+00000000000000000+00000000000000000+000000000000000000000-00-00+000000000000000002011-02-07+000000000000000000000-00-00 0000-00-00+00000000000000000+00000000000000000+00000000000000000MAD10000100000000+00000000000000000+00000000000000000+00000000000000000+00000000000000000                         0000-00-00MAD0000000000000
S350  001LSERV            2012-09-30                                                                                      99930   99910   10000   01000   BRIDS     30CC111000411                                                                                              074014507747                              084+0000000005000000001OUASSINI MOHAMED                        1970-02-15+100000+100000004  WAFA 2011-01-20                     +00000000000000000204   +000000000+00000000000000000+00000000000000000+0000000000000-00-0000000-00-00+00000000000000000+00000000000000000+000000000000000000000-00-00+000000000000000002011-02-07+000000000000000000000-00-00 0000-00-00+00000000000000000+00000000000000000+00000000000000000MAD10000100000000+00000000000000000+00000000000000000+00000000000000000+00000000000000000                         0000-00-00MAD0000000000000
S350  001LSERV            2012-09-30                                                                                      99930   99910   10000   01000   BRIDS     30CC111000411                                                                                              074014507747                              084+0000000005000000040OUASSINI MOHAMED                        1970-02-15+100000+100000004  WAFA 2011-01-200101S01              +00000000000000000H04   +000000000+00000000000000000+00000000000000000+0000000000000-00-0000000-00-00+00000000000000000+00000000000000000+000000000000000000000-00-00+000000000000000002011-02-07+000000000000000000000-00-00 0000-00-00+00000000000000000+00000000000000000+00000000000000000MAD10000100000000+00000000000000000+00000000000000000+00000000000000000+00000000000000000                         0000-00-00MAD0000000000000
S350  001LSERV            2012-09-30                                                                                      99930   99910   10000   01000   BRIDS     30CC111000412                                                                                              074014507747                              084+0000000007500000001OUASSINI MOHAMED                        1970-02-15+100000+100000004  WAFA 2011-01-20                     +00000000000000000204   +000000000+00000000000000000+00000000000001410+0000022752012-09-1500000-00-00+00000000061368610+00000000061368610+000000000750000000000-00-00+000000000000000002011-02-07+000000000000000002011-02-07 0000-00-00+00000000000000000+00000000000000000+00000000000000000MAD10000100000000+00000000000000000+00000000000000000+00000000000000000+00000000000000000                         0000-00-00MAD0000000000000
S350  001LSERV            2012-09-30                                                                                      99930   99910   10000   01000   BRIDS     30CC111000412                                                                                              074014507747                              084+0000000007500000040OUASSINI MOHAMED                        1970-02-15+100000+100000004  WAFA 2011-01-200101S01              +00000000000000000H04   +000000000+00000000000000000+00000000000000000+0000000002012-09-1500000-00-00+00000000061368610+00000000061368610+000000000750000000000-00-00+000000000000000002011-02-07+000000000000000002011-02-07 0000-00-00+00000000000000000+00000000000000000+00000000000000000MAD10000100000000+00000000000000000+00000000000000000+00000000000000000+00000000000000000                         0000-00-00MAD0000000000000
S350  001LSERV            2012-09-30                                                                                      99930   99910   10000   01000   BRIDS     30CC111000413                                                                                              074014507747                              120+0000000010000000001OUASSINI MOHAMED                        1970-02-15+100000+100000004  WAFA 2011-01-20                     +00000000000000000004   +000000000+00000000000000000+00000000000002030+0000022752012-09-1500000-00-00+00000000088464450+00000000088464450+000000001000000000000-00-00+000000000000000002011-02-07+000000000000000002011-02-07 0000-00-00+00000000000000000+00000000000000000+00000000000000000MAD10000100000000+00000000000000000+00000000000000000+00000000000000000+00000000000000000                         0000-00-00MAD0000000000000
S350  001LSERV            2012-09-30                                                                                      99930   99910   10000   01000   BRIDS     30CC111000413                                                                                              074014507747                              120+0000000010000000040OUASSINI MOHAMED                        1970-02-15+100000+100000004  WAFA 2011-01-200101S01              +00000000000000000H04   +000000000+00000000000000000+00000000000000000+0000000002012-09-1500000-00-00+00000000088464450+00000000088464450+000000001000000000000-00-00+000000000000000002011-02-07+000000000000000002011-02-07 0000-00-00+00000000000000000+00000000000000000+00000000000000000MAD10000100000000+00000000000000000+00000000000000000+00000000000000000+00000000000000000                         0000-00-00MAD0000000000000
S350  001LSERV            2012-09-30                                                                                      99930   99910   10000   01000   BRIDS     30CC111000416                                                                                              074014507727                              084+0000000003500000001AJDID TARIK                             1980-01-01+100000+100000004  WAFA 2011-01-20                     +00000000000000000004   +000000000+00000000000000000+00000000000000000+0000000000000-00-0000000-00-00+00000000000000000+00000000000000000+000000000000000000000-00-00+000000000000000002011-02-28+000000000000000000000-00-00 0000-00-00+00000000000000000+00000000000000000+00000000000000000MAD10000100000000+00000000000000000+00000000000000000+00000000000000000+00000000000000000                         0000-00-00MAD0000000000000
S350  001LSERV            2012-09-30                                                                                      99930   99910   10000   01000   BRIDS     30CC111000416                                                                                              074014507727                              084+0000000003500000040AJDID TARIK                             1980-01-01+100000+100000004  WAFA 2011-01-200101S01              +00000000000000000H04   +000000000+00000000000000000+00000000000000000+0000000000000-00-0000000-00-00+00000000000000000+00000000000000000+000000000000000000000-00-00+000000000000000002011-02-28+000000000000000000000-00-00 0000-00-00+00000000000000000+00000000000000000+00000000000000000MAD10000100000000+00000000000000000+00000000000000000+00000000000000000+00000000000000000                         0000-00-00MAD0000000000000
S350  001LSERV            2012-09-30                                                                                      99930   99910   10000   01000   BRIDS     30CC111000419                                                                                              074014507735                              060+0000000001000000001AJDID TARIK                             1977-09-08+100000+100000004  WAFA 2011-01-15                     +00000000000000000004   +000000000+00000000000000000+00000000000000170+0000022752012-09-1500000-00-00+00000000007297680+00000000007297680+000000000100000000000-00-00+000000000000000002011-02-28+000000000000000002011-02-28 0000-00-00+00000000000000000+00000000000000000+00000000000000000MAD10000100000000+00000000000000000+00000000000000000+00000000000000000+00000000000000000                         0000-00-00MAD0000000000000
S350  001LSERV            2012-09-30                                                                                      99930   99910   10000   01000   BRIDS     30CC111000419                                                                                              074014507735                              060+0000000001000000040AJDID TARIK                             1977-09-08+100000+100000004  WAFA 2011-01-150101S01              +00000000000000000H04   +000000000+00000000000000000+00000000000000000+0000000002012-09-1500000-00-00+00000000007297680+00000000007297680+000000000100000000000-00-00+000000000000000002011-02-28+000000000000000002011-02-28 0000-00-00+00000000000000000+00000000000000000+00000000000000000MAD10000100000000+00000000000000000+00000000000000000+00000000000000000+00000000000000000                         0000-00-00MAD0000000000000
S350  001LSERV            2012-09-30                                                                                      99930   99910   10000   01000   BRIDS     30CC111000420                                                                                              074014507736                              119+0000000005500000001ASKARI FATIMA                           1968-12-20+100000+100000004  WAFA 2011-01-15                     +00000000000000000005   +000000000+00000000000000000+00000000000002480+0000050502012-09-1500000-00-00+00000000048678130+00000000048678130+000000000550000000000-00-00+000000000000000002011-02-28+000000000000000002011-02-28 0000-00-00+00000000000000000+00000000000000000+00000000000000000MAD10000100000000+00000000000000000+00000000000000000+00000000000000000+00000000000000000                         0000-00-00MAD0000000000000
S350  001LSERV            2012-09-30                                                                                      99930   99910   10000   01000   BRIDS     30CC111000420                                                                                              074014507736                              119+0000000005500000040ASKARI FATIMA                           1968-12-20+100000+100000004  WAFA 2011-01-150101S01              +00000000000000000H05   +000000000+00000000000000000+00000000000000000+0000000002012-09-1500000-00-00+00000000048678130+00000000048678130+000000000550000000000-00-00+000000000000000002011-02-28+000000000000000002011-02-28 0000-00-00+00000000000000000+00000000000000000+00000000000000000MAD10000100000000+00000000000000000+00000000000000000+00000000000000000+00000000000000000                         0000-00-00MAD0000000000000
S350  001LSERV            2012-09-30                                                                                      99930   99910   10000   01000   BRIDS     30CC111000422                                                                                              074014507733                              060+0000000001000000001AJDID TARIK                             1986-09-05+100000+100000004  WAFA 2011-01-15                     +00000000000000000003   +000000000+00000000000000000+00000000000000140+0000018912012-09-1500000-00-00+00000000007263820+00000000007263820+000000000100000000000-00-00+000000000000000002011-03-01+000000000000000002011-03-01 0000-00-00+00000000000000000+00000000000000000+00000000000000000MAD10000100000000+00000000000000000+00000000000000000+00000000000000000+00000000000000000                         0000-00-00MAD0000000000000
S350  001LSERV            2012-09-30                                                                                      99930   99910   10000   01000   BRIDS     30CC111000422                                                                                              074014507733                              060+0000000001000000040AJDID TARIK                             1986-09-05+100000+100000004  WAFA 2011-01-150101S01              +00000000000000000H03   +000000000+00000000000000000+00000000000000000+0000000002012-09-1500000-00-00+00000000007263820+00000000007263820+000000000100000000000-00-00+000000000000000002011-03-01+000000000000000002011-03-01 0000-00-00+00000000000000000+00000000000000000+00000000000000000MAD10000100000000+00000000000000000+00000000000000000+00000000000000000+00000000000000000                         0000-00-00MAD0000000000000
S350  001LSERV            2012-09-30                                                                                      99930   99910   10000   01000   BRIDS     30CC111000423                                                                                              074014507735                              061+0000000001000000001AJDID TARIK                             1977-09-08+100000+100000004  WAFA 2011-01-20                     +00000000000000000004   +000000000+00000000000000000+00000000000000000+0000000000000-00-0000000-00-00+00000000000000000+00000000000000000+000000000000000000000-00-00+000000000000000002011-03-01+000000000000000002011-03-01 0000-00-00+00000000000000000+00000000000000000+00000000000000000MAD10000100000000+00000000000000000+00000000000000000+00000000000000000+00000000000000000                         0000-00-00MAD0000000000000
S350  001LSERV            2012-09-30                                                                                      99930   99910   10000   01000   BRIDS     30CC111000423                                                                                              074014507735                              061+0000000001000000040AJDID TARIK                             1977-09-08+100000+100000004  WAFA 2011-01-200101S01              +00000000000000000H04   +000000000+00000000000000000+00000000000000000+0000000000000-00-0000000-00-00+00000000000000000+00000000000000000+000000000000000000000-00-00+000000000000000002011-03-01+000000000000000002011-03-01 0000-00-00+00000000000000000+00000000000000000+00000000000000000MAD10000100000000+00000000000000000+00000000000000000+00000000000000000+00000000000000000                         0000-00-00MAD0000000000000
S350  001LSERV            2012-09-30                                                                                      99930   99910   10000   01000   BRIDS     30CC111000424                                                                                              074014507735                              060+0000000001000000001AJDID TARIK                             1977-09-08+100000+100000004  WAFA 2011-01-15                     +00000000000000000004   +000000000+00000000000000000+00000000000000170+0000022752012-09-1500000-00-00+00000000007265560+00000000007294830+000000000100000000000-00-00+000000000000000002011-03-01+000000000000000002011-03-01 0000-00-00+00000000000000000+00000000000000000+00000000000000040MAD10000100000000+00000000000000000+00000000000000000+00000000000000000+00000000000000000                         0000-00-00MAD0000000000000
S350  001LSERV            2012-09-30                                                                                      99930   99910   10000   01000   BRIDS     30CC111000424                                                                                              074014507735                              060+0000000001000000040AJDID TARIK                             1977-09-08+100000+100000004  WAFA 2011-01-150101S01              +00000000000000000H04   +000000000+00000000000000000+00000000000000000+0000000002012-09-1500000-00-00+00000000007265560+00000000007294830+000000000100000000000-00-00+000000000000000002011-03-01+000000000000000002011-03-01 0000-00-00+00000000000000000+00000000000000000+00000000000000000MAD10000100000000+00000000000000000+00000000000000000+00000000000000000+00000000000000000                         0000-00-00MAD0000000000000
S350  001LSERV            2012-09-30                                                                                      99930   99910   10000   01000   BRIDS     30CC111000428                                                                                              074014507727                              119+0000000006000000001AJDID TARIK                             1980-01-01+100000+100000004  WAFA 2011-03-02                     +00000000000000000004   +000000000+00000000000000000+00000000000001220+0000022752012-09-1500000-00-00+00000000053396280+00000000053396280+000000000600000000000-00-00+000000000000000002011-03-02+000000000000000002011-03-02 0000-00-00+00000000000000000+00000000000000000+00000000000000000MAD10000100000000+00000000000000000+00000000000000000+00000000000000000+00000000000000000                         0000-00-00MAD0000000000000
S350  001LSERV            2012-09-30                                                                                      99930   99910   10000   01000   BRIDS     30CC111000428                                                                                              074014507727                              119+0000000006000000040AJDID TARIK                             1980-01-01+100000+100000004  WAFA 2011-03-020101S01              +00000000000000000H04   +000000000+00000000000000000+00000000000000000+0000000002012-09-1500000-00-00+00000000053396280+00000000053396280+000000000600000000000-00-00+000000000000000002011-03-02+000000000000000002011-03-02 0000-00-00+00000000000000000+00000000000000000+00000000000000000MAD10000100000000+00000000000000000+00000000000000000+00000000000000000+00000000000000000                         0000-00-00MAD0000000000000
S350  001LSERV            2012-09-30                                                                                      99930   99910   10000   01000   BRIDS     30CC111000429                                                                                              074014507735                              119+0000000031000000001AJDID TARIK                             1977-09-08+100000+100000004  WAFA 2011-02-15                     +00000000000000000004   +000000000+00000000000000000+00000000000006330+0000022752012-09-1500000-00-00+00000000274775480+00000000275880910+000000003100000000000-00-00+000000000000000002011-03-02+000000000000000002011-03-02 0000-00-00+00000000000000000+00000000000000000+00000000000000600MAD10000100000000+00000000000000000+00000000000000000+00000000000000000+00000000000000000                         0000-00-00MAD0000000000000
S350  001LSERV            2012-09-30                                                                                      99930   99910   10000   01000   BRIDS     30CC111000429                                                                                              074014507735                              119+0000000031000000040AJDID TARIK                             1977-09-08+100000+100000004  WAFA 2011-02-150101S01              +00000000000000000H04   +000000000+00000000000000000+00000000000000000+0000000002012-09-1500000-00-00+00000000274775480+00000000275880910+000000003100000000000-00-00+000000000000000002011-03-02+000000000000000002011-03-02 0000-00-00+00000000000000000+00000000000000000+00000000000000000MAD10000100000000+00000000000000000+00000000000000000+00000000000000000+00000000000000000                         0000-00-00MAD0000000000000
S350  001LSERV            2012-09-30                                                                                      99930   99919   03000   10900   BRIDS     30CC111000430                                                                                              074013641801                              060+0000000001000000001EL YOUSFI BRAHIM                        1994-01-17+100000+100000004  WAFA 2010-01-01                     +00000000000000000003   +000000000+00000000000000000+00000000000000000+0000000000000-00-0000000-00-00+00000000000000000+00000000000000000+000000000000000000000-00-00+000000000000000002011-03-02+000000000000000000000-00-00 0000-00-00+00000000000000000+00000000000000000+00000000000000000MAD10000100000000+00000000000000000+00000000000000000+00000000000000000+00000000000000000                         0000-00-00MAD0000000000000
S350  001LSERV            2012-09-30                                                                                      99930   99919   03000   10900   BRIDS     30CC111000430                                                                                              074013641801                              060+0000000001000000040EL YOUSFI BRAHIM                        1994-01-17+100000+100000004  WAFA 2010-01-010101S01              +00000000000000000H03   +000000000+00000000000000000+00000000000000000+0000000000000-00-0000000-00-00+00000000000000000+00000000000000000+000000000000000000000-00-00+000000000000000002011-03-02+000000000000000000000-00-00 0000-00-00+00000000000000000+00000000000000000+00000000000000000MAD10000100000000+00000000000000000+00000000000000000+00000000000000000+00000000000000000                         0000-00-00MAD0000000000000
S350  001LSERV            2012-09-30                                                                                      99930   99910   10000   01000   BRIDS     30CC111000434                                                                                              074014507747                              120+0000000007500000001OUASSINI MOHAMED                        1970-02-15+100000+100000004  WAFA 2011-03-03                     +00000000000000000005   +000000000+00000000000000000+00000000000003410+0000050502012-09-1500000-00-00+00000000066952890+00000000066952890+000000000750000000000-00-00+000000000000000002011-03-03+000000000000000002011-03-03 0000-00-00+00000000000000000+00000000000000000+00000000000000000MAD10000100000000+00000000000000000+00000000000000000+00000000000000000+00000000000000000                         0000-00-00MAD0000000000000
S350  001LSERV            2012-09-30                                                                                      99930   99910   10000   01000   BRIDS     30CC111000434                                                                                              074014507747                              120+0000000007500000040OUASSINI MOHAMED                        1970-02-15+100000+100000004  WAFA 2011-03-030101S01              +00000000000000000H05   +000000000+00000000000000000+00000000000000000+0000000002012-09-1500000-00-00+00000000066952890+00000000066952890+000000000750000000000-00-00+000000000000000002011-03-03+000000000000000002011-03-03 0000-00-00+00000000000000000+00000000000000000+00000000000000000MAD10000100000000+00000000000000000+00000000000000000+00000000000000000+00000000000000000                         0000-00-00MAD0000000000000
S350  001LSERV            2012-09-30                                                                                      99930   99910   10000   01000   BRIDS     30CC111000437                                                                                              074014507747                              119+0000000007500000001OUASSINI MOHAMED                        1970-02-15+100000+100000004  WAFA 2011-03-03                     +00000000000000000005   +000000000+00000000000000000+00000000000003400+0000050502012-09-1500000-00-00+00000000066862020+00000000066862020+000000000750000000000-00-00+000000000000000002011-03-03+000000000000000002011-03-03 0000-00-00+00000000000000000+00000000000000000+00000000000000000MAD10000100000000+00000000000000000+00000000000000000+00000000000000000+00000000000000000                         0000-00-00MAD0000000000000
S350  001LSERV            2012-09-30                                                                                      99930   99910   10000   01000   BRIDS     30CC111000437                                                                                              074014507747                              119+0000000007500000040OUASSINI MOHAMED                        1970-02-15+100000+100000004  WAFA 2011-03-030101S01              +00000000000000000H05   +000000000+00000000000000000+00000000000000000+0000000002012-09-1500000-00-00+00000000066862020+00000000066862020+000000000750000000000-00-00+000000000000000002011-03-03+000000000000000002011-03-03 0000-00-00+00000000000000000+00000000000000000+00000000000000000MAD10000100000000+00000000000000000+00000000000000000+00000000000000000+00000000000000000                         0000-00-00MAD0000000000000
S350  001LSERV            2012-09-30                                                                                      99930   99910   10000   01000   BRIDS     30CC111000440                                                                                              074014507747                              049+0000000003500000001OUASSINI MOHAMED                        1970-02-15+100000+100000004  WAFA 2011-03-04                     +00000000000000000005   +000000000+00000000000000000+00000000000000540+0000050502012-09-2000000-00-00+00000000010297560+00000000010297560+000000000350000000000-00-00+000000000000000002011-03-04+000000000000000002011-03-04 0000-00-00+00000000000000000+00000000000000000+00000000000000000MAD10000100000000+00000000000000000+00000000000000000+00000000000000000+00000000000000000                         0000-00-00MAD0000000000000
S350  001LSERV            2012-09-30                                                                                      99930   99910   10000   01000   BRIDS     30CC111000440                                                                                              074014507747                              049+0000000003500000040OUASSINI MOHAMED                        1970-02-15+100000+100000004  WAFA 2011-03-040101S01              +00000000000000000H05   +000000000+00000000000000000+00000000000000000+0000000002012-09-2000000-00-00+00000000010297560+00000000010297560+000000000350000000000-00-00+000000000000000002011-03-04+000000000000000002011-03-04 0000-00-00+00000000000000000+00000000000000000+00000000000000000MAD10000100000000+00000000000000000+00000000000000000+00000000000000000+00000000000000000                         0000-00-00MAD0000000000000
S350  001LSERV            2012-09-30                                                                                      99930   99910   10000   01000   BRIDS     30CC111000442                                                                                              074014507750                              062+0000000015000000001AAMOUM MOHAMMED                         1980-01-01+100000+100000004  WAFA 2011-03-04                     +00000000000000000004   +000000000+00000000000000000+00000000000002030+0000022752012-09-1500000-00-00+00000000087256990+00000000087256990+000000001500000000000-00-00+000000000000000002011-03-04+000000000000000002011-03-04 0000-00-00+00000000000000000+00000000000000000+00000000000000000MAD10000100000000+00000000000000000+00000000000000000+00000000000000000+00000000000000000                         0000-00-00MAD0000000000000
S350  001LSERV            2012-09-30                                                                                      99930   99910   10000   01000   BRIDS     30CC111000442                                                                                              074014507750                              062+0000000015000000040AAMOUM MOHAMMED                         1980-01-01+100000+100000004  WAFA 2011-03-040101S01              +00000000000000000H04   +000000000+00000000000000000+00000000000000000+0000000002012-09-1500000-00-00+00000000087256990+00000000087256990+000000001500000000000-00-00+000000000000000002011-03-04+000000000000000002011-03-04 0000-00-00+00000000000000000+00000000000000000+00000000000000000MAD10000100000000+00000000000000000+00000000000000000+00000000000000000+00000000000000000                         0000-00-00MAD0000000000000
S350  001LSERV            2012-09-30                                                                                      99930   99910   10000   01000   BRIDS     30CC111000451                                                                                              074014507730                              047+0000000003500000001ASKARI FATIMA                           1987-01-01+100000+100000004  WAFA 2011-03-05                     +00000000000000000003   +000000000+00000000000000000+00000000000000450+0000018912012-09-1500000-00-00+00000000023233250+00000000023233250+000000000350000000000-00-00+000000000000000002011-03-05+000000000000000002011-03-05 0000-00-00+00000000000000000+00000000000000000+00000000000000000MAD10000100000000+00000000000000000+00000000000000000+00000000000000000+00000000000000000                         0000-00-00MAD0000000000000
S350  001LSERV            2012-09-30                                                                                      99930   99910   10000   01000   BRIDS     30CC111000451                                                                                              074014507730                              047+0000000003500000040ASKARI FATIMA                           1987-01-01+100000+100000004  WAFA 2011-03-050101S01              +00000000000000000H03   +000000000+00000000000000000+00000000000000000+0000000002012-09-1500000-00-00+00000000023233250+00000000023233250+000000000350000000000-00-00+000000000000000002011-03-05+000000000000000002011-03-05 0000-00-00+00000000000000000+00000000000000000+00000000000000000MAD10000100000000+00000000000000000+00000000000000000+00000000000000000+00000000000000000                         0000-00-00MAD0000000000000
S350  001LSERV            2012-09-30                                                                                      99930   99910   10000   01000   BRIDS     30CC111000453                                                                                              074014507750                              083+0000000005000000001AAMOUM MOHAMMED                         1980-01-01+100000+100000004  WAFA 2011-03-05                     +00000000000000000004   +000000000+00000000000000000+00000000000000950+0000022752012-09-1500000-00-00+00000000041320200+00000000041320200+000000000500000000000-00-00+000000000000000002011-03-05+000000000000000002011-03-05 0000-00-00+00000000000000000+00000000000000000+00000000000000000MAD10000100000000+00000000000000000+00000000000000000+00000000000000000+00000000000000000                         0000-00-00MAD0000000000000
S350  001LSERV            2012-09-30                                                                                      99930   99910   10000   01000   BRIDS     30CC111000453                                                                                              074014507750                              083+0000000005000000040AAMOUM MOHAMMED                         1980-01-01+100000+100000004  WAFA 2011-03-050101S01              +00000000000000000H04   +000000000+00000000000000000+00000000000000000+0000000002012-09-1500000-00-00+00000000041320200+00000000041320200+000000000500000000000-00-00+000000000000000002011-03-05+000000000000000002011-03-05 0000-00-00+00000000000000000+00000000000000000+00000000000000000MAD10000100000000+00000000000000000+00000000000000000+00000000000000000+00000000000000000                         0000-00-00MAD0000000000000
S350  001LSERV            2012-09-30                                                                                      99930   99910   10000   01000   BRIDS     30CC111000468                                                                                              074014507747                              119+0000000022000000001OUASSINI MOHAMED                        1970-02-15+100000+100000004  WAFA 2011-03-06                     +00000000000000000005   +000000000+00000000000000000+00000000000009860+0000050502012-09-1500000-00-00+00000000193525550+00000000193525550+000000002200000000000-00-00+000000000000000002011-03-06+000000000000000002011-03-06 0000-00-00+00000000000000000+00000000000000000+00000000000000000MAD10000100000000+00000000000000000+00000000000000000+00000000000000000+00000000000000000                         0000-00-00MAD0000000000000
S350  001LSERV            2012-09-30                                                                                      99930   99910   10000   01000   BRIDS     30CC111000468                                                                                              074014507747                              119+0000000022000000040OUASSINI MOHAMED                        1970-02-15+100000+100000004  WAFA 2011-03-060101S01              +00000000000000000H05   +000000000+00000000000000000+00000000000000000+0000000002012-09-1500000-00-00+00000000193525550+00000000193525550+000000002200000000000-00-00+000000000000000002011-03-06+000000000000000002011-03-06 0000-00-00+00000000000000000+00000000000000000+00000000000000000MAD10000100000000+00000000000000000+00000000000000000+00000000000000000+00000000000000000                         0000-00-00MAD0000000000000
S350  001LSERV            2012-09-30                                                                                      99930   99910   10000   01000   BRIDS     30CC111000478                                                                                              074014507728                              119+0000000020000000001AJDID TARIK                             1960-01-01+100000+100000004  WAFA 2011-03-06                     +00000000000000000006   +000000000+00000000000000000+00000000000020640+0000114332012-09-1500000-00-00+00000000178993220+00000000178993220+000000002000000000000-00-00+000000000000000002011-03-06+000000000000000002011-03-06 0000-00-00+00000000000000000+00000000000000000+00000000000000000MAD10000100000000+00000000000000000+00000000000000000+00000000000000000+00000000000000000                         0000-00-00MAD0000000000000
S350  001LSERV            2012-09-30                                                                                      99930   99910   10000   01000   BRIDS     30CC111000478                                                                                              074014507728                              119+0000000020000000040AJDID TARIK                             1960-01-01+100000+100000004  WAFA 2011-03-060101S01              +00000000000000000H06   +000000000+00000000000000000+00000000000000000+0000000002012-09-1500000-00-00+00000000178993220+00000000178993220+000000002000000000000-00-00+000000000000000002011-03-06+000000000000000002011-03-06 0000-00-00+00000000000000000+00000000000000000+00000000000000000MAD10000100000000+00000000000000000+00000000000000000+00000000000000000+00000000000000000                         0000-00-00MAD0000000000000
S350  001LSERV            2012-09-30                                                                                      99930   99910   10000   01000   BRIDS     30CC111000479                                                                                              074014507744                              072+0000000005000000001AIT BOURJ EL HABIB                      1986-05-09+100000+100000004  WAFA 2011-03-06                     +00000000000000000003   +000000000+00000000000000000+00000000000000000+0000000000000-00-0000000-00-00+00000000000000000+00000000000000000+000000000000000000000-00-00+000000000000000002011-03-06+000000000000000000000-00-00 0000-00-00+00000000000000000+00000000000000000+00000000000000000MAD10000100000000+00000000000000000+00000000000000000+00000000000000000+00000000000000000                         0000-00-00MAD0000000000000
S350  001LSERV            2012-09-30                                                                                      99930   99910   10000   01000   BRIDS     30CC111000479                                                                                              074014507744                              072+0000000005000000040AIT BOURJ EL HABIB                      1986-05-09+100000+100000004  WAFA 2011-03-060101S01              +00000000000000000H03   +000000000+00000000000000000+00000000000000000+0000000000000-00-0000000-00-00+00000000000000000+00000000000000000+000000000000000000000-00-00+000000000000000002011-03-06+000000000000000000000-00-00 0000-00-00+00000000000000000+00000000000000000+00000000000000000MAD10000100000000+00000000000000000+00000000000000000+00000000000000000+00000000000000000                         0000-00-00MAD0000000000000
S350  001LSERV            2012-09-30                                                                                      99930   99910   10000   01000   BRIDS     30CC111000482                                                                                              074014507744                              072+0000000003000000001AIT BOURJ EL HABIB                      1986-05-09+100000+100000004  WAFA 2011-03-06                     +00000000000000000003   +000000000+00000000000000000+00000000000000000+0000000000000-00-0000000-00-00+00000000000000000+00000000000000000+000000000000000000000-00-00+000000000000000002011-03-06+000000000000000000000-00-00 0000-00-00+00000000000000000+00000000000000000+00000000000000000MAD10000100000000+00000000000000000+00000000000000000+00000000000000000+00000000000000000                         0000-00-00MAD0000000000000
S350  001LSERV            2012-09-30                                                                                      99930   99910   10000   01000   BRIDS     30CC111000482                                                                                              074014507744                              072+0000000003000000040AIT BOURJ EL HABIB                      1986-05-09+100000+100000004  WAFA 2011-03-060101S01              +00000000000000000H03   +000000000+00000000000000000+00000000000000000+0000000000000-00-0000000-00-00+00000000000000000+00000000000000000+000000000000000000000-00-00+000000000000000002011-03-06+000000000000000000000-00-00 0000-00-00+00000000000000000+00000000000000000+00000000000000000MAD10000100000000+00000000000000000+00000000000000000+00000000000000000+00000000000000000                         0000-00-00MAD0000000000000
S350  001LSERV            2012-09-30                                                                                      99930   99910   10000   01000   BRIDS     30CC111000483                                                                                              074014507730                              083+0000000005000000001ASKARI FATIMA                           1987-01-01+100000+100000004  WAFA 2011-03-06                     +00000000000000000003   +000000000+00000000000000000+00000000000000790+0000018912012-09-1500000-00-00+00000000041309340+00000000041309340+000000000500000000000-00-00+000000000000000002011-03-06+000000000000000002011-03-06 0000-00-00+00000000000000000+00000000000000000+00000000000000000MAD10000100000000+00000000000000000+00000000000000000+00000000000000000+00000000000000000                         0000-00-00MAD0000000000000
S350  001LSERV            2012-09-30                                                                                      99930   99910   10000   01000   BRIDS     30CC111000483                                                                                              074014507730                              083+0000000005000000040ASKARI FATIMA                           1987-01-01+100000+100000004  WAFA 2011-03-060101S01              +00000000000000000H03   +000000000+00000000000000000+00000000000000000+0000000002012-09-1500000-00-00+00000000041309340+00000000041309340+000000000500000000000-00-00+000000000000000002011-03-06+000000000000000002011-03-06 0000-00-00+00000000000000000+00000000000000000+00000000000000000MAD10000100000000+00000000000000000+00000000000000000+00000000000000000+00000000000000000                         0000-00-00MAD0000000000000
