S350  001LSERV            2011-05-31                                                                                      99930   99919   03000   10900   BRIDS     30CC101000131                                                                                              074013641801                              120+0000000060000000001EL YOUSFI BRAHIM                        1994-01-17+100000+100000004  WAFA 2010-01-01                     +00000000000000000003   +000000000+00000000000000000+00000000000020310+0000227002011-05-3100000-00-00+00000000088796950+00000000088796950+000000001000000000000-00-00+000000000000000002011-03-11+000000000000000002011-03-11 0000-00-00+00000000000000000+00000000000000000+00000000000000000MAD10000100000000+00000000000000000+00000000000000000+00000000000000000+00000000000000000                         0000-00-00MAD0000000000000
S350  001LSERV            2011-05-31                                                                                      99930   99919   03000   10900   BRIDS     30CC101000131                                                                                              074013641801                              120+0000000060000000040EL YOUSFI BRAHIM                        1994-01-17+100000+100000004  WAFA 2010-01-010101S01              +00000000000000000H03   +000000000+00000000000000000+00000000000000000+0000000002011-05-3100000-00-00+00000000088796950+00000000088796950+000000001000000000000-00-00+000000000000000002011-03-11+000000000000000002011-03-11 0000-00-00+00000000000000000+00000000000000000+00000000000000000MAD10000100000000+00000000000000000+00000000000000000+00000000000000000+00000000000000000                         0000-00-00MAD0000000000000
S350  001LSERV            2011-05-31                                                                                      99930   99910   10000   01000   BRIDS     30CC101000196                                                                                              074014507708                              120+0000000015000000002HADDAOUI MUSTAPHA                       1980-01-01+100000+100000004  WAFA 2010-01-01                     +00000000000000000203   +000000000+00000000000000000+00000000000033080+0000227002011-05-1500000-00-00+00000000144651100+00000000144651100+000000001500000000000-00-00+000000000000000002010-12-06+000000000000000002010-12-06 0000-00-00+00000000000000000+00000000000000000+00000000000000000MAD10000100000000+00000000000000000+00000000000000000+00000000000000000+00000000000000000                         0000-00-00MAD0000000000000
S350  001LSERV            2011-05-31                                                                                      99930   99910   10000   01000   BRIDS     30CC101000196                                                                                              074014507708                              120+0000000015000000039HADDAOUI MUSTAPHA                       1980-01-01+100000+100000004  WAFA 2010-01-010201S01              +00000000000000000H     +000000000+00000000000000000+00000000000000000+0000000002011-05-1500000-00-00+00000000144651100+00000000144651100+000000001500000000000-00-00+000000000000000002010-12-06+000000000000000002010-12-06 0000-00-00+00000000000000000+00000000000000000+00000000000000000MAD10000100000000+00000000000000000+00000000000000000+00000000000000000+00000000000000000                         0000-00-00MAD0000000000000
S350  001LSERV            2011-05-31                                                                                      99930   99910   10000   01000   BRIDS     30CC101000205                                                                                              074014507720                              100+0000000022500000001HADDAOUI MUSTAPHA                       1971-01-31+100000+100000004  WAFA 2010-01-01                     +00000000000000000203   +000000000+00000000000000000+00000000000049590+0000227002011-05-1500000-00-00+00000000218469620+00000000218469620+000000002250000000000-00-00+000000000000000002010-12-06+000000000000000002010-12-06 0000-00-00+00000000000000000+00000000000000000+00000000000000000MAD10000100000000+00000000000000000+00000000000000000+00000000000000000+00000000000000000                         0000-00-00MAD0000000000000
S350  001LSERV            2011-05-31                                                                                      99930   99910   10000   01000   BRIDS     30CC101000205                                                                                              074014507720                              100+0000000022500000040HADDAOUI MUSTAPHA                       1971-01-31+100000+100000004  WAFA 2010-01-010101S01              +00000000000000000H     +000000000+00000000000000000+00000000000000000+0000000002011-05-1500000-00-00+00000000218469620+00000000218469620+000000002250000000000-00-00+000000000000000002010-12-06+000000000000000002010-12-06 0000-00-00+00000000000000000+00000000000000000+00000000000000000MAD10000100000000+00000000000000000+00000000000000000+00000000000000000+00000000000000000                         0000-00-00MAD0000000000000
S350  001LSERV            2011-05-31                                                                                      99930   99910   10000   01000   BRIDS     30CC101000214                                                                                              074014507708                              060+0000000005000000001HADDAOUI MUSTAPHA                       1990-01-01+100000+100000004  WAFA 2010-01-01                     +00000000000000000203   +000000000+00000000000000000+00000000000010530+0000227002011-05-1500000-00-00+00000000045481850+00000000045481850+000000000500000000000-00-00+000000000000000002010-12-06+000000000000000002010-12-06 0000-00-00+00000000000000000+00000000000000000+00000000000000000MAD10000100000000+00000000000000000+00000000000000000+00000000000000000+00000000000000000                         0000-00-00MAD0000000000000
S350  001LSERV            2011-05-31                                                                                      99930   99910   10000   01000   BRIDS     30CC101000214                                                                                              074014507708                              060+0000000005000000040HADDAOUI MUSTAPHA                       1990-01-01+100000+100000004  WAFA 2010-01-010101S01              +00000000000000000H     +000000000+00000000000000000+00000000000000000+0000000002011-05-1500000-00-00+00000000045481850+00000000045481850+000000000500000000000-00-00+000000000000000002010-12-06+000000000000000002010-12-06 0000-00-00+00000000000000000+00000000000000000+00000000000000000MAD10000100000000+00000000000000000+00000000000000000+00000000000000000+00000000000000000                         0000-00-00MAD0000000000000
S350  001LSERV            2011-05-31                                                                                      99930   99910   10000   01000   BRIDS     30CC101000218                                                                                              074014507720                              120+0000000006000000001HADDAOUI MUSTAPHA                       1990-01-01+100000+100000004  WAFA 2010-01-01                     +00000000000000000203   +000000000+00000000000000000+00000000000013230+0000227002011-05-1500000-00-00+00000000057860460+00000000057860460+000000000600000000000-00-00+000000000000000002010-12-06+000000000000000002010-12-06 0000-00-00+00000000000000000+00000000000000000+00000000000000000MAD10000100000000+00000000000000000+00000000000000000+00000000000000000+00000000000000000                         0000-00-00MAD0000000000000
S350  001LSERV            2011-05-31                                                                                      99930   99910   10000   01000   BRIDS     30CC101000218                                                                                              074014507720                              120+0000000006000000040HADDAOUI MUSTAPHA                       1990-01-01+100000+100000004  WAFA 2010-01-010101S01              +00000000000000000H     +000000000+00000000000000000+00000000000000000+0000000002011-05-1500000-00-00+00000000057860460+00000000057860460+000000000600000000000-00-00+000000000000000002010-12-06+000000000000000002010-12-06 0000-00-00+00000000000000000+00000000000000000+00000000000000000MAD10000100000000+00000000000000000+00000000000000000+00000000000000000+00000000000000000                         0000-00-00MAD0000000000000
S350  001LSERV            2011-05-31                                                                                      99930   99910   10000   01000   BRIDS     30CC101000220                                                                                              074014507720                              072+0000000050000000001HADDAOUI MUSTAPHA                       1961-01-01+100000+100000004  WAFA 2010-01-01                     +00000000000000000205   +025000000+00000000000000000+00000000006072870+0021439332011-05-1500000-00-00+00000000280636040+00000000280636040+000000005000000000000-00-00+000000000000000002010-12-06+000000000000000002010-12-06 0000-00-00+00000000000000000+00000000000000000+00000000000000000MAD10000100000000+00000000000000000+00000000000000000+00000000000000000+00000000000000000                         0000-00-00MAD0000000000000
S350  001LSERV            2011-05-31                                                                                      99930   99910   10000   01000   BRIDS     30CC101000220                                                                                              074014507720                              072+0000000050000000040HADDAOUI MUSTAPHA                       1961-01-01+100000+100000004  WAFA 2010-01-010101S02              +00000000000000000H     +000000000+00000000000000000+00000000000179990+0000000002011-05-1500000-00-00+00000000280636040+00000000280636040+000000005000000000000-00-00+000000000000000002010-12-06+000000000000000002010-12-06 0000-00-00+00000000000000000+00000000000000000+00000000000000000MAD10000100000000+00000000000000000+00000000000000000+00000000000000000+00000000000000000                         0000-00-00MAD0000000000000
S350  001LSERV            2011-05-31                                                                                      99930   99910   10000   01000   BRIDS     30CC101000243                                                                                              074014507709                              012+0000000002000000001AJDID TARIK                             1990-01-01+100000+100000004  WAFA 2010-01-01                     +00000000000000000204   +000000000+00000000000000000+00000000000000000+0000000000000-00-0000000-00-00+00000000000000000+00000000000000000+000000000000000000000-00-00+000000000000000002010-12-06+000000000000000000000-00-00 0000-00-00+00000000000000000+00000000000000000+00000000000000000MAD10000100000000+00000000000000000+00000000000000000+00000000000000000+00000000000000000                         0000-00-00MAD0000000000000
S350  001LSERV            2011-05-31                                                                                      99930   99910   10000   01000   BRIDS     30CC101000243                                                                                              074014507709                              012+0000000002000000040AJDID TARIK                             1990-01-01+100000+100000004  WAFA 2010-01-010101S01              +00000000000000000H     +000000000+00000000000000000+00000000000000000+0000000000000-00-0000000-00-00+00000000000000000+00000000000000000+000000000000000000000-00-00+000000000000000002010-12-06+000000000000000000000-00-00 0000-00-00+00000000000000000+00000000000000000+00000000000000000MAD10000100000000+00000000000000000+00000000000000000+00000000000000000+00000000000000000                         0000-00-00MAD0000000000000
S350  001LSERV            2011-05-31                                                                                      99930   99910   10000   01000   BRIDS     30CC101000245                                                                                              074014507709                              120+0000000005000000001AJDID TARIK                             1990-01-01+100000+100000004  WAFA 2010-01-01                     +00000000000000000204   +000000000+00000000000000000+00000000000000000+0000000000000-00-0000000-00-00+00000000000000000+00000000000000000+000000000000000000000-00-00+000000000000000002010-12-06+000000000000000000000-00-00 0000-00-00+00000000000000000+00000000000000000+00000000000000000MAD10000100000000+00000000000000000+00000000000000000+00000000000000000+00000000000000000                         0000-00-00MAD0000000000000
S350  001LSERV            2011-05-31                                                                                      99930   99910   10000   01000   BRIDS     30CC101000245                                                                                              074014507709                              120+0000000005000000040AJDID TARIK                             1990-01-01+100000+100000004  WAFA 2010-01-010101S01              +00000000000000000H     +000000000+00000000000000000+00000000000000000+0000000000000-00-0000000-00-00+00000000000000000+00000000000000000+000000000000000000000-00-00+000000000000000002010-12-06+000000000000000000000-00-00 0000-00-00+00000000000000000+00000000000000000+00000000000000000MAD10000100000000+00000000000000000+00000000000000000+00000000000000000+00000000000000000                         0000-00-00MAD0000000000000
S350  001LSERV            2011-05-31                                                                                      99930   99910   10000   01000   BRIDS     30CC101000253                                                                                              074014507709                              120+0000000005000000001AJDID TARIK                             1990-01-01+100000+100000004  WAFA 2010-01-01                     +00000000000000000203   +000000000+00000000000000000+00000000000000000+0000227002011-05-1500000-00-00+00000000000000000+00000000000000000+000000000000000000000-00-00+000000000000000002010-12-06+000000000000000002010-12-06 0000-00-00+00000000000000000+00000000000000000+00000000000000000MAD10000100000000+00000000000000000+00000000000000000+00000000000000000+00000000000000000                         0000-00-00MAD0000000000000
S350  001LSERV            2011-05-31                                                                                      99930   99910   10000   01000   BRIDS     30CC101000253                                                                                              074014507709                              120+0000000005000000040AJDID TARIK                             1990-01-01+100000+100000004  WAFA 2010-01-010101S01              +00000000000000000H     +000000000+00000000000000000+00000000000000000+0000000002011-05-1500000-00-00+00000000000000000+00000000000000000+000000000000000000000-00-00+000000000000000002010-12-06+000000000000000002010-12-06 0000-00-00+00000000000000000+00000000000000000+00000000000000000MAD10000100000000+00000000000000000+00000000000000000+00000000000000000+00000000000000000                         0000-00-00MAD0000000000000
S350  001LSERV            2011-05-31                                                                                      99930   99910   10000   01000   BRIDS     30CC101000254                                                                                              074014507709                              120+0000000006000000001AJDID TARIK                             1990-01-01+100000+100000004  WAFA 2010-01-01                     +00000000000000000204   +000000000+00000000000000000+00000000000015910+0000273002011-05-1500000-00-00+00000000057868360+00000000057868360+000000000600000000000-00-00+000000000000000002010-12-06+000000000000000002010-12-06 0000-00-00+00000000000000000+00000000000000000+00000000000000000MAD10000100000000+00000000000000000+00000000000000000+00000000000000000+00000000000000000                         0000-00-00MAD0000000000000
S350  001LSERV            2011-05-31                                                                                      99930   99910   10000   01000   BRIDS     30CC101000254                                                                                              074014507709                              120+0000000006000000040AJDID TARIK                             1990-01-01+100000+100000004  WAFA 2010-01-010101S01              +00000000000000000H     +000000000+00000000000000000+00000000000000000+0000000002011-05-1500000-00-00+00000000057868360+00000000057868360+000000000600000000000-00-00+000000000000000002010-12-06+000000000000000002010-12-06 0000-00-00+00000000000000000+00000000000000000+00000000000000000MAD10000100000000+00000000000000000+00000000000000000+00000000000000000+00000000000000000                         0000-00-00MAD0000000000000
S350  001LSERV            2011-05-31                                                                                      99930   99910   10000   01000   BRIDS     30CC101000255                                                                                              074014507709                              120+0000000022000000001AJDID TARIK                             1990-01-01+100000+100000004  WAFA 2010-01-01                     +00000000000000000204   +000000000+00000000000000000+00000000000058350+0000273002011-05-1500000-00-00+00000000212183970+00000000212183970+000000002200000000000-00-00+000000000000000002010-12-06+000000000000000002010-12-06 0000-00-00+00000000000000000+00000000000000000+00000000000000000MAD10000100000000+00000000000000000+00000000000000000+00000000000000000+00000000000000000                         0000-00-00MAD0000000000000
S350  001LSERV            2011-05-31                                                                                      99930   99910   10000   01000   BRIDS     30CC101000255                                                                                              074014507709                              120+0000000022000000040AJDID TARIK                             1990-01-01+100000+100000004  WAFA 2010-01-010101S01              +00000000000000000H     +000000000+00000000000000000+00000000000000000+0000000002011-05-1500000-00-00+00000000212183970+00000000212183970+000000002200000000000-00-00+000000000000000002010-12-06+000000000000000002010-12-06 0000-00-00+00000000000000000+00000000000000000+00000000000000000MAD10000100000000+00000000000000000+00000000000000000+00000000000000000+00000000000000000                         0000-00-00MAD0000000000000
S350  001LSERV            2011-05-31                                                                                      99930   99910   10000   01000   BRIDS     30CC101000262                                                                                              074014507714                              120+0000000006000000001AJDID TARIK                             1988-09-05+100000+100000004  WAFA 2010-01-01                     +00000000000000000204   +000000000+00000000000000000+00000000000000000+0000000000000-00-0000000-00-00+00000000000000000+00000000000000000+000000000000000000000-00-00+000000000000000002010-12-06+000000000000000000000-00-00 0000-00-00+00000000000000000+00000000000000000+00000000000000000MAD10000100000000+00000000000000000+00000000000000000+00000000000000000+00000000000000000                         0000-00-00MAD0000000000000
S350  001LSERV            2011-05-31                                                                                      99930   99910   10000   01000   BRIDS     30CC101000262                                                                                              074014507714                              120+0000000006000000040AJDID TARIK                             1988-09-05+100000+100000004  WAFA 2010-01-010101S01              +00000000000000000H04   +000000000+00000000000000000+00000000000000000+0000000000000-00-0000000-00-00+00000000000000000+00000000000000000+000000000000000000000-00-00+000000000000000002010-12-06+000000000000000000000-00-00 0000-00-00+00000000000000000+00000000000000000+00000000000000000MAD10000100000000+00000000000000000+00000000000000000+00000000000000000+00000000000000000                         0000-00-00MAD0000000000000
S350  001LSERV            2011-05-31                                                                                      99930   99910   10000   01000   BRIDS     30CC101000272                                                                                              074014507709                              060+0000000003000000001AJDID TARIK                             1990-01-01+100000+100000004  WAFA 2010-01-01                     +00000000000000000204   +000000000+00000000000000000+00000000000007600+0000273002011-05-1500000-00-00+00000000027292950+00000000027292950+000000000300000000000-00-00+000000000000000002010-12-06+000000000000000002010-12-06 0000-00-00+00000000000000000+00000000000000000+00000000000000000MAD10000100000000+00000000000000000+00000000000000000+00000000000000000+00000000000000000                         0000-00-00MAD0000000000000
S350  001LSERV            2011-05-31                                                                                      99930   99910   10000   01000   BRIDS     30CC101000272                                                                                              074014507709                              060+0000000003000000040AJDID TARIK                             1990-01-01+100000+100000004  WAFA 2010-01-010101S01              +00000000000000000H04   +000000000+00000000000000000+00000000000000000+0000000002011-05-1500000-00-00+00000000027292950+00000000027292950+000000000300000000000-00-00+000000000000000002010-12-06+000000000000000002010-12-06 0000-00-00+00000000000000000+00000000000000000+00000000000000000MAD10000100000000+00000000000000000+00000000000000000+00000000000000000+00000000000000000                         0000-00-00MAD0000000000000
S350  001LSERV            2011-05-31                                                                                      99930   99910   10000   01000   BRIDS     30CC101000276                                                                                              074014507708                              120+0000000005000000001HADDAOUI MUSTAPHA                       1971-01-01+100000+100000004  WAFA 2010-01-01                     +00000000000000000206   +000000000+00000000000000000+00000000000000000+0000000000000-00-0000000-00-00+00000000000000000+00000000000000000+000000000000000000000-00-00+000000000000000002010-12-06+000000000000000000000-00-00 0000-00-00+00000000000000000+00000000000000000+00000000000000000MAD10000100000000+00000000000000000+00000000000000000+00000000000000000+00000000000000000                         0000-00-00MAD0000000000000
S350  001LSERV            2011-05-31                                                                                      99930   99910   10000   01000   BRIDS     30CC101000276                                                                                              074014507708                              120+0000000005000000040HADDAOUI MUSTAPHA                       1971-01-01+100000+100000004  WAFA 2010-01-010101S01              +00000000000000000H06   +000000000+00000000000000000+00000000000000000+0000000000000-00-0000000-00-00+00000000000000000+00000000000000000+000000000000000000000-00-00+000000000000000002010-12-06+000000000000000000000-00-00 0000-00-00+00000000000000000+00000000000000000+00000000000000000MAD10000100000000+00000000000000000+00000000000000000+00000000000000000+00000000000000000                         0000-00-00MAD0000000000000
S350  001LSERV            2011-05-31                                                                                      99930   99910   10000   01000   BRIDS     30CC101000308                                                                                              074014507733                              120+0000000027000000001AJDID TARIK                             1986-09-05+100000+100000004  WAFA 2010-02-06                     +00000000000000000204   +000000000+00000000000000000+00000000000072590+0000273002011-05-1500000-00-00+00000000264180130+00000000264180130+000000002700000000000-00-00+000000000000000002010-12-06+000000000000000002010-12-06 0000-00-00+00000000000000000+00000000000000000+00000000000000000MAD10000100000000+00000000000000000+00000000000000000+00000000000000000+00000000000000000                         0000-00-00MAD0000000000000
S350  001LSERV            2011-05-31                                                                                      99930   99910   10000   01000   BRIDS     30CC101000308                                                                                              074014507733                              120+0000000027000000040AJDID TARIK                             1986-09-05+100000+100000004  WAFA 2010-02-060101S01              +00000000000000000H04   +000000000+00000000000000000+00000000000000000+0000000002011-05-1500000-00-00+00000000264180130+00000000264180130+000000002700000000000-00-00+000000000000000002010-12-06+000000000000000002010-12-06 0000-00-00+00000000000000000+00000000000000000+00000000000000000MAD10000100000000+00000000000000000+00000000000000000+00000000000000000+00000000000000000                         0000-00-00MAD0000000000000
S350  001LSERV            2011-05-31                                                                                      99930   99910   10000   01000   BRIDS     30CC101000309                                                                                              074014507735                              120+0000000027000000001AJDID TARIK                             1977-09-08+100000+100000004  WAFA 2010-12-06                     +00000000000000000205   +000000000+00000000000000000+00000000000161230+0000606002011-05-1500000-00-00+00000000264437520+00000000264437520+000000002700000000000-00-00+000000000000000002010-12-06+000000000000000002010-12-06 0000-00-00+00000000000000000+00000000000000000+00000000000000000MAD10000100000000+00000000000000000+00000000000000000+00000000000000000+00000000000000000                         0000-00-00MAD0000000000000
S350  001LSERV            2011-05-31                                                                                      99930   99910   10000   01000   BRIDS     30CC101000309                                                                                              074014507735                              120+0000000027000000040AJDID TARIK                             1977-09-08+100000+100000004  WAFA 2010-12-060101S01              +00000000000000000H05   +000000000+00000000000000000+00000000000000000+0000000002011-05-1500000-00-00+00000000264437520+00000000264437520+000000002700000000000-00-00+000000000000000002010-12-06+000000000000000002010-12-06 0000-00-00+00000000000000000+00000000000000000+00000000000000000MAD10000100000000+00000000000000000+00000000000000000+00000000000000000+00000000000000000                         0000-00-00MAD0000000000000
S350  001LSERV            2011-05-31                                                                                      99930   99910   10000   01000   BRIDS     30CC101000311                                                                                              074014507733                              120+0000000027000000001AJDID TARIK                             1986-09-05+100000+100000004  WAFA 2010-12-06                     +00000000000000000204   +000000000+00000000000000000+00000000000072590+0000273002011-05-1500000-00-00+00000000264180130+00000000264180130+000000002700000000000-00-00+000000000000000002010-12-06+000000000000000002010-12-06 0000-00-00+00000000000000000+00000000000000000+00000000000000000MAD10000100000000+00000000000000000+00000000000000000+00000000000000000+00000000000000000                         0000-00-00MAD0000000000000
S350  001LSERV            2011-05-31                                                                                      99930   99910   10000   01000   BRIDS     30CC101000311                                                                                              074014507733                              120+0000000027000000040AJDID TARIK                             1986-09-05+100000+100000004  WAFA 2010-12-060101S01              +00000000000000000H04   +000000000+00000000000000000+00000000000000000+0000000002011-05-1500000-00-00+00000000264180130+00000000264180130+000000002700000000000-00-00+000000000000000002010-12-06+000000000000000002010-12-06 0000-00-00+00000000000000000+00000000000000000+00000000000000000MAD10000100000000+00000000000000000+00000000000000000+00000000000000000+00000000000000000                         0000-00-00MAD0000000000000
S350  001LSERV            2011-05-31                                                                                      99930   99910   10000   01000   BRIDS     30CC101000318                                                                                              074014507720                              120+0000000015000000001HADDAOUI MUSTAPHA                       1991-01-01+100000+100000004  WAFA 2010-01-01                     +00000000000000000204   +000000000+00000000000000000+00000000000040060+0000273002011-05-1500000-00-00+00000000145668280+00000000145668280+000000001500000000000-00-00+000000000000000002010-12-31+000000000000000002010-12-31 0000-00-00+00000000000000000+00000000000000000+00000000000000000MAD10000100000000+00000000000000000+00000000000000000+00000000000000000+00000000000000000                         0000-00-00MAD0000000000000
S350  001LSERV            2011-05-31                                                                                      99930   99910   10000   01000   BRIDS     30CC101000318                                                                                              074014507720                              120+0000000015000000040HADDAOUI MUSTAPHA                       1991-01-01+100000+100000004  WAFA 2010-01-010101S01              +00000000000000000H04   +000000000+00000000000000000+00000000000000000+0000000002011-05-1500000-00-00+00000000145668280+00000000145668280+000000001500000000000-00-00+000000000000000002010-12-31+000000000000000002010-12-31 0000-00-00+00000000000000000+00000000000000000+00000000000000000MAD10000100000000+00000000000000000+00000000000000000+00000000000000000+00000000000000000                         0000-00-00MAD0000000000000
S350  001LSERV            2011-05-31                                                                                      99930   99910   10000   01000   BRIDS     30CC101000319                                                                                              074014507720                              120+0000000005000000001HADDAOUI MUSTAPHA                       1991-01-01+100000+100000004  WAFA 2010-01-01                     +00000000000000000204   +000000000+00000000000000000+00000000000013350+0000273002011-05-1500000-00-00+00000000048556100+00000000048556100+000000000500000000000-00-00+000000000000000002010-12-31+000000000000000002010-12-31 0000-00-00+00000000000000000+00000000000000000+00000000000000000MAD10000100000000+00000000000000000+00000000000000000+00000000000000000+00000000000000000                         0000-00-00MAD0000000000000
S350  001LSERV            2011-05-31                                                                                      99930   99910   10000   01000   BRIDS     30CC101000319                                                                                              074014507720                              120+0000000005000000040HADDAOUI MUSTAPHA                       1991-01-01+100000+100000004  WAFA 2010-01-010101S01              +00000000000000000H04   +000000000+00000000000000000+00000000000000000+0000000002011-05-1500000-00-00+00000000048556100+00000000048556100+000000000500000000000-00-00+000000000000000002010-12-31+000000000000000002010-12-31 0000-00-00+00000000000000000+00000000000000000+00000000000000000MAD10000100000000+00000000000000000+00000000000000000+00000000000000000+00000000000000000                         0000-00-00MAD0000000000000
S350  001LSERV            2011-05-31                                                                                      99930   99910   10000   01000   BRIDS     30CC101000320                                                                                              074014507720                              120+0000000015000000001HADDAOUI MUSTAPHA                       1991-01-01+100000+100000004  WAFA 2010-01-01                     +00000000000000000204   +000000000+00000000000000000+00000000000000000+0000000000000-00-0000000-00-00+00000000000000000+00000000000000000+000000000000000000000-00-00+000000000000000002010-12-31+000000000000000000000-00-00 0000-00-00+00000000000000000+00000000000000000+00000000000000000MAD10000100000000+00000000000000000+00000000000000000+00000000000000000+00000000000000000                         0000-00-00MAD0000000000000
S350  001LSERV            2011-05-31                                                                                      99930   99910   10000   01000   BRIDS     30CC101000320                                                                                              074014507720                              120+0000000015000000040HADDAOUI MUSTAPHA                       1991-01-01+100000+100000004  WAFA 2010-01-010101S01              +00000000000000000H04   +000000000+00000000000000000+00000000000000000+0000000000000-00-0000000-00-00+00000000000000000+00000000000000000+000000000000000000000-00-00+000000000000000002010-12-31+000000000000000000000-00-00 0000-00-00+00000000000000000+00000000000000000+00000000000000000MAD10000100000000+00000000000000000+00000000000000000+00000000000000000+00000000000000000                         0000-00-00MAD0000000000000
S350  001LSERV            2011-05-31                                                                                      99930   99910   10000   01000   BRIDS     30CC101000328                                                                                              074014507708                              120+0000000006000000001HADDAOUI MUSTAPHA                       1971-01-01+100000+100000004  WAFA 2010-01-01                     +00000000000000000206   +000000000+00000000000000000+00000000000080600+0001370002011-05-1500000-00-00+00000000058463960+00000000058463960+000000000600000000000-00-00+000000000000000002011-01-01+000000000000000002011-01-01 0000-00-00+00000000000000000+00000000000000000+00000000000000000MAD10000100000000+00000000000000000+00000000000000000+00000000000000000+00000000000000000                         0000-00-00MAD0000000000000
S350  001LSERV            2011-05-31                                                                                      99930   99910   10000   01000   BRIDS     30CC101000328                                                                                              074014507708                              120+0000000006000000040HADDAOUI MUSTAPHA                       1971-01-01+100000+100000004  WAFA 2010-01-010101S01              +00000000000000000H06   +000000000+00000000000000000+00000000000000000+0000000002011-05-1500000-00-00+00000000058463960+00000000058463960+000000000600000000000-00-00+000000000000000002011-01-01+000000000000000002011-01-01 0000-00-00+00000000000000000+00000000000000000+00000000000000000MAD10000100000000+00000000000000000+00000000000000000+00000000000000000+00000000000000000                         0000-00-00MAD0000000000000
S350  001LSERV            2011-05-31                                                                                      99930   99910   10000   01000   BRIDS     30CC111000348                                                                                              074014507708                              120+0000000007500000001HADDAOUI MUSTAPHA                       1971-01-01+100000+100000004  WAFA 2010-12-20                     +00000000000000000204   +000000000+00000000000000000+00000000000020090+0000273002011-05-1500000-00-00+00000000073109230+00000000073109230+000000000750000000000-00-00+000000000000000002011-01-05+000000000000000002011-01-05 0000-00-00+00000000000000000+00000000000000000+00000000000000000MAD10000100000000+00000000000000000+00000000000000000+00000000000000000+00000000000000000                         0000-00-00MAD0000000000000
S350  001LSERV            2011-05-31                                                                                      99930   99910   10000   01000   BRIDS     30CC111000348                                                                                              074014507708                              120+0000000007500000040HADDAOUI MUSTAPHA                       1971-01-01+100000+100000004  WAFA 2010-12-200101S01              +00000000000000000H04   +000000000+00000000000000000+00000000000000000+0000000002011-05-1500000-00-00+00000000073109230+00000000073109230+000000000750000000000-00-00+000000000000000002011-01-05+000000000000000002011-01-05 0000-00-00+00000000000000000+00000000000000000+00000000000000000MAD10000100000000+00000000000000000+00000000000000000+00000000000000000+00000000000000000                         0000-00-00MAD0000000000000
S350  001LSERV            2011-05-31                                                                                      99930   99910   10000   01000   BRIDS     30CC111000350                                                                                              074014507735                              120+0000000002000000001AJDID TARIK                             1977-09-08+100000+100000004  WAFA 2010-12-01                     +00000000000000000204   +000000000+00000000000000000+00000000000005360+0000273002011-05-1500000-00-00+00000000019495790+00000000019495790+000000000200000000000-00-00+000000000000000002011-01-05+000000000000000002011-01-05 0000-00-00+00000000000000000+00000000000000000+00000000000000000MAD10000100000000+00000000000000000+00000000000000000+00000000000000000+00000000000000000                         0000-00-00MAD0000000000000
S350  001LSERV            2011-05-31                                                                                      99930   99910   10000   01000   BRIDS     30CC111000350                                                                                              074014507735                              120+0000000002000000040AJDID TARIK                             1977-09-08+100000+100000004  WAFA 2010-12-010101S01              +00000000000000000H04   +000000000+00000000000000000+00000000000000000+0000000002011-05-1500000-00-00+00000000019495790+00000000019495790+000000000200000000000-00-00+000000000000000002011-01-05+000000000000000002011-01-05 0000-00-00+00000000000000000+00000000000000000+00000000000000000MAD10000100000000+00000000000000000+00000000000000000+00000000000000000+00000000000000000                         0000-00-00MAD0000000000000
S350  001LSERV            2011-05-31                                                                                      99930   99910   10000   01000   BRIDS     30CC111000352                                                                                              074014507727                              060+0000000004500000001AJDID TARIK                             1980-01-01+100000+100000004  WAFA 2011-01-20                     +00000000000000000204   +000000000+00000000000000000+00000000000011930+0000273002011-05-1500000-00-00+00000000043020250+00000000043020250+000000000450000000000-00-00+000000000000000002011-02-01+000000000000000002011-02-01 0000-00-00+00000000000000000+00000000000000000+00000000000000000MAD10000100000000+00000000000000000+00000000000000000+00000000000000000+00000000000000000                         0000-00-00MAD0000000000000
S350  001LSERV            2011-05-31                                                                                      99930   99910   10000   01000   BRIDS     30CC111000352                                                                                              074014507727                              060+0000000004500000040AJDID TARIK                             1980-01-01+100000+100000004  WAFA 2011-01-200101S01              +00000000000000000H04   +000000000+00000000000000000+00000000000000000+0000000002011-05-1500000-00-00+00000000043020250+00000000043020250+000000000450000000000-00-00+000000000000000002011-02-01+000000000000000002011-02-01 0000-00-00+00000000000000000+00000000000000000+00000000000000000MAD10000100000000+00000000000000000+00000000000000000+00000000000000000+00000000000000000                         0000-00-00MAD0000000000000
S350  001LSERV            2011-05-31                                                                                      99930   99910   10000   01000   BRIDS     30CC111000353                                                                                              074014507733                              120+0000000027000000001AJDID TARIK                             1986-09-05+100000+100000004  WAFA 2011-01-02                     +00000000000000000203   +000000000+00000000000000000+00000000000000000+0000045400000-00-0000000-00-00+00000000270000000+00000000271417500+000000002700000000000-00-00+000000000000000002011-02-01+000000000000000002011-02-01 0000-00-00+00000000000000000+00000000000000000+00000000000000000MAD10000100000000+00000000000000000+00000000000000000+00000000000000000+00000000000000000                         0000-00-00MAD0000000000000
S350  001LSERV            2011-05-31                                                                                      99930   99910   10000   01000   BRIDS     30CC111000353                                                                                              074014507733                              120+0000000027000000040AJDID TARIK                             1986-09-05+100000+100000004  WAFA 2011-01-020101S01              +00000000000000000H03   +000000000+00000000000000000+00000000000000000+0000000000000-00-0000000-00-00+00000000270000000+00000000271417500+000000002700000000000-00-00+000000000000000002011-02-01+000000000000000002011-02-01 0000-00-00+00000000000000000+00000000000000000+00000000000000000MAD10000100000000+00000000000000000+00000000000000000+00000000000000000+00000000000000000                         0000-00-00MAD0000000000000
S350  001LSERV            2011-05-31                                                                                      99930   99910   10000   01000   BRIDS     30CC111000357                                                                                              074014507747                              120+0000000006725000001OUASSINI MOHAMED                        1970-02-15+100000+100000004  WAFA 2011-01-21                     +00000000000000000204   +000000000+00000000000000000+00000000000008610+0000273002011-05-1500000-00-00+00000000031346180+00000000031346180+000000000672500000000-00-00+000000000000000002011-02-04+000000000000000002011-02-04 0000-00-00+00000000000000000+00000000000000000+00000000000000000MAD10000100000000+00000000000000000+00000000000000000+00000000000000000+00000000000000000                         0000-00-00MAD0000000000000
S350  001LSERV            2011-05-31                                                                                      99930   99910   10000   01000   BRIDS     30CC111000357                                                                                              074014507747                              120+0000000006725000040OUASSINI MOHAMED                        1970-02-15+100000+100000004  WAFA 2011-01-210101S01              +00000000000000000H04   +000000000+00000000000000000+00000000000000000+0000000002011-05-1500000-00-00+00000000031346180+00000000031346180+000000000672500000000-00-00+000000000000000002011-02-04+000000000000000002011-02-04 0000-00-00+00000000000000000+00000000000000000+00000000000000000MAD10000100000000+00000000000000000+00000000000000000+00000000000000000+00000000000000000                         0000-00-00MAD0000000000000
S350  001LSERV            2011-05-31                                                                                      99930   99919   03000   10900   BRIDS     30CC111000367                                                                                              074013641801                              119+0000000010000000001EL YOUSFI BRAHIM                        1994-01-17+100000+100000004  WAFA 2010-01-01                     +00000000000000000203   +000000000+00000000000000000+00000000000020660+0000227002011-05-3100000-00-00+00000000090329390+00000000090329390+000000001000000000000-00-00+000000000000000002011-02-04+000000000000000002011-02-04 0000-00-00+00000000000000000+00000000000000000+00000000000000000MAD10000100000000+00000000000000000+00000000000000000+00000000000000000+00000000000000000                         0000-00-00MAD0000000000000
S350  001LSERV            2011-05-31                                                                                      99930   99919   03000   10900   BRIDS     30CC111000367                                                                                              074013641801                              119+0000000010000000040EL YOUSFI BRAHIM                        1994-01-17+100000+100000004  WAFA 2010-01-010101S01              +00000000000000000H03   +000000000+00000000000000000+00000000000000000+0000000002011-05-3100000-00-00+00000000090329390+00000000090329390+000000001000000000000-00-00+000000000000000002011-02-04+000000000000000002011-02-04 0000-00-00+00000000000000000+00000000000000000+00000000000000000MAD10000100000000+00000000000000000+00000000000000000+00000000000000000+00000000000000000                         0000-00-00MAD0000000000000
S350  001LSERV            2011-05-31                                                                                      99930   99910   10000   01000   BRIDS     30CC111000383                                                                                              074014507733                              120+0000000002000000001AJDID TARIK                             1986-09-05+100000+100000004  WAFA 2011-01-02                     +00000000000000000203   +000000000+00000000000000000+00000000000000000+0000017200000-00-0000000-00-00+00000000020000000+00000000020075000+000000000200000000000-00-00+000000000000000002011-02-05+000000000000000002011-02-05 0000-00-00+00000000000000000+00000000000000000+00000000000000000MAD10000100000000+00000000000000000+00000000000000000+00000000000000000+00000000000000000                         0000-00-00MAD0000000000000
S350  001LSERV            2011-05-31                                                                                      99930   99910   10000   01000   BRIDS     30CC111000383                                                                                              074014507733                              120+0000000002000000040AJDID TARIK                             1986-09-05+100000+100000004  WAFA 2011-01-020101S01              +00000000000000000H03   +000000000+00000000000000000+00000000000000000+0000000000000-00-0000000-00-00+00000000020000000+00000000020075000+000000000200000000000-00-00+000000000000000002011-02-05+000000000000000002011-02-05 0000-00-00+00000000000000000+00000000000000000+00000000000000000MAD10000100000000+00000000000000000+00000000000000000+00000000000000000+00000000000000000                         0000-00-00MAD0000000000000
S350  001LSERV            2011-05-31                                                                                      99930   99919   03000   10900   BRIDS     30CC111000392                                                                                              074013641801                              119+0000000010000000001EL YOUSFI BRAHIM                        1994-01-17+100000+100000004  WAFA 2010-03-01                     +00000000000000000203   +000000000+00000000000000000+00000000000020810+0000227002011-05-3100000-00-00+00000000091024170+00000000091024170+000000001000000000000-00-00+000000000000000002011-02-05+000000000000000002011-02-05 0000-00-00+00000000000000000+00000000000000000+00000000000000000MAD10000100000000+00000000000000000+00000000000000000+00000000000000000+00000000000000000                         0000-00-00MAD0000000000000
S350  001LSERV            2011-05-31                                                                                      99930   99919   03000   10900   BRIDS     30CC111000392                                                                                              074013641801                              119+0000000010000000040EL YOUSFI BRAHIM                        1994-01-17+100000+100000004  WAFA 2010-03-010101S01              +00000000000000000H03   +000000000+00000000000000000+00000000000000000+0000000002011-05-3100000-00-00+00000000091024170+00000000091024170+000000001000000000000-00-00+000000000000000002011-02-05+000000000000000002011-02-05 0000-00-00+00000000000000000+00000000000000000+00000000000000000MAD10000100000000+00000000000000000+00000000000000000+00000000000000000+00000000000000000                         0000-00-00MAD0000000000000
S350  001LSERV            2011-05-31                                                                                      99930   99919   03000   10900   BRIDS     30CC111000397                                                                                              074013641801                              119+0000000010000000001EL YOUSFI BRAHIM                        1994-01-17+100000+100000004  WAFA 2010-01-01                     +00000000000000000203   +000000000+00000000000000000+00000000000000000+0000000000000-00-0000000-00-00+00000000000000000+00000000000000000+000000000000000000000-00-00+000000000000000002011-02-06+000000000000000000000-00-00 0000-00-00+00000000000000000+00000000000000000+00000000000000000MAD10000100000000+00000000000000000+00000000000000000+00000000000000000+00000000000000000                         0000-00-00MAD0000000000000
S350  001LSERV            2011-05-31                                                                                      99930   99919   03000   10900   BRIDS     30CC111000397                                                                                              074013641801                              119+0000000010000000040EL YOUSFI BRAHIM                        1994-01-17+100000+100000004  WAFA 2010-01-010101S01              +00000000000000000H03   +000000000+00000000000000000+00000000000000000+0000000000000-00-0000000-00-00+00000000000000000+00000000000000000+000000000000000000000-00-00+000000000000000002011-02-06+000000000000000000000-00-00 0000-00-00+00000000000000000+00000000000000000+00000000000000000MAD10000100000000+00000000000000000+00000000000000000+00000000000000000+00000000000000000                         0000-00-00MAD0000000000000
S350  001LSERV            2011-05-31                                                                                      99930   99910   10000   01000   BRIDS     30CC111000406                                                                                              074014507735                              051+0000000001000000001AJDID TARIK                             1977-09-08+100000+100000004  WAFA 2011-01-15                     +00000000000000000204   +000000000+00000000000000000+00000000000002690+0000273002011-05-1500000-00-00+00000000009687360+00000000009687360+000000000100000000000-00-00+000000000000000002011-02-07+000000000000000002011-02-07 0000-00-00+00000000000000000+00000000000000000+00000000000000000MAD10000100000000+00000000000000000+00000000000000000+00000000000000000+00000000000000000                         0000-00-00MAD0000000000000
S350  001LSERV            2011-05-31                                                                                      99930   99910   10000   01000   BRIDS     30CC111000406                                                                                              074014507735                              051+0000000001000000040AJDID TARIK                             1977-09-08+100000+100000004  WAFA 2011-01-150101S01              +00000000000000000H04   +000000000+00000000000000000+00000000000000000+0000000002011-05-1500000-00-00+00000000009687360+00000000009687360+000000000100000000000-00-00+000000000000000002011-02-07+000000000000000002011-02-07 0000-00-00+00000000000000000+00000000000000000+00000000000000000MAD10000100000000+00000000000000000+00000000000000000+00000000000000000+00000000000000000                         0000-00-00MAD0000000000000
S350  001LSERV            2011-05-31                                                                                      99930   99919   03000   10900   BRIDS     30CC111000407                                                                                              074013641801                              120+0000000010000000001EL YOUSFI BRAHIM                        1994-01-17+100000+100000004  WAFA 2010-01-01                     +00000000000000000003   +000000000+00000000000000000+00000000000020550+0000227002011-05-3100000-00-00+00000000089479120+00000000089834970+000000001000000000000-00-00+000000000000000002011-02-07+000000000000000002011-02-07 0000-00-00+00000000000000000+00000000000000000+00000000000000150MAD10000100000000+00000000000000000+00000000000000000+00000000000000000+00000000000000000                         0000-00-00MAD0000000000000
S350  001LSERV            2011-05-31                                                                                      99930   99919   03000   10900   BRIDS     30CC111000407                                                                                              074013641801                              120+0000000010000000040EL YOUSFI BRAHIM                        1994-01-17+100000+100000004  WAFA 2010-01-010101S01              +00000000000000000H03   +000000000+00000000000000000+00000000000000000+0000000002011-05-3100000-00-00+00000000089479120+00000000089834970+000000001000000000000-00-00+000000000000000002011-02-07+000000000000000002011-02-07 0000-00-00+00000000000000000+00000000000000000+00000000000000000MAD10000100000000+00000000000000000+00000000000000000+00000000000000000+00000000000000000                         0000-00-00MAD0000000000000
S350  001LSERV            2011-05-31                                                                                      99930   99910   10000   01000   BRIDS     30CC111000408                                                                                              074014507733                              120+0000000030000000001AJDID TARIK                             1986-09-05+100000+100000004  WAFA 2011-01-15                     +00000000000000000203   +000000000+00000000000000000+00000000000000000+0000000000000-00-0000000-00-00+00000000000000000+00000000000000000+000000000000000000000-00-00+000000000000000002011-02-07+000000000000000000000-00-00 0000-00-00+00000000000000000+00000000000000000+00000000000000000MAD10000100000000+00000000000000000+00000000000000000+00000000000000000+00000000000000000                         0000-00-00MAD0000000000000
S350  001LSERV            2011-05-31                                                                                      99930   99910   10000   01000   BRIDS     30CC111000408                                                                                              074014507733                              120+0000000030000000040AJDID TARIK                             1986-09-05+100000+100000004  WAFA 2011-01-150101S01              +00000000000000000H03   +000000000+00000000000000000+00000000000000000+0000000000000-00-0000000-00-00+00000000000000000+00000000000000000+000000000000000000000-00-00+000000000000000002011-02-07+000000000000000000000-00-00 0000-00-00+00000000000000000+00000000000000000+00000000000000000MAD10000100000000+00000000000000000+00000000000000000+00000000000000000+00000000000000000                         0000-00-00MAD0000000000000
S350  001LSERV            2011-05-31                                                                                      99930   99910   10000   01000   BRIDS     30CC111000411                                                                                              074014507747                              084+0000000005000000001OUASSINI MOHAMED                        1970-02-15+100000+100000004  WAFA 2011-01-20                     +00000000000000000204   +000000000+00000000000000000+00000000000000000+0000000000000-00-0000000-00-00+00000000000000000+00000000000000000+000000000000000000000-00-00+000000000000000002011-02-07+000000000000000000000-00-00 0000-00-00+00000000000000000+00000000000000000+00000000000000000MAD10000100000000+00000000000000000+00000000000000000+00000000000000000+00000000000000000                         0000-00-00MAD0000000000000
S350  001LSERV            2011-05-31                                                                                      99930   99910   10000   01000   BRIDS     30CC111000411                                                                                              074014507747                              084+0000000005000000040OUASSINI MOHAMED                        1970-02-15+100000+100000004  WAFA 2011-01-200101S01              +00000000000000000H04   +000000000+00000000000000000+00000000000000000+0000000000000-00-0000000-00-00+00000000000000000+00000000000000000+000000000000000000000-00-00+000000000000000002011-02-07+000000000000000000000-00-00 0000-00-00+00000000000000000+00000000000000000+00000000000000000MAD10000100000000+00000000000000000+00000000000000000+00000000000000000+00000000000000000                         0000-00-00MAD0000000000000
S350  001LSERV            2011-05-31                                                                                      99930   99910   10000   01000   BRIDS     30CC111000412                                                                                              074014507747                              084+0000000007500000001OUASSINI MOHAMED                        1970-02-15+100000+100000004  WAFA 2011-01-20                     +00000000000000000204   +000000000+00000000000000000+00000000000020350+0000273002011-05-1500000-00-00+00000000073812420+00000000073812420+000000000750000000000-00-00+000000000000000002011-02-07+000000000000000002011-02-07 0000-00-00+00000000000000000+00000000000000000+00000000000000000MAD10000100000000+00000000000000000+00000000000000000+00000000000000000+00000000000000000                         0000-00-00MAD0000000000000
S350  001LSERV            2011-05-31                                                                                      99930   99910   10000   01000   BRIDS     30CC111000412                                                                                              074014507747                              084+0000000007500000040OUASSINI MOHAMED                        1970-02-15+100000+100000004  WAFA 2011-01-200101S01              +00000000000000000H04   +000000000+00000000000000000+00000000000000000+0000000002011-05-1500000-00-00+00000000073812420+00000000073812420+000000000750000000000-00-00+000000000000000002011-02-07+000000000000000002011-02-07 0000-00-00+00000000000000000+00000000000000000+00000000000000000MAD10000100000000+00000000000000000+00000000000000000+00000000000000000+00000000000000000                         0000-00-00MAD0000000000000
S350  001LSERV            2011-05-31                                                                                      99930   99910   10000   01000   BRIDS     30CC111000413                                                                                              074014507747                              120+0000000010000000001OUASSINI MOHAMED                        1970-02-15+100000+100000004  WAFA 2011-01-20                     +00000000000000000004   +000000000+00000000000000000+00000000000027250+0000273002011-05-1500000-00-00+00000000099164990+00000000099164990+000000001000000000000-00-00+000000000000000002011-02-07+000000000000000002011-02-07 0000-00-00+00000000000000000+00000000000000000+00000000000000000MAD10000100000000+00000000000000000+00000000000000000+00000000000000000+00000000000000000                         0000-00-00MAD0000000000000
S350  001LSERV            2011-05-31                                                                                      99930   99910   10000   01000   BRIDS     30CC111000413                                                                                              074014507747                              120+0000000010000000040OUASSINI MOHAMED                        1970-02-15+100000+100000004  WAFA 2011-01-200101S01              +00000000000000000H04   +000000000+00000000000000000+00000000000000000+0000000002011-05-1500000-00-00+00000000099164990+00000000099164990+000000001000000000000-00-00+000000000000000002011-02-07+000000000000000002011-02-07 0000-00-00+00000000000000000+00000000000000000+00000000000000000MAD10000100000000+00000000000000000+00000000000000000+00000000000000000+00000000000000000                         0000-00-00MAD0000000000000
S350  001LSERV            2011-05-31                                                                                      99930   99910   10000   01000   BRIDS     30CC111000416                                                                                              074014507727                              084+0000000003500000001AJDID TARIK                             1980-01-01+100000+100000004  WAFA 2011-01-20                     +00000000000000000004   +000000000+00000000000000000+00000000000000000+0000000000000-00-0000000-00-00+00000000000000000+00000000000000000+000000000000000000000-00-00+000000000000000002011-02-28+000000000000000000000-00-00 0000-00-00+00000000000000000+00000000000000000+00000000000000000MAD10000100000000+00000000000000000+00000000000000000+00000000000000000+00000000000000000                         0000-00-00MAD0000000000000
S350  001LSERV            2011-05-31                                                                                      99930   99910   10000   01000   BRIDS     30CC111000416                                                                                              074014507727                              084+0000000003500000040AJDID TARIK                             1980-01-01+100000+100000004  WAFA 2011-01-200101S01              +00000000000000000H04   +000000000+00000000000000000+00000000000000000+0000000000000-00-0000000-00-00+00000000000000000+00000000000000000+000000000000000000000-00-00+000000000000000002011-02-28+000000000000000000000-00-00 0000-00-00+00000000000000000+00000000000000000+00000000000000000MAD10000100000000+00000000000000000+00000000000000000+00000000000000000+00000000000000000                         0000-00-00MAD0000000000000
S350  001LSERV            2011-05-31                                                                                      99930   99910   10000   01000   BRIDS     30CC111000419                                                                                              074014507735                              060+0000000001000000001AJDID TARIK                             1977-09-08+100000+100000004  WAFA 2011-01-15                     +00000000000000000004   +000000000+00000000000000000+00000000000002700+0000273002011-05-1500000-00-00+00000000009750280+00000000009750280+000000000100000000000-00-00+000000000000000002011-02-28+000000000000000002011-02-28 0000-00-00+00000000000000000+00000000000000000+00000000000000000MAD10000100000000+00000000000000000+00000000000000000+00000000000000000+00000000000000000                         0000-00-00MAD0000000000000
S350  001LSERV            2011-05-31                                                                                      99930   99910   10000   01000   BRIDS     30CC111000419                                                                                              074014507735                              060+0000000001000000040AJDID TARIK                             1977-09-08+100000+100000004  WAFA 2011-01-150101S01              +00000000000000000H04   +000000000+00000000000000000+00000000000000000+0000000002011-05-1500000-00-00+00000000009750280+00000000009750280+000000000100000000000-00-00+000000000000000002011-02-28+000000000000000002011-02-28 0000-00-00+00000000000000000+00000000000000000+00000000000000000MAD10000100000000+00000000000000000+00000000000000000+00000000000000000+00000000000000000                         0000-00-00MAD0000000000000
S350  001LSERV            2011-05-31                                                                                      99930   99910   10000   01000   BRIDS     30CC111000420                                                                                              074014507736                              119+0000000005500000001ASKARI FATIMA                           1968-12-20+100000+100000004  WAFA 2011-01-15                     +00000000000000000005   +000000000+00000000000000000+00000000000033280+0000606002011-05-1500000-00-00+00000000054567920+00000000054567920+000000000550000000000-00-00+000000000000000002011-02-28+000000000000000002011-02-28 0000-00-00+00000000000000000+00000000000000000+00000000000000000MAD10000100000000+00000000000000000+00000000000000000+00000000000000000+00000000000000000                         0000-00-00MAD0000000000000
S350  001LSERV            2011-05-31                                                                                      99930   99910   10000   01000   BRIDS     30CC111000420                                                                                              074014507736                              119+0000000005500000040ASKARI FATIMA                           1968-12-20+100000+100000004  WAFA 2011-01-150101S01              +00000000000000000H05   +000000000+00000000000000000+00000000000000000+0000000002011-05-1500000-00-00+00000000054567920+00000000054567920+000000000550000000000-00-00+000000000000000002011-02-28+000000000000000002011-02-28 0000-00-00+00000000000000000+00000000000000000+00000000000000000MAD10000100000000+00000000000000000+00000000000000000+00000000000000000+00000000000000000                         0000-00-00MAD0000000000000
S350  001LSERV            2011-05-31                                                                                      99930   99910   10000   01000   BRIDS     30CC111000422                                                                                              074014507733                              060+0000000001000000001AJDID TARIK                             1986-09-05+100000+100000004  WAFA 2011-01-15                     +00000000000000000003   +000000000+00000000000000000+00000000000002240+0000227002011-05-1500000-00-00+00000000009706950+00000000009706950+000000000100000000000-00-00+000000000000000002011-03-01+000000000000000002011-03-01 0000-00-00+00000000000000000+00000000000000000+00000000000000000MAD10000100000000+00000000000000000+00000000000000000+00000000000000000+00000000000000000                         0000-00-00MAD0000000000000
S350  001LSERV            2011-05-31                                                                                      99930   99910   10000   01000   BRIDS     30CC111000422                                                                                              074014507733                              060+0000000001000000040AJDID TARIK                             1986-09-05+100000+100000004  WAFA 2011-01-150101S01              +00000000000000000H03   +000000000+00000000000000000+00000000000000000+0000000002011-05-1500000-00-00+00000000009706950+00000000009706950+000000000100000000000-00-00+000000000000000002011-03-01+000000000000000002011-03-01 0000-00-00+00000000000000000+00000000000000000+00000000000000000MAD10000100000000+00000000000000000+00000000000000000+00000000000000000+00000000000000000                         0000-00-00MAD0000000000000
S350  001LSERV            2011-05-31                                                                                      99930   99910   10000   01000   BRIDS     30CC111000423                                                                                              074014507735                              061+0000000001000000001AJDID TARIK                             1977-09-08+100000+100000004  WAFA 2011-01-20                     +00000000000000000004   +000000000+00000000000000000+00000000000000000+0000000000000-00-0000000-00-00+00000000000000000+00000000000000000+000000000000000000000-00-00+000000000000000002011-03-01+000000000000000002011-03-01 0000-00-00+00000000000000000+00000000000000000+00000000000000000MAD10000100000000+00000000000000000+00000000000000000+00000000000000000+00000000000000000                         0000-00-00MAD0000000000000
S350  001LSERV            2011-05-31                                                                                      99930   99910   10000   01000   BRIDS     30CC111000423                                                                                              074014507735                              061+0000000001000000040AJDID TARIK                             1977-09-08+100000+100000004  WAFA 2011-01-200101S01              +00000000000000000H04   +000000000+00000000000000000+00000000000000000+0000000000000-00-0000000-00-00+00000000000000000+00000000000000000+000000000000000000000-00-00+000000000000000002011-03-01+000000000000000002011-03-01 0000-00-00+00000000000000000+00000000000000000+00000000000000000MAD10000100000000+00000000000000000+00000000000000000+00000000000000000+00000000000000000                         0000-00-00MAD0000000000000
S350  001LSERV            2011-05-31                                                                                      99930   99910   10000   01000   BRIDS     30CC111000424                                                                                              074014507735                              060+0000000001000000001AJDID TARIK                             1977-09-08+100000+100000004  WAFA 2011-01-15                     +00000000000000000004   +000000000+00000000000000000+00000000000002700+0000273002011-05-1500000-00-00+00000000009707350+00000000009746400+000000000100000000000-00-00+000000000000000002011-03-01+000000000000000002011-03-01 0000-00-00+00000000000000000+00000000000000000+00000000000000040MAD10000100000000+00000000000000000+00000000000000000+00000000000000000+00000000000000000                         0000-00-00MAD0000000000000
S350  001LSERV            2011-05-31                                                                                      99930   99910   10000   01000   BRIDS     30CC111000424                                                                                              074014507735                              060+0000000001000000040AJDID TARIK                             1977-09-08+100000+100000004  WAFA 2011-01-150101S01              +00000000000000000H04   +000000000+00000000000000000+00000000000000000+0000000002011-05-1500000-00-00+00000000009707350+00000000009746400+000000000100000000000-00-00+000000000000000002011-03-01+000000000000000002011-03-01 0000-00-00+00000000000000000+00000000000000000+00000000000000000MAD10000100000000+00000000000000000+00000000000000000+00000000000000000+00000000000000000                         0000-00-00MAD0000000000000
S350  001LSERV            2011-05-31                                                                                      99930   99910   10000   01000   BRIDS     30CC111000428                                                                                              074014507727                              119+0000000006000000001AJDID TARIK                             1980-01-01+100000+100000004  WAFA 2011-03-02                     +00000000000000000004   +000000000+00000000000000000+00000000000016450+0000273002011-05-1500000-00-00+00000000059855040+00000000059855040+000000000600000000000-00-00+000000000000000002011-03-02+000000000000000002011-03-02 0000-00-00+00000000000000000+00000000000000000+00000000000016380MAD10000100000000+00000000000000000+00000000000000000+00000000000000000+00000000000000000                         0000-00-00MAD0000000000000
S350  001LSERV            2011-05-31                                                                                      99930   99910   10000   01000   BRIDS     30CC111000428                                                                                              074014507727                              119+0000000006000000040AJDID TARIK                             1980-01-01+100000+100000004  WAFA 2011-03-020101S01              +00000000000000000H04   +000000000+00000000000000000+00000000000000000+0000000002011-05-1500000-00-00+00000000059855040+00000000059855040+000000000600000000000-00-00+000000000000000002011-03-02+000000000000000002011-03-02 0000-00-00+00000000000000000+00000000000000000+00000000000000000MAD10000100000000+00000000000000000+00000000000000000+00000000000000000+00000000000000000                         0000-00-00MAD0000000000000
S350  001LSERV            2011-05-31                                                                                      99930   99910   10000   01000   BRIDS     30CC111000429                                                                                              074014507735                              119+0000000031000000001AJDID TARIK                             1977-09-08+100000+100000004  WAFA 2011-02-15                     +00000000000000000004   +000000000+00000000000000000+00000000000084970+0000273002011-05-1500000-00-00+00000000308011870+00000000309251000+000000003100000000000-00-00+000000000000000002011-03-02+000000000000000002011-03-02 0000-00-00+00000000000000000+00000000000000000+00000000000000540MAD10000100000000+00000000000000000+00000000000000000+00000000000000000+00000000000000000                         0000-00-00MAD0000000000000
S350  001LSERV            2011-05-31                                                                                      99930   99910   10000   01000   BRIDS     30CC111000429                                                                                              074014507735                              119+0000000031000000040AJDID TARIK                             1977-09-08+100000+100000004  WAFA 2011-02-150101S01              +00000000000000000H04   +000000000+00000000000000000+00000000000000000+0000000002011-05-1500000-00-00+00000000308011870+00000000309251000+000000003100000000000-00-00+000000000000000002011-03-02+000000000000000002011-03-02 0000-00-00+00000000000000000+00000000000000000+00000000000000000MAD10000100000000+00000000000000000+00000000000000000+00000000000000000+00000000000000000                         0000-00-00MAD0000000000000
S350  001LSERV            2011-05-31                                                                                      99930   99919   03000   10900   BRIDS     30CC111000430                                                                                              074013641801                              060+0000000001000000001EL YOUSFI BRAHIM                        1994-01-17+100000+100000004  WAFA 2010-01-01                     +00000000000000000003   +000000000+00000000000000000+00000000000000000+0000000000000-00-0000000-00-00+00000000000000000+00000000000000000+000000000000000000000-00-00+000000000000000002011-03-02+000000000000000000000-00-00 0000-00-00+00000000000000000+00000000000000000+00000000000000000MAD10000100000000+00000000000000000+00000000000000000+00000000000000000+00000000000000000                         0000-00-00MAD0000000000000
S350  001LSERV            2011-05-31                                                                                      99930   99919   03000   10900   BRIDS     30CC111000430                                                                                              074013641801                              060+0000000001000000040EL YOUSFI BRAHIM                        1994-01-17+100000+100000004  WAFA 2010-01-010101S01              +00000000000000000H03   +000000000+00000000000000000+00000000000000000+0000000000000-00-0000000-00-00+00000000000000000+00000000000000000+000000000000000000000-00-00+000000000000000002011-03-02+000000000000000000000-00-00 0000-00-00+00000000000000000+00000000000000000+00000000000000000MAD10000100000000+00000000000000000+00000000000000000+00000000000000000+00000000000000000                         0000-00-00MAD0000000000000
S350  001LSERV            2011-05-31                                                                                      99930   99910   10000   01000   BRIDS     30CC111000434                                                                                              074014507747                              120+0000000007500000001OUASSINI MOHAMED                        1970-02-15+100000+100000004  WAFA 2011-03-03                     +00000000000000000005   +000000000+00000000000000000+00000000000045650+0000606002011-05-1500000-00-00+00000000074858960+00000000074858960+000000000750000000000-00-00+000000000000000002011-03-03+000000000000000002011-03-03 0000-00-00+00000000000000000+00000000000000000+00000000000045450MAD10000100000000+00000000000000000+00000000000000000+00000000000000000+00000000000000000                         0000-00-00MAD0000000000000
S350  001LSERV            2011-05-31                                                                                      99930   99910   10000   01000   BRIDS     30CC111000434                                                                                              074014507747                              120+0000000007500000040OUASSINI MOHAMED                        1970-02-15+100000+100000004  WAFA 2011-03-030101S01              +00000000000000000H05   +000000000+00000000000000000+00000000000000000+0000000002011-05-1500000-00-00+00000000074858960+00000000074858960+000000000750000000000-00-00+000000000000000002011-03-03+000000000000000002011-03-03 0000-00-00+00000000000000000+00000000000000000+00000000000000000MAD10000100000000+00000000000000000+00000000000000000+00000000000000000+00000000000000000                         0000-00-00MAD0000000000000
S350  001LSERV            2011-05-31                                                                                      99930   99910   10000   01000   BRIDS     30CC111000437                                                                                              074014507747                              119+0000000007500000001OUASSINI MOHAMED                        1970-02-15+100000+100000004  WAFA 2011-03-03                     +00000000000000000005   +000000000+00000000000000000+00000000000045650+0000606002011-05-1500000-00-00+00000000074853810+00000000074853810+000000000750000000000-00-00+000000000000000002011-03-03+000000000000000002011-03-03 0000-00-00+00000000000000000+00000000000000000+00000000000045450MAD10000100000000+00000000000000000+00000000000000000+00000000000000000+00000000000000000                         0000-00-00MAD0000000000000
S350  001LSERV            2011-05-31                                                                                      99930   99910   10000   01000   BRIDS     30CC111000437                                                                                              074014507747                              119+0000000007500000040OUASSINI MOHAMED                        1970-02-15+100000+100000004  WAFA 2011-03-030101S01              +00000000000000000H05   +000000000+00000000000000000+00000000000000000+0000000002011-05-1500000-00-00+00000000074853810+00000000074853810+000000000750000000000-00-00+000000000000000002011-03-03+000000000000000002011-03-03 0000-00-00+00000000000000000+00000000000000000+00000000000000000MAD10000100000000+00000000000000000+00000000000000000+00000000000000000+00000000000000000                         0000-00-00MAD0000000000000
S350  001LSERV            2011-05-31                                                                                      99930   99910   10000   01000   BRIDS     30CC111000440                                                                                              074014507747                              083+0000000003500000001OUASSINI MOHAMED                        1970-02-15+100000+100000004  WAFA 2011-03-04                     +00000000000000000005   +000000000+00000000000000000+00000000000015220+0000606002011-05-1500000-00-00+00000000024861200+00000000024861200+000000000350000000000-00-00+000000000000000002011-03-04+000000000000000002011-03-04 0000-00-00+00000000000000000+00000000000000000+00000000000015150MAD10000100000000+00000000000000000+00000000000000000+00000000000000000+00000000000000000                         0000-00-00MAD0000000000000
S350  001LSERV            2011-05-31                                                                                      99930   99910   10000   01000   BRIDS     30CC111000440                                                                                              074014507747                              083+0000000003500000040OUASSINI MOHAMED                        1970-02-15+100000+100000004  WAFA 2011-03-040101S01              +00000000000000000H05   +000000000+00000000000000000+00000000000000000+0000000002011-05-1500000-00-00+00000000024861200+00000000024861200+000000000350000000000-00-00+000000000000000002011-03-04+000000000000000002011-03-04 0000-00-00+00000000000000000+00000000000000000+00000000000000000MAD10000100000000+00000000000000000+00000000000000000+00000000000000000+00000000000000000                         0000-00-00MAD0000000000000
S350  001LSERV            2011-05-31                                                                                      99930   99910   10000   01000   BRIDS     30CC111000441                                                                                              074014507727                              119+0000000005000000001AJDID TARIK                             1980-01-01+100000+100000004  WAFA 2011-03-04                     +00000000000000000004   +000000000+00000000000000000+00000000000013700+0000273002011-05-1500000-00-00+00000000049879190+00000000049879190+000000000500000000000-00-00+000000000000000002011-03-04+000000000000000002011-03-04 0000-00-00+00000000000000000+00000000000000000+00000000000013650MAD10000100000000+00000000000000000+00000000000000000+00000000000000000+00000000000000000                         0000-00-00MAD0000000000000
S350  001LSERV            2011-05-31                                                                                      99930   99910   10000   01000   BRIDS     30CC111000441                                                                                              074014507727                              119+0000000005000000040AJDID TARIK                             1980-01-01+100000+100000004  WAFA 2011-03-040101S01              +00000000000000000H04   +000000000+00000000000000000+00000000000000000+0000000002011-05-1500000-00-00+00000000049879190+00000000049879190+000000000500000000000-00-00+000000000000000002011-03-04+000000000000000002011-03-04 0000-00-00+00000000000000000+00000000000000000+00000000000000000MAD10000100000000+00000000000000000+00000000000000000+00000000000000000+00000000000000000                         0000-00-00MAD0000000000000
S350  001LSERV            2011-05-31                                                                                      99930   99910   10000   01000   BRIDS     30CC111000442                                                                                              074014507750                              083+0000000015000000001AAMOUM MOHAMMED                         1980-01-01+100000+100000004  WAFA 2011-03-04                     +00000000000000000004   +000000000+00000000000000000+00000000000041110+0000273002011-05-1500000-00-00+00000000149096080+00000000149096080+000000001500000000000-00-00+000000000000000002011-03-04+000000000000000002011-03-04 0000-00-00+00000000000000000+00000000000000000+00000000000040950MAD10000100000000+00000000000000000+00000000000000000+00000000000000000+00000000000000000                         0000-00-00MAD0000000000000
S350  001LSERV            2011-05-31                                                                                      99930   99910   10000   01000   BRIDS     30CC111000442                                                                                              074014507750                              083+0000000015000000040AAMOUM MOHAMMED                         1980-01-01+100000+100000004  WAFA 2011-03-040101S01              +00000000000000000H04   +000000000+00000000000000000+00000000000000000+0000000002011-05-1500000-00-00+00000000149096080+00000000149096080+000000001500000000000-00-00+000000000000000002011-03-04+000000000000000002011-03-04 0000-00-00+00000000000000000+00000000000000000+00000000000000000MAD10000100000000+00000000000000000+00000000000000000+00000000000000000+00000000000000000                         0000-00-00MAD0000000000000
S350  001LSERV            2011-05-31                                                                                      99930   99910   10000   01000   BRIDS     30CC111000451                                                                                              074014507730                              047+0000000003500000001ASKARI FATIMA                           1987-01-01+100000+100000004  WAFA 2011-03-05                     +00000000000000000003   +000000000+00000000000000000+00000000000007980+0000227002011-05-1500000-00-00+00000000034463800+00000000034463800+000000000350000000000-00-00+000000000000000002011-03-05+000000000000000002011-03-05 0000-00-00+00000000000000000+00000000000000000+00000000000007950MAD10000100000000+00000000000000000+00000000000000000+00000000000000000+00000000000000000                         0000-00-00MAD0000000000000
S350  001LSERV            2011-05-31                                                                                      99930   99910   10000   01000   BRIDS     30CC111000451                                                                                              074014507730                              047+0000000003500000040ASKARI FATIMA                           1987-01-01+100000+100000004  WAFA 2011-03-050101S01              +00000000000000000H03   +000000000+00000000000000000+00000000000000000+0000000002011-05-1500000-00-00+00000000034463800+00000000034463800+000000000350000000000-00-00+000000000000000002011-03-05+000000000000000002011-03-05 0000-00-00+00000000000000000+00000000000000000+00000000000000000MAD10000100000000+00000000000000000+00000000000000000+00000000000000000+00000000000000000                         0000-00-00MAD0000000000000
S350  001LSERV            2011-05-31                                                                                      99930   99910   10000   01000   BRIDS     30CC111000453                                                                                              074014507750                              083+0000000005000000001AAMOUM MOHAMMED                         1980-01-01+100000+100000004  WAFA 2011-03-05                     +00000000000000000004   +000000000+00000000000000000+00000000000013700+0000273002011-05-1500000-00-00+00000000049698690+00000000049698690+000000000500000000000-00-00+000000000000000002011-03-05+000000000000000002011-03-05 0000-00-00+00000000000000000+00000000000000000+00000000000013650MAD10000100000000+00000000000000000+00000000000000000+00000000000000000+00000000000000000                         0000-00-00MAD0000000000000
S350  001LSERV            2011-05-31                                                                                      99930   99910   10000   01000   BRIDS     30CC111000453                                                                                              074014507750                              083+0000000005000000040AAMOUM MOHAMMED                         1980-01-01+100000+100000004  WAFA 2011-03-050101S01              +00000000000000000H04   +000000000+00000000000000000+00000000000000000+0000000002011-05-1500000-00-00+00000000049698690+00000000049698690+000000000500000000000-00-00+000000000000000002011-03-05+000000000000000002011-03-05 0000-00-00+00000000000000000+00000000000000000+00000000000000000MAD10000100000000+00000000000000000+00000000000000000+00000000000000000+00000000000000000                         0000-00-00MAD0000000000000
S350  001LSERV            2011-05-31                                                                                      99930   99910   10000   01000   BRIDS     30CC111000468                                                                                              074014507747                              119+0000000022000000001OUASSINI MOHAMED                        1970-02-15+100000+100000004  WAFA 2011-03-06                     +00000000000000000005   +000000000+00000000000000000+00000000000133900+0000606002011-05-1500000-00-00+00000000219400630+00000000219400630+000000002200000000000-00-00+000000000000000002011-03-06+000000000000000002011-03-06 0000-00-00+00000000000000000+00000000000000000+00000000000133320MAD10000100000000+00000000000000000+00000000000000000+00000000000000000+00000000000000000                         0000-00-00MAD0000000000000
S350  001LSERV            2011-05-31                                                                                      99930   99910   10000   01000   BRIDS     30CC111000468                                                                                              074014507747                              119+0000000022000000040OUASSINI MOHAMED                        1970-02-15+100000+100000004  WAFA 2011-03-060101S01              +00000000000000000H05   +000000000+00000000000000000+00000000000000000+0000000002011-05-1500000-00-00+00000000219400630+00000000219400630+000000002200000000000-00-00+000000000000000002011-03-06+000000000000000002011-03-06 0000-00-00+00000000000000000+00000000000000000+00000000000000000MAD10000100000000+00000000000000000+00000000000000000+00000000000000000+00000000000000000                         0000-00-00MAD0000000000000
S350  001LSERV            2011-05-31                                                                                      99930   99910   10000   01000   BRIDS     30CC111000469                                                                                              074014507753                              119+0000000014000000001BOUZAIDI ACHRAF                         1980-01-01+100000+100000004  WAFA 2011-03-06                     +00000000000000000004   +000000000+00000000000000000+00000000000038370+0000273002011-05-1500000-00-00+00000000139661730+00000000139661730+000000001400000000000-00-00+000000000000000002011-03-06+000000000000000002011-03-06 0000-00-00+00000000000000000+00000000000000000+00000000000038220MAD10000100000000+00000000000000000+00000000000000000+00000000000000000+00000000000000000                         0000-00-00MAD0000000000000
S350  001LSERV            2011-05-31                                                                                      99930   99910   10000   01000   BRIDS     30CC111000469                                                                                              074014507753                              119+0000000014000000040BOUZAIDI ACHRAF                         1980-01-01+100000+100000004  WAFA 2011-03-060101S01              +00000000000000000H04   +000000000+00000000000000000+00000000000000000+0000000002011-05-1500000-00-00+00000000139661730+00000000139661730+000000001400000000000-00-00+000000000000000002011-03-06+000000000000000002011-03-06 0000-00-00+00000000000000000+00000000000000000+00000000000000000MAD10000100000000+00000000000000000+00000000000000000+00000000000000000+00000000000000000                         0000-00-00MAD0000000000000
S350  001LSERV            2011-05-31                                                                                      99930   99910   10000   01000   BRIDS     30CC111000478                                                                                              074014507728                              119+0000000020000000001AJDID TARIK                             1960-01-01+100000+100000004  WAFA 2011-03-06                     +00000000000000000006   +000000000+00000000000000000+00000000000275400+0001370002011-05-1500000-00-00+00000000199822780+00000000199822780+000000002000000000000-00-00+000000000000000002011-03-06+000000000000000002011-03-06 0000-00-00+00000000000000000+00000000000000000+00000000000274000MAD10000100000000+00000000000000000+00000000000000000+00000000000000000+00000000000000000                         0000-00-00MAD0000000000000
S350  001LSERV            2011-05-31                                                                                      99930   99910   10000   01000   BRIDS     30CC111000478                                                                                              074014507728                              119+0000000020000000040AJDID TARIK                             1960-01-01+100000+100000004  WAFA 2011-03-060101S01              +00000000000000000H06   +000000000+00000000000000000+00000000000000000+0000000002011-05-1500000-00-00+00000000199822780+00000000199822780+000000002000000000000-00-00+000000000000000002011-03-06+000000000000000002011-03-06 0000-00-00+00000000000000000+00000000000000000+00000000000000000MAD10000100000000+00000000000000000+00000000000000000+00000000000000000+00000000000000000                         0000-00-00MAD0000000000000
S350  001LSERV            2011-05-31                                                                                      99930   99910   10000   01000   BRIDS     30CC111000479                                                                                              074014507744                              072+0000000005000000001AIT BOURJ EL HABIB                      1986-05-09+100000+100000004  WAFA 2011-03-06                     +00000000000000000003   +000000000+00000000000000000+00000000000000000+0000000000000-00-0000000-00-00+00000000000000000+00000000000000000+000000000000000000000-00-00+000000000000000002011-03-06+000000000000000000000-00-00 0000-00-00+00000000000000000+00000000000000000+00000000000000000MAD10000100000000+00000000000000000+00000000000000000+00000000000000000+00000000000000000                         0000-00-00MAD0000000000000
S350  001LSERV            2011-05-31                                                                                      99930   99910   10000   01000   BRIDS     30CC111000479                                                                                              074014507744                              072+0000000005000000040AIT BOURJ EL HABIB                      1986-05-09+100000+100000004  WAFA 2011-03-060101S01              +00000000000000000H03   +000000000+00000000000000000+00000000000000000+0000000000000-00-0000000-00-00+00000000000000000+00000000000000000+000000000000000000000-00-00+000000000000000002011-03-06+000000000000000000000-00-00 0000-00-00+00000000000000000+00000000000000000+00000000000000000MAD10000100000000+00000000000000000+00000000000000000+00000000000000000+00000000000000000                         0000-00-00MAD0000000000000
S350  001LSERV            2011-05-31                                                                                      99930   99910   10000   01000   BRIDS     30CC111000482                                                                                              074014507744                              072+0000000003000000001AIT BOURJ EL HABIB                      1986-05-09+100000+100000004  WAFA 2011-03-06                     +00000000000000000003   +000000000+00000000000000000+00000000000000000+0000000000000-00-0000000-00-00+00000000000000000+00000000000000000+000000000000000000000-00-00+000000000000000002011-03-06+000000000000000000000-00-00 0000-00-00+00000000000000000+00000000000000000+00000000000000000MAD10000100000000+00000000000000000+00000000000000000+00000000000000000+00000000000000000                         0000-00-00MAD0000000000000
S350  001LSERV            2011-05-31                                                                                      99930   99910   10000   01000   BRIDS     30CC111000482                                                                                              074014507744                              072+0000000003000000040AIT BOURJ EL HABIB                      1986-05-09+100000+100000004  WAFA 2011-03-060101S01              +00000000000000000H03   +000000000+00000000000000000+00000000000000000+0000000000000-00-0000000-00-00+00000000000000000+00000000000000000+000000000000000000000-00-00+000000000000000002011-03-06+000000000000000000000-00-00 0000-00-00+00000000000000000+00000000000000000+00000000000000000MAD10000100000000+00000000000000000+00000000000000000+00000000000000000+00000000000000000                         0000-00-00MAD0000000000000
S350  001LSERV            2011-05-31                                                                                      99930   99910   10000   01000   BRIDS     30CC111000483                                                                                              074014507730                              083+0000000005000000001ASKARI FATIMA                           1987-01-01+100000+100000004  WAFA 2011-03-06                     +00000000000000000003   +000000000+00000000000000000+00000000000011400+0000227002011-05-1500000-00-00+00000000049695430+00000000049695430+000000000500000000000-00-00+000000000000000002011-03-06+000000000000000002011-03-06 0000-00-00+00000000000000000+00000000000000000+00000000000011350MAD10000100000000+00000000000000000+00000000000000000+00000000000000000+00000000000000000                         0000-00-00MAD0000000000000
